{
  "contractName": "ProductManager",
  "abi": [
    {
      "inputs": [],
      "stateMutability": "nonpayable",
      "type": "constructor"
    },
    {
      "anonymous": false,
      "inputs": [
        {
          "indexed": true,
          "internalType": "address",
          "name": "previousOwner",
          "type": "address"
        },
        {
          "indexed": true,
          "internalType": "address",
          "name": "newOwner",
          "type": "address"
        }
      ],
      "name": "OwnershipTransferred",
      "type": "event"
    },
    {
      "anonymous": false,
      "inputs": [
        {
          "indexed": true,
          "internalType": "uint256",
          "name": "productId",
          "type": "uint256"
        },
        {
          "indexed": false,
          "internalType": "string",
          "name": "productName",
          "type": "string"
        }
      ],
      "name": "ProductCreated",
      "type": "event"
    },
    {
      "anonymous": false,
      "inputs": [
        {
          "indexed": true,
          "internalType": "uint256",
          "name": "productId",
          "type": "uint256"
        },
        {
          "indexed": true,
          "internalType": "address",
          "name": "previousOwner",
          "type": "address"
        },
        {
          "indexed": true,
          "internalType": "address",
          "name": "newOwner",
          "type": "address"
        }
      ],
      "name": "ProductOwnershipTransferred",
      "type": "event"
    },
    {
      "anonymous": false,
      "inputs": [
        {
          "indexed": true,
          "internalType": "address",
          "name": "user",
          "type": "address"
        },
        {
          "indexed": true,
          "internalType": "uint256",
          "name": "role",
          "type": "uint256"
        }
      ],
      "name": "RoleAssigned",
      "type": "event"
    },
    {
      "anonymous": false,
      "inputs": [
        {
          "indexed": true,
          "internalType": "address",
          "name": "user",
          "type": "address"
        },
        {
          "indexed": true,
          "internalType": "uint256",
          "name": "oldRole",
          "type": "uint256"
        }
      ],
      "name": "RoleRevoked",
      "type": "event"
    },
    {
      "anonymous": false,
      "inputs": [
        {
          "indexed": true,
          "internalType": "address",
          "name": "addr",
          "type": "address"
        }
      ],
      "name": "WhitelistedAddressAdded",
      "type": "event"
    },
    {
      "anonymous": false,
      "inputs": [
        {
          "indexed": true,
          "internalType": "address",
          "name": "addr",
          "type": "address"
        }
      ],
      "name": "WhitelistedAddressRemoved",
      "type": "event"
    },
    {
      "inputs": [
        {
          "internalType": "address",
          "name": "addr",
          "type": "address"
        }
      ],
      "name": "addAddressToWhitelist",
      "outputs": [],
      "stateMutability": "nonpayable",
      "type": "function"
    },
    {
      "inputs": [
        {
          "internalType": "address",
          "name": "user",
          "type": "address"
        },
        {
          "internalType": "uint256",
          "name": "role",
          "type": "uint256"
        }
      ],
      "name": "assignRole",
      "outputs": [],
      "stateMutability": "nonpayable",
      "type": "function"
    },
    {
      "inputs": [
        {
          "internalType": "address",
          "name": "addr",
          "type": "address"
        }
      ],
      "name": "isWhitelisted",
      "outputs": [
        {
          "internalType": "bool",
          "name": "",
          "type": "bool"
        }
      ],
      "stateMutability": "view",
      "type": "function",
      "constant": true
    },
    {
      "inputs": [],
      "name": "nextProductId",
      "outputs": [
        {
          "internalType": "uint256",
          "name": "",
          "type": "uint256"
        }
      ],
      "stateMutability": "view",
      "type": "function",
      "constant": true
    },
    {
      "inputs": [],
      "name": "owner",
      "outputs": [
        {
          "internalType": "address",
          "name": "",
          "type": "address"
        }
      ],
      "stateMutability": "view",
      "type": "function",
      "constant": true
    },
    {
      "inputs": [
        {
          "internalType": "uint256",
          "name": "",
          "type": "uint256"
        }
      ],
      "name": "products",
      "outputs": [
        {
          "internalType": "uint256",
          "name": "id",
          "type": "uint256"
        },
        {
          "internalType": "string",
          "name": "name",
          "type": "string"
        },
        {
          "internalType": "uint256",
          "name": "lotNumber",
          "type": "uint256"
        },
        {
          "internalType": "uint256",
          "name": "totalPerLot",
          "type": "uint256"
        },
        {
          "internalType": "address",
          "name": "manufacturer",
          "type": "address"
        },
        {
          "internalType": "address",
          "name": "currentOwner",
          "type": "address"
        },
        {
          "internalType": "uint256",
          "name": "purchaseDate",
          "type": "uint256"
        }
      ],
      "stateMutability": "view",
      "type": "function",
      "constant": true
    },
    {
      "inputs": [
        {
          "internalType": "address",
          "name": "addr",
          "type": "address"
        }
      ],
      "name": "removeAddressFromWhitelist",
      "outputs": [],
      "stateMutability": "nonpayable",
      "type": "function"
    },
    {
      "inputs": [
        {
          "internalType": "address",
          "name": "user",
          "type": "address"
        }
      ],
      "name": "revokeRole",
      "outputs": [],
      "stateMutability": "nonpayable",
      "type": "function"
    },
    {
      "inputs": [
        {
          "internalType": "address",
          "name": "",
          "type": "address"
        }
      ],
      "name": "roles",
      "outputs": [
        {
          "internalType": "uint256",
          "name": "",
          "type": "uint256"
        }
      ],
      "stateMutability": "view",
      "type": "function",
      "constant": true
    },
    {
      "inputs": [
        {
          "internalType": "address",
          "name": "newOwner",
          "type": "address"
        }
      ],
      "name": "transferOwnership",
      "outputs": [],
      "stateMutability": "nonpayable",
      "type": "function"
    },
    {
      "inputs": [
        {
          "internalType": "string",
          "name": "name",
          "type": "string"
        },
        {
          "internalType": "uint256",
          "name": "lotNumber",
          "type": "uint256"
        },
        {
          "internalType": "uint256",
          "name": "totalPerLot",
          "type": "uint256"
        },
        {
          "internalType": "address",
          "name": "manufacturer",
          "type": "address"
        }
      ],
      "name": "createProduct",
      "outputs": [],
      "stateMutability": "nonpayable",
      "type": "function"
    },
    {
      "inputs": [
        {
          "internalType": "uint256",
          "name": "productId",
          "type": "uint256"
        },
        {
          "internalType": "address",
          "name": "newOwner",
          "type": "address"
        }
      ],
      "name": "transferProductOwnership",
      "outputs": [],
      "stateMutability": "nonpayable",
      "type": "function"
    },
    {
      "inputs": [
        {
          "internalType": "uint256",
          "name": "productId",
          "type": "uint256"
        }
      ],
      "name": "getProductDetails",
      "outputs": [
        {
          "components": [
            {
              "internalType": "uint256",
              "name": "id",
              "type": "uint256"
            },
            {
              "internalType": "string",
              "name": "name",
              "type": "string"
            },
            {
              "internalType": "uint256",
              "name": "lotNumber",
              "type": "uint256"
            },
            {
              "internalType": "uint256",
              "name": "totalPerLot",
              "type": "uint256"
            },
            {
              "internalType": "address",
              "name": "manufacturer",
              "type": "address"
            },
            {
              "internalType": "address",
              "name": "currentOwner",
              "type": "address"
            },
            {
              "internalType": "uint256",
              "name": "purchaseDate",
              "type": "uint256"
            }
          ],
          "internalType": "struct ProductManager.Product",
          "name": "",
          "type": "tuple"
        }
      ],
      "stateMutability": "view",
      "type": "function",
      "constant": true
    }
  ],
  "bytecode": "0x608060405234801561001057600080fd5b50600080546001600160a01b0319163390811782556040519091907f8be0079c531659141344cd1fd0a4f28419497f9722a3daafe3b4186f6b6457e0908290a3600060045561113f806100646000396000f3fe608060405234801561001057600080fd5b50600436106100cf5760003560e01c80637acc0b201161008c57806386b0e8121161006657806386b0e812146101b95780638da5cb5b146101cc57806399374642146101e1578063f2fde38b146101f4576100cf565b80637acc0b201461016d5780637b9417c81461019357806380e52e3f146101a6576100cf565b8063286dd3f5146100d45780632e3036c7146100e95780633af32abf146100fc5780634de91a63146101255780636813b53b1461013a57806372c606901461015a575b600080fd5b6100e76100e2366004610bde565b610207565b005b6100e76100f7366004610bf8565b6102a9565b61010f61010a366004610bde565b61031a565b60405161011c9190610d87565b60405180910390f35b61012d61033c565b60405161011c919061103e565b61014d610148366004610ce5565b610342565b60405161011c9190610fcb565b6100e7610168366004610c21565b610486565b61018061017b366004610ce5565b610646565b60405161011c9796959493929190611047565b6100e76101a1366004610bde565b61072a565b6100e76101b4366004610bde565b6107c9565b6100e76101c7366004610cfd565b610842565b6101d46109dd565b60405161011c9190610d73565b61012d6101ef366004610bde565b6109ec565b6100e7610202366004610bde565b6109fe565b6000546001600160a01b0316331461023a5760405162461bcd60e51b815260040161023190610e71565b60405180910390fd5b6001600160a01b0381166102605760405162461bcd60e51b815260040161023190610f7e565b6001600160a01b038116600081815260016020526040808220805460ff19169055517ff1abf01a1043b7c244d128e8595cf0c1d10743b022b03a02dffd8ca3bf729f5a9190a250565b6000546001600160a01b031633146102d35760405162461bcd60e51b815260040161023190610e71565b6001600160a01b038216600081815260026020526040808220849055518392917fe2ac27c5c810aead8fa29780fdca1995888a2f0e6b8128a1316e116960b009f891a35050565b6001600160a01b03811660009081526001602052604090205460ff165b919050565b60045481565b61034a610adf565b600454821061036b5760405162461bcd60e51b815260040161023190610eec565b6003828154811061038c57634e487b7160e01b600052603260045260246000fd5b90600052602060002090600702016040518060e0016040529081600082015481526020016001820180546103bf906110b8565b80601f01602080910402602001604051908101604052809291908181526020018280546103eb906110b8565b80156104385780601f1061040d57610100808354040283529160200191610438565b820191906000526020600020905b81548152906001019060200180831161041b57829003601f168201915b5050509183525050600282015460208201526003820154604082015260048201546001600160a01b039081166060830152600583015416608082015260069091015460a09091015292915050565b3360009081526002602081905260409091205481146104b75760405162461bcd60e51b815260040161023190610ea6565b6104c08261031a565b6104dc5760405162461bcd60e51b815260040161023190610f2e565b6040805160e08101825260045481526020808201888152928201879052606082018690526001600160a01b0385166080830181905260a08301524260c083015260038054600181018255600091909152825160079091027fc2575a0e9e593c00f959f8c92f12db2869c3395a3b0502d05e2516446f71f85b81019182559351805193949193610594937fc2575a0e9e593c00f959f8c92f12db2869c3395a3b0502d05e2516446f71f85c909301929190910190610b2e565b506040828101516002830155606083015160038301556080830151600480840180546001600160a01b039384166001600160a01b03199182161790915560a08601516005860180549190941691161790915560c090930151600690920191909155905490517f543247085674b00368d9cd41416be705a4c27143c024163a6f58bf12a41992f590610626908890610d92565b60405180910390a260045461063c906001610aa9565b6004555050505050565b6003818154811061065657600080fd5b6000918252602090912060079091020180546001820180549193509061067b906110b8565b80601f01602080910402602001604051908101604052809291908181526020018280546106a7906110b8565b80156106f45780601f106106c9576101008083540402835291602001916106f4565b820191906000526020600020905b8154815290600101906020018083116106d757829003601f168201915b505050506002830154600384015460048501546005860154600690960154949592949193506001600160a01b0390811692169087565b6000546001600160a01b031633146107545760405162461bcd60e51b815260040161023190610e71565b6001600160a01b03811661077a5760405162461bcd60e51b815260040161023190610f7e565b6001600160a01b0381166000818152600160208190526040808320805460ff1916909217909155517fd1bba68c128cc3f427e5831b3c6f99f480b6efa6b9e80c757768f6124158cc3f9190a250565b6000546001600160a01b031633146107f35760405162461bcd60e51b815260040161023190610e71565b6001600160a01b03811660008181526002602052604080822080549083905590519092839290917f12982f922b0573398129ea86655ce1e8e425ec676c9e3d40bf5458688b1ef5449190a35050565b6003828154811061086357634e487b7160e01b600052603260045260246000fd5b60009182526020909120600790910201600501546001600160a01b0316331461089e5760405162461bcd60e51b815260040161023190610e22565b60045482106108bf5760405162461bcd60e51b815260040161023190610eec565b6000600383815481106108e257634e487b7160e01b600052603260045260246000fd5b906000526020600020906007020160050160009054906101000a90046001600160a01b03169050816003848154811061092b57634e487b7160e01b600052603260045260246000fd5b906000526020600020906007020160050160006101000a8154816001600160a01b0302191690836001600160a01b03160217905550426003848154811061098257634e487b7160e01b600052603260045260246000fd5b906000526020600020906007020160060181905550816001600160a01b0316816001600160a01b0316847f4b0e9e82ed087a40d368998aacab3a2798626e8d60b60fbc6f1bbcdaf3eaa02d60405160405180910390a4505050565b6000546001600160a01b031690565b60026020526000908152604090205481565b6000546001600160a01b03163314610a285760405162461bcd60e51b815260040161023190610e71565b6001600160a01b038116610a4e5760405162461bcd60e51b815260040161023190610da5565b600080546040516001600160a01b03808516939216917f8be0079c531659141344cd1fd0a4f28419497f9722a3daafe3b4186f6b6457e091a3600080546001600160a01b0319166001600160a01b0392909216919091179055565b600080610ab68385611094565b905083811015610ad85760405162461bcd60e51b815260040161023190610deb565b9392505050565b6040518060e001604052806000815260200160608152602001600081526020016000815260200160006001600160a01b0316815260200160006001600160a01b03168152602001600081525090565b828054610b3a906110b8565b90600052602060002090601f016020900481019282610b5c5760008555610ba2565b82601f10610b7557805160ff1916838001178555610ba2565b82800160010185558215610ba2579182015b82811115610ba2578251825591602001919060010190610b87565b50610bae929150610bb2565b5090565b5b80821115610bae5760008155600101610bb3565b80356001600160a01b038116811461033757600080fd5b600060208284031215610bef578081fd5b610ad882610bc7565b60008060408385031215610c0a578081fd5b610c1383610bc7565b946020939093013593505050565b60008060008060808587031215610c36578182fd5b843567ffffffffffffffff80821115610c4d578384fd5b818701915087601f830112610c60578384fd5b8135602082821115610c7457610c746110f3565b604051601f8301601f1916810182018481118282101715610c9757610c976110f3565b60405282815284830182018b1015610cad578687fd5b828286018383013791820181019590955295505050908401359150604084013590610cda60608601610bc7565b905092959194509250565b600060208284031215610cf6578081fd5b5035919050565b60008060408385031215610d0f578182fd5b82359150610d1f60208401610bc7565b90509250929050565b60008151808452815b81811015610d4d57602081850181015186830182015201610d31565b81811115610d5e5782602083870101525b50601f01601f19169290920160200192915050565b6001600160a01b0391909116815260200190565b901515815260200190565b600060208252610ad86020830184610d28565b60208082526026908201527f4f776e61626c653a206e6577206f776e657220697320746865207a65726f206160408201526564647265737360d01b606082015260800190565b6020808252601b908201527f536166654d6174683a206164646974696f6e206f766572666c6f770000000000604082015260600190565b6020808252602f908201527f50726f647563744d616e616765723a2063616c6c6572206973206e6f7420746860408201526e3290383937b23ab1ba1037bbb732b960891b606082015260800190565b6020808252818101527f4f776e61626c653a2063616c6c6572206973206e6f7420746865206f776e6572604082015260600190565b60208082526026908201527f416363657373436f6e74726f6c3a20696e73756666696369656e74207065726d60408201526534b9b9b4b7b760d11b606082015260800190565b60208082526022908201527f50726f647563744d616e616765723a20696e76616c69642070726f6475637420604082015261125160f21b606082015260800190565b60208082526030908201527f50726f647563744d616e616765723a204d616e756661637475726572206d757360408201526f1d081899481dda1a5d195b1a5cdd195960821b606082015260800190565b6020808252602d908201527f57686974656c6973744d616e616765723a20616464726573732069732074686560408201526c207a65726f206164647265737360981b606082015260800190565b60006020825282516020830152602083015160e06040840152610ff2610100840182610d28565b90506040840151606084015260608401516080840152608084015160018060a01b0380821660a08601528060a08701511660c0860152505060c084015160e08401528091505092915050565b90815260200190565b600088825260e0602083015261106060e0830189610d28565b60408301979097525060608101949094526001600160a01b039283166080850152911660a083015260c09091015292915050565b600082198211156110b357634e487b7160e01b81526011600452602481fd5b500190565b6002810460018216806110cc57607f821691505b602082108114156110ed57634e487b7160e01b600052602260045260246000fd5b50919050565b634e487b7160e01b600052604160045260246000fdfea2646970667358221220cd91327c0780abf0529ef5bf4b928b56684a0f273803a8e91571705dd84eccad64736f6c63430008000033",
  "immutableReferences": {},
  "source": "// SPDX-License-Identifier: MIT\r\npragma solidity ^0.8.0;\r\n\r\nimport \"./Ownable.sol\";\r\nimport \"./WhitelistManager.sol\";\r\nimport \"./AccessControl.sol\";\r\nimport \"./SafeMath.sol\";\r\n\r\ncontract ProductManager is Ownable, WhitelistManager, AccessControl {\r\n    using SafeMath for uint256;\r\n\r\n    struct Product {\r\n        uint256 id;\r\n        string name;\r\n        uint256 lotNumber;\r\n        uint256 totalPerLot;\r\n        address manufacturer;\r\n        address currentOwner;\r\n        uint256 purchaseDate;\r\n    }\r\n\r\n    Product[] public products;\r\n    uint256 public nextProductId;\r\n\r\n    event ProductCreated(uint256 indexed productId, string productName);\r\n    event ProductOwnershipTransferred(uint256 indexed productId, address indexed previousOwner, address indexed newOwner);\r\n\r\n    constructor() {\r\n        nextProductId = 0;\r\n    }\r\n\r\n    function createProduct(string memory name, uint256 lotNumber, uint256 totalPerLot, address manufacturer) public onlyRole(2) { // Assuming role 2 is Manufacturer\r\n        require(isWhitelisted(manufacturer), \"ProductManager: Manufacturer must be whitelisted\");\r\n        products.push(Product({\r\n            id: nextProductId,\r\n            name: name,\r\n            lotNumber: lotNumber,\r\n            totalPerLot: totalPerLot,\r\n            manufacturer: manufacturer,\r\n            currentOwner: manufacturer,\r\n            purchaseDate: block.timestamp\r\n        }));\r\n        emit ProductCreated(nextProductId, name);\r\n        nextProductId = nextProductId.add(1);\r\n    }\r\n\r\n    function transferProductOwnership(uint256 productId, address newOwner) public {\r\n        require(msg.sender == products[productId].currentOwner, \"ProductManager: caller is not the product owner\");\r\n        require(productId < nextProductId, \"ProductManager: invalid product ID\");\r\n\r\n        address previousOwner = products[productId].currentOwner;\r\n        products[productId].currentOwner = newOwner;\r\n        products[productId].purchaseDate = block.timestamp;\r\n        emit ProductOwnershipTransferred(productId, previousOwner, newOwner);\r\n    }\r\n\r\n    function getProductDetails(uint256 productId) public view returns (Product memory) {\r\n        require(productId < nextProductId, \"ProductManager: invalid product ID\");\r\n        return products[productId];\r\n    }\r\n}\r\n",
  "sourcePath": "C:\\Users\\e.lazarz\\Desktop\\smartContract\\contracts\\ProductManager.sol",
  "compiler": {
    "name": "solc",
    "version": "0.8.0+commit.c7dfd78e.Emscripten.clang"
  },
  "schemaVersion": "3.4.16",
  "updatedAt": "2024-04-19T16:25:15.735Z",
  "networkType": "ethereum",
  "devdoc": {
    "kind": "dev",
    "methods": {},
    "version": 1
  },
  "userdoc": {
    "kind": "user",
    "methods": {},
    "version": 1
  }
}