{
	"contracts/ProductManager.sol": {
		"ProductManager": {
			"abi": [
				{
					"inputs": [],
					"stateMutability": "nonpayable",
					"type": "constructor"
				},
				{
					"anonymous": false,
					"inputs": [
						{
							"indexed": true,
							"internalType": "uint256",
							"name": "productId",
							"type": "uint256"
						},
						{
							"indexed": true,
							"internalType": "address",
							"name": "previousOwner",
							"type": "address"
						},
						{
							"indexed": true,
							"internalType": "address",
							"name": "newOwner",
							"type": "address"
						}
					],
					"name": "OwnershipTransferred",
					"type": "event"
				},
				{
					"anonymous": false,
					"inputs": [
						{
							"indexed": true,
							"internalType": "address",
							"name": "previousOwner",
							"type": "address"
						},
						{
							"indexed": true,
							"internalType": "address",
							"name": "newOwner",
							"type": "address"
						}
					],
					"name": "OwnershipTransferred",
					"type": "event"
				},
				{
					"anonymous": false,
					"inputs": [
						{
							"indexed": true,
							"internalType": "uint256",
							"name": "productId",
							"type": "uint256"
						},
						{
							"indexed": false,
							"internalType": "string",
							"name": "productName",
							"type": "string"
						}
					],
					"name": "ProductCreated",
					"type": "event"
				},
				{
					"anonymous": false,
					"inputs": [
						{
							"indexed": true,
							"internalType": "address",
							"name": "user",
							"type": "address"
						},
						{
							"indexed": true,
							"internalType": "uint256",
							"name": "role",
							"type": "uint256"
						}
					],
					"name": "RoleAssigned",
					"type": "event"
				},
				{
					"anonymous": false,
					"inputs": [
						{
							"indexed": true,
							"internalType": "address",
							"name": "user",
							"type": "address"
						},
						{
							"indexed": true,
							"internalType": "uint256",
							"name": "oldRole",
							"type": "uint256"
						}
					],
					"name": "RoleRevoked",
					"type": "event"
				},
				{
					"anonymous": false,
					"inputs": [
						{
							"indexed": true,
							"internalType": "address",
							"name": "addr",
							"type": "address"
						}
					],
					"name": "WhitelistedAddressAdded",
					"type": "event"
				},
				{
					"anonymous": false,
					"inputs": [
						{
							"indexed": true,
							"internalType": "address",
							"name": "addr",
							"type": "address"
						}
					],
					"name": "WhitelistedAddressRemoved",
					"type": "event"
				},
				{
					"inputs": [
						{
							"internalType": "address",
							"name": "addr",
							"type": "address"
						}
					],
					"name": "addAddressToWhitelist",
					"outputs": [],
					"stateMutability": "nonpayable",
					"type": "function"
				},
				{
					"inputs": [
						{
							"internalType": "address",
							"name": "user",
							"type": "address"
						},
						{
							"internalType": "uint256",
							"name": "role",
							"type": "uint256"
						}
					],
					"name": "assignRole",
					"outputs": [],
					"stateMutability": "nonpayable",
					"type": "function"
				},
				{
					"inputs": [
						{
							"internalType": "string",
							"name": "name",
							"type": "string"
						},
						{
							"internalType": "uint256",
							"name": "lotNumber",
							"type": "uint256"
						},
						{
							"internalType": "uint256",
							"name": "totalPerLot",
							"type": "uint256"
						},
						{
							"internalType": "address",
							"name": "manufacturer",
							"type": "address"
						}
					],
					"name": "createProduct",
					"outputs": [],
					"stateMutability": "nonpayable",
					"type": "function"
				},
				{
					"inputs": [
						{
							"internalType": "uint256",
							"name": "productId",
							"type": "uint256"
						}
					],
					"name": "getProductDetails",
					"outputs": [
						{
							"components": [
								{
									"internalType": "uint256",
									"name": "id",
									"type": "uint256"
								},
								{
									"internalType": "string",
									"name": "name",
									"type": "string"
								},
								{
									"internalType": "uint256",
									"name": "lotNumber",
									"type": "uint256"
								},
								{
									"internalType": "uint256",
									"name": "totalPerLot",
									"type": "uint256"
								},
								{
									"internalType": "address",
									"name": "manufacturer",
									"type": "address"
								},
								{
									"internalType": "address",
									"name": "currentOwner",
									"type": "address"
								},
								{
									"internalType": "uint256",
									"name": "purchaseDate",
									"type": "uint256"
								}
							],
							"internalType": "struct ProductManager.Product",
							"name": "",
							"type": "tuple"
						}
					],
					"stateMutability": "view",
					"type": "function"
				},
				{
					"inputs": [
						{
							"internalType": "address",
							"name": "addr",
							"type": "address"
						}
					],
					"name": "isWhitelisted",
					"outputs": [
						{
							"internalType": "bool",
							"name": "",
							"type": "bool"
						}
					],
					"stateMutability": "view",
					"type": "function"
				},
				{
					"inputs": [],
					"name": "nextProductId",
					"outputs": [
						{
							"internalType": "uint256",
							"name": "",
							"type": "uint256"
						}
					],
					"stateMutability": "view",
					"type": "function"
				},
				{
					"inputs": [],
					"name": "owner",
					"outputs": [
						{
							"internalType": "address",
							"name": "",
							"type": "address"
						}
					],
					"stateMutability": "view",
					"type": "function"
				},
				{
					"inputs": [
						{
							"internalType": "uint256",
							"name": "",
							"type": "uint256"
						}
					],
					"name": "products",
					"outputs": [
						{
							"internalType": "uint256",
							"name": "id",
							"type": "uint256"
						},
						{
							"internalType": "string",
							"name": "name",
							"type": "string"
						},
						{
							"internalType": "uint256",
							"name": "lotNumber",
							"type": "uint256"
						},
						{
							"internalType": "uint256",
							"name": "totalPerLot",
							"type": "uint256"
						},
						{
							"internalType": "address",
							"name": "manufacturer",
							"type": "address"
						},
						{
							"internalType": "address",
							"name": "currentOwner",
							"type": "address"
						},
						{
							"internalType": "uint256",
							"name": "purchaseDate",
							"type": "uint256"
						}
					],
					"stateMutability": "view",
					"type": "function"
				},
				{
					"inputs": [
						{
							"internalType": "address",
							"name": "addr",
							"type": "address"
						}
					],
					"name": "removeAddressFromWhitelist",
					"outputs": [],
					"stateMutability": "nonpayable",
					"type": "function"
				},
				{
					"inputs": [
						{
							"internalType": "address",
							"name": "user",
							"type": "address"
						}
					],
					"name": "revokeRole",
					"outputs": [],
					"stateMutability": "nonpayable",
					"type": "function"
				},
				{
					"inputs": [
						{
							"internalType": "address",
							"name": "",
							"type": "address"
						}
					],
					"name": "roles",
					"outputs": [
						{
							"internalType": "uint256",
							"name": "",
							"type": "uint256"
						}
					],
					"stateMutability": "view",
					"type": "function"
				},
				{
					"inputs": [
						{
							"internalType": "address",
							"name": "newOwner",
							"type": "address"
						}
					],
					"name": "transferOwnership",
					"outputs": [],
					"stateMutability": "nonpayable",
					"type": "function"
				},
				{
					"inputs": [
						{
							"internalType": "uint256",
							"name": "productId",
							"type": "uint256"
						},
						{
							"internalType": "address",
							"name": "newOwner",
							"type": "address"
						}
					],
					"name": "transferProductOwnership",
					"outputs": [],
					"stateMutability": "nonpayable",
					"type": "function"
				}
			],
			"devdoc": {
				"kind": "dev",
				"methods": {},
				"version": 1
			},
			"evm": {
				"assembly": "    /* \"contracts/ProductManager.sol\":178:2183  contract ProductManager is Ownable, WhitelistManager, AccessControl {\r... */\n  mstore(0x40, 0x80)\n    /* \"contracts/ProductManager.sol\":775:835  constructor() Ownable() {\r... */\n  callvalue\n  dup1\n  iszero\n  tag_1\n  jumpi\n  0x00\n  dup1\n  revert\ntag_1:\n  pop\n    /* \"contracts/Ownable.sol\":232:242  msg.sender */\n  caller\n    /* \"contracts/Ownable.sol\":223:229  _owner */\n  0x00\n  dup1\n    /* \"contracts/Ownable.sol\":223:242  _owner = msg.sender */\n  0x0100\n  exp\n  dup2\n  sload\n  dup2\n  0xffffffffffffffffffffffffffffffffffffffff\n  mul\n  not\n  and\n  swap1\n  dup4\n  0xffffffffffffffffffffffffffffffffffffffff\n  and\n  mul\n  or\n  swap1\n  sstore\n  pop\n    /* \"contracts/Ownable.sol\":290:300  msg.sender */\n  caller\n    /* \"contracts/Ownable.sol\":257:301  OwnershipTransferred(address(0), msg.sender) */\n  0xffffffffffffffffffffffffffffffffffffffff\n  and\n    /* \"contracts/Ownable.sol\":286:287  0 */\n  0x00\n    /* \"contracts/Ownable.sol\":257:301  OwnershipTransferred(address(0), msg.sender) */\n  0xffffffffffffffffffffffffffffffffffffffff\n  and\n  0x8be0079c531659141344cd1fd0a4f28419497f9722a3daafe3b4186f6b6457e0\n  mload(0x40)\n  mload(0x40)\n  dup1\n  swap2\n  sub\n  swap1\n  log3\n    /* \"contracts/ProductManager.sol\":826:827  0 */\n  0x00\n    /* \"contracts/ProductManager.sol\":810:823  nextProductId */\n  0x04\n    /* \"contracts/ProductManager.sol\":810:827  nextProductId = 0 */\n  dup2\n  swap1\n  sstore\n  pop\n    /* \"contracts/ProductManager.sol\":178:2183  contract ProductManager is Ownable, WhitelistManager, AccessControl {\r... */\n  dataSize(sub_0)\n  dup1\n  dataOffset(sub_0)\n  0x00\n  codecopy\n  0x00\n  return\nstop\n\nsub_0: assembly {\n        /* \"contracts/ProductManager.sol\":178:2183  contract ProductManager is Ownable, WhitelistManager, AccessControl {\r... */\n      mstore(0x40, 0x80)\n      callvalue\n      dup1\n      iszero\n      tag_1\n      jumpi\n      0x00\n      dup1\n      revert\n    tag_1:\n      pop\n      jumpi(tag_2, lt(calldatasize, 0x04))\n      shr(0xe0, calldataload(0x00))\n      dup1\n      0x7acc0b20\n      gt\n      tag_16\n      jumpi\n      dup1\n      0x86b0e812\n      gt\n      tag_17\n      jumpi\n      dup1\n      0x86b0e812\n      eq\n      tag_12\n      jumpi\n      dup1\n      0x8da5cb5b\n      eq\n      tag_13\n      jumpi\n      dup1\n      0x99374642\n      eq\n      tag_14\n      jumpi\n      dup1\n      0xf2fde38b\n      eq\n      tag_15\n      jumpi\n      jump(tag_2)\n    tag_17:\n      dup1\n      0x7acc0b20\n      eq\n      tag_9\n      jumpi\n      dup1\n      0x7b9417c8\n      eq\n      tag_10\n      jumpi\n      dup1\n      0x80e52e3f\n      eq\n      tag_11\n      jumpi\n      jump(tag_2)\n    tag_16:\n      dup1\n      0x286dd3f5\n      eq\n      tag_3\n      jumpi\n      dup1\n      0x2e3036c7\n      eq\n      tag_4\n      jumpi\n      dup1\n      0x3af32abf\n      eq\n      tag_5\n      jumpi\n      dup1\n      0x4de91a63\n      eq\n      tag_6\n      jumpi\n      dup1\n      0x6813b53b\n      eq\n      tag_7\n      jumpi\n      dup1\n      0x72c60690\n      eq\n      tag_8\n      jumpi\n    tag_2:\n      0x00\n      dup1\n      revert\n        /* \"contracts/WhitelistManager.sol\":530:770  function removeAddressFromWhitelist(address addr) public onlyOwner {... */\n    tag_3:\n      tag_18\n      0x04\n      dup1\n      calldatasize\n      sub\n      dup2\n      add\n      swap1\n      tag_19\n      swap2\n      swap1\n      tag_20\n      jump\t// in\n    tag_19:\n      tag_21\n      jump\t// in\n    tag_18:\n      stop\n        /* \"contracts/AccessControl.sol\":400:542  function assignRole(address user, uint256 role) public onlyOwner {\r... */\n    tag_4:\n      tag_22\n      0x04\n      dup1\n      calldatasize\n      sub\n      dup2\n      add\n      swap1\n      tag_23\n      swap2\n      swap1\n      tag_24\n      jump\t// in\n    tag_23:\n      tag_25\n      jump\t// in\n    tag_22:\n      stop\n        /* \"contracts/WhitelistManager.sol\":776:880  function isWhitelisted(address addr) public view returns (bool) {... */\n    tag_5:\n      tag_26\n      0x04\n      dup1\n      calldatasize\n      sub\n      dup2\n      add\n      swap1\n      tag_27\n      swap2\n      swap1\n      tag_20\n      jump\t// in\n    tag_27:\n      tag_28\n      jump\t// in\n    tag_26:\n      mload(0x40)\n      tag_29\n      swap2\n      swap1\n      tag_30\n      jump\t// in\n    tag_29:\n      mload(0x40)\n      dup1\n      swap2\n      sub\n      swap1\n      return\n        /* \"contracts/ProductManager.sol\":545:573  uint256 public nextProductId */\n    tag_6:\n      tag_31\n      tag_32\n      jump\t// in\n    tag_31:\n      mload(0x40)\n      tag_33\n      swap2\n      swap1\n      tag_34\n      jump\t// in\n    tag_33:\n      mload(0x40)\n      dup1\n      swap2\n      sub\n      swap1\n      return\n        /* \"contracts/ProductManager.sol\":1967:2178  function getProductDetails(uint256 productId) public view returns (Product memory) {\r... */\n    tag_7:\n      tag_35\n      0x04\n      dup1\n      calldatasize\n      sub\n      dup2\n      add\n      swap1\n      tag_36\n      swap2\n      swap1\n      tag_37\n      jump\t// in\n    tag_36:\n      tag_38\n      jump\t// in\n    tag_35:\n      mload(0x40)\n      tag_39\n      swap2\n      swap1\n      tag_40\n      jump\t// in\n    tag_39:\n      mload(0x40)\n      dup1\n      swap2\n      sub\n      swap1\n      return\n        /* \"contracts/ProductManager.sol\":843:1457  function createProduct(string memory name, uint256 lotNumber, uint256 totalPerLot, address manufacturer) public onlyOwner {\r... */\n    tag_8:\n      tag_41\n      0x04\n      dup1\n      calldatasize\n      sub\n      dup2\n      add\n      swap1\n      tag_42\n      swap2\n      swap1\n      tag_43\n      jump\t// in\n    tag_42:\n      tag_44\n      jump\t// in\n    tag_41:\n      stop\n        /* \"contracts/ProductManager.sol\":513:538  Product[] public products */\n    tag_9:\n      tag_45\n      0x04\n      dup1\n      calldatasize\n      sub\n      dup2\n      add\n      swap1\n      tag_46\n      swap2\n      swap1\n      tag_37\n      jump\t// in\n    tag_46:\n      tag_47\n      jump\t// in\n    tag_45:\n      mload(0x40)\n      tag_48\n      swap8\n      swap7\n      swap6\n      swap5\n      swap4\n      swap3\n      swap2\n      swap1\n      tag_49\n      jump\t// in\n    tag_48:\n      mload(0x40)\n      dup1\n      swap2\n      sub\n      swap1\n      return\n        /* \"contracts/WhitelistManager.sol\":292:524  function addAddressToWhitelist(address addr) public onlyOwner {... */\n    tag_10:\n      tag_50\n      0x04\n      dup1\n      calldatasize\n      sub\n      dup2\n      add\n      swap1\n      tag_51\n      swap2\n      swap1\n      tag_20\n      jump\t// in\n    tag_51:\n      tag_52\n      jump\t// in\n    tag_50:\n      stop\n        /* \"contracts/AccessControl.sol\":550:736  function revokeRole(address user) public onlyOwner {\r... */\n    tag_11:\n      tag_53\n      0x04\n      dup1\n      calldatasize\n      sub\n      dup2\n      add\n      swap1\n      tag_54\n      swap2\n      swap1\n      tag_20\n      jump\t// in\n    tag_54:\n      tag_55\n      jump\t// in\n    tag_53:\n      stop\n        /* \"contracts/ProductManager.sol\":1465:1959  function transferProductOwnership(uint256 productId, address newOwner) public {\r... */\n    tag_12:\n      tag_56\n      0x04\n      dup1\n      calldatasize\n      sub\n      dup2\n      add\n      swap1\n      tag_57\n      swap2\n      swap1\n      tag_58\n      jump\t// in\n    tag_57:\n      tag_59\n      jump\t// in\n    tag_56:\n      stop\n        /* \"contracts/Ownable.sol\":314:391  function owner() public view returns (address) {... */\n    tag_13:\n      tag_60\n      tag_61\n      jump\t// in\n    tag_60:\n      mload(0x40)\n      tag_62\n      swap2\n      swap1\n      tag_63\n      jump\t// in\n    tag_62:\n      mload(0x40)\n      dup1\n      swap2\n      sub\n      swap1\n      return\n        /* \"contracts/AccessControl.sol\":128:168  mapping(address => uint256) public roles */\n    tag_14:\n      tag_64\n      0x04\n      dup1\n      calldatasize\n      sub\n      dup2\n      add\n      swap1\n      tag_65\n      swap2\n      swap1\n      tag_20\n      jump\t// in\n    tag_65:\n      tag_66\n      jump\t// in\n    tag_64:\n      mload(0x40)\n      tag_67\n      swap2\n      swap1\n      tag_34\n      jump\t// in\n    tag_67:\n      mload(0x40)\n      dup1\n      swap2\n      sub\n      swap1\n      return\n        /* \"contracts/Ownable.sol\":517:749  function transferOwnership(address newOwner) public onlyOwner {... */\n    tag_15:\n      tag_68\n      0x04\n      dup1\n      calldatasize\n      sub\n      dup2\n      add\n      swap1\n      tag_69\n      swap2\n      swap1\n      tag_20\n      jump\t// in\n    tag_69:\n      tag_70\n      jump\t// in\n    tag_68:\n      stop\n        /* \"contracts/WhitelistManager.sol\":530:770  function removeAddressFromWhitelist(address addr) public onlyOwner {... */\n    tag_21:\n        /* \"contracts/Ownable.sol\":446:456  msg.sender */\n      caller\n        /* \"contracts/Ownable.sol\":436:456  _owner == msg.sender */\n      0xffffffffffffffffffffffffffffffffffffffff\n      and\n        /* \"contracts/Ownable.sol\":436:442  _owner */\n      0x00\n      dup1\n      sload\n      swap1\n      0x0100\n      exp\n      swap1\n      div\n      0xffffffffffffffffffffffffffffffffffffffff\n      and\n        /* \"contracts/Ownable.sol\":436:456  _owner == msg.sender */\n      0xffffffffffffffffffffffffffffffffffffffff\n      and\n      eq\n        /* \"contracts/Ownable.sol\":428:493  require(_owner == msg.sender, \"Ownable: caller is not the owner\") */\n      tag_72\n      jumpi\n      mload(0x40)\n      0x08c379a000000000000000000000000000000000000000000000000000000000\n      dup2\n      mstore\n      0x04\n      add\n      tag_73\n      swap1\n      tag_74\n      jump\t// in\n    tag_73:\n      mload(0x40)\n      dup1\n      swap2\n      sub\n      swap1\n      revert\n    tag_72:\n        /* \"contracts/WhitelistManager.sol\":631:632  0 */\n      0x00\n        /* \"contracts/WhitelistManager.sol\":615:633  addr != address(0) */\n      0xffffffffffffffffffffffffffffffffffffffff\n      and\n        /* \"contracts/WhitelistManager.sol\":615:619  addr */\n      dup2\n        /* \"contracts/WhitelistManager.sol\":615:633  addr != address(0) */\n      0xffffffffffffffffffffffffffffffffffffffff\n      and\n      eq\n      iszero\n        /* \"contracts/WhitelistManager.sol\":607:683  require(addr != address(0), \"WhitelistManager: address is the zero address\") */\n      tag_76\n      jumpi\n      mload(0x40)\n      0x08c379a000000000000000000000000000000000000000000000000000000000\n      dup2\n      mstore\n      0x04\n      add\n      tag_77\n      swap1\n      tag_78\n      jump\t// in\n    tag_77:\n      mload(0x40)\n      dup1\n      swap2\n      sub\n      swap1\n      revert\n    tag_76:\n        /* \"contracts/WhitelistManager.sol\":712:717  false */\n      0x00\n        /* \"contracts/WhitelistManager.sol\":693:703  _whitelist */\n      0x01\n        /* \"contracts/WhitelistManager.sol\":693:709  _whitelist[addr] */\n      0x00\n        /* \"contracts/WhitelistManager.sol\":704:708  addr */\n      dup4\n        /* \"contracts/WhitelistManager.sol\":693:709  _whitelist[addr] */\n      0xffffffffffffffffffffffffffffffffffffffff\n      and\n      0xffffffffffffffffffffffffffffffffffffffff\n      and\n      dup2\n      mstore\n      0x20\n      add\n      swap1\n      dup2\n      mstore\n      0x20\n      add\n      0x00\n      keccak256\n      0x00\n        /* \"contracts/WhitelistManager.sol\":693:717  _whitelist[addr] = false */\n      0x0100\n      exp\n      dup2\n      sload\n      dup2\n      0xff\n      mul\n      not\n      and\n      swap1\n      dup4\n      iszero\n      iszero\n      mul\n      or\n      swap1\n      sstore\n      pop\n        /* \"contracts/WhitelistManager.sol\":758:762  addr */\n      dup1\n        /* \"contracts/WhitelistManager.sol\":732:763  WhitelistedAddressRemoved(addr) */\n      0xffffffffffffffffffffffffffffffffffffffff\n      and\n      0xf1abf01a1043b7c244d128e8595cf0c1d10743b022b03a02dffd8ca3bf729f5a\n      mload(0x40)\n      mload(0x40)\n      dup1\n      swap2\n      sub\n      swap1\n      log2\n        /* \"contracts/WhitelistManager.sol\":530:770  function removeAddressFromWhitelist(address addr) public onlyOwner {... */\n      pop\n      jump\t// out\n        /* \"contracts/AccessControl.sol\":400:542  function assignRole(address user, uint256 role) public onlyOwner {\r... */\n    tag_25:\n        /* \"contracts/Ownable.sol\":446:456  msg.sender */\n      caller\n        /* \"contracts/Ownable.sol\":436:456  _owner == msg.sender */\n      0xffffffffffffffffffffffffffffffffffffffff\n      and\n        /* \"contracts/Ownable.sol\":436:442  _owner */\n      0x00\n      dup1\n      sload\n      swap1\n      0x0100\n      exp\n      swap1\n      div\n      0xffffffffffffffffffffffffffffffffffffffff\n      and\n        /* \"contracts/Ownable.sol\":436:456  _owner == msg.sender */\n      0xffffffffffffffffffffffffffffffffffffffff\n      and\n      eq\n        /* \"contracts/Ownable.sol\":428:493  require(_owner == msg.sender, \"Ownable: caller is not the owner\") */\n      tag_80\n      jumpi\n      mload(0x40)\n      0x08c379a000000000000000000000000000000000000000000000000000000000\n      dup2\n      mstore\n      0x04\n      add\n      tag_81\n      swap1\n      tag_74\n      jump\t// in\n    tag_81:\n      mload(0x40)\n      dup1\n      swap2\n      sub\n      swap1\n      revert\n    tag_80:\n        /* \"contracts/AccessControl.sol\":490:494  role */\n      dup1\n        /* \"contracts/AccessControl.sol\":476:481  roles */\n      0x02\n        /* \"contracts/AccessControl.sol\":476:487  roles[user] */\n      0x00\n        /* \"contracts/AccessControl.sol\":482:486  user */\n      dup5\n        /* \"contracts/AccessControl.sol\":476:487  roles[user] */\n      0xffffffffffffffffffffffffffffffffffffffff\n      and\n      0xffffffffffffffffffffffffffffffffffffffff\n      and\n      dup2\n      mstore\n      0x20\n      add\n      swap1\n      dup2\n      mstore\n      0x20\n      add\n      0x00\n      keccak256\n        /* \"contracts/AccessControl.sol\":476:494  roles[user] = role */\n      dup2\n      swap1\n      sstore\n      pop\n        /* \"contracts/AccessControl.sol\":529:533  role */\n      dup1\n        /* \"contracts/AccessControl.sol\":523:527  user */\n      dup3\n        /* \"contracts/AccessControl.sol\":510:534  RoleAssigned(user, role) */\n      0xffffffffffffffffffffffffffffffffffffffff\n      and\n      0xe2ac27c5c810aead8fa29780fdca1995888a2f0e6b8128a1316e116960b009f8\n      mload(0x40)\n      mload(0x40)\n      dup1\n      swap2\n      sub\n      swap1\n      log3\n        /* \"contracts/AccessControl.sol\":400:542  function assignRole(address user, uint256 role) public onlyOwner {\r... */\n      pop\n      pop\n      jump\t// out\n        /* \"contracts/WhitelistManager.sol\":776:880  function isWhitelisted(address addr) public view returns (bool) {... */\n    tag_28:\n        /* \"contracts/WhitelistManager.sol\":834:838  bool */\n      0x00\n        /* \"contracts/WhitelistManager.sol\":857:867  _whitelist */\n      0x01\n        /* \"contracts/WhitelistManager.sol\":857:873  _whitelist[addr] */\n      0x00\n        /* \"contracts/WhitelistManager.sol\":868:872  addr */\n      dup4\n        /* \"contracts/WhitelistManager.sol\":857:873  _whitelist[addr] */\n      0xffffffffffffffffffffffffffffffffffffffff\n      and\n      0xffffffffffffffffffffffffffffffffffffffff\n      and\n      dup2\n      mstore\n      0x20\n      add\n      swap1\n      dup2\n      mstore\n      0x20\n      add\n      0x00\n      keccak256\n      0x00\n      swap1\n      sload\n      swap1\n      0x0100\n      exp\n      swap1\n      div\n      0xff\n      and\n        /* \"contracts/WhitelistManager.sol\":850:873  return _whitelist[addr] */\n      swap1\n      pop\n        /* \"contracts/WhitelistManager.sol\":776:880  function isWhitelisted(address addr) public view returns (bool) {... */\n      swap2\n      swap1\n      pop\n      jump\t// out\n        /* \"contracts/ProductManager.sol\":545:573  uint256 public nextProductId */\n    tag_32:\n      sload(0x04)\n      dup2\n      jump\t// out\n        /* \"contracts/ProductManager.sol\":1967:2178  function getProductDetails(uint256 productId) public view returns (Product memory) {\r... */\n    tag_38:\n        /* \"contracts/ProductManager.sol\":2034:2048  Product memory */\n      tag_84\n      tag_85\n      jump\t// in\n    tag_84:\n        /* \"contracts/ProductManager.sol\":2081:2094  nextProductId */\n      sload(0x04)\n        /* \"contracts/ProductManager.sol\":2069:2078  productId */\n      dup3\n        /* \"contracts/ProductManager.sol\":2069:2094  productId < nextProductId */\n      lt\n        /* \"contracts/ProductManager.sol\":2061:2133  require(productId < nextProductId, \"ProductManager: invalid product ID\") */\n      tag_87\n      jumpi\n      mload(0x40)\n      0x08c379a000000000000000000000000000000000000000000000000000000000\n      dup2\n      mstore\n      0x04\n      add\n      tag_88\n      swap1\n      tag_89\n      jump\t// in\n    tag_88:\n      mload(0x40)\n      dup1\n      swap2\n      sub\n      swap1\n      revert\n    tag_87:\n        /* \"contracts/ProductManager.sol\":2151:2159  products */\n      0x03\n        /* \"contracts/ProductManager.sol\":2160:2169  productId */\n      dup3\n        /* \"contracts/ProductManager.sol\":2151:2170  products[productId] */\n      dup2\n      sload\n      dup2\n      lt\n      tag_90\n      jumpi\n      mstore(0x00, 0x4e487b7100000000000000000000000000000000000000000000000000000000)\n      mstore(0x04, 0x32)\n      revert(0x00, 0x24)\n    tag_90:\n      swap1\n      0x00\n      mstore\n      keccak256(0x00, 0x20)\n      swap1\n      0x07\n      mul\n      add\n        /* \"contracts/ProductManager.sol\":2144:2170  return products[productId] */\n      mload(0x40)\n      dup1\n      0xe0\n      add\n      0x40\n      mstore\n      swap1\n      dup2\n      0x00\n      dup3\n      add\n      sload\n      dup2\n      mstore\n      0x20\n      add\n      0x01\n      dup3\n      add\n      dup1\n      sload\n      tag_92\n      swap1\n      tag_93\n      jump\t// in\n    tag_92:\n      dup1\n      0x1f\n      add\n      0x20\n      dup1\n      swap2\n      div\n      mul\n      0x20\n      add\n      mload(0x40)\n      swap1\n      dup2\n      add\n      0x40\n      mstore\n      dup1\n      swap3\n      swap2\n      swap1\n      dup2\n      dup2\n      mstore\n      0x20\n      add\n      dup3\n      dup1\n      sload\n      tag_94\n      swap1\n      tag_93\n      jump\t// in\n    tag_94:\n      dup1\n      iszero\n      tag_95\n      jumpi\n      dup1\n      0x1f\n      lt\n      tag_96\n      jumpi\n      0x0100\n      dup1\n      dup4\n      sload\n      div\n      mul\n      dup4\n      mstore\n      swap2\n      0x20\n      add\n      swap2\n      jump(tag_95)\n    tag_96:\n      dup3\n      add\n      swap2\n      swap1\n      0x00\n      mstore\n      keccak256(0x00, 0x20)\n      swap1\n    tag_97:\n      dup2\n      sload\n      dup2\n      mstore\n      swap1\n      0x01\n      add\n      swap1\n      0x20\n      add\n      dup1\n      dup4\n      gt\n      tag_97\n      jumpi\n      dup3\n      swap1\n      sub\n      0x1f\n      and\n      dup3\n      add\n      swap2\n    tag_95:\n      pop\n      pop\n      pop\n      pop\n      pop\n      dup2\n      mstore\n      0x20\n      add\n      0x02\n      dup3\n      add\n      sload\n      dup2\n      mstore\n      0x20\n      add\n      0x03\n      dup3\n      add\n      sload\n      dup2\n      mstore\n      0x20\n      add\n      0x04\n      dup3\n      add\n      0x00\n      swap1\n      sload\n      swap1\n      0x0100\n      exp\n      swap1\n      div\n      0xffffffffffffffffffffffffffffffffffffffff\n      and\n      0xffffffffffffffffffffffffffffffffffffffff\n      and\n      0xffffffffffffffffffffffffffffffffffffffff\n      and\n      dup2\n      mstore\n      0x20\n      add\n      0x05\n      dup3\n      add\n      0x00\n      swap1\n      sload\n      swap1\n      0x0100\n      exp\n      swap1\n      div\n      0xffffffffffffffffffffffffffffffffffffffff\n      and\n      0xffffffffffffffffffffffffffffffffffffffff\n      and\n      0xffffffffffffffffffffffffffffffffffffffff\n      and\n      dup2\n      mstore\n      0x20\n      add\n      0x06\n      dup3\n      add\n      sload\n      dup2\n      mstore\n      pop\n      pop\n      swap1\n      pop\n        /* \"contracts/ProductManager.sol\":1967:2178  function getProductDetails(uint256 productId) public view returns (Product memory) {\r... */\n      swap2\n      swap1\n      pop\n      jump\t// out\n        /* \"contracts/ProductManager.sol\":843:1457  function createProduct(string memory name, uint256 lotNumber, uint256 totalPerLot, address manufacturer) public onlyOwner {\r... */\n    tag_44:\n        /* \"contracts/Ownable.sol\":446:456  msg.sender */\n      caller\n        /* \"contracts/Ownable.sol\":436:456  _owner == msg.sender */\n      0xffffffffffffffffffffffffffffffffffffffff\n      and\n        /* \"contracts/Ownable.sol\":436:442  _owner */\n      0x00\n      dup1\n      sload\n      swap1\n      0x0100\n      exp\n      swap1\n      div\n      0xffffffffffffffffffffffffffffffffffffffff\n      and\n        /* \"contracts/Ownable.sol\":436:456  _owner == msg.sender */\n      0xffffffffffffffffffffffffffffffffffffffff\n      and\n      eq\n        /* \"contracts/Ownable.sol\":428:493  require(_owner == msg.sender, \"Ownable: caller is not the owner\") */\n      tag_99\n      jumpi\n      mload(0x40)\n      0x08c379a000000000000000000000000000000000000000000000000000000000\n      dup2\n      mstore\n      0x04\n      add\n      tag_100\n      swap1\n      tag_74\n      jump\t// in\n    tag_100:\n      mload(0x40)\n      dup1\n      swap2\n      sub\n      swap1\n      revert\n    tag_99:\n        /* \"contracts/ProductManager.sol\":976:984  products */\n      0x03\n        /* \"contracts/ProductManager.sol\":990:1350  Product({\r... */\n      mload(0x40)\n      dup1\n      0xe0\n      add\n      0x40\n      mstore\n      dup1\n        /* \"contracts/ProductManager.sol\":1017:1030  nextProductId */\n      sload(0x04)\n        /* \"contracts/ProductManager.sol\":990:1350  Product({\r... */\n      dup2\n      mstore\n      0x20\n      add\n        /* \"contracts/ProductManager.sol\":1051:1055  name */\n      dup7\n        /* \"contracts/ProductManager.sol\":990:1350  Product({\r... */\n      dup2\n      mstore\n      0x20\n      add\n        /* \"contracts/ProductManager.sol\":1081:1090  lotNumber */\n      dup6\n        /* \"contracts/ProductManager.sol\":990:1350  Product({\r... */\n      dup2\n      mstore\n      0x20\n      add\n        /* \"contracts/ProductManager.sol\":1118:1129  totalPerLot */\n      dup5\n        /* \"contracts/ProductManager.sol\":990:1350  Product({\r... */\n      dup2\n      mstore\n      0x20\n      add\n        /* \"contracts/ProductManager.sol\":1158:1170  manufacturer */\n      dup4\n        /* \"contracts/ProductManager.sol\":990:1350  Product({\r... */\n      0xffffffffffffffffffffffffffffffffffffffff\n      and\n      dup2\n      mstore\n      0x20\n      add\n        /* \"contracts/ProductManager.sol\":1199:1211  manufacturer */\n      dup4\n        /* \"contracts/ProductManager.sol\":990:1350  Product({\r... */\n      0xffffffffffffffffffffffffffffffffffffffff\n      and\n      dup2\n      mstore\n      0x20\n      add\n        /* \"contracts/ProductManager.sol\":1289:1304  block.timestamp */\n      timestamp\n        /* \"contracts/ProductManager.sol\":990:1350  Product({\r... */\n      dup2\n      mstore\n      pop\n        /* \"contracts/ProductManager.sol\":976:1351  products.push(Product({\r... */\n      swap1\n      dup1\n      0x01\n      dup2\n      sload\n      add\n      dup1\n      dup3\n      sstore\n      dup1\n      swap2\n      pop\n      pop\n      0x01\n      swap1\n      sub\n      swap1\n      0x00\n      mstore\n      keccak256(0x00, 0x20)\n      swap1\n      0x07\n      mul\n      add\n      0x00\n      swap1\n      swap2\n      swap1\n      swap2\n      swap1\n      swap2\n      pop\n      0x00\n      dup3\n      add\n      mload\n      dup2\n      0x00\n      add\n      sstore\n      0x20\n      dup3\n      add\n      mload\n      dup2\n      0x01\n      add\n      swap1\n      dup1\n      mload\n      swap1\n      0x20\n      add\n      swap1\n      tag_103\n      swap3\n      swap2\n      swap1\n      tag_104\n      jump\t// in\n    tag_103:\n      pop\n      0x40\n      dup3\n      add\n      mload\n      dup2\n      0x02\n      add\n      sstore\n      0x60\n      dup3\n      add\n      mload\n      dup2\n      0x03\n      add\n      sstore\n      0x80\n      dup3\n      add\n      mload\n      dup2\n      0x04\n      add\n      exp(0x0100, 0x00)\n      dup2\n      sload\n      dup2\n      0xffffffffffffffffffffffffffffffffffffffff\n      mul\n      not\n      and\n      swap1\n      dup4\n      0xffffffffffffffffffffffffffffffffffffffff\n      and\n      mul\n      or\n      swap1\n      sstore\n      pop\n      0xa0\n      dup3\n      add\n      mload\n      dup2\n      0x05\n      add\n      exp(0x0100, 0x00)\n      dup2\n      sload\n      dup2\n      0xffffffffffffffffffffffffffffffffffffffff\n      mul\n      not\n      and\n      swap1\n      dup4\n      0xffffffffffffffffffffffffffffffffffffffff\n      and\n      mul\n      or\n      swap1\n      sstore\n      pop\n      0xc0\n      dup3\n      add\n      mload\n      dup2\n      0x06\n      add\n      sstore\n      pop\n      pop\n        /* \"contracts/ProductManager.sol\":1382:1395  nextProductId */\n      sload(0x04)\n        /* \"contracts/ProductManager.sol\":1367:1402  ProductCreated(nextProductId, name) */\n      0x543247085674b00368d9cd41416be705a4c27143c024163a6f58bf12a41992f5\n        /* \"contracts/ProductManager.sol\":1397:1401  name */\n      dup6\n        /* \"contracts/ProductManager.sol\":1367:1402  ProductCreated(nextProductId, name) */\n      mload(0x40)\n      tag_105\n      swap2\n      swap1\n      tag_106\n      jump\t// in\n    tag_105:\n      mload(0x40)\n      dup1\n      swap2\n      sub\n      swap1\n      log2\n        /* \"contracts/ProductManager.sol\":1429:1449  nextProductId.add(1) */\n      tag_107\n        /* \"contracts/ProductManager.sol\":1447:1448  1 */\n      0x01\n        /* \"contracts/ProductManager.sol\":1429:1442  nextProductId */\n      sload(0x04)\n        /* \"contracts/ProductManager.sol\":1429:1446  nextProductId.add */\n      tag_108\n      swap1\n        /* \"contracts/ProductManager.sol\":1429:1449  nextProductId.add(1) */\n      swap2\n      swap1\n      0xffffffff\n      and\n      jump\t// in\n    tag_107:\n        /* \"contracts/ProductManager.sol\":1413:1426  nextProductId */\n      0x04\n        /* \"contracts/ProductManager.sol\":1413:1449  nextProductId = nextProductId.add(1) */\n      dup2\n      swap1\n      sstore\n      pop\n        /* \"contracts/ProductManager.sol\":843:1457  function createProduct(string memory name, uint256 lotNumber, uint256 totalPerLot, address manufacturer) public onlyOwner {\r... */\n      pop\n      pop\n      pop\n      pop\n      jump\t// out\n        /* \"contracts/ProductManager.sol\":513:538  Product[] public products */\n    tag_47:\n      0x03\n      dup2\n      dup2\n      sload\n      dup2\n      lt\n      tag_109\n      jumpi\n      0x00\n      dup1\n      revert\n    tag_109:\n      swap1\n      0x00\n      mstore\n      keccak256(0x00, 0x20)\n      swap1\n      0x07\n      mul\n      add\n      0x00\n      swap2\n      pop\n      swap1\n      pop\n      dup1\n      0x00\n      add\n      sload\n      swap1\n      dup1\n      0x01\n      add\n      dup1\n      sload\n      tag_111\n      swap1\n      tag_93\n      jump\t// in\n    tag_111:\n      dup1\n      0x1f\n      add\n      0x20\n      dup1\n      swap2\n      div\n      mul\n      0x20\n      add\n      mload(0x40)\n      swap1\n      dup2\n      add\n      0x40\n      mstore\n      dup1\n      swap3\n      swap2\n      swap1\n      dup2\n      dup2\n      mstore\n      0x20\n      add\n      dup3\n      dup1\n      sload\n      tag_112\n      swap1\n      tag_93\n      jump\t// in\n    tag_112:\n      dup1\n      iszero\n      tag_113\n      jumpi\n      dup1\n      0x1f\n      lt\n      tag_114\n      jumpi\n      0x0100\n      dup1\n      dup4\n      sload\n      div\n      mul\n      dup4\n      mstore\n      swap2\n      0x20\n      add\n      swap2\n      jump(tag_113)\n    tag_114:\n      dup3\n      add\n      swap2\n      swap1\n      0x00\n      mstore\n      keccak256(0x00, 0x20)\n      swap1\n    tag_115:\n      dup2\n      sload\n      dup2\n      mstore\n      swap1\n      0x01\n      add\n      swap1\n      0x20\n      add\n      dup1\n      dup4\n      gt\n      tag_115\n      jumpi\n      dup3\n      swap1\n      sub\n      0x1f\n      and\n      dup3\n      add\n      swap2\n    tag_113:\n      pop\n      pop\n      pop\n      pop\n      pop\n      swap1\n      dup1\n      0x02\n      add\n      sload\n      swap1\n      dup1\n      0x03\n      add\n      sload\n      swap1\n      dup1\n      0x04\n      add\n      0x00\n      swap1\n      sload\n      swap1\n      0x0100\n      exp\n      swap1\n      div\n      0xffffffffffffffffffffffffffffffffffffffff\n      and\n      swap1\n      dup1\n      0x05\n      add\n      0x00\n      swap1\n      sload\n      swap1\n      0x0100\n      exp\n      swap1\n      div\n      0xffffffffffffffffffffffffffffffffffffffff\n      and\n      swap1\n      dup1\n      0x06\n      add\n      sload\n      swap1\n      pop\n      dup8\n      jump\t// out\n        /* \"contracts/WhitelistManager.sol\":292:524  function addAddressToWhitelist(address addr) public onlyOwner {... */\n    tag_52:\n        /* \"contracts/Ownable.sol\":446:456  msg.sender */\n      caller\n        /* \"contracts/Ownable.sol\":436:456  _owner == msg.sender */\n      0xffffffffffffffffffffffffffffffffffffffff\n      and\n        /* \"contracts/Ownable.sol\":436:442  _owner */\n      0x00\n      dup1\n      sload\n      swap1\n      0x0100\n      exp\n      swap1\n      div\n      0xffffffffffffffffffffffffffffffffffffffff\n      and\n        /* \"contracts/Ownable.sol\":436:456  _owner == msg.sender */\n      0xffffffffffffffffffffffffffffffffffffffff\n      and\n      eq\n        /* \"contracts/Ownable.sol\":428:493  require(_owner == msg.sender, \"Ownable: caller is not the owner\") */\n      tag_117\n      jumpi\n      mload(0x40)\n      0x08c379a000000000000000000000000000000000000000000000000000000000\n      dup2\n      mstore\n      0x04\n      add\n      tag_118\n      swap1\n      tag_74\n      jump\t// in\n    tag_118:\n      mload(0x40)\n      dup1\n      swap2\n      sub\n      swap1\n      revert\n    tag_117:\n        /* \"contracts/WhitelistManager.sol\":388:389  0 */\n      0x00\n        /* \"contracts/WhitelistManager.sol\":372:390  addr != address(0) */\n      0xffffffffffffffffffffffffffffffffffffffff\n      and\n        /* \"contracts/WhitelistManager.sol\":372:376  addr */\n      dup2\n        /* \"contracts/WhitelistManager.sol\":372:390  addr != address(0) */\n      0xffffffffffffffffffffffffffffffffffffffff\n      and\n      eq\n      iszero\n        /* \"contracts/WhitelistManager.sol\":364:440  require(addr != address(0), \"WhitelistManager: address is the zero address\") */\n      tag_120\n      jumpi\n      mload(0x40)\n      0x08c379a000000000000000000000000000000000000000000000000000000000\n      dup2\n      mstore\n      0x04\n      add\n      tag_121\n      swap1\n      tag_78\n      jump\t// in\n    tag_121:\n      mload(0x40)\n      dup1\n      swap2\n      sub\n      swap1\n      revert\n    tag_120:\n        /* \"contracts/WhitelistManager.sol\":469:473  true */\n      0x01\n        /* \"contracts/WhitelistManager.sol\":450:460  _whitelist */\n      dup1\n        /* \"contracts/WhitelistManager.sol\":450:466  _whitelist[addr] */\n      0x00\n        /* \"contracts/WhitelistManager.sol\":461:465  addr */\n      dup4\n        /* \"contracts/WhitelistManager.sol\":450:466  _whitelist[addr] */\n      0xffffffffffffffffffffffffffffffffffffffff\n      and\n      0xffffffffffffffffffffffffffffffffffffffff\n      and\n      dup2\n      mstore\n      0x20\n      add\n      swap1\n      dup2\n      mstore\n      0x20\n      add\n      0x00\n      keccak256\n      0x00\n        /* \"contracts/WhitelistManager.sol\":450:473  _whitelist[addr] = true */\n      0x0100\n      exp\n      dup2\n      sload\n      dup2\n      0xff\n      mul\n      not\n      and\n      swap1\n      dup4\n      iszero\n      iszero\n      mul\n      or\n      swap1\n      sstore\n      pop\n        /* \"contracts/WhitelistManager.sol\":512:516  addr */\n      dup1\n        /* \"contracts/WhitelistManager.sol\":488:517  WhitelistedAddressAdded(addr) */\n      0xffffffffffffffffffffffffffffffffffffffff\n      and\n      0xd1bba68c128cc3f427e5831b3c6f99f480b6efa6b9e80c757768f6124158cc3f\n      mload(0x40)\n      mload(0x40)\n      dup1\n      swap2\n      sub\n      swap1\n      log2\n        /* \"contracts/WhitelistManager.sol\":292:524  function addAddressToWhitelist(address addr) public onlyOwner {... */\n      pop\n      jump\t// out\n        /* \"contracts/AccessControl.sol\":550:736  function revokeRole(address user) public onlyOwner {\r... */\n    tag_55:\n        /* \"contracts/Ownable.sol\":446:456  msg.sender */\n      caller\n        /* \"contracts/Ownable.sol\":436:456  _owner == msg.sender */\n      0xffffffffffffffffffffffffffffffffffffffff\n      and\n        /* \"contracts/Ownable.sol\":436:442  _owner */\n      0x00\n      dup1\n      sload\n      swap1\n      0x0100\n      exp\n      swap1\n      div\n      0xffffffffffffffffffffffffffffffffffffffff\n      and\n        /* \"contracts/Ownable.sol\":436:456  _owner == msg.sender */\n      0xffffffffffffffffffffffffffffffffffffffff\n      and\n      eq\n        /* \"contracts/Ownable.sol\":428:493  require(_owner == msg.sender, \"Ownable: caller is not the owner\") */\n      tag_123\n      jumpi\n      mload(0x40)\n      0x08c379a000000000000000000000000000000000000000000000000000000000\n      dup2\n      mstore\n      0x04\n      add\n      tag_124\n      swap1\n      tag_74\n      jump\t// in\n    tag_124:\n      mload(0x40)\n      dup1\n      swap2\n      sub\n      swap1\n      revert\n    tag_123:\n        /* \"contracts/AccessControl.sol\":612:627  uint256 oldRole */\n      0x00\n        /* \"contracts/AccessControl.sol\":630:635  roles */\n      0x02\n        /* \"contracts/AccessControl.sol\":630:641  roles[user] */\n      0x00\n        /* \"contracts/AccessControl.sol\":636:640  user */\n      dup4\n        /* \"contracts/AccessControl.sol\":630:641  roles[user] */\n      0xffffffffffffffffffffffffffffffffffffffff\n      and\n      0xffffffffffffffffffffffffffffffffffffffff\n      and\n      dup2\n      mstore\n      0x20\n      add\n      swap1\n      dup2\n      mstore\n      0x20\n      add\n      0x00\n      keccak256\n      sload\n        /* \"contracts/AccessControl.sol\":612:641  uint256 oldRole = roles[user] */\n      swap1\n      pop\n        /* \"contracts/AccessControl.sol\":666:667  0 */\n      0x00\n        /* \"contracts/AccessControl.sol\":652:657  roles */\n      0x02\n        /* \"contracts/AccessControl.sol\":652:663  roles[user] */\n      0x00\n        /* \"contracts/AccessControl.sol\":658:662  user */\n      dup5\n        /* \"contracts/AccessControl.sol\":652:663  roles[user] */\n      0xffffffffffffffffffffffffffffffffffffffff\n      and\n      0xffffffffffffffffffffffffffffffffffffffff\n      and\n      dup2\n      mstore\n      0x20\n      add\n      swap1\n      dup2\n      mstore\n      0x20\n      add\n      0x00\n      keccak256\n        /* \"contracts/AccessControl.sol\":652:667  roles[user] = 0 */\n      dup2\n      swap1\n      sstore\n      pop\n        /* \"contracts/AccessControl.sol\":720:727  oldRole */\n      dup1\n        /* \"contracts/AccessControl.sol\":714:718  user */\n      dup3\n        /* \"contracts/AccessControl.sol\":702:728  RoleRevoked(user, oldRole) */\n      0xffffffffffffffffffffffffffffffffffffffff\n      and\n      0x12982f922b0573398129ea86655ce1e8e425ec676c9e3d40bf5458688b1ef544\n      mload(0x40)\n      mload(0x40)\n      dup1\n      swap2\n      sub\n      swap1\n      log3\n        /* \"contracts/Ownable.sol\":503:504  _ */\n      pop\n        /* \"contracts/AccessControl.sol\":550:736  function revokeRole(address user) public onlyOwner {\r... */\n      pop\n      jump\t// out\n        /* \"contracts/ProductManager.sol\":1465:1959  function transferProductOwnership(uint256 productId, address newOwner) public {\r... */\n    tag_59:\n        /* \"contracts/ProductManager.sol\":1576:1584  products */\n      0x03\n        /* \"contracts/ProductManager.sol\":1585:1594  productId */\n      dup3\n        /* \"contracts/ProductManager.sol\":1576:1595  products[productId] */\n      dup2\n      sload\n      dup2\n      lt\n      tag_127\n      jumpi\n      mstore(0x00, 0x4e487b7100000000000000000000000000000000000000000000000000000000)\n      mstore(0x04, 0x32)\n      revert(0x00, 0x24)\n    tag_127:\n      swap1\n      0x00\n      mstore\n      keccak256(0x00, 0x20)\n      swap1\n      0x07\n      mul\n      add\n        /* \"contracts/ProductManager.sol\":1576:1608  products[productId].currentOwner */\n      0x05\n      add\n      0x00\n      swap1\n      sload\n      swap1\n      0x0100\n      exp\n      swap1\n      div\n      0xffffffffffffffffffffffffffffffffffffffff\n      and\n        /* \"contracts/ProductManager.sol\":1562:1608  msg.sender == products[productId].currentOwner */\n      0xffffffffffffffffffffffffffffffffffffffff\n      and\n        /* \"contracts/ProductManager.sol\":1562:1572  msg.sender */\n      caller\n        /* \"contracts/ProductManager.sol\":1562:1608  msg.sender == products[productId].currentOwner */\n      0xffffffffffffffffffffffffffffffffffffffff\n      and\n      eq\n        /* \"contracts/ProductManager.sol\":1554:1660  require(msg.sender == products[productId].currentOwner, \"ProductManager: caller is not the current owner\") */\n      tag_129\n      jumpi\n      mload(0x40)\n      0x08c379a000000000000000000000000000000000000000000000000000000000\n      dup2\n      mstore\n      0x04\n      add\n      tag_130\n      swap1\n      tag_131\n      jump\t// in\n    tag_130:\n      mload(0x40)\n      dup1\n      swap2\n      sub\n      swap1\n      revert\n    tag_129:\n        /* \"contracts/ProductManager.sol\":1671:1692  address previousOwner */\n      0x00\n        /* \"contracts/ProductManager.sol\":1695:1703  products */\n      0x03\n        /* \"contracts/ProductManager.sol\":1704:1713  productId */\n      dup4\n        /* \"contracts/ProductManager.sol\":1695:1714  products[productId] */\n      dup2\n      sload\n      dup2\n      lt\n      tag_132\n      jumpi\n      mstore(0x00, 0x4e487b7100000000000000000000000000000000000000000000000000000000)\n      mstore(0x04, 0x32)\n      revert(0x00, 0x24)\n    tag_132:\n      swap1\n      0x00\n      mstore\n      keccak256(0x00, 0x20)\n      swap1\n      0x07\n      mul\n      add\n        /* \"contracts/ProductManager.sol\":1695:1727  products[productId].currentOwner */\n      0x05\n      add\n      0x00\n      swap1\n      sload\n      swap1\n      0x0100\n      exp\n      swap1\n      div\n      0xffffffffffffffffffffffffffffffffffffffff\n      and\n        /* \"contracts/ProductManager.sol\":1671:1727  address previousOwner = products[productId].currentOwner */\n      swap1\n      pop\n        /* \"contracts/ProductManager.sol\":1773:1781  newOwner */\n      dup2\n        /* \"contracts/ProductManager.sol\":1738:1746  products */\n      0x03\n        /* \"contracts/ProductManager.sol\":1747:1756  productId */\n      dup5\n        /* \"contracts/ProductManager.sol\":1738:1757  products[productId] */\n      dup2\n      sload\n      dup2\n      lt\n      tag_134\n      jumpi\n      mstore(0x00, 0x4e487b7100000000000000000000000000000000000000000000000000000000)\n      mstore(0x04, 0x32)\n      revert(0x00, 0x24)\n    tag_134:\n      swap1\n      0x00\n      mstore\n      keccak256(0x00, 0x20)\n      swap1\n      0x07\n      mul\n      add\n        /* \"contracts/ProductManager.sol\":1738:1770  products[productId].currentOwner */\n      0x05\n      add\n      0x00\n        /* \"contracts/ProductManager.sol\":1738:1781  products[productId].currentOwner = newOwner */\n      0x0100\n      exp\n      dup2\n      sload\n      dup2\n      0xffffffffffffffffffffffffffffffffffffffff\n      mul\n      not\n      and\n      swap1\n      dup4\n      0xffffffffffffffffffffffffffffffffffffffff\n      and\n      mul\n      or\n      swap1\n      sstore\n      pop\n        /* \"contracts/ProductManager.sol\":1827:1842  block.timestamp */\n      timestamp\n        /* \"contracts/ProductManager.sol\":1792:1800  products */\n      0x03\n        /* \"contracts/ProductManager.sol\":1801:1810  productId */\n      dup5\n        /* \"contracts/ProductManager.sol\":1792:1811  products[productId] */\n      dup2\n      sload\n      dup2\n      lt\n      tag_136\n      jumpi\n      mstore(0x00, 0x4e487b7100000000000000000000000000000000000000000000000000000000)\n      mstore(0x04, 0x32)\n      revert(0x00, 0x24)\n    tag_136:\n      swap1\n      0x00\n      mstore\n      keccak256(0x00, 0x20)\n      swap1\n      0x07\n      mul\n      add\n        /* \"contracts/ProductManager.sol\":1792:1824  products[productId].purchaseDate */\n      0x06\n      add\n        /* \"contracts/ProductManager.sol\":1792:1842  products[productId].purchaseDate = block.timestamp */\n      dup2\n      swap1\n      sstore\n      pop\n        /* \"contracts/ProductManager.sol\":1942:1950  newOwner */\n      dup2\n        /* \"contracts/ProductManager.sol\":1895:1951  OwnershipTransferred(productId, previousOwner, newOwner) */\n      0xffffffffffffffffffffffffffffffffffffffff\n      and\n        /* \"contracts/ProductManager.sol\":1927:1940  previousOwner */\n      dup2\n        /* \"contracts/ProductManager.sol\":1895:1951  OwnershipTransferred(productId, previousOwner, newOwner) */\n      0xffffffffffffffffffffffffffffffffffffffff\n      and\n        /* \"contracts/ProductManager.sol\":1916:1925  productId */\n      dup5\n        /* \"contracts/ProductManager.sol\":1895:1951  OwnershipTransferred(productId, previousOwner, newOwner) */\n      0x16b85f49bf01212961345d3016c9a531894accf62eb7680f2045d79185cc0ec0\n      mload(0x40)\n      mload(0x40)\n      dup1\n      swap2\n      sub\n      swap1\n      log4\n        /* \"contracts/ProductManager.sol\":1465:1959  function transferProductOwnership(uint256 productId, address newOwner) public {\r... */\n      pop\n      pop\n      pop\n      jump\t// out\n        /* \"contracts/Ownable.sol\":314:391  function owner() public view returns (address) {... */\n    tag_61:\n        /* \"contracts/Ownable.sol\":352:359  address */\n      0x00\n        /* \"contracts/Ownable.sol\":378:384  _owner */\n      dup1\n      0x00\n      swap1\n      sload\n      swap1\n      0x0100\n      exp\n      swap1\n      div\n      0xffffffffffffffffffffffffffffffffffffffff\n      and\n        /* \"contracts/Ownable.sol\":371:384  return _owner */\n      swap1\n      pop\n        /* \"contracts/Ownable.sol\":314:391  function owner() public view returns (address) {... */\n      swap1\n      jump\t// out\n        /* \"contracts/AccessControl.sol\":128:168  mapping(address => uint256) public roles */\n    tag_66:\n      mstore(0x20, 0x02)\n      dup1\n      0x00\n      mstore\n      keccak256(0x00, 0x40)\n      0x00\n      swap2\n      pop\n      swap1\n      pop\n      sload\n      dup2\n      jump\t// out\n        /* \"contracts/Ownable.sol\":517:749  function transferOwnership(address newOwner) public onlyOwner {... */\n    tag_70:\n        /* \"contracts/Ownable.sol\":446:456  msg.sender */\n      caller\n        /* \"contracts/Ownable.sol\":436:456  _owner == msg.sender */\n      0xffffffffffffffffffffffffffffffffffffffff\n      and\n        /* \"contracts/Ownable.sol\":436:442  _owner */\n      0x00\n      dup1\n      sload\n      swap1\n      0x0100\n      exp\n      swap1\n      div\n      0xffffffffffffffffffffffffffffffffffffffff\n      and\n        /* \"contracts/Ownable.sol\":436:456  _owner == msg.sender */\n      0xffffffffffffffffffffffffffffffffffffffff\n      and\n      eq\n        /* \"contracts/Ownable.sol\":428:493  require(_owner == msg.sender, \"Ownable: caller is not the owner\") */\n      tag_140\n      jumpi\n      mload(0x40)\n      0x08c379a000000000000000000000000000000000000000000000000000000000\n      dup2\n      mstore\n      0x04\n      add\n      tag_141\n      swap1\n      tag_74\n      jump\t// in\n    tag_141:\n      mload(0x40)\n      dup1\n      swap2\n      sub\n      swap1\n      revert\n    tag_140:\n        /* \"contracts/Ownable.sol\":617:618  0 */\n      0x00\n        /* \"contracts/Ownable.sol\":597:619  newOwner != address(0) */\n      0xffffffffffffffffffffffffffffffffffffffff\n      and\n        /* \"contracts/Ownable.sol\":597:605  newOwner */\n      dup2\n        /* \"contracts/Ownable.sol\":597:619  newOwner != address(0) */\n      0xffffffffffffffffffffffffffffffffffffffff\n      and\n      eq\n      iszero\n        /* \"contracts/Ownable.sol\":589:662  require(newOwner != address(0), \"Ownable: new owner is the zero address\") */\n      tag_143\n      jumpi\n      mload(0x40)\n      0x08c379a000000000000000000000000000000000000000000000000000000000\n      dup2\n      mstore\n      0x04\n      add\n      tag_144\n      swap1\n      tag_145\n      jump\t// in\n    tag_144:\n      mload(0x40)\n      dup1\n      swap2\n      sub\n      swap1\n      revert\n    tag_143:\n        /* \"contracts/Ownable.sol\":706:714  newOwner */\n      dup1\n        /* \"contracts/Ownable.sol\":677:715  OwnershipTransferred(_owner, newOwner) */\n      0xffffffffffffffffffffffffffffffffffffffff\n      and\n        /* \"contracts/Ownable.sol\":698:704  _owner */\n      0x00\n      dup1\n      sload\n      swap1\n      0x0100\n      exp\n      swap1\n      div\n      0xffffffffffffffffffffffffffffffffffffffff\n      and\n        /* \"contracts/Ownable.sol\":677:715  OwnershipTransferred(_owner, newOwner) */\n      0xffffffffffffffffffffffffffffffffffffffff\n      and\n      0x8be0079c531659141344cd1fd0a4f28419497f9722a3daafe3b4186f6b6457e0\n      mload(0x40)\n      mload(0x40)\n      dup1\n      swap2\n      sub\n      swap1\n      log3\n        /* \"contracts/Ownable.sol\":734:742  newOwner */\n      dup1\n        /* \"contracts/Ownable.sol\":725:731  _owner */\n      0x00\n      dup1\n        /* \"contracts/Ownable.sol\":725:742  _owner = newOwner */\n      0x0100\n      exp\n      dup2\n      sload\n      dup2\n      0xffffffffffffffffffffffffffffffffffffffff\n      mul\n      not\n      and\n      swap1\n      dup4\n      0xffffffffffffffffffffffffffffffffffffffff\n      and\n      mul\n      or\n      swap1\n      sstore\n      pop\n        /* \"contracts/Ownable.sol\":517:749  function transferOwnership(address newOwner) public onlyOwner {... */\n      pop\n      jump\t// out\n        /* \"contracts/SafeMath.sol\":80:256  function add(uint256 a, uint256 b) internal pure returns (uint256) {... */\n    tag_108:\n        /* \"contracts/SafeMath.sol\":138:145  uint256 */\n      0x00\n        /* \"contracts/SafeMath.sol\":157:166  uint256 c */\n      dup1\n        /* \"contracts/SafeMath.sol\":173:174  b */\n      dup3\n        /* \"contracts/SafeMath.sol\":169:170  a */\n      dup5\n        /* \"contracts/SafeMath.sol\":169:174  a + b */\n      tag_147\n      swap2\n      swap1\n      tag_148\n      jump\t// in\n    tag_147:\n        /* \"contracts/SafeMath.sol\":157:174  uint256 c = a + b */\n      swap1\n      pop\n        /* \"contracts/SafeMath.sol\":197:198  a */\n      dup4\n        /* \"contracts/SafeMath.sol\":192:193  c */\n      dup2\n        /* \"contracts/SafeMath.sol\":192:198  c >= a */\n      lt\n      iszero\n        /* \"contracts/SafeMath.sol\":184:230  require(c >= a, \"SafeMath: addition overflow\") */\n      tag_149\n      jumpi\n      mload(0x40)\n      0x08c379a000000000000000000000000000000000000000000000000000000000\n      dup2\n      mstore\n      0x04\n      add\n      tag_150\n      swap1\n      tag_151\n      jump\t// in\n    tag_150:\n      mload(0x40)\n      dup1\n      swap2\n      sub\n      swap1\n      revert\n    tag_149:\n        /* \"contracts/SafeMath.sol\":248:249  c */\n      dup1\n        /* \"contracts/SafeMath.sol\":241:249  return c */\n      swap2\n      pop\n      pop\n        /* \"contracts/SafeMath.sol\":80:256  function add(uint256 a, uint256 b) internal pure returns (uint256) {... */\n      swap3\n      swap2\n      pop\n      pop\n      jump\t// out\n    tag_85:\n      mload(0x40)\n      dup1\n      0xe0\n      add\n      0x40\n      mstore\n      dup1\n      0x00\n      dup2\n      mstore\n      0x20\n      add\n      0x60\n      dup2\n      mstore\n      0x20\n      add\n      0x00\n      dup2\n      mstore\n      0x20\n      add\n      0x00\n      dup2\n      mstore\n      0x20\n      add\n      and(0xffffffffffffffffffffffffffffffffffffffff, 0x00)\n      dup2\n      mstore\n      0x20\n      add\n      and(0xffffffffffffffffffffffffffffffffffffffff, 0x00)\n      dup2\n      mstore\n      0x20\n      add\n      0x00\n      dup2\n      mstore\n      pop\n      swap1\n      jump\t// out\n    tag_104:\n      dup3\n      dup1\n      sload\n      tag_152\n      swap1\n      tag_93\n      jump\t// in\n    tag_152:\n      swap1\n      0x00\n      mstore\n      keccak256(0x00, 0x20)\n      swap1\n      0x1f\n      add\n      0x20\n      swap1\n      div\n      dup2\n      add\n      swap3\n      dup3\n      tag_154\n      jumpi\n      0x00\n      dup6\n      sstore\n      jump(tag_153)\n    tag_154:\n      dup3\n      0x1f\n      lt\n      tag_155\n      jumpi\n      dup1\n      mload\n      not(0xff)\n      and\n      dup4\n      dup1\n      add\n      or\n      dup6\n      sstore\n      jump(tag_153)\n    tag_155:\n      dup3\n      dup1\n      add\n      0x01\n      add\n      dup6\n      sstore\n      dup3\n      iszero\n      tag_153\n      jumpi\n      swap2\n      dup3\n      add\n    tag_156:\n      dup3\n      dup2\n      gt\n      iszero\n      tag_157\n      jumpi\n      dup3\n      mload\n      dup3\n      sstore\n      swap2\n      0x20\n      add\n      swap2\n      swap1\n      0x01\n      add\n      swap1\n      jump(tag_156)\n    tag_157:\n    tag_153:\n      pop\n      swap1\n      pop\n      tag_158\n      swap2\n      swap1\n      tag_159\n      jump\t// in\n    tag_158:\n      pop\n      swap1\n      jump\t// out\n    tag_159:\n    tag_160:\n      dup1\n      dup3\n      gt\n      iszero\n      tag_161\n      jumpi\n      0x00\n      dup2\n      0x00\n      swap1\n      sstore\n      pop\n      0x01\n      add\n      jump(tag_160)\n    tag_161:\n      pop\n      swap1\n      jump\t// out\n        /* \"#utility.yul\":7:351   */\n    tag_163:\n      0x00\n        /* \"#utility.yul\":110:175   */\n      tag_165\n        /* \"#utility.yul\":125:174   */\n      tag_166\n        /* \"#utility.yul\":167:173   */\n      dup5\n        /* \"#utility.yul\":125:174   */\n      tag_167\n      jump\t// in\n    tag_166:\n        /* \"#utility.yul\":110:175   */\n      tag_168\n      jump\t// in\n    tag_165:\n        /* \"#utility.yul\":101:175   */\n      swap1\n      pop\n        /* \"#utility.yul\":198:204   */\n      dup3\n        /* \"#utility.yul\":191:196   */\n      dup2\n        /* \"#utility.yul\":184:205   */\n      mstore\n        /* \"#utility.yul\":236:240   */\n      0x20\n        /* \"#utility.yul\":229:234   */\n      dup2\n        /* \"#utility.yul\":225:241   */\n      add\n        /* \"#utility.yul\":274:277   */\n      dup5\n        /* \"#utility.yul\":265:271   */\n      dup5\n        /* \"#utility.yul\":260:263   */\n      dup5\n        /* \"#utility.yul\":256:272   */\n      add\n        /* \"#utility.yul\":253:278   */\n      gt\n        /* \"#utility.yul\":250:252   */\n      iszero\n      tag_169\n      jumpi\n        /* \"#utility.yul\":291:292   */\n      0x00\n        /* \"#utility.yul\":288:289   */\n      dup1\n        /* \"#utility.yul\":281:293   */\n      revert\n        /* \"#utility.yul\":250:252   */\n    tag_169:\n        /* \"#utility.yul\":304:345   */\n      tag_170\n        /* \"#utility.yul\":338:344   */\n      dup5\n        /* \"#utility.yul\":333:336   */\n      dup3\n        /* \"#utility.yul\":328:331   */\n      dup6\n        /* \"#utility.yul\":304:345   */\n      tag_171\n      jump\t// in\n    tag_170:\n        /* \"#utility.yul\":91:351   */\n      pop\n      swap4\n      swap3\n      pop\n      pop\n      pop\n      jump\t// out\n        /* \"#utility.yul\":357:496   */\n    tag_172:\n      0x00\n        /* \"#utility.yul\":441:447   */\n      dup2\n        /* \"#utility.yul\":428:448   */\n      calldataload\n        /* \"#utility.yul\":419:448   */\n      swap1\n      pop\n        /* \"#utility.yul\":457:490   */\n      tag_174\n        /* \"#utility.yul\":484:489   */\n      dup2\n        /* \"#utility.yul\":457:490   */\n      tag_175\n      jump\t// in\n    tag_174:\n        /* \"#utility.yul\":409:496   */\n      swap3\n      swap2\n      pop\n      pop\n      jump\t// out\n        /* \"#utility.yul\":516:789   */\n    tag_176:\n      0x00\n        /* \"#utility.yul\":621:624   */\n      dup3\n        /* \"#utility.yul\":614:618   */\n      0x1f\n        /* \"#utility.yul\":606:612   */\n      dup4\n        /* \"#utility.yul\":602:619   */\n      add\n        /* \"#utility.yul\":598:625   */\n      slt\n        /* \"#utility.yul\":588:590   */\n      tag_178\n      jumpi\n        /* \"#utility.yul\":639:640   */\n      0x00\n        /* \"#utility.yul\":636:637   */\n      dup1\n        /* \"#utility.yul\":629:641   */\n      revert\n        /* \"#utility.yul\":588:590   */\n    tag_178:\n        /* \"#utility.yul\":679:685   */\n      dup2\n        /* \"#utility.yul\":666:686   */\n      calldataload\n        /* \"#utility.yul\":704:783   */\n      tag_179\n        /* \"#utility.yul\":779:782   */\n      dup5\n        /* \"#utility.yul\":771:777   */\n      dup3\n        /* \"#utility.yul\":764:768   */\n      0x20\n        /* \"#utility.yul\":756:762   */\n      dup7\n        /* \"#utility.yul\":752:769   */\n      add\n        /* \"#utility.yul\":704:783   */\n      tag_163\n      jump\t// in\n    tag_179:\n        /* \"#utility.yul\":695:783   */\n      swap2\n      pop\n        /* \"#utility.yul\":578:789   */\n      pop\n      swap3\n      swap2\n      pop\n      pop\n      jump\t// out\n        /* \"#utility.yul\":795:934   */\n    tag_180:\n      0x00\n        /* \"#utility.yul\":879:885   */\n      dup2\n        /* \"#utility.yul\":866:886   */\n      calldataload\n        /* \"#utility.yul\":857:886   */\n      swap1\n      pop\n        /* \"#utility.yul\":895:928   */\n      tag_182\n        /* \"#utility.yul\":922:927   */\n      dup2\n        /* \"#utility.yul\":895:928   */\n      tag_183\n      jump\t// in\n    tag_182:\n        /* \"#utility.yul\":847:934   */\n      swap3\n      swap2\n      pop\n      pop\n      jump\t// out\n        /* \"#utility.yul\":940:1202   */\n    tag_20:\n      0x00\n        /* \"#utility.yul\":1048:1050   */\n      0x20\n        /* \"#utility.yul\":1036:1045   */\n      dup3\n        /* \"#utility.yul\":1027:1034   */\n      dup5\n        /* \"#utility.yul\":1023:1046   */\n      sub\n        /* \"#utility.yul\":1019:1051   */\n      slt\n        /* \"#utility.yul\":1016:1018   */\n      iszero\n      tag_185\n      jumpi\n        /* \"#utility.yul\":1064:1065   */\n      0x00\n        /* \"#utility.yul\":1061:1062   */\n      dup1\n        /* \"#utility.yul\":1054:1066   */\n      revert\n        /* \"#utility.yul\":1016:1018   */\n    tag_185:\n        /* \"#utility.yul\":1107:1108   */\n      0x00\n        /* \"#utility.yul\":1132:1185   */\n      tag_186\n        /* \"#utility.yul\":1177:1184   */\n      dup5\n        /* \"#utility.yul\":1168:1174   */\n      dup3\n        /* \"#utility.yul\":1157:1166   */\n      dup6\n        /* \"#utility.yul\":1153:1175   */\n      add\n        /* \"#utility.yul\":1132:1185   */\n      tag_172\n      jump\t// in\n    tag_186:\n        /* \"#utility.yul\":1122:1185   */\n      swap2\n      pop\n        /* \"#utility.yul\":1078:1195   */\n      pop\n        /* \"#utility.yul\":1006:1202   */\n      swap3\n      swap2\n      pop\n      pop\n      jump\t// out\n        /* \"#utility.yul\":1208:1615   */\n    tag_24:\n      0x00\n      dup1\n        /* \"#utility.yul\":1333:1335   */\n      0x40\n        /* \"#utility.yul\":1321:1330   */\n      dup4\n        /* \"#utility.yul\":1312:1319   */\n      dup6\n        /* \"#utility.yul\":1308:1331   */\n      sub\n        /* \"#utility.yul\":1304:1336   */\n      slt\n        /* \"#utility.yul\":1301:1303   */\n      iszero\n      tag_188\n      jumpi\n        /* \"#utility.yul\":1349:1350   */\n      0x00\n        /* \"#utility.yul\":1346:1347   */\n      dup1\n        /* \"#utility.yul\":1339:1351   */\n      revert\n        /* \"#utility.yul\":1301:1303   */\n    tag_188:\n        /* \"#utility.yul\":1392:1393   */\n      0x00\n        /* \"#utility.yul\":1417:1470   */\n      tag_189\n        /* \"#utility.yul\":1462:1469   */\n      dup6\n        /* \"#utility.yul\":1453:1459   */\n      dup3\n        /* \"#utility.yul\":1442:1451   */\n      dup7\n        /* \"#utility.yul\":1438:1460   */\n      add\n        /* \"#utility.yul\":1417:1470   */\n      tag_172\n      jump\t// in\n    tag_189:\n        /* \"#utility.yul\":1407:1470   */\n      swap3\n      pop\n        /* \"#utility.yul\":1363:1480   */\n      pop\n        /* \"#utility.yul\":1519:1521   */\n      0x20\n        /* \"#utility.yul\":1545:1598   */\n      tag_190\n        /* \"#utility.yul\":1590:1597   */\n      dup6\n        /* \"#utility.yul\":1581:1587   */\n      dup3\n        /* \"#utility.yul\":1570:1579   */\n      dup7\n        /* \"#utility.yul\":1566:1588   */\n      add\n        /* \"#utility.yul\":1545:1598   */\n      tag_180\n      jump\t// in\n    tag_190:\n        /* \"#utility.yul\":1535:1598   */\n      swap2\n      pop\n        /* \"#utility.yul\":1490:1608   */\n      pop\n        /* \"#utility.yul\":1291:1615   */\n      swap3\n      pop\n      swap3\n      swap1\n      pop\n      jump\t// out\n        /* \"#utility.yul\":1621:2432   */\n    tag_43:\n      0x00\n      dup1\n      0x00\n      dup1\n        /* \"#utility.yul\":1790:1793   */\n      0x80\n        /* \"#utility.yul\":1778:1787   */\n      dup6\n        /* \"#utility.yul\":1769:1776   */\n      dup8\n        /* \"#utility.yul\":1765:1788   */\n      sub\n        /* \"#utility.yul\":1761:1794   */\n      slt\n        /* \"#utility.yul\":1758:1760   */\n      iszero\n      tag_192\n      jumpi\n        /* \"#utility.yul\":1807:1808   */\n      0x00\n        /* \"#utility.yul\":1804:1805   */\n      dup1\n        /* \"#utility.yul\":1797:1809   */\n      revert\n        /* \"#utility.yul\":1758:1760   */\n    tag_192:\n        /* \"#utility.yul\":1878:1879   */\n      0x00\n        /* \"#utility.yul\":1867:1876   */\n      dup6\n        /* \"#utility.yul\":1863:1880   */\n      add\n        /* \"#utility.yul\":1850:1881   */\n      calldataload\n        /* \"#utility.yul\":1908:1926   */\n      0xffffffffffffffff\n        /* \"#utility.yul\":1900:1906   */\n      dup2\n        /* \"#utility.yul\":1897:1927   */\n      gt\n        /* \"#utility.yul\":1894:1896   */\n      iszero\n      tag_193\n      jumpi\n        /* \"#utility.yul\":1940:1941   */\n      0x00\n        /* \"#utility.yul\":1937:1938   */\n      dup1\n        /* \"#utility.yul\":1930:1942   */\n      revert\n        /* \"#utility.yul\":1894:1896   */\n    tag_193:\n        /* \"#utility.yul\":1968:2031   */\n      tag_194\n        /* \"#utility.yul\":2023:2030   */\n      dup8\n        /* \"#utility.yul\":2014:2020   */\n      dup3\n        /* \"#utility.yul\":2003:2012   */\n      dup9\n        /* \"#utility.yul\":1999:2021   */\n      add\n        /* \"#utility.yul\":1968:2031   */\n      tag_176\n      jump\t// in\n    tag_194:\n        /* \"#utility.yul\":1958:2031   */\n      swap5\n      pop\n        /* \"#utility.yul\":1821:2041   */\n      pop\n        /* \"#utility.yul\":2080:2082   */\n      0x20\n        /* \"#utility.yul\":2106:2159   */\n      tag_195\n        /* \"#utility.yul\":2151:2158   */\n      dup8\n        /* \"#utility.yul\":2142:2148   */\n      dup3\n        /* \"#utility.yul\":2131:2140   */\n      dup9\n        /* \"#utility.yul\":2127:2149   */\n      add\n        /* \"#utility.yul\":2106:2159   */\n      tag_180\n      jump\t// in\n    tag_195:\n        /* \"#utility.yul\":2096:2159   */\n      swap4\n      pop\n        /* \"#utility.yul\":2051:2169   */\n      pop\n        /* \"#utility.yul\":2208:2210   */\n      0x40\n        /* \"#utility.yul\":2234:2287   */\n      tag_196\n        /* \"#utility.yul\":2279:2286   */\n      dup8\n        /* \"#utility.yul\":2270:2276   */\n      dup3\n        /* \"#utility.yul\":2259:2268   */\n      dup9\n        /* \"#utility.yul\":2255:2277   */\n      add\n        /* \"#utility.yul\":2234:2287   */\n      tag_180\n      jump\t// in\n    tag_196:\n        /* \"#utility.yul\":2224:2287   */\n      swap3\n      pop\n        /* \"#utility.yul\":2179:2297   */\n      pop\n        /* \"#utility.yul\":2336:2338   */\n      0x60\n        /* \"#utility.yul\":2362:2415   */\n      tag_197\n        /* \"#utility.yul\":2407:2414   */\n      dup8\n        /* \"#utility.yul\":2398:2404   */\n      dup3\n        /* \"#utility.yul\":2387:2396   */\n      dup9\n        /* \"#utility.yul\":2383:2405   */\n      add\n        /* \"#utility.yul\":2362:2415   */\n      tag_172\n      jump\t// in\n    tag_197:\n        /* \"#utility.yul\":2352:2415   */\n      swap2\n      pop\n        /* \"#utility.yul\":2307:2425   */\n      pop\n        /* \"#utility.yul\":1748:2432   */\n      swap3\n      swap6\n      swap2\n      swap5\n      pop\n      swap3\n      pop\n      jump\t// out\n        /* \"#utility.yul\":2438:2700   */\n    tag_37:\n      0x00\n        /* \"#utility.yul\":2546:2548   */\n      0x20\n        /* \"#utility.yul\":2534:2543   */\n      dup3\n        /* \"#utility.yul\":2525:2532   */\n      dup5\n        /* \"#utility.yul\":2521:2544   */\n      sub\n        /* \"#utility.yul\":2517:2549   */\n      slt\n        /* \"#utility.yul\":2514:2516   */\n      iszero\n      tag_199\n      jumpi\n        /* \"#utility.yul\":2562:2563   */\n      0x00\n        /* \"#utility.yul\":2559:2560   */\n      dup1\n        /* \"#utility.yul\":2552:2564   */\n      revert\n        /* \"#utility.yul\":2514:2516   */\n    tag_199:\n        /* \"#utility.yul\":2605:2606   */\n      0x00\n        /* \"#utility.yul\":2630:2683   */\n      tag_200\n        /* \"#utility.yul\":2675:2682   */\n      dup5\n        /* \"#utility.yul\":2666:2672   */\n      dup3\n        /* \"#utility.yul\":2655:2664   */\n      dup6\n        /* \"#utility.yul\":2651:2673   */\n      add\n        /* \"#utility.yul\":2630:2683   */\n      tag_180\n      jump\t// in\n    tag_200:\n        /* \"#utility.yul\":2620:2683   */\n      swap2\n      pop\n        /* \"#utility.yul\":2576:2693   */\n      pop\n        /* \"#utility.yul\":2504:2700   */\n      swap3\n      swap2\n      pop\n      pop\n      jump\t// out\n        /* \"#utility.yul\":2706:3113   */\n    tag_58:\n      0x00\n      dup1\n        /* \"#utility.yul\":2831:2833   */\n      0x40\n        /* \"#utility.yul\":2819:2828   */\n      dup4\n        /* \"#utility.yul\":2810:2817   */\n      dup6\n        /* \"#utility.yul\":2806:2829   */\n      sub\n        /* \"#utility.yul\":2802:2834   */\n      slt\n        /* \"#utility.yul\":2799:2801   */\n      iszero\n      tag_202\n      jumpi\n        /* \"#utility.yul\":2847:2848   */\n      0x00\n        /* \"#utility.yul\":2844:2845   */\n      dup1\n        /* \"#utility.yul\":2837:2849   */\n      revert\n        /* \"#utility.yul\":2799:2801   */\n    tag_202:\n        /* \"#utility.yul\":2890:2891   */\n      0x00\n        /* \"#utility.yul\":2915:2968   */\n      tag_203\n        /* \"#utility.yul\":2960:2967   */\n      dup6\n        /* \"#utility.yul\":2951:2957   */\n      dup3\n        /* \"#utility.yul\":2940:2949   */\n      dup7\n        /* \"#utility.yul\":2936:2958   */\n      add\n        /* \"#utility.yul\":2915:2968   */\n      tag_180\n      jump\t// in\n    tag_203:\n        /* \"#utility.yul\":2905:2968   */\n      swap3\n      pop\n        /* \"#utility.yul\":2861:2978   */\n      pop\n        /* \"#utility.yul\":3017:3019   */\n      0x20\n        /* \"#utility.yul\":3043:3096   */\n      tag_204\n        /* \"#utility.yul\":3088:3095   */\n      dup6\n        /* \"#utility.yul\":3079:3085   */\n      dup3\n        /* \"#utility.yul\":3068:3077   */\n      dup7\n        /* \"#utility.yul\":3064:3086   */\n      add\n        /* \"#utility.yul\":3043:3096   */\n      tag_172\n      jump\t// in\n    tag_204:\n        /* \"#utility.yul\":3033:3096   */\n      swap2\n      pop\n        /* \"#utility.yul\":2988:3106   */\n      pop\n        /* \"#utility.yul\":2789:3113   */\n      swap3\n      pop\n      swap3\n      swap1\n      pop\n      jump\t// out\n        /* \"#utility.yul\":3119:3227   */\n    tag_205:\n        /* \"#utility.yul\":3196:3220   */\n      tag_207\n        /* \"#utility.yul\":3214:3219   */\n      dup2\n        /* \"#utility.yul\":3196:3220   */\n      tag_208\n      jump\t// in\n    tag_207:\n        /* \"#utility.yul\":3191:3194   */\n      dup3\n        /* \"#utility.yul\":3184:3221   */\n      mstore\n        /* \"#utility.yul\":3174:3227   */\n      pop\n      pop\n      jump\t// out\n        /* \"#utility.yul\":3233:3351   */\n    tag_209:\n        /* \"#utility.yul\":3320:3344   */\n      tag_211\n        /* \"#utility.yul\":3338:3343   */\n      dup2\n        /* \"#utility.yul\":3320:3344   */\n      tag_208\n      jump\t// in\n    tag_211:\n        /* \"#utility.yul\":3315:3318   */\n      dup3\n        /* \"#utility.yul\":3308:3345   */\n      mstore\n        /* \"#utility.yul\":3298:3351   */\n      pop\n      pop\n      jump\t// out\n        /* \"#utility.yul\":3357:3466   */\n    tag_212:\n        /* \"#utility.yul\":3438:3459   */\n      tag_214\n        /* \"#utility.yul\":3453:3458   */\n      dup2\n        /* \"#utility.yul\":3438:3459   */\n      tag_215\n      jump\t// in\n    tag_214:\n        /* \"#utility.yul\":3433:3436   */\n      dup3\n        /* \"#utility.yul\":3426:3460   */\n      mstore\n        /* \"#utility.yul\":3416:3466   */\n      pop\n      pop\n      jump\t// out\n        /* \"#utility.yul\":3472:3816   */\n    tag_216:\n      0x00\n        /* \"#utility.yul\":3578:3617   */\n      tag_218\n        /* \"#utility.yul\":3611:3616   */\n      dup3\n        /* \"#utility.yul\":3578:3617   */\n      tag_219\n      jump\t// in\n    tag_218:\n        /* \"#utility.yul\":3633:3694   */\n      tag_220\n        /* \"#utility.yul\":3687:3693   */\n      dup2\n        /* \"#utility.yul\":3682:3685   */\n      dup6\n        /* \"#utility.yul\":3633:3694   */\n      tag_221\n      jump\t// in\n    tag_220:\n        /* \"#utility.yul\":3626:3694   */\n      swap4\n      pop\n        /* \"#utility.yul\":3703:3755   */\n      tag_222\n        /* \"#utility.yul\":3748:3754   */\n      dup2\n        /* \"#utility.yul\":3743:3746   */\n      dup6\n        /* \"#utility.yul\":3736:3740   */\n      0x20\n        /* \"#utility.yul\":3729:3734   */\n      dup7\n        /* \"#utility.yul\":3725:3741   */\n      add\n        /* \"#utility.yul\":3703:3755   */\n      tag_223\n      jump\t// in\n    tag_222:\n        /* \"#utility.yul\":3780:3809   */\n      tag_224\n        /* \"#utility.yul\":3802:3808   */\n      dup2\n        /* \"#utility.yul\":3780:3809   */\n      tag_225\n      jump\t// in\n    tag_224:\n        /* \"#utility.yul\":3775:3778   */\n      dup5\n        /* \"#utility.yul\":3771:3810   */\n      add\n        /* \"#utility.yul\":3764:3810   */\n      swap2\n      pop\n        /* \"#utility.yul\":3554:3816   */\n      pop\n      swap3\n      swap2\n      pop\n      pop\n      jump\t// out\n        /* \"#utility.yul\":3822:4186   */\n    tag_226:\n      0x00\n        /* \"#utility.yul\":3938:3977   */\n      tag_228\n        /* \"#utility.yul\":3971:3976   */\n      dup3\n        /* \"#utility.yul\":3938:3977   */\n      tag_219\n      jump\t// in\n    tag_228:\n        /* \"#utility.yul\":3993:4064   */\n      tag_229\n        /* \"#utility.yul\":4057:4063   */\n      dup2\n        /* \"#utility.yul\":4052:4055   */\n      dup6\n        /* \"#utility.yul\":3993:4064   */\n      tag_230\n      jump\t// in\n    tag_229:\n        /* \"#utility.yul\":3986:4064   */\n      swap4\n      pop\n        /* \"#utility.yul\":4073:4125   */\n      tag_231\n        /* \"#utility.yul\":4118:4124   */\n      dup2\n        /* \"#utility.yul\":4113:4116   */\n      dup6\n        /* \"#utility.yul\":4106:4110   */\n      0x20\n        /* \"#utility.yul\":4099:4104   */\n      dup7\n        /* \"#utility.yul\":4095:4111   */\n      add\n        /* \"#utility.yul\":4073:4125   */\n      tag_223\n      jump\t// in\n    tag_231:\n        /* \"#utility.yul\":4150:4179   */\n      tag_232\n        /* \"#utility.yul\":4172:4178   */\n      dup2\n        /* \"#utility.yul\":4150:4179   */\n      tag_225\n      jump\t// in\n    tag_232:\n        /* \"#utility.yul\":4145:4148   */\n      dup5\n        /* \"#utility.yul\":4141:4180   */\n      add\n        /* \"#utility.yul\":4134:4180   */\n      swap2\n      pop\n        /* \"#utility.yul\":3914:4186   */\n      pop\n      swap3\n      swap2\n      pop\n      pop\n      jump\t// out\n        /* \"#utility.yul\":4192:4562   */\n    tag_233:\n      0x00\n        /* \"#utility.yul\":4355:4422   */\n      tag_235\n        /* \"#utility.yul\":4419:4421   */\n      0x26\n        /* \"#utility.yul\":4414:4417   */\n      dup4\n        /* \"#utility.yul\":4355:4422   */\n      tag_230\n      jump\t// in\n    tag_235:\n        /* \"#utility.yul\":4348:4422   */\n      swap2\n      pop\n        /* \"#utility.yul\":4452:4486   */\n      0x4f776e61626c653a206e6577206f776e657220697320746865207a65726f2061\n        /* \"#utility.yul\":4448:4449   */\n      0x00\n        /* \"#utility.yul\":4443:4446   */\n      dup4\n        /* \"#utility.yul\":4439:4450   */\n      add\n        /* \"#utility.yul\":4432:4487   */\n      mstore\n        /* \"#utility.yul\":4518:4526   */\n      0x6464726573730000000000000000000000000000000000000000000000000000\n        /* \"#utility.yul\":4513:4515   */\n      0x20\n        /* \"#utility.yul\":4508:4511   */\n      dup4\n        /* \"#utility.yul\":4504:4516   */\n      add\n        /* \"#utility.yul\":4497:4527   */\n      mstore\n        /* \"#utility.yul\":4553:4555   */\n      0x40\n        /* \"#utility.yul\":4548:4551   */\n      dup3\n        /* \"#utility.yul\":4544:4556   */\n      add\n        /* \"#utility.yul\":4537:4556   */\n      swap1\n      pop\n        /* \"#utility.yul\":4338:4562   */\n      swap2\n      swap1\n      pop\n      jump\t// out\n        /* \"#utility.yul\":4568:4893   */\n    tag_236:\n      0x00\n        /* \"#utility.yul\":4731:4798   */\n      tag_238\n        /* \"#utility.yul\":4795:4797   */\n      0x1b\n        /* \"#utility.yul\":4790:4793   */\n      dup4\n        /* \"#utility.yul\":4731:4798   */\n      tag_230\n      jump\t// in\n    tag_238:\n        /* \"#utility.yul\":4724:4798   */\n      swap2\n      pop\n        /* \"#utility.yul\":4828:4857   */\n      0x536166654d6174683a206164646974696f6e206f766572666c6f770000000000\n        /* \"#utility.yul\":4824:4825   */\n      0x00\n        /* \"#utility.yul\":4819:4822   */\n      dup4\n        /* \"#utility.yul\":4815:4826   */\n      add\n        /* \"#utility.yul\":4808:4858   */\n      mstore\n        /* \"#utility.yul\":4884:4886   */\n      0x20\n        /* \"#utility.yul\":4879:4882   */\n      dup3\n        /* \"#utility.yul\":4875:4887   */\n      add\n        /* \"#utility.yul\":4868:4887   */\n      swap1\n      pop\n        /* \"#utility.yul\":4714:4893   */\n      swap2\n      swap1\n      pop\n      jump\t// out\n        /* \"#utility.yul\":4899:5278   */\n    tag_239:\n      0x00\n        /* \"#utility.yul\":5062:5129   */\n      tag_241\n        /* \"#utility.yul\":5126:5128   */\n      0x2f\n        /* \"#utility.yul\":5121:5124   */\n      dup4\n        /* \"#utility.yul\":5062:5129   */\n      tag_230\n      jump\t// in\n    tag_241:\n        /* \"#utility.yul\":5055:5129   */\n      swap2\n      pop\n        /* \"#utility.yul\":5159:5193   */\n      0x50726f647563744d616e616765723a2063616c6c6572206973206e6f74207468\n        /* \"#utility.yul\":5155:5156   */\n      0x00\n        /* \"#utility.yul\":5150:5153   */\n      dup4\n        /* \"#utility.yul\":5146:5157   */\n      add\n        /* \"#utility.yul\":5139:5194   */\n      mstore\n        /* \"#utility.yul\":5225:5242   */\n      0x652063757272656e74206f776e65720000000000000000000000000000000000\n        /* \"#utility.yul\":5220:5222   */\n      0x20\n        /* \"#utility.yul\":5215:5218   */\n      dup4\n        /* \"#utility.yul\":5211:5223   */\n      add\n        /* \"#utility.yul\":5204:5243   */\n      mstore\n        /* \"#utility.yul\":5269:5271   */\n      0x40\n        /* \"#utility.yul\":5264:5267   */\n      dup3\n        /* \"#utility.yul\":5260:5272   */\n      add\n        /* \"#utility.yul\":5253:5272   */\n      swap1\n      pop\n        /* \"#utility.yul\":5045:5278   */\n      swap2\n      swap1\n      pop\n      jump\t// out\n        /* \"#utility.yul\":5284:5614   */\n    tag_242:\n      0x00\n        /* \"#utility.yul\":5447:5514   */\n      tag_244\n        /* \"#utility.yul\":5511:5513   */\n      0x20\n        /* \"#utility.yul\":5506:5509   */\n      dup4\n        /* \"#utility.yul\":5447:5514   */\n      tag_230\n      jump\t// in\n    tag_244:\n        /* \"#utility.yul\":5440:5514   */\n      swap2\n      pop\n        /* \"#utility.yul\":5544:5578   */\n      0x4f776e61626c653a2063616c6c6572206973206e6f7420746865206f776e6572\n        /* \"#utility.yul\":5540:5541   */\n      0x00\n        /* \"#utility.yul\":5535:5538   */\n      dup4\n        /* \"#utility.yul\":5531:5542   */\n      add\n        /* \"#utility.yul\":5524:5579   */\n      mstore\n        /* \"#utility.yul\":5605:5607   */\n      0x20\n        /* \"#utility.yul\":5600:5603   */\n      dup3\n        /* \"#utility.yul\":5596:5608   */\n      add\n        /* \"#utility.yul\":5589:5608   */\n      swap1\n      pop\n        /* \"#utility.yul\":5430:5614   */\n      swap2\n      swap1\n      pop\n      jump\t// out\n        /* \"#utility.yul\":5620:5986   */\n    tag_245:\n      0x00\n        /* \"#utility.yul\":5783:5850   */\n      tag_247\n        /* \"#utility.yul\":5847:5849   */\n      0x22\n        /* \"#utility.yul\":5842:5845   */\n      dup4\n        /* \"#utility.yul\":5783:5850   */\n      tag_230\n      jump\t// in\n    tag_247:\n        /* \"#utility.yul\":5776:5850   */\n      swap2\n      pop\n        /* \"#utility.yul\":5880:5914   */\n      0x50726f647563744d616e616765723a20696e76616c69642070726f6475637420\n        /* \"#utility.yul\":5876:5877   */\n      0x00\n        /* \"#utility.yul\":5871:5874   */\n      dup4\n        /* \"#utility.yul\":5867:5878   */\n      add\n        /* \"#utility.yul\":5860:5915   */\n      mstore\n        /* \"#utility.yul\":5946:5950   */\n      0x4944000000000000000000000000000000000000000000000000000000000000\n        /* \"#utility.yul\":5941:5943   */\n      0x20\n        /* \"#utility.yul\":5936:5939   */\n      dup4\n        /* \"#utility.yul\":5932:5944   */\n      add\n        /* \"#utility.yul\":5925:5951   */\n      mstore\n        /* \"#utility.yul\":5977:5979   */\n      0x40\n        /* \"#utility.yul\":5972:5975   */\n      dup3\n        /* \"#utility.yul\":5968:5980   */\n      add\n        /* \"#utility.yul\":5961:5980   */\n      swap1\n      pop\n        /* \"#utility.yul\":5766:5986   */\n      swap2\n      swap1\n      pop\n      jump\t// out\n        /* \"#utility.yul\":5992:6369   */\n    tag_248:\n      0x00\n        /* \"#utility.yul\":6155:6222   */\n      tag_250\n        /* \"#utility.yul\":6219:6221   */\n      0x2d\n        /* \"#utility.yul\":6214:6217   */\n      dup4\n        /* \"#utility.yul\":6155:6222   */\n      tag_230\n      jump\t// in\n    tag_250:\n        /* \"#utility.yul\":6148:6222   */\n      swap2\n      pop\n        /* \"#utility.yul\":6252:6286   */\n      0x57686974656c6973744d616e616765723a206164647265737320697320746865\n        /* \"#utility.yul\":6248:6249   */\n      0x00\n        /* \"#utility.yul\":6243:6246   */\n      dup4\n        /* \"#utility.yul\":6239:6250   */\n      add\n        /* \"#utility.yul\":6232:6287   */\n      mstore\n        /* \"#utility.yul\":6318:6333   */\n      0x207a65726f206164647265737300000000000000000000000000000000000000\n        /* \"#utility.yul\":6313:6315   */\n      0x20\n        /* \"#utility.yul\":6308:6311   */\n      dup4\n        /* \"#utility.yul\":6304:6316   */\n      add\n        /* \"#utility.yul\":6297:6334   */\n      mstore\n        /* \"#utility.yul\":6360:6362   */\n      0x40\n        /* \"#utility.yul\":6355:6358   */\n      dup3\n        /* \"#utility.yul\":6351:6363   */\n      add\n        /* \"#utility.yul\":6344:6363   */\n      swap1\n      pop\n        /* \"#utility.yul\":6138:6369   */\n      swap2\n      swap1\n      pop\n      jump\t// out\n        /* \"#utility.yul\":6445:7953   */\n    tag_251:\n      0x00\n        /* \"#utility.yul\":6598:6602   */\n      0xe0\n        /* \"#utility.yul\":6593:6596   */\n      dup4\n        /* \"#utility.yul\":6589:6603   */\n      add\n        /* \"#utility.yul\":6683:6687   */\n      0x00\n        /* \"#utility.yul\":6676:6681   */\n      dup4\n        /* \"#utility.yul\":6672:6688   */\n      add\n        /* \"#utility.yul\":6666:6689   */\n      mload\n        /* \"#utility.yul\":6702:6765   */\n      tag_253\n        /* \"#utility.yul\":6759:6763   */\n      0x00\n        /* \"#utility.yul\":6754:6757   */\n      dup7\n        /* \"#utility.yul\":6750:6764   */\n      add\n        /* \"#utility.yul\":6736:6748   */\n      dup3\n        /* \"#utility.yul\":6702:6765   */\n      tag_254\n      jump\t// in\n    tag_253:\n        /* \"#utility.yul\":6613:6775   */\n      pop\n        /* \"#utility.yul\":6857:6861   */\n      0x20\n        /* \"#utility.yul\":6850:6855   */\n      dup4\n        /* \"#utility.yul\":6846:6862   */\n      add\n        /* \"#utility.yul\":6840:6863   */\n      mload\n        /* \"#utility.yul\":6910:6913   */\n      dup5\n        /* \"#utility.yul\":6904:6908   */\n      dup3\n        /* \"#utility.yul\":6900:6914   */\n      sub\n        /* \"#utility.yul\":6893:6897   */\n      0x20\n        /* \"#utility.yul\":6888:6891   */\n      dup7\n        /* \"#utility.yul\":6884:6898   */\n      add\n        /* \"#utility.yul\":6877:6915   */\n      mstore\n        /* \"#utility.yul\":6936:7009   */\n      tag_255\n        /* \"#utility.yul\":7004:7008   */\n      dup3\n        /* \"#utility.yul\":6990:7002   */\n      dup3\n        /* \"#utility.yul\":6936:7009   */\n      tag_216\n      jump\t// in\n    tag_255:\n        /* \"#utility.yul\":6928:7009   */\n      swap2\n      pop\n        /* \"#utility.yul\":6785:7020   */\n      pop\n        /* \"#utility.yul\":7107:7111   */\n      0x40\n        /* \"#utility.yul\":7100:7105   */\n      dup4\n        /* \"#utility.yul\":7096:7112   */\n      add\n        /* \"#utility.yul\":7090:7113   */\n      mload\n        /* \"#utility.yul\":7126:7189   */\n      tag_256\n        /* \"#utility.yul\":7183:7187   */\n      0x40\n        /* \"#utility.yul\":7178:7181   */\n      dup7\n        /* \"#utility.yul\":7174:7188   */\n      add\n        /* \"#utility.yul\":7160:7172   */\n      dup3\n        /* \"#utility.yul\":7126:7189   */\n      tag_254\n      jump\t// in\n    tag_256:\n        /* \"#utility.yul\":7030:7199   */\n      pop\n        /* \"#utility.yul\":7288:7292   */\n      0x60\n        /* \"#utility.yul\":7281:7286   */\n      dup4\n        /* \"#utility.yul\":7277:7293   */\n      add\n        /* \"#utility.yul\":7271:7294   */\n      mload\n        /* \"#utility.yul\":7307:7370   */\n      tag_257\n        /* \"#utility.yul\":7364:7368   */\n      0x60\n        /* \"#utility.yul\":7359:7362   */\n      dup7\n        /* \"#utility.yul\":7355:7369   */\n      add\n        /* \"#utility.yul\":7341:7353   */\n      dup3\n        /* \"#utility.yul\":7307:7370   */\n      tag_254\n      jump\t// in\n    tag_257:\n        /* \"#utility.yul\":7209:7380   */\n      pop\n        /* \"#utility.yul\":7470:7474   */\n      0x80\n        /* \"#utility.yul\":7463:7468   */\n      dup4\n        /* \"#utility.yul\":7459:7475   */\n      add\n        /* \"#utility.yul\":7453:7476   */\n      mload\n        /* \"#utility.yul\":7489:7552   */\n      tag_258\n        /* \"#utility.yul\":7546:7550   */\n      0x80\n        /* \"#utility.yul\":7541:7544   */\n      dup7\n        /* \"#utility.yul\":7537:7551   */\n      add\n        /* \"#utility.yul\":7523:7535   */\n      dup3\n        /* \"#utility.yul\":7489:7552   */\n      tag_205\n      jump\t// in\n    tag_258:\n        /* \"#utility.yul\":7390:7562   */\n      pop\n        /* \"#utility.yul\":7652:7656   */\n      0xa0\n        /* \"#utility.yul\":7645:7650   */\n      dup4\n        /* \"#utility.yul\":7641:7657   */\n      add\n        /* \"#utility.yul\":7635:7658   */\n      mload\n        /* \"#utility.yul\":7671:7734   */\n      tag_259\n        /* \"#utility.yul\":7728:7732   */\n      0xa0\n        /* \"#utility.yul\":7723:7726   */\n      dup7\n        /* \"#utility.yul\":7719:7733   */\n      add\n        /* \"#utility.yul\":7705:7717   */\n      dup3\n        /* \"#utility.yul\":7671:7734   */\n      tag_205\n      jump\t// in\n    tag_259:\n        /* \"#utility.yul\":7572:7744   */\n      pop\n        /* \"#utility.yul\":7834:7838   */\n      0xc0\n        /* \"#utility.yul\":7827:7832   */\n      dup4\n        /* \"#utility.yul\":7823:7839   */\n      add\n        /* \"#utility.yul\":7817:7840   */\n      mload\n        /* \"#utility.yul\":7853:7916   */\n      tag_260\n        /* \"#utility.yul\":7910:7914   */\n      0xc0\n        /* \"#utility.yul\":7905:7908   */\n      dup7\n        /* \"#utility.yul\":7901:7915   */\n      add\n        /* \"#utility.yul\":7887:7899   */\n      dup3\n        /* \"#utility.yul\":7853:7916   */\n      tag_254\n      jump\t// in\n    tag_260:\n        /* \"#utility.yul\":7754:7926   */\n      pop\n        /* \"#utility.yul\":7943:7947   */\n      dup1\n        /* \"#utility.yul\":7936:7947   */\n      swap2\n      pop\n        /* \"#utility.yul\":6567:7953   */\n      pop\n      swap3\n      swap2\n      pop\n      pop\n      jump\t// out\n        /* \"#utility.yul\":7959:8067   */\n    tag_254:\n        /* \"#utility.yul\":8036:8060   */\n      tag_262\n        /* \"#utility.yul\":8054:8059   */\n      dup2\n        /* \"#utility.yul\":8036:8060   */\n      tag_263\n      jump\t// in\n    tag_262:\n        /* \"#utility.yul\":8031:8034   */\n      dup3\n        /* \"#utility.yul\":8024:8061   */\n      mstore\n        /* \"#utility.yul\":8014:8067   */\n      pop\n      pop\n      jump\t// out\n        /* \"#utility.yul\":8073:8191   */\n    tag_264:\n        /* \"#utility.yul\":8160:8184   */\n      tag_266\n        /* \"#utility.yul\":8178:8183   */\n      dup2\n        /* \"#utility.yul\":8160:8184   */\n      tag_263\n      jump\t// in\n    tag_266:\n        /* \"#utility.yul\":8155:8158   */\n      dup3\n        /* \"#utility.yul\":8148:8185   */\n      mstore\n        /* \"#utility.yul\":8138:8191   */\n      pop\n      pop\n      jump\t// out\n        /* \"#utility.yul\":8197:8419   */\n    tag_63:\n      0x00\n        /* \"#utility.yul\":8328:8330   */\n      0x20\n        /* \"#utility.yul\":8317:8326   */\n      dup3\n        /* \"#utility.yul\":8313:8331   */\n      add\n        /* \"#utility.yul\":8305:8331   */\n      swap1\n      pop\n        /* \"#utility.yul\":8341:8412   */\n      tag_268\n        /* \"#utility.yul\":8409:8410   */\n      0x00\n        /* \"#utility.yul\":8398:8407   */\n      dup4\n        /* \"#utility.yul\":8394:8411   */\n      add\n        /* \"#utility.yul\":8385:8391   */\n      dup5\n        /* \"#utility.yul\":8341:8412   */\n      tag_209\n      jump\t// in\n    tag_268:\n        /* \"#utility.yul\":8295:8419   */\n      swap3\n      swap2\n      pop\n      pop\n      jump\t// out\n        /* \"#utility.yul\":8425:8635   */\n    tag_30:\n      0x00\n        /* \"#utility.yul\":8550:8552   */\n      0x20\n        /* \"#utility.yul\":8539:8548   */\n      dup3\n        /* \"#utility.yul\":8535:8553   */\n      add\n        /* \"#utility.yul\":8527:8553   */\n      swap1\n      pop\n        /* \"#utility.yul\":8563:8628   */\n      tag_270\n        /* \"#utility.yul\":8625:8626   */\n      0x00\n        /* \"#utility.yul\":8614:8623   */\n      dup4\n        /* \"#utility.yul\":8610:8627   */\n      add\n        /* \"#utility.yul\":8601:8607   */\n      dup5\n        /* \"#utility.yul\":8563:8628   */\n      tag_212\n      jump\t// in\n    tag_270:\n        /* \"#utility.yul\":8517:8635   */\n      swap3\n      swap2\n      pop\n      pop\n      jump\t// out\n        /* \"#utility.yul\":8641:8954   */\n    tag_106:\n      0x00\n        /* \"#utility.yul\":8792:8794   */\n      0x20\n        /* \"#utility.yul\":8781:8790   */\n      dup3\n        /* \"#utility.yul\":8777:8795   */\n      add\n        /* \"#utility.yul\":8769:8795   */\n      swap1\n      pop\n        /* \"#utility.yul\":8841:8850   */\n      dup2\n        /* \"#utility.yul\":8835:8839   */\n      dup2\n        /* \"#utility.yul\":8831:8851   */\n      sub\n        /* \"#utility.yul\":8827:8828   */\n      0x00\n        /* \"#utility.yul\":8816:8825   */\n      dup4\n        /* \"#utility.yul\":8812:8829   */\n      add\n        /* \"#utility.yul\":8805:8852   */\n      mstore\n        /* \"#utility.yul\":8869:8947   */\n      tag_272\n        /* \"#utility.yul\":8942:8946   */\n      dup2\n        /* \"#utility.yul\":8933:8939   */\n      dup5\n        /* \"#utility.yul\":8869:8947   */\n      tag_226\n      jump\t// in\n    tag_272:\n        /* \"#utility.yul\":8861:8947   */\n      swap1\n      pop\n        /* \"#utility.yul\":8759:8954   */\n      swap3\n      swap2\n      pop\n      pop\n      jump\t// out\n        /* \"#utility.yul\":8960:9379   */\n    tag_145:\n      0x00\n        /* \"#utility.yul\":9164:9166   */\n      0x20\n        /* \"#utility.yul\":9153:9162   */\n      dup3\n        /* \"#utility.yul\":9149:9167   */\n      add\n        /* \"#utility.yul\":9141:9167   */\n      swap1\n      pop\n        /* \"#utility.yul\":9213:9222   */\n      dup2\n        /* \"#utility.yul\":9207:9211   */\n      dup2\n        /* \"#utility.yul\":9203:9223   */\n      sub\n        /* \"#utility.yul\":9199:9200   */\n      0x00\n        /* \"#utility.yul\":9188:9197   */\n      dup4\n        /* \"#utility.yul\":9184:9201   */\n      add\n        /* \"#utility.yul\":9177:9224   */\n      mstore\n        /* \"#utility.yul\":9241:9372   */\n      tag_274\n        /* \"#utility.yul\":9367:9371   */\n      dup2\n        /* \"#utility.yul\":9241:9372   */\n      tag_233\n      jump\t// in\n    tag_274:\n        /* \"#utility.yul\":9233:9372   */\n      swap1\n      pop\n        /* \"#utility.yul\":9131:9379   */\n      swap2\n      swap1\n      pop\n      jump\t// out\n        /* \"#utility.yul\":9385:9804   */\n    tag_151:\n      0x00\n        /* \"#utility.yul\":9589:9591   */\n      0x20\n        /* \"#utility.yul\":9578:9587   */\n      dup3\n        /* \"#utility.yul\":9574:9592   */\n      add\n        /* \"#utility.yul\":9566:9592   */\n      swap1\n      pop\n        /* \"#utility.yul\":9638:9647   */\n      dup2\n        /* \"#utility.yul\":9632:9636   */\n      dup2\n        /* \"#utility.yul\":9628:9648   */\n      sub\n        /* \"#utility.yul\":9624:9625   */\n      0x00\n        /* \"#utility.yul\":9613:9622   */\n      dup4\n        /* \"#utility.yul\":9609:9626   */\n      add\n        /* \"#utility.yul\":9602:9649   */\n      mstore\n        /* \"#utility.yul\":9666:9797   */\n      tag_276\n        /* \"#utility.yul\":9792:9796   */\n      dup2\n        /* \"#utility.yul\":9666:9797   */\n      tag_236\n      jump\t// in\n    tag_276:\n        /* \"#utility.yul\":9658:9797   */\n      swap1\n      pop\n        /* \"#utility.yul\":9556:9804   */\n      swap2\n      swap1\n      pop\n      jump\t// out\n        /* \"#utility.yul\":9810:10229   */\n    tag_131:\n      0x00\n        /* \"#utility.yul\":10014:10016   */\n      0x20\n        /* \"#utility.yul\":10003:10012   */\n      dup3\n        /* \"#utility.yul\":9999:10017   */\n      add\n        /* \"#utility.yul\":9991:10017   */\n      swap1\n      pop\n        /* \"#utility.yul\":10063:10072   */\n      dup2\n        /* \"#utility.yul\":10057:10061   */\n      dup2\n        /* \"#utility.yul\":10053:10073   */\n      sub\n        /* \"#utility.yul\":10049:10050   */\n      0x00\n        /* \"#utility.yul\":10038:10047   */\n      dup4\n        /* \"#utility.yul\":10034:10051   */\n      add\n        /* \"#utility.yul\":10027:10074   */\n      mstore\n        /* \"#utility.yul\":10091:10222   */\n      tag_278\n        /* \"#utility.yul\":10217:10221   */\n      dup2\n        /* \"#utility.yul\":10091:10222   */\n      tag_239\n      jump\t// in\n    tag_278:\n        /* \"#utility.yul\":10083:10222   */\n      swap1\n      pop\n        /* \"#utility.yul\":9981:10229   */\n      swap2\n      swap1\n      pop\n      jump\t// out\n        /* \"#utility.yul\":10235:10654   */\n    tag_74:\n      0x00\n        /* \"#utility.yul\":10439:10441   */\n      0x20\n        /* \"#utility.yul\":10428:10437   */\n      dup3\n        /* \"#utility.yul\":10424:10442   */\n      add\n        /* \"#utility.yul\":10416:10442   */\n      swap1\n      pop\n        /* \"#utility.yul\":10488:10497   */\n      dup2\n        /* \"#utility.yul\":10482:10486   */\n      dup2\n        /* \"#utility.yul\":10478:10498   */\n      sub\n        /* \"#utility.yul\":10474:10475   */\n      0x00\n        /* \"#utility.yul\":10463:10472   */\n      dup4\n        /* \"#utility.yul\":10459:10476   */\n      add\n        /* \"#utility.yul\":10452:10499   */\n      mstore\n        /* \"#utility.yul\":10516:10647   */\n      tag_280\n        /* \"#utility.yul\":10642:10646   */\n      dup2\n        /* \"#utility.yul\":10516:10647   */\n      tag_242\n      jump\t// in\n    tag_280:\n        /* \"#utility.yul\":10508:10647   */\n      swap1\n      pop\n        /* \"#utility.yul\":10406:10654   */\n      swap2\n      swap1\n      pop\n      jump\t// out\n        /* \"#utility.yul\":10660:11079   */\n    tag_89:\n      0x00\n        /* \"#utility.yul\":10864:10866   */\n      0x20\n        /* \"#utility.yul\":10853:10862   */\n      dup3\n        /* \"#utility.yul\":10849:10867   */\n      add\n        /* \"#utility.yul\":10841:10867   */\n      swap1\n      pop\n        /* \"#utility.yul\":10913:10922   */\n      dup2\n        /* \"#utility.yul\":10907:10911   */\n      dup2\n        /* \"#utility.yul\":10903:10923   */\n      sub\n        /* \"#utility.yul\":10899:10900   */\n      0x00\n        /* \"#utility.yul\":10888:10897   */\n      dup4\n        /* \"#utility.yul\":10884:10901   */\n      add\n        /* \"#utility.yul\":10877:10924   */\n      mstore\n        /* \"#utility.yul\":10941:11072   */\n      tag_282\n        /* \"#utility.yul\":11067:11071   */\n      dup2\n        /* \"#utility.yul\":10941:11072   */\n      tag_245\n      jump\t// in\n    tag_282:\n        /* \"#utility.yul\":10933:11072   */\n      swap1\n      pop\n        /* \"#utility.yul\":10831:11079   */\n      swap2\n      swap1\n      pop\n      jump\t// out\n        /* \"#utility.yul\":11085:11504   */\n    tag_78:\n      0x00\n        /* \"#utility.yul\":11289:11291   */\n      0x20\n        /* \"#utility.yul\":11278:11287   */\n      dup3\n        /* \"#utility.yul\":11274:11292   */\n      add\n        /* \"#utility.yul\":11266:11292   */\n      swap1\n      pop\n        /* \"#utility.yul\":11338:11347   */\n      dup2\n        /* \"#utility.yul\":11332:11336   */\n      dup2\n        /* \"#utility.yul\":11328:11348   */\n      sub\n        /* \"#utility.yul\":11324:11325   */\n      0x00\n        /* \"#utility.yul\":11313:11322   */\n      dup4\n        /* \"#utility.yul\":11309:11326   */\n      add\n        /* \"#utility.yul\":11302:11349   */\n      mstore\n        /* \"#utility.yul\":11366:11497   */\n      tag_284\n        /* \"#utility.yul\":11492:11496   */\n      dup2\n        /* \"#utility.yul\":11366:11497   */\n      tag_248\n      jump\t// in\n    tag_284:\n        /* \"#utility.yul\":11358:11497   */\n      swap1\n      pop\n        /* \"#utility.yul\":11256:11504   */\n      swap2\n      swap1\n      pop\n      jump\t// out\n        /* \"#utility.yul\":11510:11879   */\n    tag_40:\n      0x00\n        /* \"#utility.yul\":11689:11691   */\n      0x20\n        /* \"#utility.yul\":11678:11687   */\n      dup3\n        /* \"#utility.yul\":11674:11692   */\n      add\n        /* \"#utility.yul\":11666:11692   */\n      swap1\n      pop\n        /* \"#utility.yul\":11738:11747   */\n      dup2\n        /* \"#utility.yul\":11732:11736   */\n      dup2\n        /* \"#utility.yul\":11728:11748   */\n      sub\n        /* \"#utility.yul\":11724:11725   */\n      0x00\n        /* \"#utility.yul\":11713:11722   */\n      dup4\n        /* \"#utility.yul\":11709:11726   */\n      add\n        /* \"#utility.yul\":11702:11749   */\n      mstore\n        /* \"#utility.yul\":11766:11872   */\n      tag_286\n        /* \"#utility.yul\":11867:11871   */\n      dup2\n        /* \"#utility.yul\":11858:11864   */\n      dup5\n        /* \"#utility.yul\":11766:11872   */\n      tag_251\n      jump\t// in\n    tag_286:\n        /* \"#utility.yul\":11758:11872   */\n      swap1\n      pop\n        /* \"#utility.yul\":11656:11879   */\n      swap3\n      swap2\n      pop\n      pop\n      jump\t// out\n        /* \"#utility.yul\":11885:12107   */\n    tag_34:\n      0x00\n        /* \"#utility.yul\":12016:12018   */\n      0x20\n        /* \"#utility.yul\":12005:12014   */\n      dup3\n        /* \"#utility.yul\":12001:12019   */\n      add\n        /* \"#utility.yul\":11993:12019   */\n      swap1\n      pop\n        /* \"#utility.yul\":12029:12100   */\n      tag_288\n        /* \"#utility.yul\":12097:12098   */\n      0x00\n        /* \"#utility.yul\":12086:12095   */\n      dup4\n        /* \"#utility.yul\":12082:12099   */\n      add\n        /* \"#utility.yul\":12073:12079   */\n      dup5\n        /* \"#utility.yul\":12029:12100   */\n      tag_264\n      jump\t// in\n    tag_288:\n        /* \"#utility.yul\":11983:12107   */\n      swap3\n      swap2\n      pop\n      pop\n      jump\t// out\n        /* \"#utility.yul\":12113:13090   */\n    tag_49:\n      0x00\n        /* \"#utility.yul\":12432:12435   */\n      0xe0\n        /* \"#utility.yul\":12421:12430   */\n      dup3\n        /* \"#utility.yul\":12417:12436   */\n      add\n        /* \"#utility.yul\":12409:12436   */\n      swap1\n      pop\n        /* \"#utility.yul\":12446:12517   */\n      tag_290\n        /* \"#utility.yul\":12514:12515   */\n      0x00\n        /* \"#utility.yul\":12503:12512   */\n      dup4\n        /* \"#utility.yul\":12499:12516   */\n      add\n        /* \"#utility.yul\":12490:12496   */\n      dup11\n        /* \"#utility.yul\":12446:12517   */\n      tag_264\n      jump\t// in\n    tag_290:\n        /* \"#utility.yul\":12564:12573   */\n      dup2\n        /* \"#utility.yul\":12558:12562   */\n      dup2\n        /* \"#utility.yul\":12554:12574   */\n      sub\n        /* \"#utility.yul\":12549:12551   */\n      0x20\n        /* \"#utility.yul\":12538:12547   */\n      dup4\n        /* \"#utility.yul\":12534:12552   */\n      add\n        /* \"#utility.yul\":12527:12575   */\n      mstore\n        /* \"#utility.yul\":12592:12670   */\n      tag_291\n        /* \"#utility.yul\":12665:12669   */\n      dup2\n        /* \"#utility.yul\":12656:12662   */\n      dup10\n        /* \"#utility.yul\":12592:12670   */\n      tag_226\n      jump\t// in\n    tag_291:\n        /* \"#utility.yul\":12584:12670   */\n      swap1\n      pop\n        /* \"#utility.yul\":12680:12752   */\n      tag_292\n        /* \"#utility.yul\":12748:12750   */\n      0x40\n        /* \"#utility.yul\":12737:12746   */\n      dup4\n        /* \"#utility.yul\":12733:12751   */\n      add\n        /* \"#utility.yul\":12724:12730   */\n      dup9\n        /* \"#utility.yul\":12680:12752   */\n      tag_264\n      jump\t// in\n    tag_292:\n        /* \"#utility.yul\":12762:12834   */\n      tag_293\n        /* \"#utility.yul\":12830:12832   */\n      0x60\n        /* \"#utility.yul\":12819:12828   */\n      dup4\n        /* \"#utility.yul\":12815:12833   */\n      add\n        /* \"#utility.yul\":12806:12812   */\n      dup8\n        /* \"#utility.yul\":12762:12834   */\n      tag_264\n      jump\t// in\n    tag_293:\n        /* \"#utility.yul\":12844:12917   */\n      tag_294\n        /* \"#utility.yul\":12912:12915   */\n      0x80\n        /* \"#utility.yul\":12901:12910   */\n      dup4\n        /* \"#utility.yul\":12897:12916   */\n      add\n        /* \"#utility.yul\":12888:12894   */\n      dup7\n        /* \"#utility.yul\":12844:12917   */\n      tag_209\n      jump\t// in\n    tag_294:\n        /* \"#utility.yul\":12927:13000   */\n      tag_295\n        /* \"#utility.yul\":12995:12998   */\n      0xa0\n        /* \"#utility.yul\":12984:12993   */\n      dup4\n        /* \"#utility.yul\":12980:12999   */\n      add\n        /* \"#utility.yul\":12971:12977   */\n      dup6\n        /* \"#utility.yul\":12927:13000   */\n      tag_209\n      jump\t// in\n    tag_295:\n        /* \"#utility.yul\":13010:13083   */\n      tag_296\n        /* \"#utility.yul\":13078:13081   */\n      0xc0\n        /* \"#utility.yul\":13067:13076   */\n      dup4\n        /* \"#utility.yul\":13063:13082   */\n      add\n        /* \"#utility.yul\":13054:13060   */\n      dup5\n        /* \"#utility.yul\":13010:13083   */\n      tag_264\n      jump\t// in\n    tag_296:\n        /* \"#utility.yul\":12399:13090   */\n      swap9\n      swap8\n      pop\n      pop\n      pop\n      pop\n      pop\n      pop\n      pop\n      pop\n      jump\t// out\n        /* \"#utility.yul\":13096:13379   */\n    tag_168:\n      0x00\n        /* \"#utility.yul\":13162:13164   */\n      0x40\n        /* \"#utility.yul\":13156:13165   */\n      mload\n        /* \"#utility.yul\":13146:13165   */\n      swap1\n      pop\n        /* \"#utility.yul\":13204:13208   */\n      dup2\n        /* \"#utility.yul\":13196:13202   */\n      dup2\n        /* \"#utility.yul\":13192:13209   */\n      add\n        /* \"#utility.yul\":13311:13317   */\n      dup2\n        /* \"#utility.yul\":13299:13309   */\n      dup2\n        /* \"#utility.yul\":13296:13318   */\n      lt\n        /* \"#utility.yul\":13275:13293   */\n      0xffffffffffffffff\n        /* \"#utility.yul\":13263:13273   */\n      dup3\n        /* \"#utility.yul\":13260:13294   */\n      gt\n        /* \"#utility.yul\":13257:13319   */\n      or\n        /* \"#utility.yul\":13254:13256   */\n      iszero\n      tag_298\n      jumpi\n        /* \"#utility.yul\":13322:13340   */\n      tag_299\n      tag_300\n      jump\t// in\n    tag_299:\n        /* \"#utility.yul\":13254:13256   */\n    tag_298:\n        /* \"#utility.yul\":13362:13372   */\n      dup1\n        /* \"#utility.yul\":13358:13360   */\n      0x40\n        /* \"#utility.yul\":13351:13373   */\n      mstore\n        /* \"#utility.yul\":13136:13379   */\n      pop\n      swap2\n      swap1\n      pop\n      jump\t// out\n        /* \"#utility.yul\":13385:13717   */\n    tag_167:\n      0x00\n        /* \"#utility.yul\":13537:13555   */\n      0xffffffffffffffff\n        /* \"#utility.yul\":13529:13535   */\n      dup3\n        /* \"#utility.yul\":13526:13556   */\n      gt\n        /* \"#utility.yul\":13523:13525   */\n      iszero\n      tag_302\n      jumpi\n        /* \"#utility.yul\":13559:13577   */\n      tag_303\n      tag_300\n      jump\t// in\n    tag_303:\n        /* \"#utility.yul\":13523:13525   */\n    tag_302:\n        /* \"#utility.yul\":13644:13648   */\n      0x1f\n        /* \"#utility.yul\":13640:13649   */\n      not\n        /* \"#utility.yul\":13633:13637   */\n      0x1f\n        /* \"#utility.yul\":13625:13631   */\n      dup4\n        /* \"#utility.yul\":13621:13638   */\n      add\n        /* \"#utility.yul\":13617:13650   */\n      and\n        /* \"#utility.yul\":13609:13650   */\n      swap1\n      pop\n        /* \"#utility.yul\":13705:13709   */\n      0x20\n        /* \"#utility.yul\":13699:13703   */\n      dup2\n        /* \"#utility.yul\":13695:13710   */\n      add\n        /* \"#utility.yul\":13687:13710   */\n      swap1\n      pop\n        /* \"#utility.yul\":13452:13717   */\n      swap2\n      swap1\n      pop\n      jump\t// out\n        /* \"#utility.yul\":13723:13822   */\n    tag_219:\n      0x00\n        /* \"#utility.yul\":13809:13814   */\n      dup2\n        /* \"#utility.yul\":13803:13815   */\n      mload\n        /* \"#utility.yul\":13793:13815   */\n      swap1\n      pop\n        /* \"#utility.yul\":13782:13822   */\n      swap2\n      swap1\n      pop\n      jump\t// out\n        /* \"#utility.yul\":13828:13987   */\n    tag_221:\n      0x00\n        /* \"#utility.yul\":13936:13942   */\n      dup3\n        /* \"#utility.yul\":13931:13934   */\n      dup3\n        /* \"#utility.yul\":13924:13943   */\n      mstore\n        /* \"#utility.yul\":13976:13980   */\n      0x20\n        /* \"#utility.yul\":13971:13974   */\n      dup3\n        /* \"#utility.yul\":13967:13981   */\n      add\n        /* \"#utility.yul\":13952:13981   */\n      swap1\n      pop\n        /* \"#utility.yul\":13914:13987   */\n      swap3\n      swap2\n      pop\n      pop\n      jump\t// out\n        /* \"#utility.yul\":13993:14162   */\n    tag_230:\n      0x00\n        /* \"#utility.yul\":14111:14117   */\n      dup3\n        /* \"#utility.yul\":14106:14109   */\n      dup3\n        /* \"#utility.yul\":14099:14118   */\n      mstore\n        /* \"#utility.yul\":14151:14155   */\n      0x20\n        /* \"#utility.yul\":14146:14149   */\n      dup3\n        /* \"#utility.yul\":14142:14156   */\n      add\n        /* \"#utility.yul\":14127:14156   */\n      swap1\n      pop\n        /* \"#utility.yul\":14089:14162   */\n      swap3\n      swap2\n      pop\n      pop\n      jump\t// out\n        /* \"#utility.yul\":14168:14473   */\n    tag_148:\n      0x00\n        /* \"#utility.yul\":14227:14247   */\n      tag_308\n        /* \"#utility.yul\":14245:14246   */\n      dup3\n        /* \"#utility.yul\":14227:14247   */\n      tag_263\n      jump\t// in\n    tag_308:\n        /* \"#utility.yul\":14222:14247   */\n      swap2\n      pop\n        /* \"#utility.yul\":14261:14281   */\n      tag_309\n        /* \"#utility.yul\":14279:14280   */\n      dup4\n        /* \"#utility.yul\":14261:14281   */\n      tag_263\n      jump\t// in\n    tag_309:\n        /* \"#utility.yul\":14256:14281   */\n      swap3\n      pop\n        /* \"#utility.yul\":14415:14416   */\n      dup3\n        /* \"#utility.yul\":14347:14413   */\n      0xffffffffffffffffffffffffffffffffffffffffffffffffffffffffffffffff\n        /* \"#utility.yul\":14343:14417   */\n      sub\n        /* \"#utility.yul\":14340:14341   */\n      dup3\n        /* \"#utility.yul\":14337:14418   */\n      gt\n        /* \"#utility.yul\":14334:14336   */\n      iszero\n      tag_310\n      jumpi\n        /* \"#utility.yul\":14421:14439   */\n      tag_311\n      tag_312\n      jump\t// in\n    tag_311:\n        /* \"#utility.yul\":14334:14336   */\n    tag_310:\n        /* \"#utility.yul\":14465:14466   */\n      dup3\n        /* \"#utility.yul\":14462:14463   */\n      dup3\n        /* \"#utility.yul\":14458:14467   */\n      add\n        /* \"#utility.yul\":14451:14467   */\n      swap1\n      pop\n        /* \"#utility.yul\":14212:14473   */\n      swap3\n      swap2\n      pop\n      pop\n      jump\t// out\n        /* \"#utility.yul\":14479:14575   */\n    tag_208:\n      0x00\n        /* \"#utility.yul\":14545:14569   */\n      tag_314\n        /* \"#utility.yul\":14563:14568   */\n      dup3\n        /* \"#utility.yul\":14545:14569   */\n      tag_315\n      jump\t// in\n    tag_314:\n        /* \"#utility.yul\":14534:14569   */\n      swap1\n      pop\n        /* \"#utility.yul\":14524:14575   */\n      swap2\n      swap1\n      pop\n      jump\t// out\n        /* \"#utility.yul\":14581:14671   */\n    tag_215:\n      0x00\n        /* \"#utility.yul\":14658:14663   */\n      dup2\n        /* \"#utility.yul\":14651:14664   */\n      iszero\n        /* \"#utility.yul\":14644:14665   */\n      iszero\n        /* \"#utility.yul\":14633:14665   */\n      swap1\n      pop\n        /* \"#utility.yul\":14623:14671   */\n      swap2\n      swap1\n      pop\n      jump\t// out\n        /* \"#utility.yul\":14677:14803   */\n    tag_315:\n      0x00\n        /* \"#utility.yul\":14754:14796   */\n      0xffffffffffffffffffffffffffffffffffffffff\n        /* \"#utility.yul\":14747:14752   */\n      dup3\n        /* \"#utility.yul\":14743:14797   */\n      and\n        /* \"#utility.yul\":14732:14797   */\n      swap1\n      pop\n        /* \"#utility.yul\":14722:14803   */\n      swap2\n      swap1\n      pop\n      jump\t// out\n        /* \"#utility.yul\":14809:14886   */\n    tag_263:\n      0x00\n        /* \"#utility.yul\":14875:14880   */\n      dup2\n        /* \"#utility.yul\":14864:14880   */\n      swap1\n      pop\n        /* \"#utility.yul\":14854:14886   */\n      swap2\n      swap1\n      pop\n      jump\t// out\n        /* \"#utility.yul\":14892:15046   */\n    tag_171:\n        /* \"#utility.yul\":14976:14982   */\n      dup3\n        /* \"#utility.yul\":14971:14974   */\n      dup2\n        /* \"#utility.yul\":14966:14969   */\n      dup4\n        /* \"#utility.yul\":14953:14983   */\n      calldatacopy\n        /* \"#utility.yul\":15038:15039   */\n      0x00\n        /* \"#utility.yul\":15029:15035   */\n      dup4\n        /* \"#utility.yul\":15024:15027   */\n      dup4\n        /* \"#utility.yul\":15020:15036   */\n      add\n        /* \"#utility.yul\":15013:15040   */\n      mstore\n        /* \"#utility.yul\":14943:15046   */\n      pop\n      pop\n      pop\n      jump\t// out\n        /* \"#utility.yul\":15052:15359   */\n    tag_223:\n        /* \"#utility.yul\":15120:15121   */\n      0x00\n        /* \"#utility.yul\":15130:15243   */\n    tag_321:\n        /* \"#utility.yul\":15144:15150   */\n      dup4\n        /* \"#utility.yul\":15141:15142   */\n      dup2\n        /* \"#utility.yul\":15138:15151   */\n      lt\n        /* \"#utility.yul\":15130:15243   */\n      iszero\n      tag_323\n      jumpi\n        /* \"#utility.yul\":15229:15230   */\n      dup1\n        /* \"#utility.yul\":15224:15227   */\n      dup3\n        /* \"#utility.yul\":15220:15231   */\n      add\n        /* \"#utility.yul\":15214:15232   */\n      mload\n        /* \"#utility.yul\":15210:15211   */\n      dup2\n        /* \"#utility.yul\":15205:15208   */\n      dup5\n        /* \"#utility.yul\":15201:15212   */\n      add\n        /* \"#utility.yul\":15194:15233   */\n      mstore\n        /* \"#utility.yul\":15166:15168   */\n      0x20\n        /* \"#utility.yul\":15163:15164   */\n      dup2\n        /* \"#utility.yul\":15159:15169   */\n      add\n        /* \"#utility.yul\":15154:15169   */\n      swap1\n      pop\n        /* \"#utility.yul\":15130:15243   */\n      jump(tag_321)\n    tag_323:\n        /* \"#utility.yul\":15261:15267   */\n      dup4\n        /* \"#utility.yul\":15258:15259   */\n      dup2\n        /* \"#utility.yul\":15255:15268   */\n      gt\n        /* \"#utility.yul\":15252:15254   */\n      iszero\n      tag_324\n      jumpi\n        /* \"#utility.yul\":15341:15342   */\n      0x00\n        /* \"#utility.yul\":15332:15338   */\n      dup5\n        /* \"#utility.yul\":15327:15330   */\n      dup5\n        /* \"#utility.yul\":15323:15339   */\n      add\n        /* \"#utility.yul\":15316:15343   */\n      mstore\n        /* \"#utility.yul\":15252:15254   */\n    tag_324:\n        /* \"#utility.yul\":15101:15359   */\n      pop\n      pop\n      pop\n      pop\n      jump\t// out\n        /* \"#utility.yul\":15365:15685   */\n    tag_93:\n      0x00\n        /* \"#utility.yul\":15446:15447   */\n      0x02\n        /* \"#utility.yul\":15440:15444   */\n      dup3\n        /* \"#utility.yul\":15436:15448   */\n      div\n        /* \"#utility.yul\":15426:15448   */\n      swap1\n      pop\n        /* \"#utility.yul\":15493:15494   */\n      0x01\n        /* \"#utility.yul\":15487:15491   */\n      dup3\n        /* \"#utility.yul\":15483:15495   */\n      and\n        /* \"#utility.yul\":15514:15532   */\n      dup1\n        /* \"#utility.yul\":15504:15506   */\n      tag_326\n      jumpi\n        /* \"#utility.yul\":15570:15574   */\n      0x7f\n        /* \"#utility.yul\":15562:15568   */\n      dup3\n        /* \"#utility.yul\":15558:15575   */\n      and\n        /* \"#utility.yul\":15548:15575   */\n      swap2\n      pop\n        /* \"#utility.yul\":15504:15506   */\n    tag_326:\n        /* \"#utility.yul\":15632:15634   */\n      0x20\n        /* \"#utility.yul\":15624:15630   */\n      dup3\n        /* \"#utility.yul\":15621:15635   */\n      lt\n        /* \"#utility.yul\":15601:15619   */\n      dup2\n        /* \"#utility.yul\":15598:15636   */\n      eq\n        /* \"#utility.yul\":15595:15597   */\n      iszero\n      tag_327\n      jumpi\n        /* \"#utility.yul\":15651:15669   */\n      tag_328\n      tag_329\n      jump\t// in\n    tag_328:\n        /* \"#utility.yul\":15595:15597   */\n    tag_327:\n        /* \"#utility.yul\":15416:15685   */\n      pop\n      swap2\n      swap1\n      pop\n      jump\t// out\n        /* \"#utility.yul\":15691:15871   */\n    tag_312:\n        /* \"#utility.yul\":15739:15816   */\n      0x4e487b7100000000000000000000000000000000000000000000000000000000\n        /* \"#utility.yul\":15736:15737   */\n      0x00\n        /* \"#utility.yul\":15729:15817   */\n      mstore\n        /* \"#utility.yul\":15836:15840   */\n      0x11\n        /* \"#utility.yul\":15833:15834   */\n      0x04\n        /* \"#utility.yul\":15826:15841   */\n      mstore\n        /* \"#utility.yul\":15860:15864   */\n      0x24\n        /* \"#utility.yul\":15857:15858   */\n      0x00\n        /* \"#utility.yul\":15850:15865   */\n      revert\n        /* \"#utility.yul\":15877:16057   */\n    tag_329:\n        /* \"#utility.yul\":15925:16002   */\n      0x4e487b7100000000000000000000000000000000000000000000000000000000\n        /* \"#utility.yul\":15922:15923   */\n      0x00\n        /* \"#utility.yul\":15915:16003   */\n      mstore\n        /* \"#utility.yul\":16022:16026   */\n      0x22\n        /* \"#utility.yul\":16019:16020   */\n      0x04\n        /* \"#utility.yul\":16012:16027   */\n      mstore\n        /* \"#utility.yul\":16046:16050   */\n      0x24\n        /* \"#utility.yul\":16043:16044   */\n      0x00\n        /* \"#utility.yul\":16036:16051   */\n      revert\n        /* \"#utility.yul\":16063:16243   */\n    tag_300:\n        /* \"#utility.yul\":16111:16188   */\n      0x4e487b7100000000000000000000000000000000000000000000000000000000\n        /* \"#utility.yul\":16108:16109   */\n      0x00\n        /* \"#utility.yul\":16101:16189   */\n      mstore\n        /* \"#utility.yul\":16208:16212   */\n      0x41\n        /* \"#utility.yul\":16205:16206   */\n      0x04\n        /* \"#utility.yul\":16198:16213   */\n      mstore\n        /* \"#utility.yul\":16232:16236   */\n      0x24\n        /* \"#utility.yul\":16229:16230   */\n      0x00\n        /* \"#utility.yul\":16222:16237   */\n      revert\n        /* \"#utility.yul\":16249:16351   */\n    tag_225:\n      0x00\n        /* \"#utility.yul\":16341:16343   */\n      0x1f\n        /* \"#utility.yul\":16337:16344   */\n      not\n        /* \"#utility.yul\":16332:16334   */\n      0x1f\n        /* \"#utility.yul\":16325:16330   */\n      dup4\n        /* \"#utility.yul\":16321:16335   */\n      add\n        /* \"#utility.yul\":16317:16345   */\n      and\n        /* \"#utility.yul\":16307:16345   */\n      swap1\n      pop\n        /* \"#utility.yul\":16297:16351   */\n      swap2\n      swap1\n      pop\n      jump\t// out\n        /* \"#utility.yul\":16357:16479   */\n    tag_175:\n        /* \"#utility.yul\":16430:16454   */\n      tag_335\n        /* \"#utility.yul\":16448:16453   */\n      dup2\n        /* \"#utility.yul\":16430:16454   */\n      tag_208\n      jump\t// in\n    tag_335:\n        /* \"#utility.yul\":16423:16428   */\n      dup2\n        /* \"#utility.yul\":16420:16455   */\n      eq\n        /* \"#utility.yul\":16410:16412   */\n      tag_336\n      jumpi\n        /* \"#utility.yul\":16469:16470   */\n      0x00\n        /* \"#utility.yul\":16466:16467   */\n      dup1\n        /* \"#utility.yul\":16459:16471   */\n      revert\n        /* \"#utility.yul\":16410:16412   */\n    tag_336:\n        /* \"#utility.yul\":16400:16479   */\n      pop\n      jump\t// out\n        /* \"#utility.yul\":16485:16607   */\n    tag_183:\n        /* \"#utility.yul\":16558:16582   */\n      tag_338\n        /* \"#utility.yul\":16576:16581   */\n      dup2\n        /* \"#utility.yul\":16558:16582   */\n      tag_263\n      jump\t// in\n    tag_338:\n        /* \"#utility.yul\":16551:16556   */\n      dup2\n        /* \"#utility.yul\":16548:16583   */\n      eq\n        /* \"#utility.yul\":16538:16540   */\n      tag_339\n      jumpi\n        /* \"#utility.yul\":16597:16598   */\n      0x00\n        /* \"#utility.yul\":16594:16595   */\n      dup1\n        /* \"#utility.yul\":16587:16599   */\n      revert\n        /* \"#utility.yul\":16538:16540   */\n    tag_339:\n        /* \"#utility.yul\":16528:16607   */\n      pop\n      jump\t// out\n\n    auxdata: 0xa264697066735822122011168e52ca5e964ce2c28bc31bef2b7eea654269912e3471e12a4287f394497764736f6c63430008000033\n}\n",
				"bytecode": {
					"linkReferences": {},
					"object": "608060405234801561001057600080fd5b50336000806101000a81548173ffffffffffffffffffffffffffffffffffffffff021916908373ffffffffffffffffffffffffffffffffffffffff1602179055503373ffffffffffffffffffffffffffffffffffffffff16600073ffffffffffffffffffffffffffffffffffffffff167f8be0079c531659141344cd1fd0a4f28419497f9722a3daafe3b4186f6b6457e060405160405180910390a36000600481905550611db5806100c36000396000f3fe608060405234801561001057600080fd5b50600436106100cf5760003560e01c80637acc0b201161008c57806386b0e8121161006657806386b0e812146102145780638da5cb5b14610230578063993746421461024e578063f2fde38b1461027e576100cf565b80637acc0b20146101a65780637b9417c8146101dc57806380e52e3f146101f8576100cf565b8063286dd3f5146100d45780632e3036c7146100f05780633af32abf1461010c5780634de91a631461013c5780636813b53b1461015a57806372c606901461018a575b600080fd5b6100ee60048036038101906100e99190611492565b61029a565b005b61010a600480360381019061010591906114bb565b610436565b005b61012660048036038101906101219190611492565b610550565b6040516101339190611963565b60405180910390f35b6101446105a6565b6040516101519190611a82565b60405180910390f35b610174600480360381019061016f9190611572565b6105ac565b6040516101819190611a60565b60405180910390f35b6101a4600480360381019061019f91906114f7565b6107b8565b005b6101c060048036038101906101bb9190611572565b610a03565b6040516101d39796959493929190611a9d565b60405180910390f35b6101f660048036038101906101f19190611492565b610b1d565b005b610212600480360381019061020d9190611492565b610cb8565b005b61022e6004803603810190610229919061159b565b610e17565b005b61023861109a565b6040516102459190611948565b60405180910390f35b61026860048036038101906102639190611492565b6110c3565b6040516102759190611a82565b60405180910390f35b61029860048036038101906102939190611492565b6110db565b005b3373ffffffffffffffffffffffffffffffffffffffff1660008054906101000a900473ffffffffffffffffffffffffffffffffffffffff1673ffffffffffffffffffffffffffffffffffffffff1614610328576040517f08c379a000000000000000000000000000000000000000000000000000000000815260040161031f90611a00565b60405180910390fd5b600073ffffffffffffffffffffffffffffffffffffffff168173ffffffffffffffffffffffffffffffffffffffff161415610398576040517f08c379a000000000000000000000000000000000000000000000000000000000815260040161038f90611a40565b60405180910390fd5b6000600160008373ffffffffffffffffffffffffffffffffffffffff1673ffffffffffffffffffffffffffffffffffffffff16815260200190815260200160002060006101000a81548160ff0219169083151502179055508073ffffffffffffffffffffffffffffffffffffffff167ff1abf01a1043b7c244d128e8595cf0c1d10743b022b03a02dffd8ca3bf729f5a60405160405180910390a250565b3373ffffffffffffffffffffffffffffffffffffffff1660008054906101000a900473ffffffffffffffffffffffffffffffffffffffff1673ffffffffffffffffffffffffffffffffffffffff16146104c4576040517f08c379a00000000000000000000000000000000000000000000000000000000081526004016104bb90611a00565b60405180910390fd5b80600260008473ffffffffffffffffffffffffffffffffffffffff1673ffffffffffffffffffffffffffffffffffffffff16815260200190815260200160002081905550808273ffffffffffffffffffffffffffffffffffffffff167fe2ac27c5c810aead8fa29780fdca1995888a2f0e6b8128a1316e116960b009f860405160405180910390a35050565b6000600160008373ffffffffffffffffffffffffffffffffffffffff1673ffffffffffffffffffffffffffffffffffffffff16815260200190815260200160002060009054906101000a900460ff169050919050565b60045481565b6105b46112f4565b60045482106105f8576040517f08c379a00000000000000000000000000000000000000000000000000000000081526004016105ef90611a20565b60405180910390fd5b60038281548110610632577f4e487b7100000000000000000000000000000000000000000000000000000000600052603260045260246000fd5b90600052602060002090600702016040518060e00160405290816000820154815260200160018201805461066590611c81565b80601f016020809104026020016040519081016040528092919081815260200182805461069190611c81565b80156106de5780601f106106b3576101008083540402835291602001916106de565b820191906000526020600020905b8154815290600101906020018083116106c157829003601f168201915b5050505050815260200160028201548152602001600382015481526020016004820160009054906101000a900473ffffffffffffffffffffffffffffffffffffffff1673ffffffffffffffffffffffffffffffffffffffff1673ffffffffffffffffffffffffffffffffffffffff1681526020016005820160009054906101000a900473ffffffffffffffffffffffffffffffffffffffff1673ffffffffffffffffffffffffffffffffffffffff1673ffffffffffffffffffffffffffffffffffffffff1681526020016006820154815250509050919050565b3373ffffffffffffffffffffffffffffffffffffffff1660008054906101000a900473ffffffffffffffffffffffffffffffffffffffff1673ffffffffffffffffffffffffffffffffffffffff1614610846576040517f08c379a000000000000000000000000000000000000000000000000000000000815260040161083d90611a00565b60405180910390fd5b60036040518060e0016040528060045481526020018681526020018581526020018481526020018373ffffffffffffffffffffffffffffffffffffffff1681526020018373ffffffffffffffffffffffffffffffffffffffff1681526020014281525090806001815401808255809150506001900390600052602060002090600702016000909190919091506000820151816000015560208201518160010190805190602001906108f892919061135d565b50604082015181600201556060820151816003015560808201518160040160006101000a81548173ffffffffffffffffffffffffffffffffffffffff021916908373ffffffffffffffffffffffffffffffffffffffff16021790555060a08201518160050160006101000a81548173ffffffffffffffffffffffffffffffffffffffff021916908373ffffffffffffffffffffffffffffffffffffffff16021790555060c0820151816006015550506004547f543247085674b00368d9cd41416be705a4c27143c024163a6f58bf12a41992f5856040516109d9919061197e565b60405180910390a26109f7600160045461129690919063ffffffff16565b60048190555050505050565b60038181548110610a1357600080fd5b9060005260206000209060070201600091509050806000015490806001018054610a3c90611c81565b80601f0160208091040260200160405190810160405280929190818152602001828054610a6890611c81565b8015610ab55780601f10610a8a57610100808354040283529160200191610ab5565b820191906000526020600020905b815481529060010190602001808311610a9857829003601f168201915b5050505050908060020154908060030154908060040160009054906101000a900473ffffffffffffffffffffffffffffffffffffffff16908060050160009054906101000a900473ffffffffffffffffffffffffffffffffffffffff16908060060154905087565b3373ffffffffffffffffffffffffffffffffffffffff1660008054906101000a900473ffffffffffffffffffffffffffffffffffffffff1673ffffffffffffffffffffffffffffffffffffffff1614610bab576040517f08c379a0000000000000000000000000000000000000000000000000000000008152600401610ba290611a00565b60405180910390fd5b600073ffffffffffffffffffffffffffffffffffffffff168173ffffffffffffffffffffffffffffffffffffffff161415610c1b576040517f08c379a0000000000000000000000000000000000000000000000000000000008152600401610c1290611a40565b60405180910390fd5b60018060008373ffffffffffffffffffffffffffffffffffffffff1673ffffffffffffffffffffffffffffffffffffffff16815260200190815260200160002060006101000a81548160ff0219169083151502179055508073ffffffffffffffffffffffffffffffffffffffff167fd1bba68c128cc3f427e5831b3c6f99f480b6efa6b9e80c757768f6124158cc3f60405160405180910390a250565b3373ffffffffffffffffffffffffffffffffffffffff1660008054906101000a900473ffffffffffffffffffffffffffffffffffffffff1673ffffffffffffffffffffffffffffffffffffffff1614610d46576040517f08c379a0000000000000000000000000000000000000000000000000000000008152600401610d3d90611a00565b60405180910390fd5b6000600260008373ffffffffffffffffffffffffffffffffffffffff1673ffffffffffffffffffffffffffffffffffffffff1681526020019081526020016000205490506000600260008473ffffffffffffffffffffffffffffffffffffffff1673ffffffffffffffffffffffffffffffffffffffff16815260200190815260200160002081905550808273ffffffffffffffffffffffffffffffffffffffff167f12982f922b0573398129ea86655ce1e8e425ec676c9e3d40bf5458688b1ef54460405160405180910390a35050565b60038281548110610e51577f4e487b7100000000000000000000000000000000000000000000000000000000600052603260045260246000fd5b906000526020600020906007020160050160009054906101000a900473ffffffffffffffffffffffffffffffffffffffff1673ffffffffffffffffffffffffffffffffffffffff163373ffffffffffffffffffffffffffffffffffffffff1614610ef0576040517f08c379a0000000000000000000000000000000000000000000000000000000008152600401610ee7906119e0565b60405180910390fd5b600060038381548110610f2c577f4e487b7100000000000000000000000000000000000000000000000000000000600052603260045260246000fd5b906000526020600020906007020160050160009054906101000a900473ffffffffffffffffffffffffffffffffffffffff1690508160038481548110610f9b577f4e487b7100000000000000000000000000000000000000000000000000000000600052603260045260246000fd5b906000526020600020906007020160050160006101000a81548173ffffffffffffffffffffffffffffffffffffffff021916908373ffffffffffffffffffffffffffffffffffffffff1602179055504260038481548110611025577f4e487b7100000000000000000000000000000000000000000000000000000000600052603260045260246000fd5b9060005260206000209060070201600601819055508173ffffffffffffffffffffffffffffffffffffffff168173ffffffffffffffffffffffffffffffffffffffff16847f16b85f49bf01212961345d3016c9a531894accf62eb7680f2045d79185cc0ec060405160405180910390a4505050565b60008060009054906101000a900473ffffffffffffffffffffffffffffffffffffffff16905090565b60026020528060005260406000206000915090505481565b3373ffffffffffffffffffffffffffffffffffffffff1660008054906101000a900473ffffffffffffffffffffffffffffffffffffffff1673ffffffffffffffffffffffffffffffffffffffff1614611169576040517f08c379a000000000000000000000000000000000000000000000000000000000815260040161116090611a00565b60405180910390fd5b600073ffffffffffffffffffffffffffffffffffffffff168173ffffffffffffffffffffffffffffffffffffffff1614156111d9576040517f08c379a00000000000000000000000000000000000000000000000000000000081526004016111d0906119a0565b60405180910390fd5b8073ffffffffffffffffffffffffffffffffffffffff1660008054906101000a900473ffffffffffffffffffffffffffffffffffffffff1673ffffffffffffffffffffffffffffffffffffffff167f8be0079c531659141344cd1fd0a4f28419497f9722a3daafe3b4186f6b6457e060405160405180910390a3806000806101000a81548173ffffffffffffffffffffffffffffffffffffffff021916908373ffffffffffffffffffffffffffffffffffffffff16021790555050565b60008082846112a59190611ba1565b9050838110156112ea576040517f08c379a00000000000000000000000000000000000000000000000000000000081526004016112e1906119c0565b60405180910390fd5b8091505092915050565b6040518060e0016040528060008152602001606081526020016000815260200160008152602001600073ffffffffffffffffffffffffffffffffffffffff168152602001600073ffffffffffffffffffffffffffffffffffffffff168152602001600081525090565b82805461136990611c81565b90600052602060002090601f01602090048101928261138b57600085556113d2565b82601f106113a457805160ff19168380011785556113d2565b828001600101855582156113d2579182015b828111156113d15782518255916020019190600101906113b6565b5b5090506113df91906113e3565b5090565b5b808211156113fc5760008160009055506001016113e4565b5090565b600061141361140e84611b44565b611b13565b90508281526020810184848401111561142b57600080fd5b611436848285611c3f565b509392505050565b60008135905061144d81611d51565b92915050565b600082601f83011261146457600080fd5b8135611474848260208601611400565b91505092915050565b60008135905061148c81611d68565b92915050565b6000602082840312156114a457600080fd5b60006114b28482850161143e565b91505092915050565b600080604083850312156114ce57600080fd5b60006114dc8582860161143e565b92505060206114ed8582860161147d565b9150509250929050565b6000806000806080858703121561150d57600080fd5b600085013567ffffffffffffffff81111561152757600080fd5b61153387828801611453565b94505060206115448782880161147d565b93505060406115558782880161147d565b92505060606115668782880161143e565b91505092959194509250565b60006020828403121561158457600080fd5b60006115928482850161147d565b91505092915050565b600080604083850312156115ae57600080fd5b60006115bc8582860161147d565b92505060206115cd8582860161143e565b9150509250929050565b6115e081611bf7565b82525050565b6115ef81611bf7565b82525050565b6115fe81611c09565b82525050565b600061160f82611b74565b6116198185611b7f565b9350611629818560208601611c4e565b61163281611d40565b840191505092915050565b600061164882611b74565b6116528185611b90565b9350611662818560208601611c4e565b61166b81611d40565b840191505092915050565b6000611683602683611b90565b91507f4f776e61626c653a206e6577206f776e657220697320746865207a65726f206160008301527f64647265737300000000000000000000000000000000000000000000000000006020830152604082019050919050565b60006116e9601b83611b90565b91507f536166654d6174683a206164646974696f6e206f766572666c6f7700000000006000830152602082019050919050565b6000611729602f83611b90565b91507f50726f647563744d616e616765723a2063616c6c6572206973206e6f7420746860008301527f652063757272656e74206f776e657200000000000000000000000000000000006020830152604082019050919050565b600061178f602083611b90565b91507f4f776e61626c653a2063616c6c6572206973206e6f7420746865206f776e65726000830152602082019050919050565b60006117cf602283611b90565b91507f50726f647563744d616e616765723a20696e76616c69642070726f647563742060008301527f49440000000000000000000000000000000000000000000000000000000000006020830152604082019050919050565b6000611835602d83611b90565b91507f57686974656c6973744d616e616765723a20616464726573732069732074686560008301527f207a65726f2061646472657373000000000000000000000000000000000000006020830152604082019050919050565b600060e0830160008301516118a6600086018261192a565b50602083015184820360208601526118be8282611604565b91505060408301516118d3604086018261192a565b5060608301516118e6606086018261192a565b5060808301516118f960808601826115d7565b5060a083015161190c60a08601826115d7565b5060c083015161191f60c086018261192a565b508091505092915050565b61193381611c35565b82525050565b61194281611c35565b82525050565b600060208201905061195d60008301846115e6565b92915050565b600060208201905061197860008301846115f5565b92915050565b60006020820190508181036000830152611998818461163d565b905092915050565b600060208201905081810360008301526119b981611676565b9050919050565b600060208201905081810360008301526119d9816116dc565b9050919050565b600060208201905081810360008301526119f98161171c565b9050919050565b60006020820190508181036000830152611a1981611782565b9050919050565b60006020820190508181036000830152611a39816117c2565b9050919050565b60006020820190508181036000830152611a5981611828565b9050919050565b60006020820190508181036000830152611a7a818461188e565b905092915050565b6000602082019050611a976000830184611939565b92915050565b600060e082019050611ab2600083018a611939565b8181036020830152611ac4818961163d565b9050611ad36040830188611939565b611ae06060830187611939565b611aed60808301866115e6565b611afa60a08301856115e6565b611b0760c0830184611939565b98975050505050505050565b6000604051905081810181811067ffffffffffffffff82111715611b3a57611b39611d11565b5b8060405250919050565b600067ffffffffffffffff821115611b5f57611b5e611d11565b5b601f19601f8301169050602081019050919050565b600081519050919050565b600082825260208201905092915050565b600082825260208201905092915050565b6000611bac82611c35565b9150611bb783611c35565b9250827fffffffffffffffffffffffffffffffffffffffffffffffffffffffffffffffff03821115611bec57611beb611cb3565b5b828201905092915050565b6000611c0282611c15565b9050919050565b60008115159050919050565b600073ffffffffffffffffffffffffffffffffffffffff82169050919050565b6000819050919050565b82818337600083830152505050565b60005b83811015611c6c578082015181840152602081019050611c51565b83811115611c7b576000848401525b50505050565b60006002820490506001821680611c9957607f821691505b60208210811415611cad57611cac611ce2565b5b50919050565b7f4e487b7100000000000000000000000000000000000000000000000000000000600052601160045260246000fd5b7f4e487b7100000000000000000000000000000000000000000000000000000000600052602260045260246000fd5b7f4e487b7100000000000000000000000000000000000000000000000000000000600052604160045260246000fd5b6000601f19601f8301169050919050565b611d5a81611bf7565b8114611d6557600080fd5b50565b611d7181611c35565b8114611d7c57600080fd5b5056fea264697066735822122011168e52ca5e964ce2c28bc31bef2b7eea654269912e3471e12a4287f394497764736f6c63430008000033",
					"opcodes": "PUSH1 0x80 PUSH1 0x40 MSTORE CALLVALUE DUP1 ISZERO PUSH2 0x10 JUMPI PUSH1 0x0 DUP1 REVERT JUMPDEST POP CALLER PUSH1 0x0 DUP1 PUSH2 0x100 EXP DUP2 SLOAD DUP2 PUSH20 0xFFFFFFFFFFFFFFFFFFFFFFFFFFFFFFFFFFFFFFFF MUL NOT AND SWAP1 DUP4 PUSH20 0xFFFFFFFFFFFFFFFFFFFFFFFFFFFFFFFFFFFFFFFF AND MUL OR SWAP1 SSTORE POP CALLER PUSH20 0xFFFFFFFFFFFFFFFFFFFFFFFFFFFFFFFFFFFFFFFF AND PUSH1 0x0 PUSH20 0xFFFFFFFFFFFFFFFFFFFFFFFFFFFFFFFFFFFFFFFF AND PUSH32 0x8BE0079C531659141344CD1FD0A4F28419497F9722A3DAAFE3B4186F6B6457E0 PUSH1 0x40 MLOAD PUSH1 0x40 MLOAD DUP1 SWAP2 SUB SWAP1 LOG3 PUSH1 0x0 PUSH1 0x4 DUP2 SWAP1 SSTORE POP PUSH2 0x1DB5 DUP1 PUSH2 0xC3 PUSH1 0x0 CODECOPY PUSH1 0x0 RETURN INVALID PUSH1 0x80 PUSH1 0x40 MSTORE CALLVALUE DUP1 ISZERO PUSH2 0x10 JUMPI PUSH1 0x0 DUP1 REVERT JUMPDEST POP PUSH1 0x4 CALLDATASIZE LT PUSH2 0xCF JUMPI PUSH1 0x0 CALLDATALOAD PUSH1 0xE0 SHR DUP1 PUSH4 0x7ACC0B20 GT PUSH2 0x8C JUMPI DUP1 PUSH4 0x86B0E812 GT PUSH2 0x66 JUMPI DUP1 PUSH4 0x86B0E812 EQ PUSH2 0x214 JUMPI DUP1 PUSH4 0x8DA5CB5B EQ PUSH2 0x230 JUMPI DUP1 PUSH4 0x99374642 EQ PUSH2 0x24E JUMPI DUP1 PUSH4 0xF2FDE38B EQ PUSH2 0x27E JUMPI PUSH2 0xCF JUMP JUMPDEST DUP1 PUSH4 0x7ACC0B20 EQ PUSH2 0x1A6 JUMPI DUP1 PUSH4 0x7B9417C8 EQ PUSH2 0x1DC JUMPI DUP1 PUSH4 0x80E52E3F EQ PUSH2 0x1F8 JUMPI PUSH2 0xCF JUMP JUMPDEST DUP1 PUSH4 0x286DD3F5 EQ PUSH2 0xD4 JUMPI DUP1 PUSH4 0x2E3036C7 EQ PUSH2 0xF0 JUMPI DUP1 PUSH4 0x3AF32ABF EQ PUSH2 0x10C JUMPI DUP1 PUSH4 0x4DE91A63 EQ PUSH2 0x13C JUMPI DUP1 PUSH4 0x6813B53B EQ PUSH2 0x15A JUMPI DUP1 PUSH4 0x72C60690 EQ PUSH2 0x18A JUMPI JUMPDEST PUSH1 0x0 DUP1 REVERT JUMPDEST PUSH2 0xEE PUSH1 0x4 DUP1 CALLDATASIZE SUB DUP2 ADD SWAP1 PUSH2 0xE9 SWAP2 SWAP1 PUSH2 0x1492 JUMP JUMPDEST PUSH2 0x29A JUMP JUMPDEST STOP JUMPDEST PUSH2 0x10A PUSH1 0x4 DUP1 CALLDATASIZE SUB DUP2 ADD SWAP1 PUSH2 0x105 SWAP2 SWAP1 PUSH2 0x14BB JUMP JUMPDEST PUSH2 0x436 JUMP JUMPDEST STOP JUMPDEST PUSH2 0x126 PUSH1 0x4 DUP1 CALLDATASIZE SUB DUP2 ADD SWAP1 PUSH2 0x121 SWAP2 SWAP1 PUSH2 0x1492 JUMP JUMPDEST PUSH2 0x550 JUMP JUMPDEST PUSH1 0x40 MLOAD PUSH2 0x133 SWAP2 SWAP1 PUSH2 0x1963 JUMP JUMPDEST PUSH1 0x40 MLOAD DUP1 SWAP2 SUB SWAP1 RETURN JUMPDEST PUSH2 0x144 PUSH2 0x5A6 JUMP JUMPDEST PUSH1 0x40 MLOAD PUSH2 0x151 SWAP2 SWAP1 PUSH2 0x1A82 JUMP JUMPDEST PUSH1 0x40 MLOAD DUP1 SWAP2 SUB SWAP1 RETURN JUMPDEST PUSH2 0x174 PUSH1 0x4 DUP1 CALLDATASIZE SUB DUP2 ADD SWAP1 PUSH2 0x16F SWAP2 SWAP1 PUSH2 0x1572 JUMP JUMPDEST PUSH2 0x5AC JUMP JUMPDEST PUSH1 0x40 MLOAD PUSH2 0x181 SWAP2 SWAP1 PUSH2 0x1A60 JUMP JUMPDEST PUSH1 0x40 MLOAD DUP1 SWAP2 SUB SWAP1 RETURN JUMPDEST PUSH2 0x1A4 PUSH1 0x4 DUP1 CALLDATASIZE SUB DUP2 ADD SWAP1 PUSH2 0x19F SWAP2 SWAP1 PUSH2 0x14F7 JUMP JUMPDEST PUSH2 0x7B8 JUMP JUMPDEST STOP JUMPDEST PUSH2 0x1C0 PUSH1 0x4 DUP1 CALLDATASIZE SUB DUP2 ADD SWAP1 PUSH2 0x1BB SWAP2 SWAP1 PUSH2 0x1572 JUMP JUMPDEST PUSH2 0xA03 JUMP JUMPDEST PUSH1 0x40 MLOAD PUSH2 0x1D3 SWAP8 SWAP7 SWAP6 SWAP5 SWAP4 SWAP3 SWAP2 SWAP1 PUSH2 0x1A9D JUMP JUMPDEST PUSH1 0x40 MLOAD DUP1 SWAP2 SUB SWAP1 RETURN JUMPDEST PUSH2 0x1F6 PUSH1 0x4 DUP1 CALLDATASIZE SUB DUP2 ADD SWAP1 PUSH2 0x1F1 SWAP2 SWAP1 PUSH2 0x1492 JUMP JUMPDEST PUSH2 0xB1D JUMP JUMPDEST STOP JUMPDEST PUSH2 0x212 PUSH1 0x4 DUP1 CALLDATASIZE SUB DUP2 ADD SWAP1 PUSH2 0x20D SWAP2 SWAP1 PUSH2 0x1492 JUMP JUMPDEST PUSH2 0xCB8 JUMP JUMPDEST STOP JUMPDEST PUSH2 0x22E PUSH1 0x4 DUP1 CALLDATASIZE SUB DUP2 ADD SWAP1 PUSH2 0x229 SWAP2 SWAP1 PUSH2 0x159B JUMP JUMPDEST PUSH2 0xE17 JUMP JUMPDEST STOP JUMPDEST PUSH2 0x238 PUSH2 0x109A JUMP JUMPDEST PUSH1 0x40 MLOAD PUSH2 0x245 SWAP2 SWAP1 PUSH2 0x1948 JUMP JUMPDEST PUSH1 0x40 MLOAD DUP1 SWAP2 SUB SWAP1 RETURN JUMPDEST PUSH2 0x268 PUSH1 0x4 DUP1 CALLDATASIZE SUB DUP2 ADD SWAP1 PUSH2 0x263 SWAP2 SWAP1 PUSH2 0x1492 JUMP JUMPDEST PUSH2 0x10C3 JUMP JUMPDEST PUSH1 0x40 MLOAD PUSH2 0x275 SWAP2 SWAP1 PUSH2 0x1A82 JUMP JUMPDEST PUSH1 0x40 MLOAD DUP1 SWAP2 SUB SWAP1 RETURN JUMPDEST PUSH2 0x298 PUSH1 0x4 DUP1 CALLDATASIZE SUB DUP2 ADD SWAP1 PUSH2 0x293 SWAP2 SWAP1 PUSH2 0x1492 JUMP JUMPDEST PUSH2 0x10DB JUMP JUMPDEST STOP JUMPDEST CALLER PUSH20 0xFFFFFFFFFFFFFFFFFFFFFFFFFFFFFFFFFFFFFFFF AND PUSH1 0x0 DUP1 SLOAD SWAP1 PUSH2 0x100 EXP SWAP1 DIV PUSH20 0xFFFFFFFFFFFFFFFFFFFFFFFFFFFFFFFFFFFFFFFF AND PUSH20 0xFFFFFFFFFFFFFFFFFFFFFFFFFFFFFFFFFFFFFFFF AND EQ PUSH2 0x328 JUMPI PUSH1 0x40 MLOAD PUSH32 0x8C379A000000000000000000000000000000000000000000000000000000000 DUP2 MSTORE PUSH1 0x4 ADD PUSH2 0x31F SWAP1 PUSH2 0x1A00 JUMP JUMPDEST PUSH1 0x40 MLOAD DUP1 SWAP2 SUB SWAP1 REVERT JUMPDEST PUSH1 0x0 PUSH20 0xFFFFFFFFFFFFFFFFFFFFFFFFFFFFFFFFFFFFFFFF AND DUP2 PUSH20 0xFFFFFFFFFFFFFFFFFFFFFFFFFFFFFFFFFFFFFFFF AND EQ ISZERO PUSH2 0x398 JUMPI PUSH1 0x40 MLOAD PUSH32 0x8C379A000000000000000000000000000000000000000000000000000000000 DUP2 MSTORE PUSH1 0x4 ADD PUSH2 0x38F SWAP1 PUSH2 0x1A40 JUMP JUMPDEST PUSH1 0x40 MLOAD DUP1 SWAP2 SUB SWAP1 REVERT JUMPDEST PUSH1 0x0 PUSH1 0x1 PUSH1 0x0 DUP4 PUSH20 0xFFFFFFFFFFFFFFFFFFFFFFFFFFFFFFFFFFFFFFFF AND PUSH20 0xFFFFFFFFFFFFFFFFFFFFFFFFFFFFFFFFFFFFFFFF AND DUP2 MSTORE PUSH1 0x20 ADD SWAP1 DUP2 MSTORE PUSH1 0x20 ADD PUSH1 0x0 KECCAK256 PUSH1 0x0 PUSH2 0x100 EXP DUP2 SLOAD DUP2 PUSH1 0xFF MUL NOT AND SWAP1 DUP4 ISZERO ISZERO MUL OR SWAP1 SSTORE POP DUP1 PUSH20 0xFFFFFFFFFFFFFFFFFFFFFFFFFFFFFFFFFFFFFFFF AND PUSH32 0xF1ABF01A1043B7C244D128E8595CF0C1D10743B022B03A02DFFD8CA3BF729F5A PUSH1 0x40 MLOAD PUSH1 0x40 MLOAD DUP1 SWAP2 SUB SWAP1 LOG2 POP JUMP JUMPDEST CALLER PUSH20 0xFFFFFFFFFFFFFFFFFFFFFFFFFFFFFFFFFFFFFFFF AND PUSH1 0x0 DUP1 SLOAD SWAP1 PUSH2 0x100 EXP SWAP1 DIV PUSH20 0xFFFFFFFFFFFFFFFFFFFFFFFFFFFFFFFFFFFFFFFF AND PUSH20 0xFFFFFFFFFFFFFFFFFFFFFFFFFFFFFFFFFFFFFFFF AND EQ PUSH2 0x4C4 JUMPI PUSH1 0x40 MLOAD PUSH32 0x8C379A000000000000000000000000000000000000000000000000000000000 DUP2 MSTORE PUSH1 0x4 ADD PUSH2 0x4BB SWAP1 PUSH2 0x1A00 JUMP JUMPDEST PUSH1 0x40 MLOAD DUP1 SWAP2 SUB SWAP1 REVERT JUMPDEST DUP1 PUSH1 0x2 PUSH1 0x0 DUP5 PUSH20 0xFFFFFFFFFFFFFFFFFFFFFFFFFFFFFFFFFFFFFFFF AND PUSH20 0xFFFFFFFFFFFFFFFFFFFFFFFFFFFFFFFFFFFFFFFF AND DUP2 MSTORE PUSH1 0x20 ADD SWAP1 DUP2 MSTORE PUSH1 0x20 ADD PUSH1 0x0 KECCAK256 DUP2 SWAP1 SSTORE POP DUP1 DUP3 PUSH20 0xFFFFFFFFFFFFFFFFFFFFFFFFFFFFFFFFFFFFFFFF AND PUSH32 0xE2AC27C5C810AEAD8FA29780FDCA1995888A2F0E6B8128A1316E116960B009F8 PUSH1 0x40 MLOAD PUSH1 0x40 MLOAD DUP1 SWAP2 SUB SWAP1 LOG3 POP POP JUMP JUMPDEST PUSH1 0x0 PUSH1 0x1 PUSH1 0x0 DUP4 PUSH20 0xFFFFFFFFFFFFFFFFFFFFFFFFFFFFFFFFFFFFFFFF AND PUSH20 0xFFFFFFFFFFFFFFFFFFFFFFFFFFFFFFFFFFFFFFFF AND DUP2 MSTORE PUSH1 0x20 ADD SWAP1 DUP2 MSTORE PUSH1 0x20 ADD PUSH1 0x0 KECCAK256 PUSH1 0x0 SWAP1 SLOAD SWAP1 PUSH2 0x100 EXP SWAP1 DIV PUSH1 0xFF AND SWAP1 POP SWAP2 SWAP1 POP JUMP JUMPDEST PUSH1 0x4 SLOAD DUP2 JUMP JUMPDEST PUSH2 0x5B4 PUSH2 0x12F4 JUMP JUMPDEST PUSH1 0x4 SLOAD DUP3 LT PUSH2 0x5F8 JUMPI PUSH1 0x40 MLOAD PUSH32 0x8C379A000000000000000000000000000000000000000000000000000000000 DUP2 MSTORE PUSH1 0x4 ADD PUSH2 0x5EF SWAP1 PUSH2 0x1A20 JUMP JUMPDEST PUSH1 0x40 MLOAD DUP1 SWAP2 SUB SWAP1 REVERT JUMPDEST PUSH1 0x3 DUP3 DUP2 SLOAD DUP2 LT PUSH2 0x632 JUMPI PUSH32 0x4E487B7100000000000000000000000000000000000000000000000000000000 PUSH1 0x0 MSTORE PUSH1 0x32 PUSH1 0x4 MSTORE PUSH1 0x24 PUSH1 0x0 REVERT JUMPDEST SWAP1 PUSH1 0x0 MSTORE PUSH1 0x20 PUSH1 0x0 KECCAK256 SWAP1 PUSH1 0x7 MUL ADD PUSH1 0x40 MLOAD DUP1 PUSH1 0xE0 ADD PUSH1 0x40 MSTORE SWAP1 DUP2 PUSH1 0x0 DUP3 ADD SLOAD DUP2 MSTORE PUSH1 0x20 ADD PUSH1 0x1 DUP3 ADD DUP1 SLOAD PUSH2 0x665 SWAP1 PUSH2 0x1C81 JUMP JUMPDEST DUP1 PUSH1 0x1F ADD PUSH1 0x20 DUP1 SWAP2 DIV MUL PUSH1 0x20 ADD PUSH1 0x40 MLOAD SWAP1 DUP2 ADD PUSH1 0x40 MSTORE DUP1 SWAP3 SWAP2 SWAP1 DUP2 DUP2 MSTORE PUSH1 0x20 ADD DUP3 DUP1 SLOAD PUSH2 0x691 SWAP1 PUSH2 0x1C81 JUMP JUMPDEST DUP1 ISZERO PUSH2 0x6DE JUMPI DUP1 PUSH1 0x1F LT PUSH2 0x6B3 JUMPI PUSH2 0x100 DUP1 DUP4 SLOAD DIV MUL DUP4 MSTORE SWAP2 PUSH1 0x20 ADD SWAP2 PUSH2 0x6DE JUMP JUMPDEST DUP3 ADD SWAP2 SWAP1 PUSH1 0x0 MSTORE PUSH1 0x20 PUSH1 0x0 KECCAK256 SWAP1 JUMPDEST DUP2 SLOAD DUP2 MSTORE SWAP1 PUSH1 0x1 ADD SWAP1 PUSH1 0x20 ADD DUP1 DUP4 GT PUSH2 0x6C1 JUMPI DUP3 SWAP1 SUB PUSH1 0x1F AND DUP3 ADD SWAP2 JUMPDEST POP POP POP POP POP DUP2 MSTORE PUSH1 0x20 ADD PUSH1 0x2 DUP3 ADD SLOAD DUP2 MSTORE PUSH1 0x20 ADD PUSH1 0x3 DUP3 ADD SLOAD DUP2 MSTORE PUSH1 0x20 ADD PUSH1 0x4 DUP3 ADD PUSH1 0x0 SWAP1 SLOAD SWAP1 PUSH2 0x100 EXP SWAP1 DIV PUSH20 0xFFFFFFFFFFFFFFFFFFFFFFFFFFFFFFFFFFFFFFFF AND PUSH20 0xFFFFFFFFFFFFFFFFFFFFFFFFFFFFFFFFFFFFFFFF AND PUSH20 0xFFFFFFFFFFFFFFFFFFFFFFFFFFFFFFFFFFFFFFFF AND DUP2 MSTORE PUSH1 0x20 ADD PUSH1 0x5 DUP3 ADD PUSH1 0x0 SWAP1 SLOAD SWAP1 PUSH2 0x100 EXP SWAP1 DIV PUSH20 0xFFFFFFFFFFFFFFFFFFFFFFFFFFFFFFFFFFFFFFFF AND PUSH20 0xFFFFFFFFFFFFFFFFFFFFFFFFFFFFFFFFFFFFFFFF AND PUSH20 0xFFFFFFFFFFFFFFFFFFFFFFFFFFFFFFFFFFFFFFFF AND DUP2 MSTORE PUSH1 0x20 ADD PUSH1 0x6 DUP3 ADD SLOAD DUP2 MSTORE POP POP SWAP1 POP SWAP2 SWAP1 POP JUMP JUMPDEST CALLER PUSH20 0xFFFFFFFFFFFFFFFFFFFFFFFFFFFFFFFFFFFFFFFF AND PUSH1 0x0 DUP1 SLOAD SWAP1 PUSH2 0x100 EXP SWAP1 DIV PUSH20 0xFFFFFFFFFFFFFFFFFFFFFFFFFFFFFFFFFFFFFFFF AND PUSH20 0xFFFFFFFFFFFFFFFFFFFFFFFFFFFFFFFFFFFFFFFF AND EQ PUSH2 0x846 JUMPI PUSH1 0x40 MLOAD PUSH32 0x8C379A000000000000000000000000000000000000000000000000000000000 DUP2 MSTORE PUSH1 0x4 ADD PUSH2 0x83D SWAP1 PUSH2 0x1A00 JUMP JUMPDEST PUSH1 0x40 MLOAD DUP1 SWAP2 SUB SWAP1 REVERT JUMPDEST PUSH1 0x3 PUSH1 0x40 MLOAD DUP1 PUSH1 0xE0 ADD PUSH1 0x40 MSTORE DUP1 PUSH1 0x4 SLOAD DUP2 MSTORE PUSH1 0x20 ADD DUP7 DUP2 MSTORE PUSH1 0x20 ADD DUP6 DUP2 MSTORE PUSH1 0x20 ADD DUP5 DUP2 MSTORE PUSH1 0x20 ADD DUP4 PUSH20 0xFFFFFFFFFFFFFFFFFFFFFFFFFFFFFFFFFFFFFFFF AND DUP2 MSTORE PUSH1 0x20 ADD DUP4 PUSH20 0xFFFFFFFFFFFFFFFFFFFFFFFFFFFFFFFFFFFFFFFF AND DUP2 MSTORE PUSH1 0x20 ADD TIMESTAMP DUP2 MSTORE POP SWAP1 DUP1 PUSH1 0x1 DUP2 SLOAD ADD DUP1 DUP3 SSTORE DUP1 SWAP2 POP POP PUSH1 0x1 SWAP1 SUB SWAP1 PUSH1 0x0 MSTORE PUSH1 0x20 PUSH1 0x0 KECCAK256 SWAP1 PUSH1 0x7 MUL ADD PUSH1 0x0 SWAP1 SWAP2 SWAP1 SWAP2 SWAP1 SWAP2 POP PUSH1 0x0 DUP3 ADD MLOAD DUP2 PUSH1 0x0 ADD SSTORE PUSH1 0x20 DUP3 ADD MLOAD DUP2 PUSH1 0x1 ADD SWAP1 DUP1 MLOAD SWAP1 PUSH1 0x20 ADD SWAP1 PUSH2 0x8F8 SWAP3 SWAP2 SWAP1 PUSH2 0x135D JUMP JUMPDEST POP PUSH1 0x40 DUP3 ADD MLOAD DUP2 PUSH1 0x2 ADD SSTORE PUSH1 0x60 DUP3 ADD MLOAD DUP2 PUSH1 0x3 ADD SSTORE PUSH1 0x80 DUP3 ADD MLOAD DUP2 PUSH1 0x4 ADD PUSH1 0x0 PUSH2 0x100 EXP DUP2 SLOAD DUP2 PUSH20 0xFFFFFFFFFFFFFFFFFFFFFFFFFFFFFFFFFFFFFFFF MUL NOT AND SWAP1 DUP4 PUSH20 0xFFFFFFFFFFFFFFFFFFFFFFFFFFFFFFFFFFFFFFFF AND MUL OR SWAP1 SSTORE POP PUSH1 0xA0 DUP3 ADD MLOAD DUP2 PUSH1 0x5 ADD PUSH1 0x0 PUSH2 0x100 EXP DUP2 SLOAD DUP2 PUSH20 0xFFFFFFFFFFFFFFFFFFFFFFFFFFFFFFFFFFFFFFFF MUL NOT AND SWAP1 DUP4 PUSH20 0xFFFFFFFFFFFFFFFFFFFFFFFFFFFFFFFFFFFFFFFF AND MUL OR SWAP1 SSTORE POP PUSH1 0xC0 DUP3 ADD MLOAD DUP2 PUSH1 0x6 ADD SSTORE POP POP PUSH1 0x4 SLOAD PUSH32 0x543247085674B00368D9CD41416BE705A4C27143C024163A6F58BF12A41992F5 DUP6 PUSH1 0x40 MLOAD PUSH2 0x9D9 SWAP2 SWAP1 PUSH2 0x197E JUMP JUMPDEST PUSH1 0x40 MLOAD DUP1 SWAP2 SUB SWAP1 LOG2 PUSH2 0x9F7 PUSH1 0x1 PUSH1 0x4 SLOAD PUSH2 0x1296 SWAP1 SWAP2 SWAP1 PUSH4 0xFFFFFFFF AND JUMP JUMPDEST PUSH1 0x4 DUP2 SWAP1 SSTORE POP POP POP POP POP JUMP JUMPDEST PUSH1 0x3 DUP2 DUP2 SLOAD DUP2 LT PUSH2 0xA13 JUMPI PUSH1 0x0 DUP1 REVERT JUMPDEST SWAP1 PUSH1 0x0 MSTORE PUSH1 0x20 PUSH1 0x0 KECCAK256 SWAP1 PUSH1 0x7 MUL ADD PUSH1 0x0 SWAP2 POP SWAP1 POP DUP1 PUSH1 0x0 ADD SLOAD SWAP1 DUP1 PUSH1 0x1 ADD DUP1 SLOAD PUSH2 0xA3C SWAP1 PUSH2 0x1C81 JUMP JUMPDEST DUP1 PUSH1 0x1F ADD PUSH1 0x20 DUP1 SWAP2 DIV MUL PUSH1 0x20 ADD PUSH1 0x40 MLOAD SWAP1 DUP2 ADD PUSH1 0x40 MSTORE DUP1 SWAP3 SWAP2 SWAP1 DUP2 DUP2 MSTORE PUSH1 0x20 ADD DUP3 DUP1 SLOAD PUSH2 0xA68 SWAP1 PUSH2 0x1C81 JUMP JUMPDEST DUP1 ISZERO PUSH2 0xAB5 JUMPI DUP1 PUSH1 0x1F LT PUSH2 0xA8A JUMPI PUSH2 0x100 DUP1 DUP4 SLOAD DIV MUL DUP4 MSTORE SWAP2 PUSH1 0x20 ADD SWAP2 PUSH2 0xAB5 JUMP JUMPDEST DUP3 ADD SWAP2 SWAP1 PUSH1 0x0 MSTORE PUSH1 0x20 PUSH1 0x0 KECCAK256 SWAP1 JUMPDEST DUP2 SLOAD DUP2 MSTORE SWAP1 PUSH1 0x1 ADD SWAP1 PUSH1 0x20 ADD DUP1 DUP4 GT PUSH2 0xA98 JUMPI DUP3 SWAP1 SUB PUSH1 0x1F AND DUP3 ADD SWAP2 JUMPDEST POP POP POP POP POP SWAP1 DUP1 PUSH1 0x2 ADD SLOAD SWAP1 DUP1 PUSH1 0x3 ADD SLOAD SWAP1 DUP1 PUSH1 0x4 ADD PUSH1 0x0 SWAP1 SLOAD SWAP1 PUSH2 0x100 EXP SWAP1 DIV PUSH20 0xFFFFFFFFFFFFFFFFFFFFFFFFFFFFFFFFFFFFFFFF AND SWAP1 DUP1 PUSH1 0x5 ADD PUSH1 0x0 SWAP1 SLOAD SWAP1 PUSH2 0x100 EXP SWAP1 DIV PUSH20 0xFFFFFFFFFFFFFFFFFFFFFFFFFFFFFFFFFFFFFFFF AND SWAP1 DUP1 PUSH1 0x6 ADD SLOAD SWAP1 POP DUP8 JUMP JUMPDEST CALLER PUSH20 0xFFFFFFFFFFFFFFFFFFFFFFFFFFFFFFFFFFFFFFFF AND PUSH1 0x0 DUP1 SLOAD SWAP1 PUSH2 0x100 EXP SWAP1 DIV PUSH20 0xFFFFFFFFFFFFFFFFFFFFFFFFFFFFFFFFFFFFFFFF AND PUSH20 0xFFFFFFFFFFFFFFFFFFFFFFFFFFFFFFFFFFFFFFFF AND EQ PUSH2 0xBAB JUMPI PUSH1 0x40 MLOAD PUSH32 0x8C379A000000000000000000000000000000000000000000000000000000000 DUP2 MSTORE PUSH1 0x4 ADD PUSH2 0xBA2 SWAP1 PUSH2 0x1A00 JUMP JUMPDEST PUSH1 0x40 MLOAD DUP1 SWAP2 SUB SWAP1 REVERT JUMPDEST PUSH1 0x0 PUSH20 0xFFFFFFFFFFFFFFFFFFFFFFFFFFFFFFFFFFFFFFFF AND DUP2 PUSH20 0xFFFFFFFFFFFFFFFFFFFFFFFFFFFFFFFFFFFFFFFF AND EQ ISZERO PUSH2 0xC1B JUMPI PUSH1 0x40 MLOAD PUSH32 0x8C379A000000000000000000000000000000000000000000000000000000000 DUP2 MSTORE PUSH1 0x4 ADD PUSH2 0xC12 SWAP1 PUSH2 0x1A40 JUMP JUMPDEST PUSH1 0x40 MLOAD DUP1 SWAP2 SUB SWAP1 REVERT JUMPDEST PUSH1 0x1 DUP1 PUSH1 0x0 DUP4 PUSH20 0xFFFFFFFFFFFFFFFFFFFFFFFFFFFFFFFFFFFFFFFF AND PUSH20 0xFFFFFFFFFFFFFFFFFFFFFFFFFFFFFFFFFFFFFFFF AND DUP2 MSTORE PUSH1 0x20 ADD SWAP1 DUP2 MSTORE PUSH1 0x20 ADD PUSH1 0x0 KECCAK256 PUSH1 0x0 PUSH2 0x100 EXP DUP2 SLOAD DUP2 PUSH1 0xFF MUL NOT AND SWAP1 DUP4 ISZERO ISZERO MUL OR SWAP1 SSTORE POP DUP1 PUSH20 0xFFFFFFFFFFFFFFFFFFFFFFFFFFFFFFFFFFFFFFFF AND PUSH32 0xD1BBA68C128CC3F427E5831B3C6F99F480B6EFA6B9E80C757768F6124158CC3F PUSH1 0x40 MLOAD PUSH1 0x40 MLOAD DUP1 SWAP2 SUB SWAP1 LOG2 POP JUMP JUMPDEST CALLER PUSH20 0xFFFFFFFFFFFFFFFFFFFFFFFFFFFFFFFFFFFFFFFF AND PUSH1 0x0 DUP1 SLOAD SWAP1 PUSH2 0x100 EXP SWAP1 DIV PUSH20 0xFFFFFFFFFFFFFFFFFFFFFFFFFFFFFFFFFFFFFFFF AND PUSH20 0xFFFFFFFFFFFFFFFFFFFFFFFFFFFFFFFFFFFFFFFF AND EQ PUSH2 0xD46 JUMPI PUSH1 0x40 MLOAD PUSH32 0x8C379A000000000000000000000000000000000000000000000000000000000 DUP2 MSTORE PUSH1 0x4 ADD PUSH2 0xD3D SWAP1 PUSH2 0x1A00 JUMP JUMPDEST PUSH1 0x40 MLOAD DUP1 SWAP2 SUB SWAP1 REVERT JUMPDEST PUSH1 0x0 PUSH1 0x2 PUSH1 0x0 DUP4 PUSH20 0xFFFFFFFFFFFFFFFFFFFFFFFFFFFFFFFFFFFFFFFF AND PUSH20 0xFFFFFFFFFFFFFFFFFFFFFFFFFFFFFFFFFFFFFFFF AND DUP2 MSTORE PUSH1 0x20 ADD SWAP1 DUP2 MSTORE PUSH1 0x20 ADD PUSH1 0x0 KECCAK256 SLOAD SWAP1 POP PUSH1 0x0 PUSH1 0x2 PUSH1 0x0 DUP5 PUSH20 0xFFFFFFFFFFFFFFFFFFFFFFFFFFFFFFFFFFFFFFFF AND PUSH20 0xFFFFFFFFFFFFFFFFFFFFFFFFFFFFFFFFFFFFFFFF AND DUP2 MSTORE PUSH1 0x20 ADD SWAP1 DUP2 MSTORE PUSH1 0x20 ADD PUSH1 0x0 KECCAK256 DUP2 SWAP1 SSTORE POP DUP1 DUP3 PUSH20 0xFFFFFFFFFFFFFFFFFFFFFFFFFFFFFFFFFFFFFFFF AND PUSH32 0x12982F922B0573398129EA86655CE1E8E425EC676C9E3D40BF5458688B1EF544 PUSH1 0x40 MLOAD PUSH1 0x40 MLOAD DUP1 SWAP2 SUB SWAP1 LOG3 POP POP JUMP JUMPDEST PUSH1 0x3 DUP3 DUP2 SLOAD DUP2 LT PUSH2 0xE51 JUMPI PUSH32 0x4E487B7100000000000000000000000000000000000000000000000000000000 PUSH1 0x0 MSTORE PUSH1 0x32 PUSH1 0x4 MSTORE PUSH1 0x24 PUSH1 0x0 REVERT JUMPDEST SWAP1 PUSH1 0x0 MSTORE PUSH1 0x20 PUSH1 0x0 KECCAK256 SWAP1 PUSH1 0x7 MUL ADD PUSH1 0x5 ADD PUSH1 0x0 SWAP1 SLOAD SWAP1 PUSH2 0x100 EXP SWAP1 DIV PUSH20 0xFFFFFFFFFFFFFFFFFFFFFFFFFFFFFFFFFFFFFFFF AND PUSH20 0xFFFFFFFFFFFFFFFFFFFFFFFFFFFFFFFFFFFFFFFF AND CALLER PUSH20 0xFFFFFFFFFFFFFFFFFFFFFFFFFFFFFFFFFFFFFFFF AND EQ PUSH2 0xEF0 JUMPI PUSH1 0x40 MLOAD PUSH32 0x8C379A000000000000000000000000000000000000000000000000000000000 DUP2 MSTORE PUSH1 0x4 ADD PUSH2 0xEE7 SWAP1 PUSH2 0x19E0 JUMP JUMPDEST PUSH1 0x40 MLOAD DUP1 SWAP2 SUB SWAP1 REVERT JUMPDEST PUSH1 0x0 PUSH1 0x3 DUP4 DUP2 SLOAD DUP2 LT PUSH2 0xF2C JUMPI PUSH32 0x4E487B7100000000000000000000000000000000000000000000000000000000 PUSH1 0x0 MSTORE PUSH1 0x32 PUSH1 0x4 MSTORE PUSH1 0x24 PUSH1 0x0 REVERT JUMPDEST SWAP1 PUSH1 0x0 MSTORE PUSH1 0x20 PUSH1 0x0 KECCAK256 SWAP1 PUSH1 0x7 MUL ADD PUSH1 0x5 ADD PUSH1 0x0 SWAP1 SLOAD SWAP1 PUSH2 0x100 EXP SWAP1 DIV PUSH20 0xFFFFFFFFFFFFFFFFFFFFFFFFFFFFFFFFFFFFFFFF AND SWAP1 POP DUP2 PUSH1 0x3 DUP5 DUP2 SLOAD DUP2 LT PUSH2 0xF9B JUMPI PUSH32 0x4E487B7100000000000000000000000000000000000000000000000000000000 PUSH1 0x0 MSTORE PUSH1 0x32 PUSH1 0x4 MSTORE PUSH1 0x24 PUSH1 0x0 REVERT JUMPDEST SWAP1 PUSH1 0x0 MSTORE PUSH1 0x20 PUSH1 0x0 KECCAK256 SWAP1 PUSH1 0x7 MUL ADD PUSH1 0x5 ADD PUSH1 0x0 PUSH2 0x100 EXP DUP2 SLOAD DUP2 PUSH20 0xFFFFFFFFFFFFFFFFFFFFFFFFFFFFFFFFFFFFFFFF MUL NOT AND SWAP1 DUP4 PUSH20 0xFFFFFFFFFFFFFFFFFFFFFFFFFFFFFFFFFFFFFFFF AND MUL OR SWAP1 SSTORE POP TIMESTAMP PUSH1 0x3 DUP5 DUP2 SLOAD DUP2 LT PUSH2 0x1025 JUMPI PUSH32 0x4E487B7100000000000000000000000000000000000000000000000000000000 PUSH1 0x0 MSTORE PUSH1 0x32 PUSH1 0x4 MSTORE PUSH1 0x24 PUSH1 0x0 REVERT JUMPDEST SWAP1 PUSH1 0x0 MSTORE PUSH1 0x20 PUSH1 0x0 KECCAK256 SWAP1 PUSH1 0x7 MUL ADD PUSH1 0x6 ADD DUP2 SWAP1 SSTORE POP DUP2 PUSH20 0xFFFFFFFFFFFFFFFFFFFFFFFFFFFFFFFFFFFFFFFF AND DUP2 PUSH20 0xFFFFFFFFFFFFFFFFFFFFFFFFFFFFFFFFFFFFFFFF AND DUP5 PUSH32 0x16B85F49BF01212961345D3016C9A531894ACCF62EB7680F2045D79185CC0EC0 PUSH1 0x40 MLOAD PUSH1 0x40 MLOAD DUP1 SWAP2 SUB SWAP1 LOG4 POP POP POP JUMP JUMPDEST PUSH1 0x0 DUP1 PUSH1 0x0 SWAP1 SLOAD SWAP1 PUSH2 0x100 EXP SWAP1 DIV PUSH20 0xFFFFFFFFFFFFFFFFFFFFFFFFFFFFFFFFFFFFFFFF AND SWAP1 POP SWAP1 JUMP JUMPDEST PUSH1 0x2 PUSH1 0x20 MSTORE DUP1 PUSH1 0x0 MSTORE PUSH1 0x40 PUSH1 0x0 KECCAK256 PUSH1 0x0 SWAP2 POP SWAP1 POP SLOAD DUP2 JUMP JUMPDEST CALLER PUSH20 0xFFFFFFFFFFFFFFFFFFFFFFFFFFFFFFFFFFFFFFFF AND PUSH1 0x0 DUP1 SLOAD SWAP1 PUSH2 0x100 EXP SWAP1 DIV PUSH20 0xFFFFFFFFFFFFFFFFFFFFFFFFFFFFFFFFFFFFFFFF AND PUSH20 0xFFFFFFFFFFFFFFFFFFFFFFFFFFFFFFFFFFFFFFFF AND EQ PUSH2 0x1169 JUMPI PUSH1 0x40 MLOAD PUSH32 0x8C379A000000000000000000000000000000000000000000000000000000000 DUP2 MSTORE PUSH1 0x4 ADD PUSH2 0x1160 SWAP1 PUSH2 0x1A00 JUMP JUMPDEST PUSH1 0x40 MLOAD DUP1 SWAP2 SUB SWAP1 REVERT JUMPDEST PUSH1 0x0 PUSH20 0xFFFFFFFFFFFFFFFFFFFFFFFFFFFFFFFFFFFFFFFF AND DUP2 PUSH20 0xFFFFFFFFFFFFFFFFFFFFFFFFFFFFFFFFFFFFFFFF AND EQ ISZERO PUSH2 0x11D9 JUMPI PUSH1 0x40 MLOAD PUSH32 0x8C379A000000000000000000000000000000000000000000000000000000000 DUP2 MSTORE PUSH1 0x4 ADD PUSH2 0x11D0 SWAP1 PUSH2 0x19A0 JUMP JUMPDEST PUSH1 0x40 MLOAD DUP1 SWAP2 SUB SWAP1 REVERT JUMPDEST DUP1 PUSH20 0xFFFFFFFFFFFFFFFFFFFFFFFFFFFFFFFFFFFFFFFF AND PUSH1 0x0 DUP1 SLOAD SWAP1 PUSH2 0x100 EXP SWAP1 DIV PUSH20 0xFFFFFFFFFFFFFFFFFFFFFFFFFFFFFFFFFFFFFFFF AND PUSH20 0xFFFFFFFFFFFFFFFFFFFFFFFFFFFFFFFFFFFFFFFF AND PUSH32 0x8BE0079C531659141344CD1FD0A4F28419497F9722A3DAAFE3B4186F6B6457E0 PUSH1 0x40 MLOAD PUSH1 0x40 MLOAD DUP1 SWAP2 SUB SWAP1 LOG3 DUP1 PUSH1 0x0 DUP1 PUSH2 0x100 EXP DUP2 SLOAD DUP2 PUSH20 0xFFFFFFFFFFFFFFFFFFFFFFFFFFFFFFFFFFFFFFFF MUL NOT AND SWAP1 DUP4 PUSH20 0xFFFFFFFFFFFFFFFFFFFFFFFFFFFFFFFFFFFFFFFF AND MUL OR SWAP1 SSTORE POP POP JUMP JUMPDEST PUSH1 0x0 DUP1 DUP3 DUP5 PUSH2 0x12A5 SWAP2 SWAP1 PUSH2 0x1BA1 JUMP JUMPDEST SWAP1 POP DUP4 DUP2 LT ISZERO PUSH2 0x12EA JUMPI PUSH1 0x40 MLOAD PUSH32 0x8C379A000000000000000000000000000000000000000000000000000000000 DUP2 MSTORE PUSH1 0x4 ADD PUSH2 0x12E1 SWAP1 PUSH2 0x19C0 JUMP JUMPDEST PUSH1 0x40 MLOAD DUP1 SWAP2 SUB SWAP1 REVERT JUMPDEST DUP1 SWAP2 POP POP SWAP3 SWAP2 POP POP JUMP JUMPDEST PUSH1 0x40 MLOAD DUP1 PUSH1 0xE0 ADD PUSH1 0x40 MSTORE DUP1 PUSH1 0x0 DUP2 MSTORE PUSH1 0x20 ADD PUSH1 0x60 DUP2 MSTORE PUSH1 0x20 ADD PUSH1 0x0 DUP2 MSTORE PUSH1 0x20 ADD PUSH1 0x0 DUP2 MSTORE PUSH1 0x20 ADD PUSH1 0x0 PUSH20 0xFFFFFFFFFFFFFFFFFFFFFFFFFFFFFFFFFFFFFFFF AND DUP2 MSTORE PUSH1 0x20 ADD PUSH1 0x0 PUSH20 0xFFFFFFFFFFFFFFFFFFFFFFFFFFFFFFFFFFFFFFFF AND DUP2 MSTORE PUSH1 0x20 ADD PUSH1 0x0 DUP2 MSTORE POP SWAP1 JUMP JUMPDEST DUP3 DUP1 SLOAD PUSH2 0x1369 SWAP1 PUSH2 0x1C81 JUMP JUMPDEST SWAP1 PUSH1 0x0 MSTORE PUSH1 0x20 PUSH1 0x0 KECCAK256 SWAP1 PUSH1 0x1F ADD PUSH1 0x20 SWAP1 DIV DUP2 ADD SWAP3 DUP3 PUSH2 0x138B JUMPI PUSH1 0x0 DUP6 SSTORE PUSH2 0x13D2 JUMP JUMPDEST DUP3 PUSH1 0x1F LT PUSH2 0x13A4 JUMPI DUP1 MLOAD PUSH1 0xFF NOT AND DUP4 DUP1 ADD OR DUP6 SSTORE PUSH2 0x13D2 JUMP JUMPDEST DUP3 DUP1 ADD PUSH1 0x1 ADD DUP6 SSTORE DUP3 ISZERO PUSH2 0x13D2 JUMPI SWAP2 DUP3 ADD JUMPDEST DUP3 DUP2 GT ISZERO PUSH2 0x13D1 JUMPI DUP3 MLOAD DUP3 SSTORE SWAP2 PUSH1 0x20 ADD SWAP2 SWAP1 PUSH1 0x1 ADD SWAP1 PUSH2 0x13B6 JUMP JUMPDEST JUMPDEST POP SWAP1 POP PUSH2 0x13DF SWAP2 SWAP1 PUSH2 0x13E3 JUMP JUMPDEST POP SWAP1 JUMP JUMPDEST JUMPDEST DUP1 DUP3 GT ISZERO PUSH2 0x13FC JUMPI PUSH1 0x0 DUP2 PUSH1 0x0 SWAP1 SSTORE POP PUSH1 0x1 ADD PUSH2 0x13E4 JUMP JUMPDEST POP SWAP1 JUMP JUMPDEST PUSH1 0x0 PUSH2 0x1413 PUSH2 0x140E DUP5 PUSH2 0x1B44 JUMP JUMPDEST PUSH2 0x1B13 JUMP JUMPDEST SWAP1 POP DUP3 DUP2 MSTORE PUSH1 0x20 DUP2 ADD DUP5 DUP5 DUP5 ADD GT ISZERO PUSH2 0x142B JUMPI PUSH1 0x0 DUP1 REVERT JUMPDEST PUSH2 0x1436 DUP5 DUP3 DUP6 PUSH2 0x1C3F JUMP JUMPDEST POP SWAP4 SWAP3 POP POP POP JUMP JUMPDEST PUSH1 0x0 DUP2 CALLDATALOAD SWAP1 POP PUSH2 0x144D DUP2 PUSH2 0x1D51 JUMP JUMPDEST SWAP3 SWAP2 POP POP JUMP JUMPDEST PUSH1 0x0 DUP3 PUSH1 0x1F DUP4 ADD SLT PUSH2 0x1464 JUMPI PUSH1 0x0 DUP1 REVERT JUMPDEST DUP2 CALLDATALOAD PUSH2 0x1474 DUP5 DUP3 PUSH1 0x20 DUP7 ADD PUSH2 0x1400 JUMP JUMPDEST SWAP2 POP POP SWAP3 SWAP2 POP POP JUMP JUMPDEST PUSH1 0x0 DUP2 CALLDATALOAD SWAP1 POP PUSH2 0x148C DUP2 PUSH2 0x1D68 JUMP JUMPDEST SWAP3 SWAP2 POP POP JUMP JUMPDEST PUSH1 0x0 PUSH1 0x20 DUP3 DUP5 SUB SLT ISZERO PUSH2 0x14A4 JUMPI PUSH1 0x0 DUP1 REVERT JUMPDEST PUSH1 0x0 PUSH2 0x14B2 DUP5 DUP3 DUP6 ADD PUSH2 0x143E JUMP JUMPDEST SWAP2 POP POP SWAP3 SWAP2 POP POP JUMP JUMPDEST PUSH1 0x0 DUP1 PUSH1 0x40 DUP4 DUP6 SUB SLT ISZERO PUSH2 0x14CE JUMPI PUSH1 0x0 DUP1 REVERT JUMPDEST PUSH1 0x0 PUSH2 0x14DC DUP6 DUP3 DUP7 ADD PUSH2 0x143E JUMP JUMPDEST SWAP3 POP POP PUSH1 0x20 PUSH2 0x14ED DUP6 DUP3 DUP7 ADD PUSH2 0x147D JUMP JUMPDEST SWAP2 POP POP SWAP3 POP SWAP3 SWAP1 POP JUMP JUMPDEST PUSH1 0x0 DUP1 PUSH1 0x0 DUP1 PUSH1 0x80 DUP6 DUP8 SUB SLT ISZERO PUSH2 0x150D JUMPI PUSH1 0x0 DUP1 REVERT JUMPDEST PUSH1 0x0 DUP6 ADD CALLDATALOAD PUSH8 0xFFFFFFFFFFFFFFFF DUP2 GT ISZERO PUSH2 0x1527 JUMPI PUSH1 0x0 DUP1 REVERT JUMPDEST PUSH2 0x1533 DUP8 DUP3 DUP9 ADD PUSH2 0x1453 JUMP JUMPDEST SWAP5 POP POP PUSH1 0x20 PUSH2 0x1544 DUP8 DUP3 DUP9 ADD PUSH2 0x147D JUMP JUMPDEST SWAP4 POP POP PUSH1 0x40 PUSH2 0x1555 DUP8 DUP3 DUP9 ADD PUSH2 0x147D JUMP JUMPDEST SWAP3 POP POP PUSH1 0x60 PUSH2 0x1566 DUP8 DUP3 DUP9 ADD PUSH2 0x143E JUMP JUMPDEST SWAP2 POP POP SWAP3 SWAP6 SWAP2 SWAP5 POP SWAP3 POP JUMP JUMPDEST PUSH1 0x0 PUSH1 0x20 DUP3 DUP5 SUB SLT ISZERO PUSH2 0x1584 JUMPI PUSH1 0x0 DUP1 REVERT JUMPDEST PUSH1 0x0 PUSH2 0x1592 DUP5 DUP3 DUP6 ADD PUSH2 0x147D JUMP JUMPDEST SWAP2 POP POP SWAP3 SWAP2 POP POP JUMP JUMPDEST PUSH1 0x0 DUP1 PUSH1 0x40 DUP4 DUP6 SUB SLT ISZERO PUSH2 0x15AE JUMPI PUSH1 0x0 DUP1 REVERT JUMPDEST PUSH1 0x0 PUSH2 0x15BC DUP6 DUP3 DUP7 ADD PUSH2 0x147D JUMP JUMPDEST SWAP3 POP POP PUSH1 0x20 PUSH2 0x15CD DUP6 DUP3 DUP7 ADD PUSH2 0x143E JUMP JUMPDEST SWAP2 POP POP SWAP3 POP SWAP3 SWAP1 POP JUMP JUMPDEST PUSH2 0x15E0 DUP2 PUSH2 0x1BF7 JUMP JUMPDEST DUP3 MSTORE POP POP JUMP JUMPDEST PUSH2 0x15EF DUP2 PUSH2 0x1BF7 JUMP JUMPDEST DUP3 MSTORE POP POP JUMP JUMPDEST PUSH2 0x15FE DUP2 PUSH2 0x1C09 JUMP JUMPDEST DUP3 MSTORE POP POP JUMP JUMPDEST PUSH1 0x0 PUSH2 0x160F DUP3 PUSH2 0x1B74 JUMP JUMPDEST PUSH2 0x1619 DUP2 DUP6 PUSH2 0x1B7F JUMP JUMPDEST SWAP4 POP PUSH2 0x1629 DUP2 DUP6 PUSH1 0x20 DUP7 ADD PUSH2 0x1C4E JUMP JUMPDEST PUSH2 0x1632 DUP2 PUSH2 0x1D40 JUMP JUMPDEST DUP5 ADD SWAP2 POP POP SWAP3 SWAP2 POP POP JUMP JUMPDEST PUSH1 0x0 PUSH2 0x1648 DUP3 PUSH2 0x1B74 JUMP JUMPDEST PUSH2 0x1652 DUP2 DUP6 PUSH2 0x1B90 JUMP JUMPDEST SWAP4 POP PUSH2 0x1662 DUP2 DUP6 PUSH1 0x20 DUP7 ADD PUSH2 0x1C4E JUMP JUMPDEST PUSH2 0x166B DUP2 PUSH2 0x1D40 JUMP JUMPDEST DUP5 ADD SWAP2 POP POP SWAP3 SWAP2 POP POP JUMP JUMPDEST PUSH1 0x0 PUSH2 0x1683 PUSH1 0x26 DUP4 PUSH2 0x1B90 JUMP JUMPDEST SWAP2 POP PUSH32 0x4F776E61626C653A206E6577206F776E657220697320746865207A65726F2061 PUSH1 0x0 DUP4 ADD MSTORE PUSH32 0x6464726573730000000000000000000000000000000000000000000000000000 PUSH1 0x20 DUP4 ADD MSTORE PUSH1 0x40 DUP3 ADD SWAP1 POP SWAP2 SWAP1 POP JUMP JUMPDEST PUSH1 0x0 PUSH2 0x16E9 PUSH1 0x1B DUP4 PUSH2 0x1B90 JUMP JUMPDEST SWAP2 POP PUSH32 0x536166654D6174683A206164646974696F6E206F766572666C6F770000000000 PUSH1 0x0 DUP4 ADD MSTORE PUSH1 0x20 DUP3 ADD SWAP1 POP SWAP2 SWAP1 POP JUMP JUMPDEST PUSH1 0x0 PUSH2 0x1729 PUSH1 0x2F DUP4 PUSH2 0x1B90 JUMP JUMPDEST SWAP2 POP PUSH32 0x50726F647563744D616E616765723A2063616C6C6572206973206E6F74207468 PUSH1 0x0 DUP4 ADD MSTORE PUSH32 0x652063757272656E74206F776E65720000000000000000000000000000000000 PUSH1 0x20 DUP4 ADD MSTORE PUSH1 0x40 DUP3 ADD SWAP1 POP SWAP2 SWAP1 POP JUMP JUMPDEST PUSH1 0x0 PUSH2 0x178F PUSH1 0x20 DUP4 PUSH2 0x1B90 JUMP JUMPDEST SWAP2 POP PUSH32 0x4F776E61626C653A2063616C6C6572206973206E6F7420746865206F776E6572 PUSH1 0x0 DUP4 ADD MSTORE PUSH1 0x20 DUP3 ADD SWAP1 POP SWAP2 SWAP1 POP JUMP JUMPDEST PUSH1 0x0 PUSH2 0x17CF PUSH1 0x22 DUP4 PUSH2 0x1B90 JUMP JUMPDEST SWAP2 POP PUSH32 0x50726F647563744D616E616765723A20696E76616C69642070726F6475637420 PUSH1 0x0 DUP4 ADD MSTORE PUSH32 0x4944000000000000000000000000000000000000000000000000000000000000 PUSH1 0x20 DUP4 ADD MSTORE PUSH1 0x40 DUP3 ADD SWAP1 POP SWAP2 SWAP1 POP JUMP JUMPDEST PUSH1 0x0 PUSH2 0x1835 PUSH1 0x2D DUP4 PUSH2 0x1B90 JUMP JUMPDEST SWAP2 POP PUSH32 0x57686974656C6973744D616E616765723A206164647265737320697320746865 PUSH1 0x0 DUP4 ADD MSTORE PUSH32 0x207A65726F206164647265737300000000000000000000000000000000000000 PUSH1 0x20 DUP4 ADD MSTORE PUSH1 0x40 DUP3 ADD SWAP1 POP SWAP2 SWAP1 POP JUMP JUMPDEST PUSH1 0x0 PUSH1 0xE0 DUP4 ADD PUSH1 0x0 DUP4 ADD MLOAD PUSH2 0x18A6 PUSH1 0x0 DUP7 ADD DUP3 PUSH2 0x192A JUMP JUMPDEST POP PUSH1 0x20 DUP4 ADD MLOAD DUP5 DUP3 SUB PUSH1 0x20 DUP7 ADD MSTORE PUSH2 0x18BE DUP3 DUP3 PUSH2 0x1604 JUMP JUMPDEST SWAP2 POP POP PUSH1 0x40 DUP4 ADD MLOAD PUSH2 0x18D3 PUSH1 0x40 DUP7 ADD DUP3 PUSH2 0x192A JUMP JUMPDEST POP PUSH1 0x60 DUP4 ADD MLOAD PUSH2 0x18E6 PUSH1 0x60 DUP7 ADD DUP3 PUSH2 0x192A JUMP JUMPDEST POP PUSH1 0x80 DUP4 ADD MLOAD PUSH2 0x18F9 PUSH1 0x80 DUP7 ADD DUP3 PUSH2 0x15D7 JUMP JUMPDEST POP PUSH1 0xA0 DUP4 ADD MLOAD PUSH2 0x190C PUSH1 0xA0 DUP7 ADD DUP3 PUSH2 0x15D7 JUMP JUMPDEST POP PUSH1 0xC0 DUP4 ADD MLOAD PUSH2 0x191F PUSH1 0xC0 DUP7 ADD DUP3 PUSH2 0x192A JUMP JUMPDEST POP DUP1 SWAP2 POP POP SWAP3 SWAP2 POP POP JUMP JUMPDEST PUSH2 0x1933 DUP2 PUSH2 0x1C35 JUMP JUMPDEST DUP3 MSTORE POP POP JUMP JUMPDEST PUSH2 0x1942 DUP2 PUSH2 0x1C35 JUMP JUMPDEST DUP3 MSTORE POP POP JUMP JUMPDEST PUSH1 0x0 PUSH1 0x20 DUP3 ADD SWAP1 POP PUSH2 0x195D PUSH1 0x0 DUP4 ADD DUP5 PUSH2 0x15E6 JUMP JUMPDEST SWAP3 SWAP2 POP POP JUMP JUMPDEST PUSH1 0x0 PUSH1 0x20 DUP3 ADD SWAP1 POP PUSH2 0x1978 PUSH1 0x0 DUP4 ADD DUP5 PUSH2 0x15F5 JUMP JUMPDEST SWAP3 SWAP2 POP POP JUMP JUMPDEST PUSH1 0x0 PUSH1 0x20 DUP3 ADD SWAP1 POP DUP2 DUP2 SUB PUSH1 0x0 DUP4 ADD MSTORE PUSH2 0x1998 DUP2 DUP5 PUSH2 0x163D JUMP JUMPDEST SWAP1 POP SWAP3 SWAP2 POP POP JUMP JUMPDEST PUSH1 0x0 PUSH1 0x20 DUP3 ADD SWAP1 POP DUP2 DUP2 SUB PUSH1 0x0 DUP4 ADD MSTORE PUSH2 0x19B9 DUP2 PUSH2 0x1676 JUMP JUMPDEST SWAP1 POP SWAP2 SWAP1 POP JUMP JUMPDEST PUSH1 0x0 PUSH1 0x20 DUP3 ADD SWAP1 POP DUP2 DUP2 SUB PUSH1 0x0 DUP4 ADD MSTORE PUSH2 0x19D9 DUP2 PUSH2 0x16DC JUMP JUMPDEST SWAP1 POP SWAP2 SWAP1 POP JUMP JUMPDEST PUSH1 0x0 PUSH1 0x20 DUP3 ADD SWAP1 POP DUP2 DUP2 SUB PUSH1 0x0 DUP4 ADD MSTORE PUSH2 0x19F9 DUP2 PUSH2 0x171C JUMP JUMPDEST SWAP1 POP SWAP2 SWAP1 POP JUMP JUMPDEST PUSH1 0x0 PUSH1 0x20 DUP3 ADD SWAP1 POP DUP2 DUP2 SUB PUSH1 0x0 DUP4 ADD MSTORE PUSH2 0x1A19 DUP2 PUSH2 0x1782 JUMP JUMPDEST SWAP1 POP SWAP2 SWAP1 POP JUMP JUMPDEST PUSH1 0x0 PUSH1 0x20 DUP3 ADD SWAP1 POP DUP2 DUP2 SUB PUSH1 0x0 DUP4 ADD MSTORE PUSH2 0x1A39 DUP2 PUSH2 0x17C2 JUMP JUMPDEST SWAP1 POP SWAP2 SWAP1 POP JUMP JUMPDEST PUSH1 0x0 PUSH1 0x20 DUP3 ADD SWAP1 POP DUP2 DUP2 SUB PUSH1 0x0 DUP4 ADD MSTORE PUSH2 0x1A59 DUP2 PUSH2 0x1828 JUMP JUMPDEST SWAP1 POP SWAP2 SWAP1 POP JUMP JUMPDEST PUSH1 0x0 PUSH1 0x20 DUP3 ADD SWAP1 POP DUP2 DUP2 SUB PUSH1 0x0 DUP4 ADD MSTORE PUSH2 0x1A7A DUP2 DUP5 PUSH2 0x188E JUMP JUMPDEST SWAP1 POP SWAP3 SWAP2 POP POP JUMP JUMPDEST PUSH1 0x0 PUSH1 0x20 DUP3 ADD SWAP1 POP PUSH2 0x1A97 PUSH1 0x0 DUP4 ADD DUP5 PUSH2 0x1939 JUMP JUMPDEST SWAP3 SWAP2 POP POP JUMP JUMPDEST PUSH1 0x0 PUSH1 0xE0 DUP3 ADD SWAP1 POP PUSH2 0x1AB2 PUSH1 0x0 DUP4 ADD DUP11 PUSH2 0x1939 JUMP JUMPDEST DUP2 DUP2 SUB PUSH1 0x20 DUP4 ADD MSTORE PUSH2 0x1AC4 DUP2 DUP10 PUSH2 0x163D JUMP JUMPDEST SWAP1 POP PUSH2 0x1AD3 PUSH1 0x40 DUP4 ADD DUP9 PUSH2 0x1939 JUMP JUMPDEST PUSH2 0x1AE0 PUSH1 0x60 DUP4 ADD DUP8 PUSH2 0x1939 JUMP JUMPDEST PUSH2 0x1AED PUSH1 0x80 DUP4 ADD DUP7 PUSH2 0x15E6 JUMP JUMPDEST PUSH2 0x1AFA PUSH1 0xA0 DUP4 ADD DUP6 PUSH2 0x15E6 JUMP JUMPDEST PUSH2 0x1B07 PUSH1 0xC0 DUP4 ADD DUP5 PUSH2 0x1939 JUMP JUMPDEST SWAP9 SWAP8 POP POP POP POP POP POP POP POP JUMP JUMPDEST PUSH1 0x0 PUSH1 0x40 MLOAD SWAP1 POP DUP2 DUP2 ADD DUP2 DUP2 LT PUSH8 0xFFFFFFFFFFFFFFFF DUP3 GT OR ISZERO PUSH2 0x1B3A JUMPI PUSH2 0x1B39 PUSH2 0x1D11 JUMP JUMPDEST JUMPDEST DUP1 PUSH1 0x40 MSTORE POP SWAP2 SWAP1 POP JUMP JUMPDEST PUSH1 0x0 PUSH8 0xFFFFFFFFFFFFFFFF DUP3 GT ISZERO PUSH2 0x1B5F JUMPI PUSH2 0x1B5E PUSH2 0x1D11 JUMP JUMPDEST JUMPDEST PUSH1 0x1F NOT PUSH1 0x1F DUP4 ADD AND SWAP1 POP PUSH1 0x20 DUP2 ADD SWAP1 POP SWAP2 SWAP1 POP JUMP JUMPDEST PUSH1 0x0 DUP2 MLOAD SWAP1 POP SWAP2 SWAP1 POP JUMP JUMPDEST PUSH1 0x0 DUP3 DUP3 MSTORE PUSH1 0x20 DUP3 ADD SWAP1 POP SWAP3 SWAP2 POP POP JUMP JUMPDEST PUSH1 0x0 DUP3 DUP3 MSTORE PUSH1 0x20 DUP3 ADD SWAP1 POP SWAP3 SWAP2 POP POP JUMP JUMPDEST PUSH1 0x0 PUSH2 0x1BAC DUP3 PUSH2 0x1C35 JUMP JUMPDEST SWAP2 POP PUSH2 0x1BB7 DUP4 PUSH2 0x1C35 JUMP JUMPDEST SWAP3 POP DUP3 PUSH32 0xFFFFFFFFFFFFFFFFFFFFFFFFFFFFFFFFFFFFFFFFFFFFFFFFFFFFFFFFFFFFFFFF SUB DUP3 GT ISZERO PUSH2 0x1BEC JUMPI PUSH2 0x1BEB PUSH2 0x1CB3 JUMP JUMPDEST JUMPDEST DUP3 DUP3 ADD SWAP1 POP SWAP3 SWAP2 POP POP JUMP JUMPDEST PUSH1 0x0 PUSH2 0x1C02 DUP3 PUSH2 0x1C15 JUMP JUMPDEST SWAP1 POP SWAP2 SWAP1 POP JUMP JUMPDEST PUSH1 0x0 DUP2 ISZERO ISZERO SWAP1 POP SWAP2 SWAP1 POP JUMP JUMPDEST PUSH1 0x0 PUSH20 0xFFFFFFFFFFFFFFFFFFFFFFFFFFFFFFFFFFFFFFFF DUP3 AND SWAP1 POP SWAP2 SWAP1 POP JUMP JUMPDEST PUSH1 0x0 DUP2 SWAP1 POP SWAP2 SWAP1 POP JUMP JUMPDEST DUP3 DUP2 DUP4 CALLDATACOPY PUSH1 0x0 DUP4 DUP4 ADD MSTORE POP POP POP JUMP JUMPDEST PUSH1 0x0 JUMPDEST DUP4 DUP2 LT ISZERO PUSH2 0x1C6C JUMPI DUP1 DUP3 ADD MLOAD DUP2 DUP5 ADD MSTORE PUSH1 0x20 DUP2 ADD SWAP1 POP PUSH2 0x1C51 JUMP JUMPDEST DUP4 DUP2 GT ISZERO PUSH2 0x1C7B JUMPI PUSH1 0x0 DUP5 DUP5 ADD MSTORE JUMPDEST POP POP POP POP JUMP JUMPDEST PUSH1 0x0 PUSH1 0x2 DUP3 DIV SWAP1 POP PUSH1 0x1 DUP3 AND DUP1 PUSH2 0x1C99 JUMPI PUSH1 0x7F DUP3 AND SWAP2 POP JUMPDEST PUSH1 0x20 DUP3 LT DUP2 EQ ISZERO PUSH2 0x1CAD JUMPI PUSH2 0x1CAC PUSH2 0x1CE2 JUMP JUMPDEST JUMPDEST POP SWAP2 SWAP1 POP JUMP JUMPDEST PUSH32 0x4E487B7100000000000000000000000000000000000000000000000000000000 PUSH1 0x0 MSTORE PUSH1 0x11 PUSH1 0x4 MSTORE PUSH1 0x24 PUSH1 0x0 REVERT JUMPDEST PUSH32 0x4E487B7100000000000000000000000000000000000000000000000000000000 PUSH1 0x0 MSTORE PUSH1 0x22 PUSH1 0x4 MSTORE PUSH1 0x24 PUSH1 0x0 REVERT JUMPDEST PUSH32 0x4E487B7100000000000000000000000000000000000000000000000000000000 PUSH1 0x0 MSTORE PUSH1 0x41 PUSH1 0x4 MSTORE PUSH1 0x24 PUSH1 0x0 REVERT JUMPDEST PUSH1 0x0 PUSH1 0x1F NOT PUSH1 0x1F DUP4 ADD AND SWAP1 POP SWAP2 SWAP1 POP JUMP JUMPDEST PUSH2 0x1D5A DUP2 PUSH2 0x1BF7 JUMP JUMPDEST DUP2 EQ PUSH2 0x1D65 JUMPI PUSH1 0x0 DUP1 REVERT JUMPDEST POP JUMP JUMPDEST PUSH2 0x1D71 DUP2 PUSH2 0x1C35 JUMP JUMPDEST DUP2 EQ PUSH2 0x1D7C JUMPI PUSH1 0x0 DUP1 REVERT JUMPDEST POP JUMP INVALID LOG2 PUSH5 0x6970667358 0x22 SLT KECCAK256 GT AND DUP15 MSTORE 0xCA 0x5E SWAP7 0x4C 0xE2 0xC2 DUP12 0xC3 SHL 0xEF 0x2B PUSH31 0xEA654269912E3471E12A4287F394497764736F6C6343000800003300000000 "
				},
				"gasEstimates": {
					"creation": {
						"codeDepositCost": "1521000",
						"executionCost": "29013",
						"totalCost": "1550013"
					},
					"external": {
						"addAddressToWhitelist(address)": "23523",
						"assignRole(address,uint256)": "23161",
						"createProduct(string,uint256,uint256,address)": "infinite",
						"getProductDetails(uint256)": "infinite",
						"isWhitelisted(address)": "1628",
						"nextProductId()": "1196",
						"owner()": "1266",
						"products(uint256)": "infinite",
						"removeAddressFromWhitelist(address)": "23479",
						"revokeRole(address)": "8935",
						"roles(address)": "1580",
						"transferOwnership(address)": "24693",
						"transferProductOwnership(uint256,address)": "48760"
					}
				},
				"methodIdentifiers": {
					"addAddressToWhitelist(address)": "7b9417c8",
					"assignRole(address,uint256)": "2e3036c7",
					"createProduct(string,uint256,uint256,address)": "72c60690",
					"getProductDetails(uint256)": "6813b53b",
					"isWhitelisted(address)": "3af32abf",
					"nextProductId()": "4de91a63",
					"owner()": "8da5cb5b",
					"products(uint256)": "7acc0b20",
					"removeAddressFromWhitelist(address)": "286dd3f5",
					"revokeRole(address)": "80e52e3f",
					"roles(address)": "99374642",
					"transferOwnership(address)": "f2fde38b",
					"transferProductOwnership(uint256,address)": "86b0e812"
				}
			},
			"storageLayout": {
				"storage": [
					{
						"astId": 87,
						"contract": "contracts/ProductManager.sol:ProductManager",
						"label": "_owner",
						"offset": 0,
						"slot": "0",
						"type": "t_address"
					},
					{
						"astId": 449,
						"contract": "contracts/ProductManager.sol:ProductManager",
						"label": "_whitelist",
						"offset": 0,
						"slot": "1",
						"type": "t_mapping(t_address,t_bool)"
					},
					{
						"astId": 8,
						"contract": "contracts/ProductManager.sol:ProductManager",
						"label": "roles",
						"offset": 0,
						"slot": "2",
						"type": "t_mapping(t_address,t_uint256)"
					},
					{
						"astId": 193,
						"contract": "contracts/ProductManager.sol:ProductManager",
						"label": "products",
						"offset": 0,
						"slot": "3",
						"type": "t_array(t_struct(Product)189_storage)dyn_storage"
					},
					{
						"astId": 195,
						"contract": "contracts/ProductManager.sol:ProductManager",
						"label": "nextProductId",
						"offset": 0,
						"slot": "4",
						"type": "t_uint256"
					}
				],
				"types": {
					"t_address": {
						"encoding": "inplace",
						"label": "address",
						"numberOfBytes": "20"
					},
					"t_array(t_struct(Product)189_storage)dyn_storage": {
						"base": "t_struct(Product)189_storage",
						"encoding": "dynamic_array",
						"label": "struct ProductManager.Product[]",
						"numberOfBytes": "32"
					},
					"t_bool": {
						"encoding": "inplace",
						"label": "bool",
						"numberOfBytes": "1"
					},
					"t_mapping(t_address,t_bool)": {
						"encoding": "mapping",
						"key": "t_address",
						"label": "mapping(address => bool)",
						"numberOfBytes": "32",
						"value": "t_bool"
					},
					"t_mapping(t_address,t_uint256)": {
						"encoding": "mapping",
						"key": "t_address",
						"label": "mapping(address => uint256)",
						"numberOfBytes": "32",
						"value": "t_uint256"
					},
					"t_string_storage": {
						"encoding": "bytes",
						"label": "string",
						"numberOfBytes": "32"
					},
					"t_struct(Product)189_storage": {
						"encoding": "inplace",
						"label": "struct ProductManager.Product",
						"members": [
							{
								"astId": 176,
								"contract": "contracts/ProductManager.sol:ProductManager",
								"label": "id",
								"offset": 0,
								"slot": "0",
								"type": "t_uint256"
							},
							{
								"astId": 178,
								"contract": "contracts/ProductManager.sol:ProductManager",
								"label": "name",
								"offset": 0,
								"slot": "1",
								"type": "t_string_storage"
							},
							{
								"astId": 180,
								"contract": "contracts/ProductManager.sol:ProductManager",
								"label": "lotNumber",
								"offset": 0,
								"slot": "2",
								"type": "t_uint256"
							},
							{
								"astId": 182,
								"contract": "contracts/ProductManager.sol:ProductManager",
								"label": "totalPerLot",
								"offset": 0,
								"slot": "3",
								"type": "t_uint256"
							},
							{
								"astId": 184,
								"contract": "contracts/ProductManager.sol:ProductManager",
								"label": "manufacturer",
								"offset": 0,
								"slot": "4",
								"type": "t_address"
							},
							{
								"astId": 186,
								"contract": "contracts/ProductManager.sol:ProductManager",
								"label": "currentOwner",
								"offset": 0,
								"slot": "5",
								"type": "t_address"
							},
							{
								"astId": 188,
								"contract": "contracts/ProductManager.sol:ProductManager",
								"label": "purchaseDate",
								"offset": 0,
								"slot": "6",
								"type": "t_uint256"
							}
						],
						"numberOfBytes": "224"
					},
					"t_uint256": {
						"encoding": "inplace",
						"label": "uint256",
						"numberOfBytes": "32"
					}
				}
			},
			"userdoc": {
				"kind": "user",
				"methods": {},
				"version": 1
			}
		}
	}
}