{
	"contracts/ProductManager.sol": {
		"ProductManager": {
			"abi": [
				{
					"inputs": [],
					"stateMutability": "nonpayable",
					"type": "constructor"
				},
				{
					"anonymous": false,
					"inputs": [
						{
							"indexed": true,
							"internalType": "address",
							"name": "previousOwner",
							"type": "address"
						},
						{
							"indexed": true,
							"internalType": "address",
							"name": "newOwner",
							"type": "address"
						}
					],
					"name": "OwnershipTransferred",
					"type": "event"
				},
				{
					"anonymous": false,
					"inputs": [
						{
							"indexed": true,
							"internalType": "uint256",
							"name": "productId",
							"type": "uint256"
						},
						{
							"indexed": true,
							"internalType": "address",
							"name": "previousOwner",
							"type": "address"
						},
						{
							"indexed": true,
							"internalType": "address",
							"name": "newOwner",
							"type": "address"
						}
					],
					"name": "OwnershipTransferred",
					"type": "event"
				},
				{
					"anonymous": false,
					"inputs": [
						{
							"indexed": true,
							"internalType": "uint256",
							"name": "productId",
							"type": "uint256"
						},
						{
							"indexed": false,
							"internalType": "string",
							"name": "productName",
							"type": "string"
						}
					],
					"name": "ProductCreated",
					"type": "event"
				},
				{
					"inputs": [
						{
							"internalType": "string",
							"name": "name",
							"type": "string"
						},
						{
							"internalType": "uint256",
							"name": "lotNumber",
							"type": "uint256"
						},
						{
							"internalType": "uint256",
							"name": "totalPerLot",
							"type": "uint256"
						},
						{
							"internalType": "address",
							"name": "manufacturer",
							"type": "address"
						}
					],
					"name": "createProduct",
					"outputs": [],
					"stateMutability": "nonpayable",
					"type": "function"
				},
				{
					"inputs": [
						{
							"internalType": "uint256",
							"name": "productId",
							"type": "uint256"
						}
					],
					"name": "getProductDetails",
					"outputs": [
						{
							"components": [
								{
									"internalType": "uint256",
									"name": "id",
									"type": "uint256"
								},
								{
									"internalType": "string",
									"name": "name",
									"type": "string"
								},
								{
									"internalType": "uint256",
									"name": "lotNumber",
									"type": "uint256"
								},
								{
									"internalType": "uint256",
									"name": "totalPerLot",
									"type": "uint256"
								},
								{
									"internalType": "address",
									"name": "manufacturer",
									"type": "address"
								},
								{
									"internalType": "address",
									"name": "currentOwner",
									"type": "address"
								},
								{
									"internalType": "uint256",
									"name": "purchaseDate",
									"type": "uint256"
								}
							],
							"internalType": "struct ProductManager.Product",
							"name": "",
							"type": "tuple"
						}
					],
					"stateMutability": "view",
					"type": "function"
				},
				{
					"inputs": [],
					"name": "nextProductId",
					"outputs": [
						{
							"internalType": "uint256",
							"name": "",
							"type": "uint256"
						}
					],
					"stateMutability": "view",
					"type": "function"
				},
				{
					"inputs": [],
					"name": "owner",
					"outputs": [
						{
							"internalType": "address",
							"name": "",
							"type": "address"
						}
					],
					"stateMutability": "view",
					"type": "function"
				},
				{
					"inputs": [
						{
							"internalType": "uint256",
							"name": "",
							"type": "uint256"
						}
					],
					"name": "products",
					"outputs": [
						{
							"internalType": "uint256",
							"name": "id",
							"type": "uint256"
						},
						{
							"internalType": "string",
							"name": "name",
							"type": "string"
						},
						{
							"internalType": "uint256",
							"name": "lotNumber",
							"type": "uint256"
						},
						{
							"internalType": "uint256",
							"name": "totalPerLot",
							"type": "uint256"
						},
						{
							"internalType": "address",
							"name": "manufacturer",
							"type": "address"
						},
						{
							"internalType": "address",
							"name": "currentOwner",
							"type": "address"
						},
						{
							"internalType": "uint256",
							"name": "purchaseDate",
							"type": "uint256"
						}
					],
					"stateMutability": "view",
					"type": "function"
				},
				{
					"inputs": [
						{
							"internalType": "address",
							"name": "newOwner",
							"type": "address"
						}
					],
					"name": "transferOwnership",
					"outputs": [],
					"stateMutability": "nonpayable",
					"type": "function"
				},
				{
					"inputs": [
						{
							"internalType": "uint256",
							"name": "productId",
							"type": "uint256"
						},
						{
							"internalType": "address",
							"name": "newOwner",
							"type": "address"
						}
					],
					"name": "transferProductOwnership",
					"outputs": [],
					"stateMutability": "nonpayable",
					"type": "function"
				}
			],
			"devdoc": {
				"kind": "dev",
				"methods": {},
				"version": 1
			},
			"evm": {
				"assembly": "    /* \"contracts/ProductManager.sol\":113:2083  contract ProductManager is Ownable {... */\n  mstore(0x40, 0x80)\n    /* \"contracts/ProductManager.sol\":677:737  constructor() Ownable() {... */\n  callvalue\n  dup1\n  iszero\n  tag_1\n  jumpi\n  0x00\n  dup1\n  revert\ntag_1:\n  pop\n    /* \"contracts/Ownable.sol\":232:242  msg.sender */\n  caller\n    /* \"contracts/Ownable.sol\":223:229  _owner */\n  0x00\n  dup1\n    /* \"contracts/Ownable.sol\":223:242  _owner = msg.sender */\n  0x0100\n  exp\n  dup2\n  sload\n  dup2\n  0xffffffffffffffffffffffffffffffffffffffff\n  mul\n  not\n  and\n  swap1\n  dup4\n  0xffffffffffffffffffffffffffffffffffffffff\n  and\n  mul\n  or\n  swap1\n  sstore\n  pop\n    /* \"contracts/Ownable.sol\":290:300  msg.sender */\n  caller\n    /* \"contracts/Ownable.sol\":257:301  OwnershipTransferred(address(0), msg.sender) */\n  0xffffffffffffffffffffffffffffffffffffffff\n  and\n    /* \"contracts/Ownable.sol\":286:287  0 */\n  0x00\n    /* \"contracts/Ownable.sol\":257:301  OwnershipTransferred(address(0), msg.sender) */\n  0xffffffffffffffffffffffffffffffffffffffff\n  and\n  0x8be0079c531659141344cd1fd0a4f28419497f9722a3daafe3b4186f6b6457e0\n  mload(0x40)\n  mload(0x40)\n  dup1\n  swap2\n  sub\n  swap1\n  log3\n    /* \"contracts/ProductManager.sol\":728:729  0 */\n  0x00\n    /* \"contracts/ProductManager.sol\":712:725  nextProductId */\n  0x02\n    /* \"contracts/ProductManager.sol\":712:729  nextProductId = 0 */\n  dup2\n  swap1\n  sstore\n  pop\n    /* \"contracts/ProductManager.sol\":113:2083  contract ProductManager is Ownable {... */\n  dataSize(sub_0)\n  dup1\n  dataOffset(sub_0)\n  0x00\n  codecopy\n  0x00\n  return\nstop\n\nsub_0: assembly {\n        /* \"contracts/ProductManager.sol\":113:2083  contract ProductManager is Ownable {... */\n      mstore(0x40, 0x80)\n      callvalue\n      dup1\n      iszero\n      tag_1\n      jumpi\n      0x00\n      dup1\n      revert\n    tag_1:\n      pop\n      jumpi(tag_2, lt(calldatasize, 0x04))\n      shr(0xe0, calldataload(0x00))\n      dup1\n      0x7acc0b20\n      gt\n      tag_10\n      jumpi\n      dup1\n      0x7acc0b20\n      eq\n      tag_6\n      jumpi\n      dup1\n      0x86b0e812\n      eq\n      tag_7\n      jumpi\n      dup1\n      0x8da5cb5b\n      eq\n      tag_8\n      jumpi\n      dup1\n      0xf2fde38b\n      eq\n      tag_9\n      jumpi\n      jump(tag_2)\n    tag_10:\n      dup1\n      0x4de91a63\n      eq\n      tag_3\n      jumpi\n      dup1\n      0x6813b53b\n      eq\n      tag_4\n      jumpi\n      dup1\n      0x72c60690\n      eq\n      tag_5\n      jumpi\n    tag_2:\n      0x00\n      dup1\n      revert\n        /* \"contracts/ProductManager.sol\":447:475  uint256 public nextProductId */\n    tag_3:\n      tag_11\n      tag_12\n      jump\t// in\n    tag_11:\n      mload(0x40)\n      tag_13\n      swap2\n      swap1\n      tag_14\n      jump\t// in\n    tag_13:\n      mload(0x40)\n      dup1\n      swap2\n      sub\n      swap1\n      return\n        /* \"contracts/ProductManager.sol\":1869:2080  function getProductDetails(uint256 productId) public view returns (Product memory) {... */\n    tag_4:\n      tag_15\n      0x04\n      dup1\n      calldatasize\n      sub\n      dup2\n      add\n      swap1\n      tag_16\n      swap2\n      swap1\n      tag_17\n      jump\t// in\n    tag_16:\n      tag_18\n      jump\t// in\n    tag_15:\n      mload(0x40)\n      tag_19\n      swap2\n      swap1\n      tag_20\n      jump\t// in\n    tag_19:\n      mload(0x40)\n      dup1\n      swap2\n      sub\n      swap1\n      return\n        /* \"contracts/ProductManager.sol\":745:1359  function createProduct(string memory name, uint256 lotNumber, uint256 totalPerLot, address manufacturer) public onlyOwner {... */\n    tag_5:\n      tag_21\n      0x04\n      dup1\n      calldatasize\n      sub\n      dup2\n      add\n      swap1\n      tag_22\n      swap2\n      swap1\n      tag_23\n      jump\t// in\n    tag_22:\n      tag_24\n      jump\t// in\n    tag_21:\n      stop\n        /* \"contracts/ProductManager.sol\":415:440  Product[] public products */\n    tag_6:\n      tag_25\n      0x04\n      dup1\n      calldatasize\n      sub\n      dup2\n      add\n      swap1\n      tag_26\n      swap2\n      swap1\n      tag_17\n      jump\t// in\n    tag_26:\n      tag_27\n      jump\t// in\n    tag_25:\n      mload(0x40)\n      tag_28\n      swap8\n      swap7\n      swap6\n      swap5\n      swap4\n      swap3\n      swap2\n      swap1\n      tag_29\n      jump\t// in\n    tag_28:\n      mload(0x40)\n      dup1\n      swap2\n      sub\n      swap1\n      return\n        /* \"contracts/ProductManager.sol\":1367:1861  function transferProductOwnership(uint256 productId, address newOwner) public {... */\n    tag_7:\n      tag_30\n      0x04\n      dup1\n      calldatasize\n      sub\n      dup2\n      add\n      swap1\n      tag_31\n      swap2\n      swap1\n      tag_32\n      jump\t// in\n    tag_31:\n      tag_33\n      jump\t// in\n    tag_30:\n      stop\n        /* \"contracts/Ownable.sol\":314:391  function owner() public view returns (address) {... */\n    tag_8:\n      tag_34\n      tag_35\n      jump\t// in\n    tag_34:\n      mload(0x40)\n      tag_36\n      swap2\n      swap1\n      tag_37\n      jump\t// in\n    tag_36:\n      mload(0x40)\n      dup1\n      swap2\n      sub\n      swap1\n      return\n        /* \"contracts/Ownable.sol\":517:749  function transferOwnership(address newOwner) public onlyOwner {... */\n    tag_9:\n      tag_38\n      0x04\n      dup1\n      calldatasize\n      sub\n      dup2\n      add\n      swap1\n      tag_39\n      swap2\n      swap1\n      tag_40\n      jump\t// in\n    tag_39:\n      tag_41\n      jump\t// in\n    tag_38:\n      stop\n        /* \"contracts/ProductManager.sol\":447:475  uint256 public nextProductId */\n    tag_12:\n      sload(0x02)\n      dup2\n      jump\t// out\n        /* \"contracts/ProductManager.sol\":1869:2080  function getProductDetails(uint256 productId) public view returns (Product memory) {... */\n    tag_18:\n        /* \"contracts/ProductManager.sol\":1936:1950  Product memory */\n      tag_42\n      tag_43\n      jump\t// in\n    tag_42:\n        /* \"contracts/ProductManager.sol\":1983:1996  nextProductId */\n      sload(0x02)\n        /* \"contracts/ProductManager.sol\":1971:1980  productId */\n      dup3\n        /* \"contracts/ProductManager.sol\":1971:1996  productId < nextProductId */\n      lt\n        /* \"contracts/ProductManager.sol\":1963:2035  require(productId < nextProductId, \"ProductManager: invalid product ID\") */\n      tag_45\n      jumpi\n      mload(0x40)\n      0x08c379a000000000000000000000000000000000000000000000000000000000\n      dup2\n      mstore\n      0x04\n      add\n      tag_46\n      swap1\n      tag_47\n      jump\t// in\n    tag_46:\n      mload(0x40)\n      dup1\n      swap2\n      sub\n      swap1\n      revert\n    tag_45:\n        /* \"contracts/ProductManager.sol\":2053:2061  products */\n      0x01\n        /* \"contracts/ProductManager.sol\":2062:2071  productId */\n      dup3\n        /* \"contracts/ProductManager.sol\":2053:2072  products[productId] */\n      dup2\n      sload\n      dup2\n      lt\n      tag_48\n      jumpi\n      tag_49\n      tag_50\n      jump\t// in\n    tag_49:\n    tag_48:\n      swap1\n      0x00\n      mstore\n      keccak256(0x00, 0x20)\n      swap1\n      0x07\n      mul\n      add\n        /* \"contracts/ProductManager.sol\":2046:2072  return products[productId] */\n      mload(0x40)\n      dup1\n      0xe0\n      add\n      0x40\n      mstore\n      swap1\n      dup2\n      0x00\n      dup3\n      add\n      sload\n      dup2\n      mstore\n      0x20\n      add\n      0x01\n      dup3\n      add\n      dup1\n      sload\n      tag_52\n      swap1\n      tag_53\n      jump\t// in\n    tag_52:\n      dup1\n      0x1f\n      add\n      0x20\n      dup1\n      swap2\n      div\n      mul\n      0x20\n      add\n      mload(0x40)\n      swap1\n      dup2\n      add\n      0x40\n      mstore\n      dup1\n      swap3\n      swap2\n      swap1\n      dup2\n      dup2\n      mstore\n      0x20\n      add\n      dup3\n      dup1\n      sload\n      tag_54\n      swap1\n      tag_53\n      jump\t// in\n    tag_54:\n      dup1\n      iszero\n      tag_55\n      jumpi\n      dup1\n      0x1f\n      lt\n      tag_56\n      jumpi\n      0x0100\n      dup1\n      dup4\n      sload\n      div\n      mul\n      dup4\n      mstore\n      swap2\n      0x20\n      add\n      swap2\n      jump(tag_55)\n    tag_56:\n      dup3\n      add\n      swap2\n      swap1\n      0x00\n      mstore\n      keccak256(0x00, 0x20)\n      swap1\n    tag_57:\n      dup2\n      sload\n      dup2\n      mstore\n      swap1\n      0x01\n      add\n      swap1\n      0x20\n      add\n      dup1\n      dup4\n      gt\n      tag_57\n      jumpi\n      dup3\n      swap1\n      sub\n      0x1f\n      and\n      dup3\n      add\n      swap2\n    tag_55:\n      pop\n      pop\n      pop\n      pop\n      pop\n      dup2\n      mstore\n      0x20\n      add\n      0x02\n      dup3\n      add\n      sload\n      dup2\n      mstore\n      0x20\n      add\n      0x03\n      dup3\n      add\n      sload\n      dup2\n      mstore\n      0x20\n      add\n      0x04\n      dup3\n      add\n      0x00\n      swap1\n      sload\n      swap1\n      0x0100\n      exp\n      swap1\n      div\n      0xffffffffffffffffffffffffffffffffffffffff\n      and\n      0xffffffffffffffffffffffffffffffffffffffff\n      and\n      0xffffffffffffffffffffffffffffffffffffffff\n      and\n      dup2\n      mstore\n      0x20\n      add\n      0x05\n      dup3\n      add\n      0x00\n      swap1\n      sload\n      swap1\n      0x0100\n      exp\n      swap1\n      div\n      0xffffffffffffffffffffffffffffffffffffffff\n      and\n      0xffffffffffffffffffffffffffffffffffffffff\n      and\n      0xffffffffffffffffffffffffffffffffffffffff\n      and\n      dup2\n      mstore\n      0x20\n      add\n      0x06\n      dup3\n      add\n      sload\n      dup2\n      mstore\n      pop\n      pop\n      swap1\n      pop\n        /* \"contracts/ProductManager.sol\":1869:2080  function getProductDetails(uint256 productId) public view returns (Product memory) {... */\n      swap2\n      swap1\n      pop\n      jump\t// out\n        /* \"contracts/ProductManager.sol\":745:1359  function createProduct(string memory name, uint256 lotNumber, uint256 totalPerLot, address manufacturer) public onlyOwner {... */\n    tag_24:\n        /* \"contracts/Ownable.sol\":446:456  msg.sender */\n      caller\n        /* \"contracts/Ownable.sol\":436:456  _owner == msg.sender */\n      0xffffffffffffffffffffffffffffffffffffffff\n      and\n        /* \"contracts/Ownable.sol\":436:442  _owner */\n      0x00\n      dup1\n      sload\n      swap1\n      0x0100\n      exp\n      swap1\n      div\n      0xffffffffffffffffffffffffffffffffffffffff\n      and\n        /* \"contracts/Ownable.sol\":436:456  _owner == msg.sender */\n      0xffffffffffffffffffffffffffffffffffffffff\n      and\n      eq\n        /* \"contracts/Ownable.sol\":428:493  require(_owner == msg.sender, \"Ownable: caller is not the owner\") */\n      tag_59\n      jumpi\n      mload(0x40)\n      0x08c379a000000000000000000000000000000000000000000000000000000000\n      dup2\n      mstore\n      0x04\n      add\n      tag_60\n      swap1\n      tag_61\n      jump\t// in\n    tag_60:\n      mload(0x40)\n      dup1\n      swap2\n      sub\n      swap1\n      revert\n    tag_59:\n        /* \"contracts/ProductManager.sol\":878:886  products */\n      0x01\n        /* \"contracts/ProductManager.sol\":892:1252  Product({... */\n      mload(0x40)\n      dup1\n      0xe0\n      add\n      0x40\n      mstore\n      dup1\n        /* \"contracts/ProductManager.sol\":919:932  nextProductId */\n      sload(0x02)\n        /* \"contracts/ProductManager.sol\":892:1252  Product({... */\n      dup2\n      mstore\n      0x20\n      add\n        /* \"contracts/ProductManager.sol\":953:957  name */\n      dup7\n        /* \"contracts/ProductManager.sol\":892:1252  Product({... */\n      dup2\n      mstore\n      0x20\n      add\n        /* \"contracts/ProductManager.sol\":983:992  lotNumber */\n      dup6\n        /* \"contracts/ProductManager.sol\":892:1252  Product({... */\n      dup2\n      mstore\n      0x20\n      add\n        /* \"contracts/ProductManager.sol\":1020:1031  totalPerLot */\n      dup5\n        /* \"contracts/ProductManager.sol\":892:1252  Product({... */\n      dup2\n      mstore\n      0x20\n      add\n        /* \"contracts/ProductManager.sol\":1060:1072  manufacturer */\n      dup4\n        /* \"contracts/ProductManager.sol\":892:1252  Product({... */\n      0xffffffffffffffffffffffffffffffffffffffff\n      and\n      dup2\n      mstore\n      0x20\n      add\n        /* \"contracts/ProductManager.sol\":1101:1113  manufacturer */\n      dup4\n        /* \"contracts/ProductManager.sol\":892:1252  Product({... */\n      0xffffffffffffffffffffffffffffffffffffffff\n      and\n      dup2\n      mstore\n      0x20\n      add\n        /* \"contracts/ProductManager.sol\":1191:1206  block.timestamp */\n      timestamp\n        /* \"contracts/ProductManager.sol\":892:1252  Product({... */\n      dup2\n      mstore\n      pop\n        /* \"contracts/ProductManager.sol\":878:1253  products.push(Product({... */\n      swap1\n      dup1\n      0x01\n      dup2\n      sload\n      add\n      dup1\n      dup3\n      sstore\n      dup1\n      swap2\n      pop\n      pop\n      0x01\n      swap1\n      sub\n      swap1\n      0x00\n      mstore\n      keccak256(0x00, 0x20)\n      swap1\n      0x07\n      mul\n      add\n      0x00\n      swap1\n      swap2\n      swap1\n      swap2\n      swap1\n      swap2\n      pop\n      0x00\n      dup3\n      add\n      mload\n      dup2\n      0x00\n      add\n      sstore\n      0x20\n      dup3\n      add\n      mload\n      dup2\n      0x01\n      add\n      swap1\n      dup2\n      tag_64\n      swap2\n      swap1\n      tag_65\n      jump\t// in\n    tag_64:\n      pop\n      0x40\n      dup3\n      add\n      mload\n      dup2\n      0x02\n      add\n      sstore\n      0x60\n      dup3\n      add\n      mload\n      dup2\n      0x03\n      add\n      sstore\n      0x80\n      dup3\n      add\n      mload\n      dup2\n      0x04\n      add\n      exp(0x0100, 0x00)\n      dup2\n      sload\n      dup2\n      0xffffffffffffffffffffffffffffffffffffffff\n      mul\n      not\n      and\n      swap1\n      dup4\n      0xffffffffffffffffffffffffffffffffffffffff\n      and\n      mul\n      or\n      swap1\n      sstore\n      pop\n      0xa0\n      dup3\n      add\n      mload\n      dup2\n      0x05\n      add\n      exp(0x0100, 0x00)\n      dup2\n      sload\n      dup2\n      0xffffffffffffffffffffffffffffffffffffffff\n      mul\n      not\n      and\n      swap1\n      dup4\n      0xffffffffffffffffffffffffffffffffffffffff\n      and\n      mul\n      or\n      swap1\n      sstore\n      pop\n      0xc0\n      dup3\n      add\n      mload\n      dup2\n      0x06\n      add\n      sstore\n      pop\n      pop\n        /* \"contracts/ProductManager.sol\":1284:1297  nextProductId */\n      sload(0x02)\n        /* \"contracts/ProductManager.sol\":1269:1304  ProductCreated(nextProductId, name) */\n      0x543247085674b00368d9cd41416be705a4c27143c024163a6f58bf12a41992f5\n        /* \"contracts/ProductManager.sol\":1299:1303  name */\n      dup6\n        /* \"contracts/ProductManager.sol\":1269:1304  ProductCreated(nextProductId, name) */\n      mload(0x40)\n      tag_66\n      swap2\n      swap1\n      tag_67\n      jump\t// in\n    tag_66:\n      mload(0x40)\n      dup1\n      swap2\n      sub\n      swap1\n      log2\n        /* \"contracts/ProductManager.sol\":1331:1351  nextProductId.add(1) */\n      tag_68\n        /* \"contracts/ProductManager.sol\":1349:1350  1 */\n      0x01\n        /* \"contracts/ProductManager.sol\":1331:1344  nextProductId */\n      sload(0x02)\n        /* \"contracts/ProductManager.sol\":1331:1348  nextProductId.add */\n      tag_69\n      swap1\n        /* \"contracts/ProductManager.sol\":1331:1351  nextProductId.add(1) */\n      swap2\n      swap1\n      0xffffffff\n      and\n      jump\t// in\n    tag_68:\n        /* \"contracts/ProductManager.sol\":1315:1328  nextProductId */\n      0x02\n        /* \"contracts/ProductManager.sol\":1315:1351  nextProductId = nextProductId.add(1) */\n      dup2\n      swap1\n      sstore\n      pop\n        /* \"contracts/ProductManager.sol\":745:1359  function createProduct(string memory name, uint256 lotNumber, uint256 totalPerLot, address manufacturer) public onlyOwner {... */\n      pop\n      pop\n      pop\n      pop\n      jump\t// out\n        /* \"contracts/ProductManager.sol\":415:440  Product[] public products */\n    tag_27:\n      0x01\n      dup2\n      dup2\n      sload\n      dup2\n      lt\n      tag_70\n      jumpi\n      0x00\n      dup1\n      revert\n    tag_70:\n      swap1\n      0x00\n      mstore\n      keccak256(0x00, 0x20)\n      swap1\n      0x07\n      mul\n      add\n      0x00\n      swap2\n      pop\n      swap1\n      pop\n      dup1\n      0x00\n      add\n      sload\n      swap1\n      dup1\n      0x01\n      add\n      dup1\n      sload\n      tag_72\n      swap1\n      tag_53\n      jump\t// in\n    tag_72:\n      dup1\n      0x1f\n      add\n      0x20\n      dup1\n      swap2\n      div\n      mul\n      0x20\n      add\n      mload(0x40)\n      swap1\n      dup2\n      add\n      0x40\n      mstore\n      dup1\n      swap3\n      swap2\n      swap1\n      dup2\n      dup2\n      mstore\n      0x20\n      add\n      dup3\n      dup1\n      sload\n      tag_73\n      swap1\n      tag_53\n      jump\t// in\n    tag_73:\n      dup1\n      iszero\n      tag_74\n      jumpi\n      dup1\n      0x1f\n      lt\n      tag_75\n      jumpi\n      0x0100\n      dup1\n      dup4\n      sload\n      div\n      mul\n      dup4\n      mstore\n      swap2\n      0x20\n      add\n      swap2\n      jump(tag_74)\n    tag_75:\n      dup3\n      add\n      swap2\n      swap1\n      0x00\n      mstore\n      keccak256(0x00, 0x20)\n      swap1\n    tag_76:\n      dup2\n      sload\n      dup2\n      mstore\n      swap1\n      0x01\n      add\n      swap1\n      0x20\n      add\n      dup1\n      dup4\n      gt\n      tag_76\n      jumpi\n      dup3\n      swap1\n      sub\n      0x1f\n      and\n      dup3\n      add\n      swap2\n    tag_74:\n      pop\n      pop\n      pop\n      pop\n      pop\n      swap1\n      dup1\n      0x02\n      add\n      sload\n      swap1\n      dup1\n      0x03\n      add\n      sload\n      swap1\n      dup1\n      0x04\n      add\n      0x00\n      swap1\n      sload\n      swap1\n      0x0100\n      exp\n      swap1\n      div\n      0xffffffffffffffffffffffffffffffffffffffff\n      and\n      swap1\n      dup1\n      0x05\n      add\n      0x00\n      swap1\n      sload\n      swap1\n      0x0100\n      exp\n      swap1\n      div\n      0xffffffffffffffffffffffffffffffffffffffff\n      and\n      swap1\n      dup1\n      0x06\n      add\n      sload\n      swap1\n      pop\n      dup8\n      jump\t// out\n        /* \"contracts/ProductManager.sol\":1367:1861  function transferProductOwnership(uint256 productId, address newOwner) public {... */\n    tag_33:\n        /* \"contracts/ProductManager.sol\":1478:1486  products */\n      0x01\n        /* \"contracts/ProductManager.sol\":1487:1496  productId */\n      dup3\n        /* \"contracts/ProductManager.sol\":1478:1497  products[productId] */\n      dup2\n      sload\n      dup2\n      lt\n      tag_78\n      jumpi\n      tag_79\n      tag_50\n      jump\t// in\n    tag_79:\n    tag_78:\n      swap1\n      0x00\n      mstore\n      keccak256(0x00, 0x20)\n      swap1\n      0x07\n      mul\n      add\n        /* \"contracts/ProductManager.sol\":1478:1510  products[productId].currentOwner */\n      0x05\n      add\n      0x00\n      swap1\n      sload\n      swap1\n      0x0100\n      exp\n      swap1\n      div\n      0xffffffffffffffffffffffffffffffffffffffff\n      and\n        /* \"contracts/ProductManager.sol\":1464:1510  msg.sender == products[productId].currentOwner */\n      0xffffffffffffffffffffffffffffffffffffffff\n      and\n        /* \"contracts/ProductManager.sol\":1464:1474  msg.sender */\n      caller\n        /* \"contracts/ProductManager.sol\":1464:1510  msg.sender == products[productId].currentOwner */\n      0xffffffffffffffffffffffffffffffffffffffff\n      and\n      eq\n        /* \"contracts/ProductManager.sol\":1456:1562  require(msg.sender == products[productId].currentOwner, \"ProductManager: caller is not the current owner\") */\n      tag_81\n      jumpi\n      mload(0x40)\n      0x08c379a000000000000000000000000000000000000000000000000000000000\n      dup2\n      mstore\n      0x04\n      add\n      tag_82\n      swap1\n      tag_83\n      jump\t// in\n    tag_82:\n      mload(0x40)\n      dup1\n      swap2\n      sub\n      swap1\n      revert\n    tag_81:\n        /* \"contracts/ProductManager.sol\":1573:1594  address previousOwner */\n      0x00\n        /* \"contracts/ProductManager.sol\":1597:1605  products */\n      0x01\n        /* \"contracts/ProductManager.sol\":1606:1615  productId */\n      dup4\n        /* \"contracts/ProductManager.sol\":1597:1616  products[productId] */\n      dup2\n      sload\n      dup2\n      lt\n      tag_84\n      jumpi\n      tag_85\n      tag_50\n      jump\t// in\n    tag_85:\n    tag_84:\n      swap1\n      0x00\n      mstore\n      keccak256(0x00, 0x20)\n      swap1\n      0x07\n      mul\n      add\n        /* \"contracts/ProductManager.sol\":1597:1629  products[productId].currentOwner */\n      0x05\n      add\n      0x00\n      swap1\n      sload\n      swap1\n      0x0100\n      exp\n      swap1\n      div\n      0xffffffffffffffffffffffffffffffffffffffff\n      and\n        /* \"contracts/ProductManager.sol\":1573:1629  address previousOwner = products[productId].currentOwner */\n      swap1\n      pop\n        /* \"contracts/ProductManager.sol\":1675:1683  newOwner */\n      dup2\n        /* \"contracts/ProductManager.sol\":1640:1648  products */\n      0x01\n        /* \"contracts/ProductManager.sol\":1649:1658  productId */\n      dup5\n        /* \"contracts/ProductManager.sol\":1640:1659  products[productId] */\n      dup2\n      sload\n      dup2\n      lt\n      tag_87\n      jumpi\n      tag_88\n      tag_50\n      jump\t// in\n    tag_88:\n    tag_87:\n      swap1\n      0x00\n      mstore\n      keccak256(0x00, 0x20)\n      swap1\n      0x07\n      mul\n      add\n        /* \"contracts/ProductManager.sol\":1640:1672  products[productId].currentOwner */\n      0x05\n      add\n      0x00\n        /* \"contracts/ProductManager.sol\":1640:1683  products[productId].currentOwner = newOwner */\n      0x0100\n      exp\n      dup2\n      sload\n      dup2\n      0xffffffffffffffffffffffffffffffffffffffff\n      mul\n      not\n      and\n      swap1\n      dup4\n      0xffffffffffffffffffffffffffffffffffffffff\n      and\n      mul\n      or\n      swap1\n      sstore\n      pop\n        /* \"contracts/ProductManager.sol\":1729:1744  block.timestamp */\n      timestamp\n        /* \"contracts/ProductManager.sol\":1694:1702  products */\n      0x01\n        /* \"contracts/ProductManager.sol\":1703:1712  productId */\n      dup5\n        /* \"contracts/ProductManager.sol\":1694:1713  products[productId] */\n      dup2\n      sload\n      dup2\n      lt\n      tag_90\n      jumpi\n      tag_91\n      tag_50\n      jump\t// in\n    tag_91:\n    tag_90:\n      swap1\n      0x00\n      mstore\n      keccak256(0x00, 0x20)\n      swap1\n      0x07\n      mul\n      add\n        /* \"contracts/ProductManager.sol\":1694:1726  products[productId].purchaseDate */\n      0x06\n      add\n        /* \"contracts/ProductManager.sol\":1694:1744  products[productId].purchaseDate = block.timestamp */\n      dup2\n      swap1\n      sstore\n      pop\n        /* \"contracts/ProductManager.sol\":1844:1852  newOwner */\n      dup2\n        /* \"contracts/ProductManager.sol\":1797:1853  OwnershipTransferred(productId, previousOwner, newOwner) */\n      0xffffffffffffffffffffffffffffffffffffffff\n      and\n        /* \"contracts/ProductManager.sol\":1829:1842  previousOwner */\n      dup2\n        /* \"contracts/ProductManager.sol\":1797:1853  OwnershipTransferred(productId, previousOwner, newOwner) */\n      0xffffffffffffffffffffffffffffffffffffffff\n      and\n        /* \"contracts/ProductManager.sol\":1818:1827  productId */\n      dup5\n        /* \"contracts/ProductManager.sol\":1797:1853  OwnershipTransferred(productId, previousOwner, newOwner) */\n      0x16b85f49bf01212961345d3016c9a531894accf62eb7680f2045d79185cc0ec0\n      mload(0x40)\n      mload(0x40)\n      dup1\n      swap2\n      sub\n      swap1\n      log4\n        /* \"contracts/ProductManager.sol\":1445:1861  {... */\n      pop\n        /* \"contracts/ProductManager.sol\":1367:1861  function transferProductOwnership(uint256 productId, address newOwner) public {... */\n      pop\n      pop\n      jump\t// out\n        /* \"contracts/Ownable.sol\":314:391  function owner() public view returns (address) {... */\n    tag_35:\n        /* \"contracts/Ownable.sol\":352:359  address */\n      0x00\n        /* \"contracts/Ownable.sol\":378:384  _owner */\n      dup1\n      0x00\n      swap1\n      sload\n      swap1\n      0x0100\n      exp\n      swap1\n      div\n      0xffffffffffffffffffffffffffffffffffffffff\n      and\n        /* \"contracts/Ownable.sol\":371:384  return _owner */\n      swap1\n      pop\n        /* \"contracts/Ownable.sol\":314:391  function owner() public view returns (address) {... */\n      swap1\n      jump\t// out\n        /* \"contracts/Ownable.sol\":517:749  function transferOwnership(address newOwner) public onlyOwner {... */\n    tag_41:\n        /* \"contracts/Ownable.sol\":446:456  msg.sender */\n      caller\n        /* \"contracts/Ownable.sol\":436:456  _owner == msg.sender */\n      0xffffffffffffffffffffffffffffffffffffffff\n      and\n        /* \"contracts/Ownable.sol\":436:442  _owner */\n      0x00\n      dup1\n      sload\n      swap1\n      0x0100\n      exp\n      swap1\n      div\n      0xffffffffffffffffffffffffffffffffffffffff\n      and\n        /* \"contracts/Ownable.sol\":436:456  _owner == msg.sender */\n      0xffffffffffffffffffffffffffffffffffffffff\n      and\n      eq\n        /* \"contracts/Ownable.sol\":428:493  require(_owner == msg.sender, \"Ownable: caller is not the owner\") */\n      tag_95\n      jumpi\n      mload(0x40)\n      0x08c379a000000000000000000000000000000000000000000000000000000000\n      dup2\n      mstore\n      0x04\n      add\n      tag_96\n      swap1\n      tag_61\n      jump\t// in\n    tag_96:\n      mload(0x40)\n      dup1\n      swap2\n      sub\n      swap1\n      revert\n    tag_95:\n        /* \"contracts/Ownable.sol\":617:618  0 */\n      0x00\n        /* \"contracts/Ownable.sol\":597:619  newOwner != address(0) */\n      0xffffffffffffffffffffffffffffffffffffffff\n      and\n        /* \"contracts/Ownable.sol\":597:605  newOwner */\n      dup2\n        /* \"contracts/Ownable.sol\":597:619  newOwner != address(0) */\n      0xffffffffffffffffffffffffffffffffffffffff\n      and\n      sub\n        /* \"contracts/Ownable.sol\":589:662  require(newOwner != address(0), \"Ownable: new owner is the zero address\") */\n      tag_98\n      jumpi\n      mload(0x40)\n      0x08c379a000000000000000000000000000000000000000000000000000000000\n      dup2\n      mstore\n      0x04\n      add\n      tag_99\n      swap1\n      tag_100\n      jump\t// in\n    tag_99:\n      mload(0x40)\n      dup1\n      swap2\n      sub\n      swap1\n      revert\n    tag_98:\n        /* \"contracts/Ownable.sol\":706:714  newOwner */\n      dup1\n        /* \"contracts/Ownable.sol\":677:715  OwnershipTransferred(_owner, newOwner) */\n      0xffffffffffffffffffffffffffffffffffffffff\n      and\n        /* \"contracts/Ownable.sol\":698:704  _owner */\n      0x00\n      dup1\n      sload\n      swap1\n      0x0100\n      exp\n      swap1\n      div\n      0xffffffffffffffffffffffffffffffffffffffff\n      and\n        /* \"contracts/Ownable.sol\":677:715  OwnershipTransferred(_owner, newOwner) */\n      0xffffffffffffffffffffffffffffffffffffffff\n      and\n      0x8be0079c531659141344cd1fd0a4f28419497f9722a3daafe3b4186f6b6457e0\n      mload(0x40)\n      mload(0x40)\n      dup1\n      swap2\n      sub\n      swap1\n      log3\n        /* \"contracts/Ownable.sol\":734:742  newOwner */\n      dup1\n        /* \"contracts/Ownable.sol\":725:731  _owner */\n      0x00\n      dup1\n        /* \"contracts/Ownable.sol\":725:742  _owner = newOwner */\n      0x0100\n      exp\n      dup2\n      sload\n      dup2\n      0xffffffffffffffffffffffffffffffffffffffff\n      mul\n      not\n      and\n      swap1\n      dup4\n      0xffffffffffffffffffffffffffffffffffffffff\n      and\n      mul\n      or\n      swap1\n      sstore\n      pop\n        /* \"contracts/Ownable.sol\":517:749  function transferOwnership(address newOwner) public onlyOwner {... */\n      pop\n      jump\t// out\n        /* \"contracts/SafeMath.sol\":80:256  function add(uint256 a, uint256 b) internal pure returns (uint256) {... */\n    tag_69:\n        /* \"contracts/SafeMath.sol\":138:145  uint256 */\n      0x00\n        /* \"contracts/SafeMath.sol\":157:166  uint256 c */\n      dup1\n        /* \"contracts/SafeMath.sol\":173:174  b */\n      dup3\n        /* \"contracts/SafeMath.sol\":169:170  a */\n      dup5\n        /* \"contracts/SafeMath.sol\":169:174  a + b */\n      tag_102\n      swap2\n      swap1\n      tag_103\n      jump\t// in\n    tag_102:\n        /* \"contracts/SafeMath.sol\":157:174  uint256 c = a + b */\n      swap1\n      pop\n        /* \"contracts/SafeMath.sol\":197:198  a */\n      dup4\n        /* \"contracts/SafeMath.sol\":192:193  c */\n      dup2\n        /* \"contracts/SafeMath.sol\":192:198  c >= a */\n      lt\n      iszero\n        /* \"contracts/SafeMath.sol\":184:230  require(c >= a, \"SafeMath: addition overflow\") */\n      tag_104\n      jumpi\n      mload(0x40)\n      0x08c379a000000000000000000000000000000000000000000000000000000000\n      dup2\n      mstore\n      0x04\n      add\n      tag_105\n      swap1\n      tag_106\n      jump\t// in\n    tag_105:\n      mload(0x40)\n      dup1\n      swap2\n      sub\n      swap1\n      revert\n    tag_104:\n        /* \"contracts/SafeMath.sol\":248:249  c */\n      dup1\n        /* \"contracts/SafeMath.sol\":241:249  return c */\n      swap2\n      pop\n      pop\n        /* \"contracts/SafeMath.sol\":80:256  function add(uint256 a, uint256 b) internal pure returns (uint256) {... */\n      swap3\n      swap2\n      pop\n      pop\n      jump\t// out\n    tag_43:\n      mload(0x40)\n      dup1\n      0xe0\n      add\n      0x40\n      mstore\n      dup1\n      0x00\n      dup2\n      mstore\n      0x20\n      add\n      0x60\n      dup2\n      mstore\n      0x20\n      add\n      0x00\n      dup2\n      mstore\n      0x20\n      add\n      0x00\n      dup2\n      mstore\n      0x20\n      add\n      and(0xffffffffffffffffffffffffffffffffffffffff, 0x00)\n      dup2\n      mstore\n      0x20\n      add\n      and(0xffffffffffffffffffffffffffffffffffffffff, 0x00)\n      dup2\n      mstore\n      0x20\n      add\n      0x00\n      dup2\n      mstore\n      pop\n      swap1\n      jump\t// out\n        /* \"#utility.yul\":7:84   */\n    tag_107:\n        /* \"#utility.yul\":44:51   */\n      0x00\n        /* \"#utility.yul\":73:78   */\n      dup2\n        /* \"#utility.yul\":62:78   */\n      swap1\n      pop\n        /* \"#utility.yul\":7:84   */\n      swap2\n      swap1\n      pop\n      jump\t// out\n        /* \"#utility.yul\":90:208   */\n    tag_108:\n        /* \"#utility.yul\":177:201   */\n      tag_168\n        /* \"#utility.yul\":195:200   */\n      dup2\n        /* \"#utility.yul\":177:201   */\n      tag_107\n      jump\t// in\n    tag_168:\n        /* \"#utility.yul\":172:175   */\n      dup3\n        /* \"#utility.yul\":165:202   */\n      mstore\n        /* \"#utility.yul\":90:208   */\n      pop\n      pop\n      jump\t// out\n        /* \"#utility.yul\":214:436   */\n    tag_14:\n        /* \"#utility.yul\":307:311   */\n      0x00\n        /* \"#utility.yul\":345:347   */\n      0x20\n        /* \"#utility.yul\":334:343   */\n      dup3\n        /* \"#utility.yul\":330:348   */\n      add\n        /* \"#utility.yul\":322:348   */\n      swap1\n      pop\n        /* \"#utility.yul\":358:429   */\n      tag_170\n        /* \"#utility.yul\":426:427   */\n      0x00\n        /* \"#utility.yul\":415:424   */\n      dup4\n        /* \"#utility.yul\":411:428   */\n      add\n        /* \"#utility.yul\":402:408   */\n      dup5\n        /* \"#utility.yul\":358:429   */\n      tag_108\n      jump\t// in\n    tag_170:\n        /* \"#utility.yul\":214:436   */\n      swap3\n      swap2\n      pop\n      pop\n      jump\t// out\n        /* \"#utility.yul\":442:517   */\n    tag_109:\n        /* \"#utility.yul\":475:481   */\n      0x00\n        /* \"#utility.yul\":508:510   */\n      0x40\n        /* \"#utility.yul\":502:511   */\n      mload\n        /* \"#utility.yul\":492:511   */\n      swap1\n      pop\n        /* \"#utility.yul\":442:517   */\n      swap1\n      jump\t// out\n        /* \"#utility.yul\":523:640   */\n    tag_110:\n        /* \"#utility.yul\":632:633   */\n      0x00\n        /* \"#utility.yul\":629:630   */\n      dup1\n        /* \"#utility.yul\":622:634   */\n      revert\n        /* \"#utility.yul\":646:763   */\n    tag_111:\n        /* \"#utility.yul\":755:756   */\n      0x00\n        /* \"#utility.yul\":752:753   */\n      dup1\n        /* \"#utility.yul\":745:757   */\n      revert\n        /* \"#utility.yul\":769:891   */\n    tag_112:\n        /* \"#utility.yul\":842:866   */\n      tag_175\n        /* \"#utility.yul\":860:865   */\n      dup2\n        /* \"#utility.yul\":842:866   */\n      tag_107\n      jump\t// in\n    tag_175:\n        /* \"#utility.yul\":835:840   */\n      dup2\n        /* \"#utility.yul\":832:867   */\n      eq\n        /* \"#utility.yul\":822:885   */\n      tag_176\n      jumpi\n        /* \"#utility.yul\":881:882   */\n      0x00\n        /* \"#utility.yul\":878:879   */\n      dup1\n        /* \"#utility.yul\":871:883   */\n      revert\n        /* \"#utility.yul\":822:885   */\n    tag_176:\n        /* \"#utility.yul\":769:891   */\n      pop\n      jump\t// out\n        /* \"#utility.yul\":897:1036   */\n    tag_113:\n        /* \"#utility.yul\":943:948   */\n      0x00\n        /* \"#utility.yul\":981:987   */\n      dup2\n        /* \"#utility.yul\":968:988   */\n      calldataload\n        /* \"#utility.yul\":959:988   */\n      swap1\n      pop\n        /* \"#utility.yul\":997:1030   */\n      tag_178\n        /* \"#utility.yul\":1024:1029   */\n      dup2\n        /* \"#utility.yul\":997:1030   */\n      tag_112\n      jump\t// in\n    tag_178:\n        /* \"#utility.yul\":897:1036   */\n      swap3\n      swap2\n      pop\n      pop\n      jump\t// out\n        /* \"#utility.yul\":1042:1371   */\n    tag_17:\n        /* \"#utility.yul\":1101:1107   */\n      0x00\n        /* \"#utility.yul\":1150:1152   */\n      0x20\n        /* \"#utility.yul\":1138:1147   */\n      dup3\n        /* \"#utility.yul\":1129:1136   */\n      dup5\n        /* \"#utility.yul\":1125:1148   */\n      sub\n        /* \"#utility.yul\":1121:1153   */\n      slt\n        /* \"#utility.yul\":1118:1237   */\n      iszero\n      tag_180\n      jumpi\n        /* \"#utility.yul\":1156:1235   */\n      tag_181\n      tag_110\n      jump\t// in\n    tag_181:\n        /* \"#utility.yul\":1118:1237   */\n    tag_180:\n        /* \"#utility.yul\":1276:1277   */\n      0x00\n        /* \"#utility.yul\":1301:1354   */\n      tag_182\n        /* \"#utility.yul\":1346:1353   */\n      dup5\n        /* \"#utility.yul\":1337:1343   */\n      dup3\n        /* \"#utility.yul\":1326:1335   */\n      dup6\n        /* \"#utility.yul\":1322:1344   */\n      add\n        /* \"#utility.yul\":1301:1354   */\n      tag_113\n      jump\t// in\n    tag_182:\n        /* \"#utility.yul\":1291:1354   */\n      swap2\n      pop\n        /* \"#utility.yul\":1247:1364   */\n      pop\n        /* \"#utility.yul\":1042:1371   */\n      swap3\n      swap2\n      pop\n      pop\n      jump\t// out\n        /* \"#utility.yul\":1377:1485   */\n    tag_114:\n        /* \"#utility.yul\":1454:1478   */\n      tag_184\n        /* \"#utility.yul\":1472:1477   */\n      dup2\n        /* \"#utility.yul\":1454:1478   */\n      tag_107\n      jump\t// in\n    tag_184:\n        /* \"#utility.yul\":1449:1452   */\n      dup3\n        /* \"#utility.yul\":1442:1479   */\n      mstore\n        /* \"#utility.yul\":1377:1485   */\n      pop\n      pop\n      jump\t// out\n        /* \"#utility.yul\":1491:1590   */\n    tag_115:\n        /* \"#utility.yul\":1543:1549   */\n      0x00\n        /* \"#utility.yul\":1577:1582   */\n      dup2\n        /* \"#utility.yul\":1571:1583   */\n      mload\n        /* \"#utility.yul\":1561:1583   */\n      swap1\n      pop\n        /* \"#utility.yul\":1491:1590   */\n      swap2\n      swap1\n      pop\n      jump\t// out\n        /* \"#utility.yul\":1596:1755   */\n    tag_116:\n        /* \"#utility.yul\":1670:1681   */\n      0x00\n        /* \"#utility.yul\":1704:1710   */\n      dup3\n        /* \"#utility.yul\":1699:1702   */\n      dup3\n        /* \"#utility.yul\":1692:1711   */\n      mstore\n        /* \"#utility.yul\":1744:1748   */\n      0x20\n        /* \"#utility.yul\":1739:1742   */\n      dup3\n        /* \"#utility.yul\":1735:1749   */\n      add\n        /* \"#utility.yul\":1720:1749   */\n      swap1\n      pop\n        /* \"#utility.yul\":1596:1755   */\n      swap3\n      swap2\n      pop\n      pop\n      jump\t// out\n        /* \"#utility.yul\":1761:1900   */\n    tag_117:\n        /* \"#utility.yul\":1850:1856   */\n      dup3\n        /* \"#utility.yul\":1845:1848   */\n      dup2\n        /* \"#utility.yul\":1840:1843   */\n      dup4\n        /* \"#utility.yul\":1834:1857   */\n      mcopy\n        /* \"#utility.yul\":1891:1892   */\n      0x00\n        /* \"#utility.yul\":1882:1888   */\n      dup4\n        /* \"#utility.yul\":1877:1880   */\n      dup4\n        /* \"#utility.yul\":1873:1889   */\n      add\n        /* \"#utility.yul\":1866:1893   */\n      mstore\n        /* \"#utility.yul\":1761:1900   */\n      pop\n      pop\n      pop\n      jump\t// out\n        /* \"#utility.yul\":1906:2008   */\n    tag_118:\n        /* \"#utility.yul\":1947:1953   */\n      0x00\n        /* \"#utility.yul\":1998:2000   */\n      0x1f\n        /* \"#utility.yul\":1994:2001   */\n      not\n        /* \"#utility.yul\":1989:1991   */\n      0x1f\n        /* \"#utility.yul\":1982:1987   */\n      dup4\n        /* \"#utility.yul\":1978:1992   */\n      add\n        /* \"#utility.yul\":1974:2002   */\n      and\n        /* \"#utility.yul\":1964:2002   */\n      swap1\n      pop\n        /* \"#utility.yul\":1906:2008   */\n      swap2\n      swap1\n      pop\n      jump\t// out\n        /* \"#utility.yul\":2014:2371   */\n    tag_119:\n        /* \"#utility.yul\":2092:2095   */\n      0x00\n        /* \"#utility.yul\":2120:2159   */\n      tag_190\n        /* \"#utility.yul\":2153:2158   */\n      dup3\n        /* \"#utility.yul\":2120:2159   */\n      tag_115\n      jump\t// in\n    tag_190:\n        /* \"#utility.yul\":2175:2236   */\n      tag_191\n        /* \"#utility.yul\":2229:2235   */\n      dup2\n        /* \"#utility.yul\":2224:2227   */\n      dup6\n        /* \"#utility.yul\":2175:2236   */\n      tag_116\n      jump\t// in\n    tag_191:\n        /* \"#utility.yul\":2168:2236   */\n      swap4\n      pop\n        /* \"#utility.yul\":2245:2310   */\n      tag_192\n        /* \"#utility.yul\":2303:2309   */\n      dup2\n        /* \"#utility.yul\":2298:2301   */\n      dup6\n        /* \"#utility.yul\":2291:2295   */\n      0x20\n        /* \"#utility.yul\":2284:2289   */\n      dup7\n        /* \"#utility.yul\":2280:2296   */\n      add\n        /* \"#utility.yul\":2245:2310   */\n      tag_117\n      jump\t// in\n    tag_192:\n        /* \"#utility.yul\":2335:2364   */\n      tag_193\n        /* \"#utility.yul\":2357:2363   */\n      dup2\n        /* \"#utility.yul\":2335:2364   */\n      tag_118\n      jump\t// in\n    tag_193:\n        /* \"#utility.yul\":2330:2333   */\n      dup5\n        /* \"#utility.yul\":2326:2365   */\n      add\n        /* \"#utility.yul\":2319:2365   */\n      swap2\n      pop\n        /* \"#utility.yul\":2096:2371   */\n      pop\n        /* \"#utility.yul\":2014:2371   */\n      swap3\n      swap2\n      pop\n      pop\n      jump\t// out\n        /* \"#utility.yul\":2377:2503   */\n    tag_120:\n        /* \"#utility.yul\":2414:2421   */\n      0x00\n        /* \"#utility.yul\":2454:2496   */\n      0xffffffffffffffffffffffffffffffffffffffff\n        /* \"#utility.yul\":2447:2452   */\n      dup3\n        /* \"#utility.yul\":2443:2497   */\n      and\n        /* \"#utility.yul\":2432:2497   */\n      swap1\n      pop\n        /* \"#utility.yul\":2377:2503   */\n      swap2\n      swap1\n      pop\n      jump\t// out\n        /* \"#utility.yul\":2509:2605   */\n    tag_121:\n        /* \"#utility.yul\":2546:2553   */\n      0x00\n        /* \"#utility.yul\":2575:2599   */\n      tag_196\n        /* \"#utility.yul\":2593:2598   */\n      dup3\n        /* \"#utility.yul\":2575:2599   */\n      tag_120\n      jump\t// in\n    tag_196:\n        /* \"#utility.yul\":2564:2599   */\n      swap1\n      pop\n        /* \"#utility.yul\":2509:2605   */\n      swap2\n      swap1\n      pop\n      jump\t// out\n        /* \"#utility.yul\":2611:2719   */\n    tag_122:\n        /* \"#utility.yul\":2688:2712   */\n      tag_198\n        /* \"#utility.yul\":2706:2711   */\n      dup2\n        /* \"#utility.yul\":2688:2712   */\n      tag_121\n      jump\t// in\n    tag_198:\n        /* \"#utility.yul\":2683:2686   */\n      dup3\n        /* \"#utility.yul\":2676:2713   */\n      mstore\n        /* \"#utility.yul\":2611:2719   */\n      pop\n      pop\n      jump\t// out\n        /* \"#utility.yul\":2795:4303   */\n    tag_123:\n        /* \"#utility.yul\":2912:2915   */\n      0x00\n        /* \"#utility.yul\":2948:2952   */\n      0xe0\n        /* \"#utility.yul\":2943:2946   */\n      dup4\n        /* \"#utility.yul\":2939:2953   */\n      add\n        /* \"#utility.yul\":3033:3037   */\n      0x00\n        /* \"#utility.yul\":3026:3031   */\n      dup4\n        /* \"#utility.yul\":3022:3038   */\n      add\n        /* \"#utility.yul\":3016:3039   */\n      mload\n        /* \"#utility.yul\":3052:3115   */\n      tag_200\n        /* \"#utility.yul\":3109:3113   */\n      0x00\n        /* \"#utility.yul\":3104:3107   */\n      dup7\n        /* \"#utility.yul\":3100:3114   */\n      add\n        /* \"#utility.yul\":3086:3098   */\n      dup3\n        /* \"#utility.yul\":3052:3115   */\n      tag_114\n      jump\t// in\n    tag_200:\n        /* \"#utility.yul\":2963:3125   */\n      pop\n        /* \"#utility.yul\":3207:3211   */\n      0x20\n        /* \"#utility.yul\":3200:3205   */\n      dup4\n        /* \"#utility.yul\":3196:3212   */\n      add\n        /* \"#utility.yul\":3190:3213   */\n      mload\n        /* \"#utility.yul\":3260:3263   */\n      dup5\n        /* \"#utility.yul\":3254:3258   */\n      dup3\n        /* \"#utility.yul\":3250:3264   */\n      sub\n        /* \"#utility.yul\":3243:3247   */\n      0x20\n        /* \"#utility.yul\":3238:3241   */\n      dup7\n        /* \"#utility.yul\":3234:3248   */\n      add\n        /* \"#utility.yul\":3227:3265   */\n      mstore\n        /* \"#utility.yul\":3286:3359   */\n      tag_201\n        /* \"#utility.yul\":3354:3358   */\n      dup3\n        /* \"#utility.yul\":3340:3352   */\n      dup3\n        /* \"#utility.yul\":3286:3359   */\n      tag_119\n      jump\t// in\n    tag_201:\n        /* \"#utility.yul\":3278:3359   */\n      swap2\n      pop\n        /* \"#utility.yul\":3135:3370   */\n      pop\n        /* \"#utility.yul\":3457:3461   */\n      0x40\n        /* \"#utility.yul\":3450:3455   */\n      dup4\n        /* \"#utility.yul\":3446:3462   */\n      add\n        /* \"#utility.yul\":3440:3463   */\n      mload\n        /* \"#utility.yul\":3476:3539   */\n      tag_202\n        /* \"#utility.yul\":3533:3537   */\n      0x40\n        /* \"#utility.yul\":3528:3531   */\n      dup7\n        /* \"#utility.yul\":3524:3538   */\n      add\n        /* \"#utility.yul\":3510:3522   */\n      dup3\n        /* \"#utility.yul\":3476:3539   */\n      tag_114\n      jump\t// in\n    tag_202:\n        /* \"#utility.yul\":3380:3549   */\n      pop\n        /* \"#utility.yul\":3638:3642   */\n      0x60\n        /* \"#utility.yul\":3631:3636   */\n      dup4\n        /* \"#utility.yul\":3627:3643   */\n      add\n        /* \"#utility.yul\":3621:3644   */\n      mload\n        /* \"#utility.yul\":3657:3720   */\n      tag_203\n        /* \"#utility.yul\":3714:3718   */\n      0x60\n        /* \"#utility.yul\":3709:3712   */\n      dup7\n        /* \"#utility.yul\":3705:3719   */\n      add\n        /* \"#utility.yul\":3691:3703   */\n      dup3\n        /* \"#utility.yul\":3657:3720   */\n      tag_114\n      jump\t// in\n    tag_203:\n        /* \"#utility.yul\":3559:3730   */\n      pop\n        /* \"#utility.yul\":3820:3824   */\n      0x80\n        /* \"#utility.yul\":3813:3818   */\n      dup4\n        /* \"#utility.yul\":3809:3825   */\n      add\n        /* \"#utility.yul\":3803:3826   */\n      mload\n        /* \"#utility.yul\":3839:3902   */\n      tag_204\n        /* \"#utility.yul\":3896:3900   */\n      0x80\n        /* \"#utility.yul\":3891:3894   */\n      dup7\n        /* \"#utility.yul\":3887:3901   */\n      add\n        /* \"#utility.yul\":3873:3885   */\n      dup3\n        /* \"#utility.yul\":3839:3902   */\n      tag_122\n      jump\t// in\n    tag_204:\n        /* \"#utility.yul\":3740:3912   */\n      pop\n        /* \"#utility.yul\":4002:4006   */\n      0xa0\n        /* \"#utility.yul\":3995:4000   */\n      dup4\n        /* \"#utility.yul\":3991:4007   */\n      add\n        /* \"#utility.yul\":3985:4008   */\n      mload\n        /* \"#utility.yul\":4021:4084   */\n      tag_205\n        /* \"#utility.yul\":4078:4082   */\n      0xa0\n        /* \"#utility.yul\":4073:4076   */\n      dup7\n        /* \"#utility.yul\":4069:4083   */\n      add\n        /* \"#utility.yul\":4055:4067   */\n      dup3\n        /* \"#utility.yul\":4021:4084   */\n      tag_122\n      jump\t// in\n    tag_205:\n        /* \"#utility.yul\":3922:4094   */\n      pop\n        /* \"#utility.yul\":4184:4188   */\n      0xc0\n        /* \"#utility.yul\":4177:4182   */\n      dup4\n        /* \"#utility.yul\":4173:4189   */\n      add\n        /* \"#utility.yul\":4167:4190   */\n      mload\n        /* \"#utility.yul\":4203:4266   */\n      tag_206\n        /* \"#utility.yul\":4260:4264   */\n      0xc0\n        /* \"#utility.yul\":4255:4258   */\n      dup7\n        /* \"#utility.yul\":4251:4265   */\n      add\n        /* \"#utility.yul\":4237:4249   */\n      dup3\n        /* \"#utility.yul\":4203:4266   */\n      tag_114\n      jump\t// in\n    tag_206:\n        /* \"#utility.yul\":4104:4276   */\n      pop\n        /* \"#utility.yul\":4293:4297   */\n      dup1\n        /* \"#utility.yul\":4286:4297   */\n      swap2\n      pop\n        /* \"#utility.yul\":2917:4303   */\n      pop\n        /* \"#utility.yul\":2795:4303   */\n      swap3\n      swap2\n      pop\n      pop\n      jump\t// out\n        /* \"#utility.yul\":4309:4678   */\n    tag_20:\n        /* \"#utility.yul\":4450:4454   */\n      0x00\n        /* \"#utility.yul\":4488:4490   */\n      0x20\n        /* \"#utility.yul\":4477:4486   */\n      dup3\n        /* \"#utility.yul\":4473:4491   */\n      add\n        /* \"#utility.yul\":4465:4491   */\n      swap1\n      pop\n        /* \"#utility.yul\":4537:4546   */\n      dup2\n        /* \"#utility.yul\":4531:4535   */\n      dup2\n        /* \"#utility.yul\":4527:4547   */\n      sub\n        /* \"#utility.yul\":4523:4524   */\n      0x00\n        /* \"#utility.yul\":4512:4521   */\n      dup4\n        /* \"#utility.yul\":4508:4525   */\n      add\n        /* \"#utility.yul\":4501:4548   */\n      mstore\n        /* \"#utility.yul\":4565:4671   */\n      tag_208\n        /* \"#utility.yul\":4666:4670   */\n      dup2\n        /* \"#utility.yul\":4657:4663   */\n      dup5\n        /* \"#utility.yul\":4565:4671   */\n      tag_123\n      jump\t// in\n    tag_208:\n        /* \"#utility.yul\":4557:4671   */\n      swap1\n      pop\n        /* \"#utility.yul\":4309:4678   */\n      swap3\n      swap2\n      pop\n      pop\n      jump\t// out\n        /* \"#utility.yul\":4684:4801   */\n    tag_124:\n        /* \"#utility.yul\":4793:4794   */\n      0x00\n        /* \"#utility.yul\":4790:4791   */\n      dup1\n        /* \"#utility.yul\":4783:4795   */\n      revert\n        /* \"#utility.yul\":4807:4924   */\n    tag_125:\n        /* \"#utility.yul\":4916:4917   */\n      0x00\n        /* \"#utility.yul\":4913:4914   */\n      dup1\n        /* \"#utility.yul\":4906:4918   */\n      revert\n        /* \"#utility.yul\":4930:5110   */\n    tag_126:\n        /* \"#utility.yul\":4978:5055   */\n      0x4e487b7100000000000000000000000000000000000000000000000000000000\n        /* \"#utility.yul\":4975:4976   */\n      0x00\n        /* \"#utility.yul\":4968:5056   */\n      mstore\n        /* \"#utility.yul\":5075:5079   */\n      0x41\n        /* \"#utility.yul\":5072:5073   */\n      0x04\n        /* \"#utility.yul\":5065:5080   */\n      mstore\n        /* \"#utility.yul\":5099:5103   */\n      0x24\n        /* \"#utility.yul\":5096:5097   */\n      0x00\n        /* \"#utility.yul\":5089:5104   */\n      revert\n        /* \"#utility.yul\":5116:5397   */\n    tag_127:\n        /* \"#utility.yul\":5199:5226   */\n      tag_213\n        /* \"#utility.yul\":5221:5225   */\n      dup3\n        /* \"#utility.yul\":5199:5226   */\n      tag_118\n      jump\t// in\n    tag_213:\n        /* \"#utility.yul\":5191:5197   */\n      dup2\n        /* \"#utility.yul\":5187:5227   */\n      add\n        /* \"#utility.yul\":5329:5335   */\n      dup2\n        /* \"#utility.yul\":5317:5327   */\n      dup2\n        /* \"#utility.yul\":5314:5336   */\n      lt\n        /* \"#utility.yul\":5293:5311   */\n      0xffffffffffffffff\n        /* \"#utility.yul\":5281:5291   */\n      dup3\n        /* \"#utility.yul\":5278:5312   */\n      gt\n        /* \"#utility.yul\":5275:5337   */\n      or\n        /* \"#utility.yul\":5272:5360   */\n      iszero\n      tag_214\n      jumpi\n        /* \"#utility.yul\":5340:5358   */\n      tag_215\n      tag_126\n      jump\t// in\n    tag_215:\n        /* \"#utility.yul\":5272:5360   */\n    tag_214:\n        /* \"#utility.yul\":5380:5390   */\n      dup1\n        /* \"#utility.yul\":5376:5378   */\n      0x40\n        /* \"#utility.yul\":5369:5391   */\n      mstore\n        /* \"#utility.yul\":5159:5397   */\n      pop\n        /* \"#utility.yul\":5116:5397   */\n      pop\n      pop\n      jump\t// out\n        /* \"#utility.yul\":5403:5532   */\n    tag_128:\n        /* \"#utility.yul\":5437:5443   */\n      0x00\n        /* \"#utility.yul\":5464:5484   */\n      tag_217\n      tag_109\n      jump\t// in\n    tag_217:\n        /* \"#utility.yul\":5454:5484   */\n      swap1\n      pop\n        /* \"#utility.yul\":5493:5526   */\n      tag_218\n        /* \"#utility.yul\":5521:5525   */\n      dup3\n        /* \"#utility.yul\":5513:5519   */\n      dup3\n        /* \"#utility.yul\":5493:5526   */\n      tag_127\n      jump\t// in\n    tag_218:\n        /* \"#utility.yul\":5403:5532   */\n      swap2\n      swap1\n      pop\n      jump\t// out\n        /* \"#utility.yul\":5538:5846   */\n    tag_129:\n        /* \"#utility.yul\":5600:5604   */\n      0x00\n        /* \"#utility.yul\":5690:5708   */\n      0xffffffffffffffff\n        /* \"#utility.yul\":5682:5688   */\n      dup3\n        /* \"#utility.yul\":5679:5709   */\n      gt\n        /* \"#utility.yul\":5676:5732   */\n      iszero\n      tag_220\n      jumpi\n        /* \"#utility.yul\":5712:5730   */\n      tag_221\n      tag_126\n      jump\t// in\n    tag_221:\n        /* \"#utility.yul\":5676:5732   */\n    tag_220:\n        /* \"#utility.yul\":5750:5779   */\n      tag_222\n        /* \"#utility.yul\":5772:5778   */\n      dup3\n        /* \"#utility.yul\":5750:5779   */\n      tag_118\n      jump\t// in\n    tag_222:\n        /* \"#utility.yul\":5742:5779   */\n      swap1\n      pop\n        /* \"#utility.yul\":5834:5838   */\n      0x20\n        /* \"#utility.yul\":5828:5832   */\n      dup2\n        /* \"#utility.yul\":5824:5839   */\n      add\n        /* \"#utility.yul\":5816:5839   */\n      swap1\n      pop\n        /* \"#utility.yul\":5538:5846   */\n      swap2\n      swap1\n      pop\n      jump\t// out\n        /* \"#utility.yul\":5852:6000   */\n    tag_130:\n        /* \"#utility.yul\":5950:5956   */\n      dup3\n        /* \"#utility.yul\":5945:5948   */\n      dup2\n        /* \"#utility.yul\":5940:5943   */\n      dup4\n        /* \"#utility.yul\":5927:5957   */\n      calldatacopy\n        /* \"#utility.yul\":5991:5992   */\n      0x00\n        /* \"#utility.yul\":5982:5988   */\n      dup4\n        /* \"#utility.yul\":5977:5980   */\n      dup4\n        /* \"#utility.yul\":5973:5989   */\n      add\n        /* \"#utility.yul\":5966:5993   */\n      mstore\n        /* \"#utility.yul\":5852:6000   */\n      pop\n      pop\n      pop\n      jump\t// out\n        /* \"#utility.yul\":6006:6431   */\n    tag_131:\n        /* \"#utility.yul\":6084:6089   */\n      0x00\n        /* \"#utility.yul\":6109:6175   */\n      tag_225\n        /* \"#utility.yul\":6125:6174   */\n      tag_226\n        /* \"#utility.yul\":6167:6173   */\n      dup5\n        /* \"#utility.yul\":6125:6174   */\n      tag_129\n      jump\t// in\n    tag_226:\n        /* \"#utility.yul\":6109:6175   */\n      tag_128\n      jump\t// in\n    tag_225:\n        /* \"#utility.yul\":6100:6175   */\n      swap1\n      pop\n        /* \"#utility.yul\":6198:6204   */\n      dup3\n        /* \"#utility.yul\":6191:6196   */\n      dup2\n        /* \"#utility.yul\":6184:6205   */\n      mstore\n        /* \"#utility.yul\":6236:6240   */\n      0x20\n        /* \"#utility.yul\":6229:6234   */\n      dup2\n        /* \"#utility.yul\":6225:6241   */\n      add\n        /* \"#utility.yul\":6274:6277   */\n      dup5\n        /* \"#utility.yul\":6265:6271   */\n      dup5\n        /* \"#utility.yul\":6260:6263   */\n      dup5\n        /* \"#utility.yul\":6256:6272   */\n      add\n        /* \"#utility.yul\":6253:6278   */\n      gt\n        /* \"#utility.yul\":6250:6362   */\n      iszero\n      tag_227\n      jumpi\n        /* \"#utility.yul\":6281:6360   */\n      tag_228\n      tag_125\n      jump\t// in\n    tag_228:\n        /* \"#utility.yul\":6250:6362   */\n    tag_227:\n        /* \"#utility.yul\":6371:6425   */\n      tag_229\n        /* \"#utility.yul\":6418:6424   */\n      dup5\n        /* \"#utility.yul\":6413:6416   */\n      dup3\n        /* \"#utility.yul\":6408:6411   */\n      dup6\n        /* \"#utility.yul\":6371:6425   */\n      tag_130\n      jump\t// in\n    tag_229:\n        /* \"#utility.yul\":6090:6431   */\n      pop\n        /* \"#utility.yul\":6006:6431   */\n      swap4\n      swap3\n      pop\n      pop\n      pop\n      jump\t// out\n        /* \"#utility.yul\":6451:6791   */\n    tag_132:\n        /* \"#utility.yul\":6507:6512   */\n      0x00\n        /* \"#utility.yul\":6556:6559   */\n      dup3\n        /* \"#utility.yul\":6549:6553   */\n      0x1f\n        /* \"#utility.yul\":6541:6547   */\n      dup4\n        /* \"#utility.yul\":6537:6554   */\n      add\n        /* \"#utility.yul\":6533:6560   */\n      slt\n        /* \"#utility.yul\":6523:6645   */\n      tag_231\n      jumpi\n        /* \"#utility.yul\":6564:6643   */\n      tag_232\n      tag_124\n      jump\t// in\n    tag_232:\n        /* \"#utility.yul\":6523:6645   */\n    tag_231:\n        /* \"#utility.yul\":6681:6687   */\n      dup2\n        /* \"#utility.yul\":6668:6688   */\n      calldataload\n        /* \"#utility.yul\":6706:6785   */\n      tag_233\n        /* \"#utility.yul\":6781:6784   */\n      dup5\n        /* \"#utility.yul\":6773:6779   */\n      dup3\n        /* \"#utility.yul\":6766:6770   */\n      0x20\n        /* \"#utility.yul\":6758:6764   */\n      dup7\n        /* \"#utility.yul\":6754:6771   */\n      add\n        /* \"#utility.yul\":6706:6785   */\n      tag_131\n      jump\t// in\n    tag_233:\n        /* \"#utility.yul\":6697:6785   */\n      swap2\n      pop\n        /* \"#utility.yul\":6513:6791   */\n      pop\n        /* \"#utility.yul\":6451:6791   */\n      swap3\n      swap2\n      pop\n      pop\n      jump\t// out\n        /* \"#utility.yul\":6797:6919   */\n    tag_133:\n        /* \"#utility.yul\":6870:6894   */\n      tag_235\n        /* \"#utility.yul\":6888:6893   */\n      dup2\n        /* \"#utility.yul\":6870:6894   */\n      tag_121\n      jump\t// in\n    tag_235:\n        /* \"#utility.yul\":6863:6868   */\n      dup2\n        /* \"#utility.yul\":6860:6895   */\n      eq\n        /* \"#utility.yul\":6850:6913   */\n      tag_236\n      jumpi\n        /* \"#utility.yul\":6909:6910   */\n      0x00\n        /* \"#utility.yul\":6906:6907   */\n      dup1\n        /* \"#utility.yul\":6899:6911   */\n      revert\n        /* \"#utility.yul\":6850:6913   */\n    tag_236:\n        /* \"#utility.yul\":6797:6919   */\n      pop\n      jump\t// out\n        /* \"#utility.yul\":6925:7064   */\n    tag_134:\n        /* \"#utility.yul\":6971:6976   */\n      0x00\n        /* \"#utility.yul\":7009:7015   */\n      dup2\n        /* \"#utility.yul\":6996:7016   */\n      calldataload\n        /* \"#utility.yul\":6987:7016   */\n      swap1\n      pop\n        /* \"#utility.yul\":7025:7058   */\n      tag_238\n        /* \"#utility.yul\":7052:7057   */\n      dup2\n        /* \"#utility.yul\":7025:7058   */\n      tag_133\n      jump\t// in\n    tag_238:\n        /* \"#utility.yul\":6925:7064   */\n      swap3\n      swap2\n      pop\n      pop\n      jump\t// out\n        /* \"#utility.yul\":7070:8015   */\n    tag_23:\n        /* \"#utility.yul\":7166:7172   */\n      0x00\n        /* \"#utility.yul\":7174:7180   */\n      dup1\n        /* \"#utility.yul\":7182:7188   */\n      0x00\n        /* \"#utility.yul\":7190:7196   */\n      dup1\n        /* \"#utility.yul\":7239:7242   */\n      0x80\n        /* \"#utility.yul\":7227:7236   */\n      dup6\n        /* \"#utility.yul\":7218:7225   */\n      dup8\n        /* \"#utility.yul\":7214:7237   */\n      sub\n        /* \"#utility.yul\":7210:7243   */\n      slt\n        /* \"#utility.yul\":7207:7327   */\n      iszero\n      tag_240\n      jumpi\n        /* \"#utility.yul\":7246:7325   */\n      tag_241\n      tag_110\n      jump\t// in\n    tag_241:\n        /* \"#utility.yul\":7207:7327   */\n    tag_240:\n        /* \"#utility.yul\":7394:7395   */\n      0x00\n        /* \"#utility.yul\":7383:7392   */\n      dup6\n        /* \"#utility.yul\":7379:7396   */\n      add\n        /* \"#utility.yul\":7366:7397   */\n      calldataload\n        /* \"#utility.yul\":7424:7442   */\n      0xffffffffffffffff\n        /* \"#utility.yul\":7416:7422   */\n      dup2\n        /* \"#utility.yul\":7413:7443   */\n      gt\n        /* \"#utility.yul\":7410:7527   */\n      iszero\n      tag_242\n      jumpi\n        /* \"#utility.yul\":7446:7525   */\n      tag_243\n      tag_111\n      jump\t// in\n    tag_243:\n        /* \"#utility.yul\":7410:7527   */\n    tag_242:\n        /* \"#utility.yul\":7551:7614   */\n      tag_244\n        /* \"#utility.yul\":7606:7613   */\n      dup8\n        /* \"#utility.yul\":7597:7603   */\n      dup3\n        /* \"#utility.yul\":7586:7595   */\n      dup9\n        /* \"#utility.yul\":7582:7604   */\n      add\n        /* \"#utility.yul\":7551:7614   */\n      tag_132\n      jump\t// in\n    tag_244:\n        /* \"#utility.yul\":7541:7614   */\n      swap5\n      pop\n        /* \"#utility.yul\":7337:7624   */\n      pop\n        /* \"#utility.yul\":7663:7665   */\n      0x20\n        /* \"#utility.yul\":7689:7742   */\n      tag_245\n        /* \"#utility.yul\":7734:7741   */\n      dup8\n        /* \"#utility.yul\":7725:7731   */\n      dup3\n        /* \"#utility.yul\":7714:7723   */\n      dup9\n        /* \"#utility.yul\":7710:7732   */\n      add\n        /* \"#utility.yul\":7689:7742   */\n      tag_113\n      jump\t// in\n    tag_245:\n        /* \"#utility.yul\":7679:7742   */\n      swap4\n      pop\n        /* \"#utility.yul\":7634:7752   */\n      pop\n        /* \"#utility.yul\":7791:7793   */\n      0x40\n        /* \"#utility.yul\":7817:7870   */\n      tag_246\n        /* \"#utility.yul\":7862:7869   */\n      dup8\n        /* \"#utility.yul\":7853:7859   */\n      dup3\n        /* \"#utility.yul\":7842:7851   */\n      dup9\n        /* \"#utility.yul\":7838:7860   */\n      add\n        /* \"#utility.yul\":7817:7870   */\n      tag_113\n      jump\t// in\n    tag_246:\n        /* \"#utility.yul\":7807:7870   */\n      swap3\n      pop\n        /* \"#utility.yul\":7762:7880   */\n      pop\n        /* \"#utility.yul\":7919:7921   */\n      0x60\n        /* \"#utility.yul\":7945:7998   */\n      tag_247\n        /* \"#utility.yul\":7990:7997   */\n      dup8\n        /* \"#utility.yul\":7981:7987   */\n      dup3\n        /* \"#utility.yul\":7970:7979   */\n      dup9\n        /* \"#utility.yul\":7966:7988   */\n      add\n        /* \"#utility.yul\":7945:7998   */\n      tag_134\n      jump\t// in\n    tag_247:\n        /* \"#utility.yul\":7935:7998   */\n      swap2\n      pop\n        /* \"#utility.yul\":7890:8008   */\n      pop\n        /* \"#utility.yul\":7070:8015   */\n      swap3\n      swap6\n      swap2\n      swap5\n      pop\n      swap3\n      pop\n      jump\t// out\n        /* \"#utility.yul\":8021:8190   */\n    tag_135:\n        /* \"#utility.yul\":8105:8116   */\n      0x00\n        /* \"#utility.yul\":8139:8145   */\n      dup3\n        /* \"#utility.yul\":8134:8137   */\n      dup3\n        /* \"#utility.yul\":8127:8146   */\n      mstore\n        /* \"#utility.yul\":8179:8183   */\n      0x20\n        /* \"#utility.yul\":8174:8177   */\n      dup3\n        /* \"#utility.yul\":8170:8184   */\n      add\n        /* \"#utility.yul\":8155:8184   */\n      swap1\n      pop\n        /* \"#utility.yul\":8021:8190   */\n      swap3\n      swap2\n      pop\n      pop\n      jump\t// out\n        /* \"#utility.yul\":8196:8573   */\n    tag_136:\n        /* \"#utility.yul\":8284:8287   */\n      0x00\n        /* \"#utility.yul\":8312:8351   */\n      tag_250\n        /* \"#utility.yul\":8345:8350   */\n      dup3\n        /* \"#utility.yul\":8312:8351   */\n      tag_115\n      jump\t// in\n    tag_250:\n        /* \"#utility.yul\":8367:8438   */\n      tag_251\n        /* \"#utility.yul\":8431:8437   */\n      dup2\n        /* \"#utility.yul\":8426:8429   */\n      dup6\n        /* \"#utility.yul\":8367:8438   */\n      tag_135\n      jump\t// in\n    tag_251:\n        /* \"#utility.yul\":8360:8438   */\n      swap4\n      pop\n        /* \"#utility.yul\":8447:8512   */\n      tag_252\n        /* \"#utility.yul\":8505:8511   */\n      dup2\n        /* \"#utility.yul\":8500:8503   */\n      dup6\n        /* \"#utility.yul\":8493:8497   */\n      0x20\n        /* \"#utility.yul\":8486:8491   */\n      dup7\n        /* \"#utility.yul\":8482:8498   */\n      add\n        /* \"#utility.yul\":8447:8512   */\n      tag_117\n      jump\t// in\n    tag_252:\n        /* \"#utility.yul\":8537:8566   */\n      tag_253\n        /* \"#utility.yul\":8559:8565   */\n      dup2\n        /* \"#utility.yul\":8537:8566   */\n      tag_118\n      jump\t// in\n    tag_253:\n        /* \"#utility.yul\":8532:8535   */\n      dup5\n        /* \"#utility.yul\":8528:8567   */\n      add\n        /* \"#utility.yul\":8521:8567   */\n      swap2\n      pop\n        /* \"#utility.yul\":8288:8573   */\n      pop\n        /* \"#utility.yul\":8196:8573   */\n      swap3\n      swap2\n      pop\n      pop\n      jump\t// out\n        /* \"#utility.yul\":8579:8697   */\n    tag_137:\n        /* \"#utility.yul\":8666:8690   */\n      tag_255\n        /* \"#utility.yul\":8684:8689   */\n      dup2\n        /* \"#utility.yul\":8666:8690   */\n      tag_121\n      jump\t// in\n    tag_255:\n        /* \"#utility.yul\":8661:8664   */\n      dup3\n        /* \"#utility.yul\":8654:8691   */\n      mstore\n        /* \"#utility.yul\":8579:8697   */\n      pop\n      pop\n      jump\t// out\n        /* \"#utility.yul\":8703:9680   */\n    tag_29:\n        /* \"#utility.yul\":8984:8988   */\n      0x00\n        /* \"#utility.yul\":9022:9025   */\n      0xe0\n        /* \"#utility.yul\":9011:9020   */\n      dup3\n        /* \"#utility.yul\":9007:9026   */\n      add\n        /* \"#utility.yul\":8999:9026   */\n      swap1\n      pop\n        /* \"#utility.yul\":9036:9107   */\n      tag_257\n        /* \"#utility.yul\":9104:9105   */\n      0x00\n        /* \"#utility.yul\":9093:9102   */\n      dup4\n        /* \"#utility.yul\":9089:9106   */\n      add\n        /* \"#utility.yul\":9080:9086   */\n      dup11\n        /* \"#utility.yul\":9036:9107   */\n      tag_108\n      jump\t// in\n    tag_257:\n        /* \"#utility.yul\":9154:9163   */\n      dup2\n        /* \"#utility.yul\":9148:9152   */\n      dup2\n        /* \"#utility.yul\":9144:9164   */\n      sub\n        /* \"#utility.yul\":9139:9141   */\n      0x20\n        /* \"#utility.yul\":9128:9137   */\n      dup4\n        /* \"#utility.yul\":9124:9142   */\n      add\n        /* \"#utility.yul\":9117:9165   */\n      mstore\n        /* \"#utility.yul\":9182:9260   */\n      tag_258\n        /* \"#utility.yul\":9255:9259   */\n      dup2\n        /* \"#utility.yul\":9246:9252   */\n      dup10\n        /* \"#utility.yul\":9182:9260   */\n      tag_136\n      jump\t// in\n    tag_258:\n        /* \"#utility.yul\":9174:9260   */\n      swap1\n      pop\n        /* \"#utility.yul\":9270:9342   */\n      tag_259\n        /* \"#utility.yul\":9338:9340   */\n      0x40\n        /* \"#utility.yul\":9327:9336   */\n      dup4\n        /* \"#utility.yul\":9323:9341   */\n      add\n        /* \"#utility.yul\":9314:9320   */\n      dup9\n        /* \"#utility.yul\":9270:9342   */\n      tag_108\n      jump\t// in\n    tag_259:\n        /* \"#utility.yul\":9352:9424   */\n      tag_260\n        /* \"#utility.yul\":9420:9422   */\n      0x60\n        /* \"#utility.yul\":9409:9418   */\n      dup4\n        /* \"#utility.yul\":9405:9423   */\n      add\n        /* \"#utility.yul\":9396:9402   */\n      dup8\n        /* \"#utility.yul\":9352:9424   */\n      tag_108\n      jump\t// in\n    tag_260:\n        /* \"#utility.yul\":9434:9507   */\n      tag_261\n        /* \"#utility.yul\":9502:9505   */\n      0x80\n        /* \"#utility.yul\":9491:9500   */\n      dup4\n        /* \"#utility.yul\":9487:9506   */\n      add\n        /* \"#utility.yul\":9478:9484   */\n      dup7\n        /* \"#utility.yul\":9434:9507   */\n      tag_137\n      jump\t// in\n    tag_261:\n        /* \"#utility.yul\":9517:9590   */\n      tag_262\n        /* \"#utility.yul\":9585:9588   */\n      0xa0\n        /* \"#utility.yul\":9574:9583   */\n      dup4\n        /* \"#utility.yul\":9570:9589   */\n      add\n        /* \"#utility.yul\":9561:9567   */\n      dup6\n        /* \"#utility.yul\":9517:9590   */\n      tag_137\n      jump\t// in\n    tag_262:\n        /* \"#utility.yul\":9600:9673   */\n      tag_263\n        /* \"#utility.yul\":9668:9671   */\n      0xc0\n        /* \"#utility.yul\":9657:9666   */\n      dup4\n        /* \"#utility.yul\":9653:9672   */\n      add\n        /* \"#utility.yul\":9644:9650   */\n      dup5\n        /* \"#utility.yul\":9600:9673   */\n      tag_108\n      jump\t// in\n    tag_263:\n        /* \"#utility.yul\":8703:9680   */\n      swap9\n      swap8\n      pop\n      pop\n      pop\n      pop\n      pop\n      pop\n      pop\n      pop\n      jump\t// out\n        /* \"#utility.yul\":9686:10160   */\n    tag_32:\n        /* \"#utility.yul\":9754:9760   */\n      0x00\n        /* \"#utility.yul\":9762:9768   */\n      dup1\n        /* \"#utility.yul\":9811:9813   */\n      0x40\n        /* \"#utility.yul\":9799:9808   */\n      dup4\n        /* \"#utility.yul\":9790:9797   */\n      dup6\n        /* \"#utility.yul\":9786:9809   */\n      sub\n        /* \"#utility.yul\":9782:9814   */\n      slt\n        /* \"#utility.yul\":9779:9898   */\n      iszero\n      tag_265\n      jumpi\n        /* \"#utility.yul\":9817:9896   */\n      tag_266\n      tag_110\n      jump\t// in\n    tag_266:\n        /* \"#utility.yul\":9779:9898   */\n    tag_265:\n        /* \"#utility.yul\":9937:9938   */\n      0x00\n        /* \"#utility.yul\":9962:10015   */\n      tag_267\n        /* \"#utility.yul\":10007:10014   */\n      dup6\n        /* \"#utility.yul\":9998:10004   */\n      dup3\n        /* \"#utility.yul\":9987:9996   */\n      dup7\n        /* \"#utility.yul\":9983:10005   */\n      add\n        /* \"#utility.yul\":9962:10015   */\n      tag_113\n      jump\t// in\n    tag_267:\n        /* \"#utility.yul\":9952:10015   */\n      swap3\n      pop\n        /* \"#utility.yul\":9908:10025   */\n      pop\n        /* \"#utility.yul\":10064:10066   */\n      0x20\n        /* \"#utility.yul\":10090:10143   */\n      tag_268\n        /* \"#utility.yul\":10135:10142   */\n      dup6\n        /* \"#utility.yul\":10126:10132   */\n      dup3\n        /* \"#utility.yul\":10115:10124   */\n      dup7\n        /* \"#utility.yul\":10111:10133   */\n      add\n        /* \"#utility.yul\":10090:10143   */\n      tag_134\n      jump\t// in\n    tag_268:\n        /* \"#utility.yul\":10080:10143   */\n      swap2\n      pop\n        /* \"#utility.yul\":10035:10153   */\n      pop\n        /* \"#utility.yul\":9686:10160   */\n      swap3\n      pop\n      swap3\n      swap1\n      pop\n      jump\t// out\n        /* \"#utility.yul\":10166:10388   */\n    tag_37:\n        /* \"#utility.yul\":10259:10263   */\n      0x00\n        /* \"#utility.yul\":10297:10299   */\n      0x20\n        /* \"#utility.yul\":10286:10295   */\n      dup3\n        /* \"#utility.yul\":10282:10300   */\n      add\n        /* \"#utility.yul\":10274:10300   */\n      swap1\n      pop\n        /* \"#utility.yul\":10310:10381   */\n      tag_270\n        /* \"#utility.yul\":10378:10379   */\n      0x00\n        /* \"#utility.yul\":10367:10376   */\n      dup4\n        /* \"#utility.yul\":10363:10380   */\n      add\n        /* \"#utility.yul\":10354:10360   */\n      dup5\n        /* \"#utility.yul\":10310:10381   */\n      tag_137\n      jump\t// in\n    tag_270:\n        /* \"#utility.yul\":10166:10388   */\n      swap3\n      swap2\n      pop\n      pop\n      jump\t// out\n        /* \"#utility.yul\":10394:10723   */\n    tag_40:\n        /* \"#utility.yul\":10453:10459   */\n      0x00\n        /* \"#utility.yul\":10502:10504   */\n      0x20\n        /* \"#utility.yul\":10490:10499   */\n      dup3\n        /* \"#utility.yul\":10481:10488   */\n      dup5\n        /* \"#utility.yul\":10477:10500   */\n      sub\n        /* \"#utility.yul\":10473:10505   */\n      slt\n        /* \"#utility.yul\":10470:10589   */\n      iszero\n      tag_272\n      jumpi\n        /* \"#utility.yul\":10508:10587   */\n      tag_273\n      tag_110\n      jump\t// in\n    tag_273:\n        /* \"#utility.yul\":10470:10589   */\n    tag_272:\n        /* \"#utility.yul\":10628:10629   */\n      0x00\n        /* \"#utility.yul\":10653:10706   */\n      tag_274\n        /* \"#utility.yul\":10698:10705   */\n      dup5\n        /* \"#utility.yul\":10689:10695   */\n      dup3\n        /* \"#utility.yul\":10678:10687   */\n      dup6\n        /* \"#utility.yul\":10674:10696   */\n      add\n        /* \"#utility.yul\":10653:10706   */\n      tag_134\n      jump\t// in\n    tag_274:\n        /* \"#utility.yul\":10643:10706   */\n      swap2\n      pop\n        /* \"#utility.yul\":10599:10716   */\n      pop\n        /* \"#utility.yul\":10394:10723   */\n      swap3\n      swap2\n      pop\n      pop\n      jump\t// out\n        /* \"#utility.yul\":10729:10950   */\n    tag_138:\n        /* \"#utility.yul\":10869:10903   */\n      0x50726f647563744d616e616765723a20696e76616c69642070726f6475637420\n        /* \"#utility.yul\":10865:10866   */\n      0x00\n        /* \"#utility.yul\":10857:10863   */\n      dup3\n        /* \"#utility.yul\":10853:10867   */\n      add\n        /* \"#utility.yul\":10846:10904   */\n      mstore\n        /* \"#utility.yul\":10938:10942   */\n      0x4944000000000000000000000000000000000000000000000000000000000000\n        /* \"#utility.yul\":10933:10935   */\n      0x20\n        /* \"#utility.yul\":10925:10931   */\n      dup3\n        /* \"#utility.yul\":10921:10936   */\n      add\n        /* \"#utility.yul\":10914:10943   */\n      mstore\n        /* \"#utility.yul\":10729:10950   */\n      pop\n      jump\t// out\n        /* \"#utility.yul\":10956:11322   */\n    tag_139:\n        /* \"#utility.yul\":11098:11101   */\n      0x00\n        /* \"#utility.yul\":11119:11186   */\n      tag_277\n        /* \"#utility.yul\":11183:11185   */\n      0x22\n        /* \"#utility.yul\":11178:11181   */\n      dup4\n        /* \"#utility.yul\":11119:11186   */\n      tag_135\n      jump\t// in\n    tag_277:\n        /* \"#utility.yul\":11112:11186   */\n      swap2\n      pop\n        /* \"#utility.yul\":11195:11288   */\n      tag_278\n        /* \"#utility.yul\":11284:11287   */\n      dup3\n        /* \"#utility.yul\":11195:11288   */\n      tag_138\n      jump\t// in\n    tag_278:\n        /* \"#utility.yul\":11313:11315   */\n      0x40\n        /* \"#utility.yul\":11308:11311   */\n      dup3\n        /* \"#utility.yul\":11304:11316   */\n      add\n        /* \"#utility.yul\":11297:11316   */\n      swap1\n      pop\n        /* \"#utility.yul\":10956:11322   */\n      swap2\n      swap1\n      pop\n      jump\t// out\n        /* \"#utility.yul\":11328:11747   */\n    tag_47:\n        /* \"#utility.yul\":11494:11498   */\n      0x00\n        /* \"#utility.yul\":11532:11534   */\n      0x20\n        /* \"#utility.yul\":11521:11530   */\n      dup3\n        /* \"#utility.yul\":11517:11535   */\n      add\n        /* \"#utility.yul\":11509:11535   */\n      swap1\n      pop\n        /* \"#utility.yul\":11581:11590   */\n      dup2\n        /* \"#utility.yul\":11575:11579   */\n      dup2\n        /* \"#utility.yul\":11571:11591   */\n      sub\n        /* \"#utility.yul\":11567:11568   */\n      0x00\n        /* \"#utility.yul\":11556:11565   */\n      dup4\n        /* \"#utility.yul\":11552:11569   */\n      add\n        /* \"#utility.yul\":11545:11592   */\n      mstore\n        /* \"#utility.yul\":11609:11740   */\n      tag_280\n        /* \"#utility.yul\":11735:11739   */\n      dup2\n        /* \"#utility.yul\":11609:11740   */\n      tag_139\n      jump\t// in\n    tag_280:\n        /* \"#utility.yul\":11601:11740   */\n      swap1\n      pop\n        /* \"#utility.yul\":11328:11747   */\n      swap2\n      swap1\n      pop\n      jump\t// out\n        /* \"#utility.yul\":11753:11933   */\n    tag_50:\n        /* \"#utility.yul\":11801:11878   */\n      0x4e487b7100000000000000000000000000000000000000000000000000000000\n        /* \"#utility.yul\":11798:11799   */\n      0x00\n        /* \"#utility.yul\":11791:11879   */\n      mstore\n        /* \"#utility.yul\":11898:11902   */\n      0x32\n        /* \"#utility.yul\":11895:11896   */\n      0x04\n        /* \"#utility.yul\":11888:11903   */\n      mstore\n        /* \"#utility.yul\":11922:11926   */\n      0x24\n        /* \"#utility.yul\":11919:11920   */\n      0x00\n        /* \"#utility.yul\":11912:11927   */\n      revert\n        /* \"#utility.yul\":11939:12119   */\n    tag_140:\n        /* \"#utility.yul\":11987:12064   */\n      0x4e487b7100000000000000000000000000000000000000000000000000000000\n        /* \"#utility.yul\":11984:11985   */\n      0x00\n        /* \"#utility.yul\":11977:12065   */\n      mstore\n        /* \"#utility.yul\":12084:12088   */\n      0x22\n        /* \"#utility.yul\":12081:12082   */\n      0x04\n        /* \"#utility.yul\":12074:12089   */\n      mstore\n        /* \"#utility.yul\":12108:12112   */\n      0x24\n        /* \"#utility.yul\":12105:12106   */\n      0x00\n        /* \"#utility.yul\":12098:12113   */\n      revert\n        /* \"#utility.yul\":12125:12445   */\n    tag_53:\n        /* \"#utility.yul\":12169:12175   */\n      0x00\n        /* \"#utility.yul\":12206:12207   */\n      0x02\n        /* \"#utility.yul\":12200:12204   */\n      dup3\n        /* \"#utility.yul\":12196:12208   */\n      div\n        /* \"#utility.yul\":12186:12208   */\n      swap1\n      pop\n        /* \"#utility.yul\":12253:12254   */\n      0x01\n        /* \"#utility.yul\":12247:12251   */\n      dup3\n        /* \"#utility.yul\":12243:12255   */\n      and\n        /* \"#utility.yul\":12274:12292   */\n      dup1\n        /* \"#utility.yul\":12264:12345   */\n      tag_284\n      jumpi\n        /* \"#utility.yul\":12330:12334   */\n      0x7f\n        /* \"#utility.yul\":12322:12328   */\n      dup3\n        /* \"#utility.yul\":12318:12335   */\n      and\n        /* \"#utility.yul\":12308:12335   */\n      swap2\n      pop\n        /* \"#utility.yul\":12264:12345   */\n    tag_284:\n        /* \"#utility.yul\":12392:12394   */\n      0x20\n        /* \"#utility.yul\":12384:12390   */\n      dup3\n        /* \"#utility.yul\":12381:12395   */\n      lt\n        /* \"#utility.yul\":12361:12379   */\n      dup2\n        /* \"#utility.yul\":12358:12396   */\n      sub\n        /* \"#utility.yul\":12355:12439   */\n      tag_285\n      jumpi\n        /* \"#utility.yul\":12411:12429   */\n      tag_286\n      tag_140\n      jump\t// in\n    tag_286:\n        /* \"#utility.yul\":12355:12439   */\n    tag_285:\n        /* \"#utility.yul\":12176:12445   */\n      pop\n        /* \"#utility.yul\":12125:12445   */\n      swap2\n      swap1\n      pop\n      jump\t// out\n        /* \"#utility.yul\":12451:12633   */\n    tag_141:\n        /* \"#utility.yul\":12591:12625   */\n      0x4f776e61626c653a2063616c6c6572206973206e6f7420746865206f776e6572\n        /* \"#utility.yul\":12587:12588   */\n      0x00\n        /* \"#utility.yul\":12579:12585   */\n      dup3\n        /* \"#utility.yul\":12575:12589   */\n      add\n        /* \"#utility.yul\":12568:12626   */\n      mstore\n        /* \"#utility.yul\":12451:12633   */\n      pop\n      jump\t// out\n        /* \"#utility.yul\":12639:13005   */\n    tag_142:\n        /* \"#utility.yul\":12781:12784   */\n      0x00\n        /* \"#utility.yul\":12802:12869   */\n      tag_289\n        /* \"#utility.yul\":12866:12868   */\n      0x20\n        /* \"#utility.yul\":12861:12864   */\n      dup4\n        /* \"#utility.yul\":12802:12869   */\n      tag_135\n      jump\t// in\n    tag_289:\n        /* \"#utility.yul\":12795:12869   */\n      swap2\n      pop\n        /* \"#utility.yul\":12878:12971   */\n      tag_290\n        /* \"#utility.yul\":12967:12970   */\n      dup3\n        /* \"#utility.yul\":12878:12971   */\n      tag_141\n      jump\t// in\n    tag_290:\n        /* \"#utility.yul\":12996:12998   */\n      0x20\n        /* \"#utility.yul\":12991:12994   */\n      dup3\n        /* \"#utility.yul\":12987:12999   */\n      add\n        /* \"#utility.yul\":12980:12999   */\n      swap1\n      pop\n        /* \"#utility.yul\":12639:13005   */\n      swap2\n      swap1\n      pop\n      jump\t// out\n        /* \"#utility.yul\":13011:13430   */\n    tag_61:\n        /* \"#utility.yul\":13177:13181   */\n      0x00\n        /* \"#utility.yul\":13215:13217   */\n      0x20\n        /* \"#utility.yul\":13204:13213   */\n      dup3\n        /* \"#utility.yul\":13200:13218   */\n      add\n        /* \"#utility.yul\":13192:13218   */\n      swap1\n      pop\n        /* \"#utility.yul\":13264:13273   */\n      dup2\n        /* \"#utility.yul\":13258:13262   */\n      dup2\n        /* \"#utility.yul\":13254:13274   */\n      sub\n        /* \"#utility.yul\":13250:13251   */\n      0x00\n        /* \"#utility.yul\":13239:13248   */\n      dup4\n        /* \"#utility.yul\":13235:13252   */\n      add\n        /* \"#utility.yul\":13228:13275   */\n      mstore\n        /* \"#utility.yul\":13292:13423   */\n      tag_292\n        /* \"#utility.yul\":13418:13422   */\n      dup2\n        /* \"#utility.yul\":13292:13423   */\n      tag_142\n      jump\t// in\n    tag_292:\n        /* \"#utility.yul\":13284:13423   */\n      swap1\n      pop\n        /* \"#utility.yul\":13011:13430   */\n      swap2\n      swap1\n      pop\n      jump\t// out\n        /* \"#utility.yul\":13436:13577   */\n    tag_143:\n        /* \"#utility.yul\":13485:13489   */\n      0x00\n        /* \"#utility.yul\":13508:13511   */\n      dup2\n        /* \"#utility.yul\":13500:13511   */\n      swap1\n      pop\n        /* \"#utility.yul\":13531:13534   */\n      dup2\n        /* \"#utility.yul\":13528:13529   */\n      0x00\n        /* \"#utility.yul\":13521:13535   */\n      mstore\n        /* \"#utility.yul\":13565:13569   */\n      0x20\n        /* \"#utility.yul\":13562:13563   */\n      0x00\n        /* \"#utility.yul\":13552:13570   */\n      keccak256\n        /* \"#utility.yul\":13544:13570   */\n      swap1\n      pop\n        /* \"#utility.yul\":13436:13577   */\n      swap2\n      swap1\n      pop\n      jump\t// out\n        /* \"#utility.yul\":13583:13676   */\n    tag_144:\n        /* \"#utility.yul\":13620:13626   */\n      0x00\n        /* \"#utility.yul\":13667:13669   */\n      0x20\n        /* \"#utility.yul\":13662:13664   */\n      0x1f\n        /* \"#utility.yul\":13655:13660   */\n      dup4\n        /* \"#utility.yul\":13651:13665   */\n      add\n        /* \"#utility.yul\":13647:13670   */\n      div\n        /* \"#utility.yul\":13637:13670   */\n      swap1\n      pop\n        /* \"#utility.yul\":13583:13676   */\n      swap2\n      swap1\n      pop\n      jump\t// out\n        /* \"#utility.yul\":13682:13789   */\n    tag_145:\n        /* \"#utility.yul\":13726:13734   */\n      0x00\n        /* \"#utility.yul\":13776:13781   */\n      dup3\n        /* \"#utility.yul\":13770:13774   */\n      dup3\n        /* \"#utility.yul\":13766:13782   */\n      shl\n        /* \"#utility.yul\":13745:13782   */\n      swap1\n      pop\n        /* \"#utility.yul\":13682:13789   */\n      swap3\n      swap2\n      pop\n      pop\n      jump\t// out\n        /* \"#utility.yul\":13795:14188   */\n    tag_146:\n        /* \"#utility.yul\":13864:13870   */\n      0x00\n        /* \"#utility.yul\":13914:13915   */\n      0x08\n        /* \"#utility.yul\":13902:13912   */\n      dup4\n        /* \"#utility.yul\":13898:13916   */\n      mul\n        /* \"#utility.yul\":13937:14034   */\n      tag_297\n        /* \"#utility.yul\":13967:14033   */\n      0xffffffffffffffffffffffffffffffffffffffffffffffffffffffffffffffff\n        /* \"#utility.yul\":13956:13965   */\n      dup3\n        /* \"#utility.yul\":13937:14034   */\n      tag_145\n      jump\t// in\n    tag_297:\n        /* \"#utility.yul\":14055:14094   */\n      tag_298\n        /* \"#utility.yul\":14085:14093   */\n      dup7\n        /* \"#utility.yul\":14074:14083   */\n      dup4\n        /* \"#utility.yul\":14055:14094   */\n      tag_145\n      jump\t// in\n    tag_298:\n        /* \"#utility.yul\":14043:14094   */\n      swap6\n      pop\n        /* \"#utility.yul\":14127:14131   */\n      dup1\n        /* \"#utility.yul\":14123:14132   */\n      not\n        /* \"#utility.yul\":14116:14121   */\n      dup5\n        /* \"#utility.yul\":14112:14133   */\n      and\n        /* \"#utility.yul\":14103:14133   */\n      swap4\n      pop\n        /* \"#utility.yul\":14176:14180   */\n      dup1\n        /* \"#utility.yul\":14166:14174   */\n      dup7\n        /* \"#utility.yul\":14162:14181   */\n      and\n        /* \"#utility.yul\":14155:14160   */\n      dup5\n        /* \"#utility.yul\":14152:14182   */\n      or\n        /* \"#utility.yul\":14142:14182   */\n      swap3\n      pop\n        /* \"#utility.yul\":13871:14188   */\n      pop\n      pop\n        /* \"#utility.yul\":13795:14188   */\n      swap4\n      swap3\n      pop\n      pop\n      pop\n      jump\t// out\n        /* \"#utility.yul\":14194:14254   */\n    tag_147:\n        /* \"#utility.yul\":14222:14225   */\n      0x00\n        /* \"#utility.yul\":14243:14248   */\n      dup2\n        /* \"#utility.yul\":14236:14248   */\n      swap1\n      pop\n        /* \"#utility.yul\":14194:14254   */\n      swap2\n      swap1\n      pop\n      jump\t// out\n        /* \"#utility.yul\":14260:14402   */\n    tag_148:\n        /* \"#utility.yul\":14310:14319   */\n      0x00\n        /* \"#utility.yul\":14343:14396   */\n      tag_301\n        /* \"#utility.yul\":14361:14395   */\n      tag_302\n        /* \"#utility.yul\":14370:14394   */\n      tag_303\n        /* \"#utility.yul\":14388:14393   */\n      dup5\n        /* \"#utility.yul\":14370:14394   */\n      tag_107\n      jump\t// in\n    tag_303:\n        /* \"#utility.yul\":14361:14395   */\n      tag_147\n      jump\t// in\n    tag_302:\n        /* \"#utility.yul\":14343:14396   */\n      tag_107\n      jump\t// in\n    tag_301:\n        /* \"#utility.yul\":14330:14396   */\n      swap1\n      pop\n        /* \"#utility.yul\":14260:14402   */\n      swap2\n      swap1\n      pop\n      jump\t// out\n        /* \"#utility.yul\":14408:14483   */\n    tag_149:\n        /* \"#utility.yul\":14451:14454   */\n      0x00\n        /* \"#utility.yul\":14472:14477   */\n      dup2\n        /* \"#utility.yul\":14465:14477   */\n      swap1\n      pop\n        /* \"#utility.yul\":14408:14483   */\n      swap2\n      swap1\n      pop\n      jump\t// out\n        /* \"#utility.yul\":14489:14758   */\n    tag_150:\n        /* \"#utility.yul\":14599:14638   */\n      tag_306\n        /* \"#utility.yul\":14630:14637   */\n      dup4\n        /* \"#utility.yul\":14599:14638   */\n      tag_148\n      jump\t// in\n    tag_306:\n        /* \"#utility.yul\":14660:14751   */\n      tag_307\n        /* \"#utility.yul\":14709:14750   */\n      tag_308\n        /* \"#utility.yul\":14733:14749   */\n      dup3\n        /* \"#utility.yul\":14709:14750   */\n      tag_149\n      jump\t// in\n    tag_308:\n        /* \"#utility.yul\":14701:14707   */\n      dup5\n        /* \"#utility.yul\":14694:14698   */\n      dup5\n        /* \"#utility.yul\":14688:14699   */\n      sload\n        /* \"#utility.yul\":14660:14751   */\n      tag_146\n      jump\t// in\n    tag_307:\n        /* \"#utility.yul\":14654:14658   */\n      dup3\n        /* \"#utility.yul\":14647:14752   */\n      sstore\n        /* \"#utility.yul\":14565:14758   */\n      pop\n        /* \"#utility.yul\":14489:14758   */\n      pop\n      pop\n      pop\n      jump\t// out\n        /* \"#utility.yul\":14764:14837   */\n    tag_151:\n        /* \"#utility.yul\":14809:14812   */\n      0x00\n        /* \"#utility.yul\":14764:14837   */\n      swap1\n      jump\t// out\n        /* \"#utility.yul\":14843:15032   */\n    tag_152:\n        /* \"#utility.yul\":14920:14952   */\n      tag_311\n      tag_151\n      jump\t// in\n    tag_311:\n        /* \"#utility.yul\":14961:15026   */\n      tag_312\n        /* \"#utility.yul\":15019:15025   */\n      dup2\n        /* \"#utility.yul\":15011:15017   */\n      dup5\n        /* \"#utility.yul\":15005:15009   */\n      dup5\n        /* \"#utility.yul\":14961:15026   */\n      tag_150\n      jump\t// in\n    tag_312:\n        /* \"#utility.yul\":14896:15032   */\n      pop\n        /* \"#utility.yul\":14843:15032   */\n      pop\n      pop\n      jump\t// out\n        /* \"#utility.yul\":15038:15224   */\n    tag_153:\n        /* \"#utility.yul\":15098:15218   */\n    tag_314:\n        /* \"#utility.yul\":15115:15118   */\n      dup2\n        /* \"#utility.yul\":15108:15113   */\n      dup2\n        /* \"#utility.yul\":15105:15119   */\n      lt\n        /* \"#utility.yul\":15098:15218   */\n      iszero\n      tag_316\n      jumpi\n        /* \"#utility.yul\":15169:15208   */\n      tag_317\n        /* \"#utility.yul\":15206:15207   */\n      0x00\n        /* \"#utility.yul\":15199:15204   */\n      dup3\n        /* \"#utility.yul\":15169:15208   */\n      tag_152\n      jump\t// in\n    tag_317:\n        /* \"#utility.yul\":15142:15143   */\n      0x01\n        /* \"#utility.yul\":15135:15140   */\n      dup2\n        /* \"#utility.yul\":15131:15144   */\n      add\n        /* \"#utility.yul\":15122:15144   */\n      swap1\n      pop\n        /* \"#utility.yul\":15098:15218   */\n      jump(tag_314)\n    tag_316:\n        /* \"#utility.yul\":15038:15224   */\n      pop\n      pop\n      jump\t// out\n        /* \"#utility.yul\":15230:15773   */\n    tag_154:\n        /* \"#utility.yul\":15331:15333   */\n      0x1f\n        /* \"#utility.yul\":15326:15329   */\n      dup3\n        /* \"#utility.yul\":15323:15334   */\n      gt\n        /* \"#utility.yul\":15320:15766   */\n      iszero\n      tag_319\n      jumpi\n        /* \"#utility.yul\":15365:15403   */\n      tag_320\n        /* \"#utility.yul\":15397:15402   */\n      dup2\n        /* \"#utility.yul\":15365:15403   */\n      tag_143\n      jump\t// in\n    tag_320:\n        /* \"#utility.yul\":15449:15478   */\n      tag_321\n        /* \"#utility.yul\":15467:15477   */\n      dup5\n        /* \"#utility.yul\":15449:15478   */\n      tag_144\n      jump\t// in\n    tag_321:\n        /* \"#utility.yul\":15439:15447   */\n      dup2\n        /* \"#utility.yul\":15435:15479   */\n      add\n        /* \"#utility.yul\":15632:15634   */\n      0x20\n        /* \"#utility.yul\":15620:15630   */\n      dup6\n        /* \"#utility.yul\":15617:15635   */\n      lt\n        /* \"#utility.yul\":15614:15663   */\n      iszero\n      tag_322\n      jumpi\n        /* \"#utility.yul\":15653:15661   */\n      dup2\n        /* \"#utility.yul\":15638:15661   */\n      swap1\n      pop\n        /* \"#utility.yul\":15614:15663   */\n    tag_322:\n        /* \"#utility.yul\":15676:15756   */\n      tag_323\n        /* \"#utility.yul\":15732:15754   */\n      tag_324\n        /* \"#utility.yul\":15750:15753   */\n      dup6\n        /* \"#utility.yul\":15732:15754   */\n      tag_144\n      jump\t// in\n    tag_324:\n        /* \"#utility.yul\":15722:15730   */\n      dup4\n        /* \"#utility.yul\":15718:15755   */\n      add\n        /* \"#utility.yul\":15705:15716   */\n      dup3\n        /* \"#utility.yul\":15676:15756   */\n      tag_153\n      jump\t// in\n    tag_323:\n        /* \"#utility.yul\":15335:15766   */\n      pop\n      pop\n        /* \"#utility.yul\":15320:15766   */\n    tag_319:\n        /* \"#utility.yul\":15230:15773   */\n      pop\n      pop\n      pop\n      jump\t// out\n        /* \"#utility.yul\":15779:15896   */\n    tag_155:\n        /* \"#utility.yul\":15833:15841   */\n      0x00\n        /* \"#utility.yul\":15883:15888   */\n      dup3\n        /* \"#utility.yul\":15877:15881   */\n      dup3\n        /* \"#utility.yul\":15873:15889   */\n      shr\n        /* \"#utility.yul\":15852:15889   */\n      swap1\n      pop\n        /* \"#utility.yul\":15779:15896   */\n      swap3\n      swap2\n      pop\n      pop\n      jump\t// out\n        /* \"#utility.yul\":15902:16071   */\n    tag_156:\n        /* \"#utility.yul\":15946:15952   */\n      0x00\n        /* \"#utility.yul\":15979:16030   */\n      tag_327\n        /* \"#utility.yul\":16027:16028   */\n      0x00\n        /* \"#utility.yul\":16023:16029   */\n      not\n        /* \"#utility.yul\":16015:16020   */\n      dup5\n        /* \"#utility.yul\":16012:16013   */\n      0x08\n        /* \"#utility.yul\":16008:16021   */\n      mul\n        /* \"#utility.yul\":15979:16030   */\n      tag_155\n      jump\t// in\n    tag_327:\n        /* \"#utility.yul\":15975:16031   */\n      not\n        /* \"#utility.yul\":16060:16064   */\n      dup1\n        /* \"#utility.yul\":16054:16058   */\n      dup4\n        /* \"#utility.yul\":16050:16065   */\n      and\n        /* \"#utility.yul\":16040:16065   */\n      swap2\n      pop\n        /* \"#utility.yul\":15953:16071   */\n      pop\n        /* \"#utility.yul\":15902:16071   */\n      swap3\n      swap2\n      pop\n      pop\n      jump\t// out\n        /* \"#utility.yul\":16076:16371   */\n    tag_157:\n        /* \"#utility.yul\":16152:16156   */\n      0x00\n        /* \"#utility.yul\":16298:16327   */\n      tag_329\n        /* \"#utility.yul\":16323:16326   */\n      dup4\n        /* \"#utility.yul\":16317:16321   */\n      dup4\n        /* \"#utility.yul\":16298:16327   */\n      tag_156\n      jump\t// in\n    tag_329:\n        /* \"#utility.yul\":16290:16327   */\n      swap2\n      pop\n        /* \"#utility.yul\":16360:16363   */\n      dup3\n        /* \"#utility.yul\":16357:16358   */\n      0x02\n        /* \"#utility.yul\":16353:16364   */\n      mul\n        /* \"#utility.yul\":16347:16351   */\n      dup3\n        /* \"#utility.yul\":16344:16365   */\n      or\n        /* \"#utility.yul\":16336:16365   */\n      swap1\n      pop\n        /* \"#utility.yul\":16076:16371   */\n      swap3\n      swap2\n      pop\n      pop\n      jump\t// out\n        /* \"#utility.yul\":16376:17771   */\n    tag_65:\n        /* \"#utility.yul\":16493:16530   */\n      tag_331\n        /* \"#utility.yul\":16526:16529   */\n      dup3\n        /* \"#utility.yul\":16493:16530   */\n      tag_115\n      jump\t// in\n    tag_331:\n        /* \"#utility.yul\":16595:16613   */\n      0xffffffffffffffff\n        /* \"#utility.yul\":16587:16593   */\n      dup2\n        /* \"#utility.yul\":16584:16614   */\n      gt\n        /* \"#utility.yul\":16581:16637   */\n      iszero\n      tag_332\n      jumpi\n        /* \"#utility.yul\":16617:16635   */\n      tag_333\n      tag_126\n      jump\t// in\n    tag_333:\n        /* \"#utility.yul\":16581:16637   */\n    tag_332:\n        /* \"#utility.yul\":16661:16699   */\n      tag_334\n        /* \"#utility.yul\":16693:16697   */\n      dup3\n        /* \"#utility.yul\":16687:16698   */\n      sload\n        /* \"#utility.yul\":16661:16699   */\n      tag_53\n      jump\t// in\n    tag_334:\n        /* \"#utility.yul\":16746:16813   */\n      tag_335\n        /* \"#utility.yul\":16806:16812   */\n      dup3\n        /* \"#utility.yul\":16798:16804   */\n      dup3\n        /* \"#utility.yul\":16792:16796   */\n      dup6\n        /* \"#utility.yul\":16746:16813   */\n      tag_154\n      jump\t// in\n    tag_335:\n        /* \"#utility.yul\":16840:16841   */\n      0x00\n        /* \"#utility.yul\":16864:16868   */\n      0x20\n        /* \"#utility.yul\":16851:16868   */\n      swap1\n      pop\n        /* \"#utility.yul\":16896:16898   */\n      0x1f\n        /* \"#utility.yul\":16888:16894   */\n      dup4\n        /* \"#utility.yul\":16885:16899   */\n      gt\n        /* \"#utility.yul\":16913:16914   */\n      0x01\n        /* \"#utility.yul\":16908:17526   */\n      dup2\n      eq\n      tag_337\n      jumpi\n        /* \"#utility.yul\":17570:17571   */\n      0x00\n        /* \"#utility.yul\":17587:17593   */\n      dup5\n        /* \"#utility.yul\":17584:17661   */\n      iszero\n      tag_338\n      jumpi\n        /* \"#utility.yul\":17636:17645   */\n      dup3\n        /* \"#utility.yul\":17631:17634   */\n      dup8\n        /* \"#utility.yul\":17627:17646   */\n      add\n        /* \"#utility.yul\":17621:17647   */\n      mload\n        /* \"#utility.yul\":17612:17647   */\n      swap1\n      pop\n        /* \"#utility.yul\":17584:17661   */\n    tag_338:\n        /* \"#utility.yul\":17687:17754   */\n      tag_339\n        /* \"#utility.yul\":17747:17753   */\n      dup6\n        /* \"#utility.yul\":17740:17745   */\n      dup3\n        /* \"#utility.yul\":17687:17754   */\n      tag_157\n      jump\t// in\n    tag_339:\n        /* \"#utility.yul\":17681:17685   */\n      dup7\n        /* \"#utility.yul\":17674:17755   */\n      sstore\n        /* \"#utility.yul\":17543:17765   */\n      pop\n        /* \"#utility.yul\":16878:17765   */\n      jump(tag_336)\n        /* \"#utility.yul\":16908:17526   */\n    tag_337:\n        /* \"#utility.yul\":16960:16964   */\n      0x1f\n        /* \"#utility.yul\":16956:16965   */\n      not\n        /* \"#utility.yul\":16948:16954   */\n      dup5\n        /* \"#utility.yul\":16944:16966   */\n      and\n        /* \"#utility.yul\":16994:17031   */\n      tag_340\n        /* \"#utility.yul\":17026:17030   */\n      dup7\n        /* \"#utility.yul\":16994:17031   */\n      tag_143\n      jump\t// in\n    tag_340:\n        /* \"#utility.yul\":17053:17054   */\n      0x00\n        /* \"#utility.yul\":17067:17275   */\n    tag_341:\n        /* \"#utility.yul\":17081:17088   */\n      dup3\n        /* \"#utility.yul\":17078:17079   */\n      dup2\n        /* \"#utility.yul\":17075:17089   */\n      lt\n        /* \"#utility.yul\":17067:17275   */\n      iszero\n      tag_343\n      jumpi\n        /* \"#utility.yul\":17160:17169   */\n      dup5\n        /* \"#utility.yul\":17155:17158   */\n      dup10\n        /* \"#utility.yul\":17151:17170   */\n      add\n        /* \"#utility.yul\":17145:17171   */\n      mload\n        /* \"#utility.yul\":17137:17143   */\n      dup3\n        /* \"#utility.yul\":17130:17172   */\n      sstore\n        /* \"#utility.yul\":17211:17212   */\n      0x01\n        /* \"#utility.yul\":17203:17209   */\n      dup3\n        /* \"#utility.yul\":17199:17213   */\n      add\n        /* \"#utility.yul\":17189:17213   */\n      swap2\n      pop\n        /* \"#utility.yul\":17258:17260   */\n      0x20\n        /* \"#utility.yul\":17247:17256   */\n      dup6\n        /* \"#utility.yul\":17243:17261   */\n      add\n        /* \"#utility.yul\":17230:17261   */\n      swap5\n      pop\n        /* \"#utility.yul\":17104:17108   */\n      0x20\n        /* \"#utility.yul\":17101:17102   */\n      dup2\n        /* \"#utility.yul\":17097:17109   */\n      add\n        /* \"#utility.yul\":17092:17109   */\n      swap1\n      pop\n        /* \"#utility.yul\":17067:17275   */\n      jump(tag_341)\n    tag_343:\n        /* \"#utility.yul\":17303:17309   */\n      dup7\n        /* \"#utility.yul\":17294:17301   */\n      dup4\n        /* \"#utility.yul\":17291:17310   */\n      lt\n        /* \"#utility.yul\":17288:17467   */\n      iszero\n      tag_344\n      jumpi\n        /* \"#utility.yul\":17361:17370   */\n      dup5\n        /* \"#utility.yul\":17356:17359   */\n      dup10\n        /* \"#utility.yul\":17352:17371   */\n      add\n        /* \"#utility.yul\":17346:17372   */\n      mload\n        /* \"#utility.yul\":17404:17452   */\n      tag_345\n        /* \"#utility.yul\":17446:17450   */\n      0x1f\n        /* \"#utility.yul\":17438:17444   */\n      dup10\n        /* \"#utility.yul\":17434:17451   */\n      and\n        /* \"#utility.yul\":17423:17432   */\n      dup3\n        /* \"#utility.yul\":17404:17452   */\n      tag_156\n      jump\t// in\n    tag_345:\n        /* \"#utility.yul\":17396:17402   */\n      dup4\n        /* \"#utility.yul\":17389:17453   */\n      sstore\n        /* \"#utility.yul\":17311:17467   */\n      pop\n        /* \"#utility.yul\":17288:17467   */\n    tag_344:\n        /* \"#utility.yul\":17513:17514   */\n      0x01\n        /* \"#utility.yul\":17509:17510   */\n      0x02\n        /* \"#utility.yul\":17501:17507   */\n      dup9\n        /* \"#utility.yul\":17497:17511   */\n      mul\n        /* \"#utility.yul\":17493:17515   */\n      add\n        /* \"#utility.yul\":17487:17491   */\n      dup9\n        /* \"#utility.yul\":17480:17516   */\n      sstore\n        /* \"#utility.yul\":16915:17526   */\n      pop\n      pop\n      pop\n        /* \"#utility.yul\":16878:17765   */\n    tag_336:\n      pop\n        /* \"#utility.yul\":16468:17771   */\n      pop\n      pop\n      pop\n        /* \"#utility.yul\":16376:17771   */\n      pop\n      pop\n      jump\t// out\n        /* \"#utility.yul\":17777:18090   */\n    tag_67:\n        /* \"#utility.yul\":17890:17894   */\n      0x00\n        /* \"#utility.yul\":17928:17930   */\n      0x20\n        /* \"#utility.yul\":17917:17926   */\n      dup3\n        /* \"#utility.yul\":17913:17931   */\n      add\n        /* \"#utility.yul\":17905:17931   */\n      swap1\n      pop\n        /* \"#utility.yul\":17977:17986   */\n      dup2\n        /* \"#utility.yul\":17971:17975   */\n      dup2\n        /* \"#utility.yul\":17967:17987   */\n      sub\n        /* \"#utility.yul\":17963:17964   */\n      0x00\n        /* \"#utility.yul\":17952:17961   */\n      dup4\n        /* \"#utility.yul\":17948:17965   */\n      add\n        /* \"#utility.yul\":17941:17988   */\n      mstore\n        /* \"#utility.yul\":18005:18083   */\n      tag_347\n        /* \"#utility.yul\":18078:18082   */\n      dup2\n        /* \"#utility.yul\":18069:18075   */\n      dup5\n        /* \"#utility.yul\":18005:18083   */\n      tag_136\n      jump\t// in\n    tag_347:\n        /* \"#utility.yul\":17997:18083   */\n      swap1\n      pop\n        /* \"#utility.yul\":17777:18090   */\n      swap3\n      swap2\n      pop\n      pop\n      jump\t// out\n        /* \"#utility.yul\":18096:18330   */\n    tag_158:\n        /* \"#utility.yul\":18236:18270   */\n      0x50726f647563744d616e616765723a2063616c6c6572206973206e6f74207468\n        /* \"#utility.yul\":18232:18233   */\n      0x00\n        /* \"#utility.yul\":18224:18230   */\n      dup3\n        /* \"#utility.yul\":18220:18234   */\n      add\n        /* \"#utility.yul\":18213:18271   */\n      mstore\n        /* \"#utility.yul\":18305:18322   */\n      0x652063757272656e74206f776e65720000000000000000000000000000000000\n        /* \"#utility.yul\":18300:18302   */\n      0x20\n        /* \"#utility.yul\":18292:18298   */\n      dup3\n        /* \"#utility.yul\":18288:18303   */\n      add\n        /* \"#utility.yul\":18281:18323   */\n      mstore\n        /* \"#utility.yul\":18096:18330   */\n      pop\n      jump\t// out\n        /* \"#utility.yul\":18336:18702   */\n    tag_159:\n        /* \"#utility.yul\":18478:18481   */\n      0x00\n        /* \"#utility.yul\":18499:18566   */\n      tag_350\n        /* \"#utility.yul\":18563:18565   */\n      0x2f\n        /* \"#utility.yul\":18558:18561   */\n      dup4\n        /* \"#utility.yul\":18499:18566   */\n      tag_135\n      jump\t// in\n    tag_350:\n        /* \"#utility.yul\":18492:18566   */\n      swap2\n      pop\n        /* \"#utility.yul\":18575:18668   */\n      tag_351\n        /* \"#utility.yul\":18664:18667   */\n      dup3\n        /* \"#utility.yul\":18575:18668   */\n      tag_158\n      jump\t// in\n    tag_351:\n        /* \"#utility.yul\":18693:18695   */\n      0x40\n        /* \"#utility.yul\":18688:18691   */\n      dup3\n        /* \"#utility.yul\":18684:18696   */\n      add\n        /* \"#utility.yul\":18677:18696   */\n      swap1\n      pop\n        /* \"#utility.yul\":18336:18702   */\n      swap2\n      swap1\n      pop\n      jump\t// out\n        /* \"#utility.yul\":18708:19127   */\n    tag_83:\n        /* \"#utility.yul\":18874:18878   */\n      0x00\n        /* \"#utility.yul\":18912:18914   */\n      0x20\n        /* \"#utility.yul\":18901:18910   */\n      dup3\n        /* \"#utility.yul\":18897:18915   */\n      add\n        /* \"#utility.yul\":18889:18915   */\n      swap1\n      pop\n        /* \"#utility.yul\":18961:18970   */\n      dup2\n        /* \"#utility.yul\":18955:18959   */\n      dup2\n        /* \"#utility.yul\":18951:18971   */\n      sub\n        /* \"#utility.yul\":18947:18948   */\n      0x00\n        /* \"#utility.yul\":18936:18945   */\n      dup4\n        /* \"#utility.yul\":18932:18949   */\n      add\n        /* \"#utility.yul\":18925:18972   */\n      mstore\n        /* \"#utility.yul\":18989:19120   */\n      tag_353\n        /* \"#utility.yul\":19115:19119   */\n      dup2\n        /* \"#utility.yul\":18989:19120   */\n      tag_159\n      jump\t// in\n    tag_353:\n        /* \"#utility.yul\":18981:19120   */\n      swap1\n      pop\n        /* \"#utility.yul\":18708:19127   */\n      swap2\n      swap1\n      pop\n      jump\t// out\n        /* \"#utility.yul\":19133:19358   */\n    tag_160:\n        /* \"#utility.yul\":19273:19307   */\n      0x4f776e61626c653a206e6577206f776e657220697320746865207a65726f2061\n        /* \"#utility.yul\":19269:19270   */\n      0x00\n        /* \"#utility.yul\":19261:19267   */\n      dup3\n        /* \"#utility.yul\":19257:19271   */\n      add\n        /* \"#utility.yul\":19250:19308   */\n      mstore\n        /* \"#utility.yul\":19342:19350   */\n      0x6464726573730000000000000000000000000000000000000000000000000000\n        /* \"#utility.yul\":19337:19339   */\n      0x20\n        /* \"#utility.yul\":19329:19335   */\n      dup3\n        /* \"#utility.yul\":19325:19340   */\n      add\n        /* \"#utility.yul\":19318:19351   */\n      mstore\n        /* \"#utility.yul\":19133:19358   */\n      pop\n      jump\t// out\n        /* \"#utility.yul\":19364:19730   */\n    tag_161:\n        /* \"#utility.yul\":19506:19509   */\n      0x00\n        /* \"#utility.yul\":19527:19594   */\n      tag_356\n        /* \"#utility.yul\":19591:19593   */\n      0x26\n        /* \"#utility.yul\":19586:19589   */\n      dup4\n        /* \"#utility.yul\":19527:19594   */\n      tag_135\n      jump\t// in\n    tag_356:\n        /* \"#utility.yul\":19520:19594   */\n      swap2\n      pop\n        /* \"#utility.yul\":19603:19696   */\n      tag_357\n        /* \"#utility.yul\":19692:19695   */\n      dup3\n        /* \"#utility.yul\":19603:19696   */\n      tag_160\n      jump\t// in\n    tag_357:\n        /* \"#utility.yul\":19721:19723   */\n      0x40\n        /* \"#utility.yul\":19716:19719   */\n      dup3\n        /* \"#utility.yul\":19712:19724   */\n      add\n        /* \"#utility.yul\":19705:19724   */\n      swap1\n      pop\n        /* \"#utility.yul\":19364:19730   */\n      swap2\n      swap1\n      pop\n      jump\t// out\n        /* \"#utility.yul\":19736:20155   */\n    tag_100:\n        /* \"#utility.yul\":19902:19906   */\n      0x00\n        /* \"#utility.yul\":19940:19942   */\n      0x20\n        /* \"#utility.yul\":19929:19938   */\n      dup3\n        /* \"#utility.yul\":19925:19943   */\n      add\n        /* \"#utility.yul\":19917:19943   */\n      swap1\n      pop\n        /* \"#utility.yul\":19989:19998   */\n      dup2\n        /* \"#utility.yul\":19983:19987   */\n      dup2\n        /* \"#utility.yul\":19979:19999   */\n      sub\n        /* \"#utility.yul\":19975:19976   */\n      0x00\n        /* \"#utility.yul\":19964:19973   */\n      dup4\n        /* \"#utility.yul\":19960:19977   */\n      add\n        /* \"#utility.yul\":19953:20000   */\n      mstore\n        /* \"#utility.yul\":20017:20148   */\n      tag_359\n        /* \"#utility.yul\":20143:20147   */\n      dup2\n        /* \"#utility.yul\":20017:20148   */\n      tag_161\n      jump\t// in\n    tag_359:\n        /* \"#utility.yul\":20009:20148   */\n      swap1\n      pop\n        /* \"#utility.yul\":19736:20155   */\n      swap2\n      swap1\n      pop\n      jump\t// out\n        /* \"#utility.yul\":20161:20341   */\n    tag_162:\n        /* \"#utility.yul\":20209:20286   */\n      0x4e487b7100000000000000000000000000000000000000000000000000000000\n        /* \"#utility.yul\":20206:20207   */\n      0x00\n        /* \"#utility.yul\":20199:20287   */\n      mstore\n        /* \"#utility.yul\":20306:20310   */\n      0x11\n        /* \"#utility.yul\":20303:20304   */\n      0x04\n        /* \"#utility.yul\":20296:20311   */\n      mstore\n        /* \"#utility.yul\":20330:20334   */\n      0x24\n        /* \"#utility.yul\":20327:20328   */\n      0x00\n        /* \"#utility.yul\":20320:20335   */\n      revert\n        /* \"#utility.yul\":20347:20538   */\n    tag_103:\n        /* \"#utility.yul\":20387:20390   */\n      0x00\n        /* \"#utility.yul\":20406:20426   */\n      tag_362\n        /* \"#utility.yul\":20424:20425   */\n      dup3\n        /* \"#utility.yul\":20406:20426   */\n      tag_107\n      jump\t// in\n    tag_362:\n        /* \"#utility.yul\":20401:20426   */\n      swap2\n      pop\n        /* \"#utility.yul\":20440:20460   */\n      tag_363\n        /* \"#utility.yul\":20458:20459   */\n      dup4\n        /* \"#utility.yul\":20440:20460   */\n      tag_107\n      jump\t// in\n    tag_363:\n        /* \"#utility.yul\":20435:20460   */\n      swap3\n      pop\n        /* \"#utility.yul\":20483:20484   */\n      dup3\n        /* \"#utility.yul\":20480:20481   */\n      dup3\n        /* \"#utility.yul\":20476:20485   */\n      add\n        /* \"#utility.yul\":20469:20485   */\n      swap1\n      pop\n        /* \"#utility.yul\":20504:20507   */\n      dup1\n        /* \"#utility.yul\":20501:20502   */\n      dup3\n        /* \"#utility.yul\":20498:20508   */\n      gt\n        /* \"#utility.yul\":20495:20531   */\n      iszero\n      tag_364\n      jumpi\n        /* \"#utility.yul\":20511:20529   */\n      tag_365\n      tag_162\n      jump\t// in\n    tag_365:\n        /* \"#utility.yul\":20495:20531   */\n    tag_364:\n        /* \"#utility.yul\":20347:20538   */\n      swap3\n      swap2\n      pop\n      pop\n      jump\t// out\n        /* \"#utility.yul\":20544:20721   */\n    tag_163:\n        /* \"#utility.yul\":20684:20713   */\n      0x536166654d6174683a206164646974696f6e206f766572666c6f770000000000\n        /* \"#utility.yul\":20680:20681   */\n      0x00\n        /* \"#utility.yul\":20672:20678   */\n      dup3\n        /* \"#utility.yul\":20668:20682   */\n      add\n        /* \"#utility.yul\":20661:20714   */\n      mstore\n        /* \"#utility.yul\":20544:20721   */\n      pop\n      jump\t// out\n        /* \"#utility.yul\":20727:21093   */\n    tag_164:\n        /* \"#utility.yul\":20869:20872   */\n      0x00\n        /* \"#utility.yul\":20890:20957   */\n      tag_368\n        /* \"#utility.yul\":20954:20956   */\n      0x1b\n        /* \"#utility.yul\":20949:20952   */\n      dup4\n        /* \"#utility.yul\":20890:20957   */\n      tag_135\n      jump\t// in\n    tag_368:\n        /* \"#utility.yul\":20883:20957   */\n      swap2\n      pop\n        /* \"#utility.yul\":20966:21059   */\n      tag_369\n        /* \"#utility.yul\":21055:21058   */\n      dup3\n        /* \"#utility.yul\":20966:21059   */\n      tag_163\n      jump\t// in\n    tag_369:\n        /* \"#utility.yul\":21084:21086   */\n      0x20\n        /* \"#utility.yul\":21079:21082   */\n      dup3\n        /* \"#utility.yul\":21075:21087   */\n      add\n        /* \"#utility.yul\":21068:21087   */\n      swap1\n      pop\n        /* \"#utility.yul\":20727:21093   */\n      swap2\n      swap1\n      pop\n      jump\t// out\n        /* \"#utility.yul\":21099:21518   */\n    tag_106:\n        /* \"#utility.yul\":21265:21269   */\n      0x00\n        /* \"#utility.yul\":21303:21305   */\n      0x20\n        /* \"#utility.yul\":21292:21301   */\n      dup3\n        /* \"#utility.yul\":21288:21306   */\n      add\n        /* \"#utility.yul\":21280:21306   */\n      swap1\n      pop\n        /* \"#utility.yul\":21352:21361   */\n      dup2\n        /* \"#utility.yul\":21346:21350   */\n      dup2\n        /* \"#utility.yul\":21342:21362   */\n      sub\n        /* \"#utility.yul\":21338:21339   */\n      0x00\n        /* \"#utility.yul\":21327:21336   */\n      dup4\n        /* \"#utility.yul\":21323:21340   */\n      add\n        /* \"#utility.yul\":21316:21363   */\n      mstore\n        /* \"#utility.yul\":21380:21511   */\n      tag_371\n        /* \"#utility.yul\":21506:21510   */\n      dup2\n        /* \"#utility.yul\":21380:21511   */\n      tag_164\n      jump\t// in\n    tag_371:\n        /* \"#utility.yul\":21372:21511   */\n      swap1\n      pop\n        /* \"#utility.yul\":21099:21518   */\n      swap2\n      swap1\n      pop\n      jump\t// out\n\n    auxdata: 0xa2646970667358221220ed8c877a8fc77bc3dd2d5c7f96c4bd31c91dcb8ab13b7011aba94f95ed5885b964736f6c63430008190033\n}\n",
				"bytecode": {
					"linkReferences": {},
					"object": "6080604052348015600e575f80fd5b50335f806101000a81548173ffffffffffffffffffffffffffffffffffffffff021916908373ffffffffffffffffffffffffffffffffffffffff1602179055503373ffffffffffffffffffffffffffffffffffffffff165f73ffffffffffffffffffffffffffffffffffffffff167f8be0079c531659141344cd1fd0a4f28419497f9722a3daafe3b4186f6b6457e060405160405180910390a35f60028190555061167a806100bc5f395ff3fe608060405234801561000f575f80fd5b506004361061007b575f3560e01c80637acc0b20116100595780637acc0b20146100e957806386b0e8121461011f5780638da5cb5b1461013b578063f2fde38b146101595761007b565b80634de91a631461007f5780636813b53b1461009d57806372c60690146100cd575b5f80fd5b610087610175565b6040516100949190610b3b565b60405180910390f35b6100b760048036038101906100b29190610b8f565b61017b565b6040516100c49190610d11565b60405180910390f35b6100e760048036038101906100e29190610e87565b61035a565b005b61010360048036038101906100fe9190610b8f565b610596565b6040516101169796959493929190610f5e565b60405180910390f35b61013960048036038101906101349190610fd2565b6106a7565b005b610143610886565b6040516101509190611010565b60405180910390f35b610173600480360381019061016e9190611029565b6108ad565b005b60025481565b610183610ac0565b60025482106101c7576040517f08c379a00000000000000000000000000000000000000000000000000000000081526004016101be906110c4565b60405180910390fd5b600182815481106101db576101da6110e2565b5b905f5260205f2090600702016040518060e00160405290815f820154815260200160018201805461020b9061113c565b80601f01602080910402602001604051908101604052809291908181526020018280546102379061113c565b80156102825780601f1061025957610100808354040283529160200191610282565b820191905f5260205f20905b81548152906001019060200180831161026557829003601f168201915b505050505081526020016002820154815260200160038201548152602001600482015f9054906101000a900473ffffffffffffffffffffffffffffffffffffffff1673ffffffffffffffffffffffffffffffffffffffff1673ffffffffffffffffffffffffffffffffffffffff168152602001600582015f9054906101000a900473ffffffffffffffffffffffffffffffffffffffff1673ffffffffffffffffffffffffffffffffffffffff1673ffffffffffffffffffffffffffffffffffffffff1681526020016006820154815250509050919050565b3373ffffffffffffffffffffffffffffffffffffffff165f8054906101000a900473ffffffffffffffffffffffffffffffffffffffff1673ffffffffffffffffffffffffffffffffffffffff16146103e7576040517f08c379a00000000000000000000000000000000000000000000000000000000081526004016103de906111b6565b60405180910390fd5b60016040518060e0016040528060025481526020018681526020018581526020018481526020018373ffffffffffffffffffffffffffffffffffffffff1681526020018373ffffffffffffffffffffffffffffffffffffffff16815260200142815250908060018154018082558091505060019003905f5260205f2090600702015f909190919091505f820151815f0155602082015181600101908161048d9190611371565b5060408201518160020155606082015181600301556080820151816004015f6101000a81548173ffffffffffffffffffffffffffffffffffffffff021916908373ffffffffffffffffffffffffffffffffffffffff16021790555060a0820151816005015f6101000a81548173ffffffffffffffffffffffffffffffffffffffff021916908373ffffffffffffffffffffffffffffffffffffffff16021790555060c0820151816006015550506002547f543247085674b00368d9cd41416be705a4c27143c024163a6f58bf12a41992f58560405161056c9190611440565b60405180910390a261058a6001600254610a6390919063ffffffff16565b60028190555050505050565b600181815481106105a5575f80fd5b905f5260205f2090600702015f91509050805f0154908060010180546105ca9061113c565b80601f01602080910402602001604051908101604052809291908181526020018280546105f69061113c565b80156106415780601f1061061857610100808354040283529160200191610641565b820191905f5260205f20905b81548152906001019060200180831161062457829003601f168201915b505050505090806002015490806003015490806004015f9054906101000a900473ffffffffffffffffffffffffffffffffffffffff1690806005015f9054906101000a900473ffffffffffffffffffffffffffffffffffffffff16908060060154905087565b600182815481106106bb576106ba6110e2565b5b905f5260205f2090600702016005015f9054906101000a900473ffffffffffffffffffffffffffffffffffffffff1673ffffffffffffffffffffffffffffffffffffffff163373ffffffffffffffffffffffffffffffffffffffff1614610757576040517f08c379a000000000000000000000000000000000000000000000000000000000815260040161074e906114d0565b60405180910390fd5b5f6001838154811061076c5761076b6110e2565b5b905f5260205f2090600702016005015f9054906101000a900473ffffffffffffffffffffffffffffffffffffffff16905081600184815481106107b2576107b16110e2565b5b905f5260205f2090600702016005015f6101000a81548173ffffffffffffffffffffffffffffffffffffffff021916908373ffffffffffffffffffffffffffffffffffffffff1602179055504260018481548110610813576108126110e2565b5b905f5260205f209060070201600601819055508173ffffffffffffffffffffffffffffffffffffffff168173ffffffffffffffffffffffffffffffffffffffff16847f16b85f49bf01212961345d3016c9a531894accf62eb7680f2045d79185cc0ec060405160405180910390a4505050565b5f805f9054906101000a900473ffffffffffffffffffffffffffffffffffffffff16905090565b3373ffffffffffffffffffffffffffffffffffffffff165f8054906101000a900473ffffffffffffffffffffffffffffffffffffffff1673ffffffffffffffffffffffffffffffffffffffff161461093a576040517f08c379a0000000000000000000000000000000000000000000000000000000008152600401610931906111b6565b60405180910390fd5b5f73ffffffffffffffffffffffffffffffffffffffff168173ffffffffffffffffffffffffffffffffffffffff16036109a8576040517f08c379a000000000000000000000000000000000000000000000000000000000815260040161099f9061155e565b60405180910390fd5b8073ffffffffffffffffffffffffffffffffffffffff165f8054906101000a900473ffffffffffffffffffffffffffffffffffffffff1673ffffffffffffffffffffffffffffffffffffffff167f8be0079c531659141344cd1fd0a4f28419497f9722a3daafe3b4186f6b6457e060405160405180910390a3805f806101000a81548173ffffffffffffffffffffffffffffffffffffffff021916908373ffffffffffffffffffffffffffffffffffffffff16021790555050565b5f808284610a7191906115a9565b905083811015610ab6576040517f08c379a0000000000000000000000000000000000000000000000000000000008152600401610aad90611626565b60405180910390fd5b8091505092915050565b6040518060e001604052805f8152602001606081526020015f81526020015f81526020015f73ffffffffffffffffffffffffffffffffffffffff1681526020015f73ffffffffffffffffffffffffffffffffffffffff1681526020015f81525090565b5f819050919050565b610b3581610b23565b82525050565b5f602082019050610b4e5f830184610b2c565b92915050565b5f604051905090565b5f80fd5b5f80fd5b610b6e81610b23565b8114610b78575f80fd5b50565b5f81359050610b8981610b65565b92915050565b5f60208284031215610ba457610ba3610b5d565b5b5f610bb184828501610b7b565b91505092915050565b610bc381610b23565b82525050565b5f81519050919050565b5f82825260208201905092915050565b8281835e5f83830152505050565b5f601f19601f8301169050919050565b5f610c0b82610bc9565b610c158185610bd3565b9350610c25818560208601610be3565b610c2e81610bf1565b840191505092915050565b5f73ffffffffffffffffffffffffffffffffffffffff82169050919050565b5f610c6282610c39565b9050919050565b610c7281610c58565b82525050565b5f60e083015f830151610c8d5f860182610bba565b5060208301518482036020860152610ca58282610c01565b9150506040830151610cba6040860182610bba565b506060830151610ccd6060860182610bba565b506080830151610ce06080860182610c69565b5060a0830151610cf360a0860182610c69565b5060c0830151610d0660c0860182610bba565b508091505092915050565b5f6020820190508181035f830152610d298184610c78565b905092915050565b5f80fd5b5f80fd5b7f4e487b71000000000000000000000000000000000000000000000000000000005f52604160045260245ffd5b610d6f82610bf1565b810181811067ffffffffffffffff82111715610d8e57610d8d610d39565b5b80604052505050565b5f610da0610b54565b9050610dac8282610d66565b919050565b5f67ffffffffffffffff821115610dcb57610dca610d39565b5b610dd482610bf1565b9050602081019050919050565b828183375f83830152505050565b5f610e01610dfc84610db1565b610d97565b905082815260208101848484011115610e1d57610e1c610d35565b5b610e28848285610de1565b509392505050565b5f82601f830112610e4457610e43610d31565b5b8135610e54848260208601610def565b91505092915050565b610e6681610c58565b8114610e70575f80fd5b50565b5f81359050610e8181610e5d565b92915050565b5f805f8060808587031215610e9f57610e9e610b5d565b5b5f85013567ffffffffffffffff811115610ebc57610ebb610b61565b5b610ec887828801610e30565b9450506020610ed987828801610b7b565b9350506040610eea87828801610b7b565b9250506060610efb87828801610e73565b91505092959194509250565b5f82825260208201905092915050565b5f610f2182610bc9565b610f2b8185610f07565b9350610f3b818560208601610be3565b610f4481610bf1565b840191505092915050565b610f5881610c58565b82525050565b5f60e082019050610f715f83018a610b2c565b8181036020830152610f838189610f17565b9050610f926040830188610b2c565b610f9f6060830187610b2c565b610fac6080830186610f4f565b610fb960a0830185610f4f565b610fc660c0830184610b2c565b98975050505050505050565b5f8060408385031215610fe857610fe7610b5d565b5b5f610ff585828601610b7b565b925050602061100685828601610e73565b9150509250929050565b5f6020820190506110235f830184610f4f565b92915050565b5f6020828403121561103e5761103d610b5d565b5b5f61104b84828501610e73565b91505092915050565b7f50726f647563744d616e616765723a20696e76616c69642070726f64756374205f8201527f4944000000000000000000000000000000000000000000000000000000000000602082015250565b5f6110ae602283610f07565b91506110b982611054565b604082019050919050565b5f6020820190508181035f8301526110db816110a2565b9050919050565b7f4e487b71000000000000000000000000000000000000000000000000000000005f52603260045260245ffd5b7f4e487b71000000000000000000000000000000000000000000000000000000005f52602260045260245ffd5b5f600282049050600182168061115357607f821691505b6020821081036111665761116561110f565b5b50919050565b7f4f776e61626c653a2063616c6c6572206973206e6f7420746865206f776e65725f82015250565b5f6111a0602083610f07565b91506111ab8261116c565b602082019050919050565b5f6020820190508181035f8301526111cd81611194565b9050919050565b5f819050815f5260205f209050919050565b5f6020601f8301049050919050565b5f82821b905092915050565b5f600883026112307fffffffffffffffffffffffffffffffffffffffffffffffffffffffffffffffff826111f5565b61123a86836111f5565b95508019841693508086168417925050509392505050565b5f819050919050565b5f61127561127061126b84610b23565b611252565b610b23565b9050919050565b5f819050919050565b61128e8361125b565b6112a261129a8261127c565b848454611201565b825550505050565b5f90565b6112b66112aa565b6112c1818484611285565b505050565b5b818110156112e4576112d95f826112ae565b6001810190506112c7565b5050565b601f821115611329576112fa816111d4565b611303846111e6565b81016020851015611312578190505b61132661131e856111e6565b8301826112c6565b50505b505050565b5f82821c905092915050565b5f6113495f198460080261132e565b1980831691505092915050565b5f611361838361133a565b9150826002028217905092915050565b61137a82610bc9565b67ffffffffffffffff81111561139357611392610d39565b5b61139d825461113c565b6113a88282856112e8565b5f60209050601f8311600181146113d9575f84156113c7578287015190505b6113d18582611356565b865550611438565b601f1984166113e7866111d4565b5f5b8281101561140e578489015182556001820191506020850194506020810190506113e9565b8683101561142b5784890151611427601f89168261133a565b8355505b6001600288020188555050505b505050505050565b5f6020820190508181035f8301526114588184610f17565b905092915050565b7f50726f647563744d616e616765723a2063616c6c6572206973206e6f742074685f8201527f652063757272656e74206f776e65720000000000000000000000000000000000602082015250565b5f6114ba602f83610f07565b91506114c582611460565b604082019050919050565b5f6020820190508181035f8301526114e7816114ae565b9050919050565b7f4f776e61626c653a206e6577206f776e657220697320746865207a65726f20615f8201527f6464726573730000000000000000000000000000000000000000000000000000602082015250565b5f611548602683610f07565b9150611553826114ee565b604082019050919050565b5f6020820190508181035f8301526115758161153c565b9050919050565b7f4e487b71000000000000000000000000000000000000000000000000000000005f52601160045260245ffd5b5f6115b382610b23565b91506115be83610b23565b92508282019050808211156115d6576115d561157c565b5b92915050565b7f536166654d6174683a206164646974696f6e206f766572666c6f7700000000005f82015250565b5f611610601b83610f07565b915061161b826115dc565b602082019050919050565b5f6020820190508181035f83015261163d81611604565b905091905056fea2646970667358221220ed8c877a8fc77bc3dd2d5c7f96c4bd31c91dcb8ab13b7011aba94f95ed5885b964736f6c63430008190033",
					"opcodes": "PUSH1 0x80 PUSH1 0x40 MSTORE CALLVALUE DUP1 ISZERO PUSH1 0xE JUMPI PUSH0 DUP1 REVERT JUMPDEST POP CALLER PUSH0 DUP1 PUSH2 0x100 EXP DUP2 SLOAD DUP2 PUSH20 0xFFFFFFFFFFFFFFFFFFFFFFFFFFFFFFFFFFFFFFFF MUL NOT AND SWAP1 DUP4 PUSH20 0xFFFFFFFFFFFFFFFFFFFFFFFFFFFFFFFFFFFFFFFF AND MUL OR SWAP1 SSTORE POP CALLER PUSH20 0xFFFFFFFFFFFFFFFFFFFFFFFFFFFFFFFFFFFFFFFF AND PUSH0 PUSH20 0xFFFFFFFFFFFFFFFFFFFFFFFFFFFFFFFFFFFFFFFF AND PUSH32 0x8BE0079C531659141344CD1FD0A4F28419497F9722A3DAAFE3B4186F6B6457E0 PUSH1 0x40 MLOAD PUSH1 0x40 MLOAD DUP1 SWAP2 SUB SWAP1 LOG3 PUSH0 PUSH1 0x2 DUP2 SWAP1 SSTORE POP PUSH2 0x167A DUP1 PUSH2 0xBC PUSH0 CODECOPY PUSH0 RETURN INVALID PUSH1 0x80 PUSH1 0x40 MSTORE CALLVALUE DUP1 ISZERO PUSH2 0xF JUMPI PUSH0 DUP1 REVERT JUMPDEST POP PUSH1 0x4 CALLDATASIZE LT PUSH2 0x7B JUMPI PUSH0 CALLDATALOAD PUSH1 0xE0 SHR DUP1 PUSH4 0x7ACC0B20 GT PUSH2 0x59 JUMPI DUP1 PUSH4 0x7ACC0B20 EQ PUSH2 0xE9 JUMPI DUP1 PUSH4 0x86B0E812 EQ PUSH2 0x11F JUMPI DUP1 PUSH4 0x8DA5CB5B EQ PUSH2 0x13B JUMPI DUP1 PUSH4 0xF2FDE38B EQ PUSH2 0x159 JUMPI PUSH2 0x7B JUMP JUMPDEST DUP1 PUSH4 0x4DE91A63 EQ PUSH2 0x7F JUMPI DUP1 PUSH4 0x6813B53B EQ PUSH2 0x9D JUMPI DUP1 PUSH4 0x72C60690 EQ PUSH2 0xCD JUMPI JUMPDEST PUSH0 DUP1 REVERT JUMPDEST PUSH2 0x87 PUSH2 0x175 JUMP JUMPDEST PUSH1 0x40 MLOAD PUSH2 0x94 SWAP2 SWAP1 PUSH2 0xB3B JUMP JUMPDEST PUSH1 0x40 MLOAD DUP1 SWAP2 SUB SWAP1 RETURN JUMPDEST PUSH2 0xB7 PUSH1 0x4 DUP1 CALLDATASIZE SUB DUP2 ADD SWAP1 PUSH2 0xB2 SWAP2 SWAP1 PUSH2 0xB8F JUMP JUMPDEST PUSH2 0x17B JUMP JUMPDEST PUSH1 0x40 MLOAD PUSH2 0xC4 SWAP2 SWAP1 PUSH2 0xD11 JUMP JUMPDEST PUSH1 0x40 MLOAD DUP1 SWAP2 SUB SWAP1 RETURN JUMPDEST PUSH2 0xE7 PUSH1 0x4 DUP1 CALLDATASIZE SUB DUP2 ADD SWAP1 PUSH2 0xE2 SWAP2 SWAP1 PUSH2 0xE87 JUMP JUMPDEST PUSH2 0x35A JUMP JUMPDEST STOP JUMPDEST PUSH2 0x103 PUSH1 0x4 DUP1 CALLDATASIZE SUB DUP2 ADD SWAP1 PUSH2 0xFE SWAP2 SWAP1 PUSH2 0xB8F JUMP JUMPDEST PUSH2 0x596 JUMP JUMPDEST PUSH1 0x40 MLOAD PUSH2 0x116 SWAP8 SWAP7 SWAP6 SWAP5 SWAP4 SWAP3 SWAP2 SWAP1 PUSH2 0xF5E JUMP JUMPDEST PUSH1 0x40 MLOAD DUP1 SWAP2 SUB SWAP1 RETURN JUMPDEST PUSH2 0x139 PUSH1 0x4 DUP1 CALLDATASIZE SUB DUP2 ADD SWAP1 PUSH2 0x134 SWAP2 SWAP1 PUSH2 0xFD2 JUMP JUMPDEST PUSH2 0x6A7 JUMP JUMPDEST STOP JUMPDEST PUSH2 0x143 PUSH2 0x886 JUMP JUMPDEST PUSH1 0x40 MLOAD PUSH2 0x150 SWAP2 SWAP1 PUSH2 0x1010 JUMP JUMPDEST PUSH1 0x40 MLOAD DUP1 SWAP2 SUB SWAP1 RETURN JUMPDEST PUSH2 0x173 PUSH1 0x4 DUP1 CALLDATASIZE SUB DUP2 ADD SWAP1 PUSH2 0x16E SWAP2 SWAP1 PUSH2 0x1029 JUMP JUMPDEST PUSH2 0x8AD JUMP JUMPDEST STOP JUMPDEST PUSH1 0x2 SLOAD DUP2 JUMP JUMPDEST PUSH2 0x183 PUSH2 0xAC0 JUMP JUMPDEST PUSH1 0x2 SLOAD DUP3 LT PUSH2 0x1C7 JUMPI PUSH1 0x40 MLOAD PUSH32 0x8C379A000000000000000000000000000000000000000000000000000000000 DUP2 MSTORE PUSH1 0x4 ADD PUSH2 0x1BE SWAP1 PUSH2 0x10C4 JUMP JUMPDEST PUSH1 0x40 MLOAD DUP1 SWAP2 SUB SWAP1 REVERT JUMPDEST PUSH1 0x1 DUP3 DUP2 SLOAD DUP2 LT PUSH2 0x1DB JUMPI PUSH2 0x1DA PUSH2 0x10E2 JUMP JUMPDEST JUMPDEST SWAP1 PUSH0 MSTORE PUSH1 0x20 PUSH0 KECCAK256 SWAP1 PUSH1 0x7 MUL ADD PUSH1 0x40 MLOAD DUP1 PUSH1 0xE0 ADD PUSH1 0x40 MSTORE SWAP1 DUP2 PUSH0 DUP3 ADD SLOAD DUP2 MSTORE PUSH1 0x20 ADD PUSH1 0x1 DUP3 ADD DUP1 SLOAD PUSH2 0x20B SWAP1 PUSH2 0x113C JUMP JUMPDEST DUP1 PUSH1 0x1F ADD PUSH1 0x20 DUP1 SWAP2 DIV MUL PUSH1 0x20 ADD PUSH1 0x40 MLOAD SWAP1 DUP2 ADD PUSH1 0x40 MSTORE DUP1 SWAP3 SWAP2 SWAP1 DUP2 DUP2 MSTORE PUSH1 0x20 ADD DUP3 DUP1 SLOAD PUSH2 0x237 SWAP1 PUSH2 0x113C JUMP JUMPDEST DUP1 ISZERO PUSH2 0x282 JUMPI DUP1 PUSH1 0x1F LT PUSH2 0x259 JUMPI PUSH2 0x100 DUP1 DUP4 SLOAD DIV MUL DUP4 MSTORE SWAP2 PUSH1 0x20 ADD SWAP2 PUSH2 0x282 JUMP JUMPDEST DUP3 ADD SWAP2 SWAP1 PUSH0 MSTORE PUSH1 0x20 PUSH0 KECCAK256 SWAP1 JUMPDEST DUP2 SLOAD DUP2 MSTORE SWAP1 PUSH1 0x1 ADD SWAP1 PUSH1 0x20 ADD DUP1 DUP4 GT PUSH2 0x265 JUMPI DUP3 SWAP1 SUB PUSH1 0x1F AND DUP3 ADD SWAP2 JUMPDEST POP POP POP POP POP DUP2 MSTORE PUSH1 0x20 ADD PUSH1 0x2 DUP3 ADD SLOAD DUP2 MSTORE PUSH1 0x20 ADD PUSH1 0x3 DUP3 ADD SLOAD DUP2 MSTORE PUSH1 0x20 ADD PUSH1 0x4 DUP3 ADD PUSH0 SWAP1 SLOAD SWAP1 PUSH2 0x100 EXP SWAP1 DIV PUSH20 0xFFFFFFFFFFFFFFFFFFFFFFFFFFFFFFFFFFFFFFFF AND PUSH20 0xFFFFFFFFFFFFFFFFFFFFFFFFFFFFFFFFFFFFFFFF AND PUSH20 0xFFFFFFFFFFFFFFFFFFFFFFFFFFFFFFFFFFFFFFFF AND DUP2 MSTORE PUSH1 0x20 ADD PUSH1 0x5 DUP3 ADD PUSH0 SWAP1 SLOAD SWAP1 PUSH2 0x100 EXP SWAP1 DIV PUSH20 0xFFFFFFFFFFFFFFFFFFFFFFFFFFFFFFFFFFFFFFFF AND PUSH20 0xFFFFFFFFFFFFFFFFFFFFFFFFFFFFFFFFFFFFFFFF AND PUSH20 0xFFFFFFFFFFFFFFFFFFFFFFFFFFFFFFFFFFFFFFFF AND DUP2 MSTORE PUSH1 0x20 ADD PUSH1 0x6 DUP3 ADD SLOAD DUP2 MSTORE POP POP SWAP1 POP SWAP2 SWAP1 POP JUMP JUMPDEST CALLER PUSH20 0xFFFFFFFFFFFFFFFFFFFFFFFFFFFFFFFFFFFFFFFF AND PUSH0 DUP1 SLOAD SWAP1 PUSH2 0x100 EXP SWAP1 DIV PUSH20 0xFFFFFFFFFFFFFFFFFFFFFFFFFFFFFFFFFFFFFFFF AND PUSH20 0xFFFFFFFFFFFFFFFFFFFFFFFFFFFFFFFFFFFFFFFF AND EQ PUSH2 0x3E7 JUMPI PUSH1 0x40 MLOAD PUSH32 0x8C379A000000000000000000000000000000000000000000000000000000000 DUP2 MSTORE PUSH1 0x4 ADD PUSH2 0x3DE SWAP1 PUSH2 0x11B6 JUMP JUMPDEST PUSH1 0x40 MLOAD DUP1 SWAP2 SUB SWAP1 REVERT JUMPDEST PUSH1 0x1 PUSH1 0x40 MLOAD DUP1 PUSH1 0xE0 ADD PUSH1 0x40 MSTORE DUP1 PUSH1 0x2 SLOAD DUP2 MSTORE PUSH1 0x20 ADD DUP7 DUP2 MSTORE PUSH1 0x20 ADD DUP6 DUP2 MSTORE PUSH1 0x20 ADD DUP5 DUP2 MSTORE PUSH1 0x20 ADD DUP4 PUSH20 0xFFFFFFFFFFFFFFFFFFFFFFFFFFFFFFFFFFFFFFFF AND DUP2 MSTORE PUSH1 0x20 ADD DUP4 PUSH20 0xFFFFFFFFFFFFFFFFFFFFFFFFFFFFFFFFFFFFFFFF AND DUP2 MSTORE PUSH1 0x20 ADD TIMESTAMP DUP2 MSTORE POP SWAP1 DUP1 PUSH1 0x1 DUP2 SLOAD ADD DUP1 DUP3 SSTORE DUP1 SWAP2 POP POP PUSH1 0x1 SWAP1 SUB SWAP1 PUSH0 MSTORE PUSH1 0x20 PUSH0 KECCAK256 SWAP1 PUSH1 0x7 MUL ADD PUSH0 SWAP1 SWAP2 SWAP1 SWAP2 SWAP1 SWAP2 POP PUSH0 DUP3 ADD MLOAD DUP2 PUSH0 ADD SSTORE PUSH1 0x20 DUP3 ADD MLOAD DUP2 PUSH1 0x1 ADD SWAP1 DUP2 PUSH2 0x48D SWAP2 SWAP1 PUSH2 0x1371 JUMP JUMPDEST POP PUSH1 0x40 DUP3 ADD MLOAD DUP2 PUSH1 0x2 ADD SSTORE PUSH1 0x60 DUP3 ADD MLOAD DUP2 PUSH1 0x3 ADD SSTORE PUSH1 0x80 DUP3 ADD MLOAD DUP2 PUSH1 0x4 ADD PUSH0 PUSH2 0x100 EXP DUP2 SLOAD DUP2 PUSH20 0xFFFFFFFFFFFFFFFFFFFFFFFFFFFFFFFFFFFFFFFF MUL NOT AND SWAP1 DUP4 PUSH20 0xFFFFFFFFFFFFFFFFFFFFFFFFFFFFFFFFFFFFFFFF AND MUL OR SWAP1 SSTORE POP PUSH1 0xA0 DUP3 ADD MLOAD DUP2 PUSH1 0x5 ADD PUSH0 PUSH2 0x100 EXP DUP2 SLOAD DUP2 PUSH20 0xFFFFFFFFFFFFFFFFFFFFFFFFFFFFFFFFFFFFFFFF MUL NOT AND SWAP1 DUP4 PUSH20 0xFFFFFFFFFFFFFFFFFFFFFFFFFFFFFFFFFFFFFFFF AND MUL OR SWAP1 SSTORE POP PUSH1 0xC0 DUP3 ADD MLOAD DUP2 PUSH1 0x6 ADD SSTORE POP POP PUSH1 0x2 SLOAD PUSH32 0x543247085674B00368D9CD41416BE705A4C27143C024163A6F58BF12A41992F5 DUP6 PUSH1 0x40 MLOAD PUSH2 0x56C SWAP2 SWAP1 PUSH2 0x1440 JUMP JUMPDEST PUSH1 0x40 MLOAD DUP1 SWAP2 SUB SWAP1 LOG2 PUSH2 0x58A PUSH1 0x1 PUSH1 0x2 SLOAD PUSH2 0xA63 SWAP1 SWAP2 SWAP1 PUSH4 0xFFFFFFFF AND JUMP JUMPDEST PUSH1 0x2 DUP2 SWAP1 SSTORE POP POP POP POP POP JUMP JUMPDEST PUSH1 0x1 DUP2 DUP2 SLOAD DUP2 LT PUSH2 0x5A5 JUMPI PUSH0 DUP1 REVERT JUMPDEST SWAP1 PUSH0 MSTORE PUSH1 0x20 PUSH0 KECCAK256 SWAP1 PUSH1 0x7 MUL ADD PUSH0 SWAP2 POP SWAP1 POP DUP1 PUSH0 ADD SLOAD SWAP1 DUP1 PUSH1 0x1 ADD DUP1 SLOAD PUSH2 0x5CA SWAP1 PUSH2 0x113C JUMP JUMPDEST DUP1 PUSH1 0x1F ADD PUSH1 0x20 DUP1 SWAP2 DIV MUL PUSH1 0x20 ADD PUSH1 0x40 MLOAD SWAP1 DUP2 ADD PUSH1 0x40 MSTORE DUP1 SWAP3 SWAP2 SWAP1 DUP2 DUP2 MSTORE PUSH1 0x20 ADD DUP3 DUP1 SLOAD PUSH2 0x5F6 SWAP1 PUSH2 0x113C JUMP JUMPDEST DUP1 ISZERO PUSH2 0x641 JUMPI DUP1 PUSH1 0x1F LT PUSH2 0x618 JUMPI PUSH2 0x100 DUP1 DUP4 SLOAD DIV MUL DUP4 MSTORE SWAP2 PUSH1 0x20 ADD SWAP2 PUSH2 0x641 JUMP JUMPDEST DUP3 ADD SWAP2 SWAP1 PUSH0 MSTORE PUSH1 0x20 PUSH0 KECCAK256 SWAP1 JUMPDEST DUP2 SLOAD DUP2 MSTORE SWAP1 PUSH1 0x1 ADD SWAP1 PUSH1 0x20 ADD DUP1 DUP4 GT PUSH2 0x624 JUMPI DUP3 SWAP1 SUB PUSH1 0x1F AND DUP3 ADD SWAP2 JUMPDEST POP POP POP POP POP SWAP1 DUP1 PUSH1 0x2 ADD SLOAD SWAP1 DUP1 PUSH1 0x3 ADD SLOAD SWAP1 DUP1 PUSH1 0x4 ADD PUSH0 SWAP1 SLOAD SWAP1 PUSH2 0x100 EXP SWAP1 DIV PUSH20 0xFFFFFFFFFFFFFFFFFFFFFFFFFFFFFFFFFFFFFFFF AND SWAP1 DUP1 PUSH1 0x5 ADD PUSH0 SWAP1 SLOAD SWAP1 PUSH2 0x100 EXP SWAP1 DIV PUSH20 0xFFFFFFFFFFFFFFFFFFFFFFFFFFFFFFFFFFFFFFFF AND SWAP1 DUP1 PUSH1 0x6 ADD SLOAD SWAP1 POP DUP8 JUMP JUMPDEST PUSH1 0x1 DUP3 DUP2 SLOAD DUP2 LT PUSH2 0x6BB JUMPI PUSH2 0x6BA PUSH2 0x10E2 JUMP JUMPDEST JUMPDEST SWAP1 PUSH0 MSTORE PUSH1 0x20 PUSH0 KECCAK256 SWAP1 PUSH1 0x7 MUL ADD PUSH1 0x5 ADD PUSH0 SWAP1 SLOAD SWAP1 PUSH2 0x100 EXP SWAP1 DIV PUSH20 0xFFFFFFFFFFFFFFFFFFFFFFFFFFFFFFFFFFFFFFFF AND PUSH20 0xFFFFFFFFFFFFFFFFFFFFFFFFFFFFFFFFFFFFFFFF AND CALLER PUSH20 0xFFFFFFFFFFFFFFFFFFFFFFFFFFFFFFFFFFFFFFFF AND EQ PUSH2 0x757 JUMPI PUSH1 0x40 MLOAD PUSH32 0x8C379A000000000000000000000000000000000000000000000000000000000 DUP2 MSTORE PUSH1 0x4 ADD PUSH2 0x74E SWAP1 PUSH2 0x14D0 JUMP JUMPDEST PUSH1 0x40 MLOAD DUP1 SWAP2 SUB SWAP1 REVERT JUMPDEST PUSH0 PUSH1 0x1 DUP4 DUP2 SLOAD DUP2 LT PUSH2 0x76C JUMPI PUSH2 0x76B PUSH2 0x10E2 JUMP JUMPDEST JUMPDEST SWAP1 PUSH0 MSTORE PUSH1 0x20 PUSH0 KECCAK256 SWAP1 PUSH1 0x7 MUL ADD PUSH1 0x5 ADD PUSH0 SWAP1 SLOAD SWAP1 PUSH2 0x100 EXP SWAP1 DIV PUSH20 0xFFFFFFFFFFFFFFFFFFFFFFFFFFFFFFFFFFFFFFFF AND SWAP1 POP DUP2 PUSH1 0x1 DUP5 DUP2 SLOAD DUP2 LT PUSH2 0x7B2 JUMPI PUSH2 0x7B1 PUSH2 0x10E2 JUMP JUMPDEST JUMPDEST SWAP1 PUSH0 MSTORE PUSH1 0x20 PUSH0 KECCAK256 SWAP1 PUSH1 0x7 MUL ADD PUSH1 0x5 ADD PUSH0 PUSH2 0x100 EXP DUP2 SLOAD DUP2 PUSH20 0xFFFFFFFFFFFFFFFFFFFFFFFFFFFFFFFFFFFFFFFF MUL NOT AND SWAP1 DUP4 PUSH20 0xFFFFFFFFFFFFFFFFFFFFFFFFFFFFFFFFFFFFFFFF AND MUL OR SWAP1 SSTORE POP TIMESTAMP PUSH1 0x1 DUP5 DUP2 SLOAD DUP2 LT PUSH2 0x813 JUMPI PUSH2 0x812 PUSH2 0x10E2 JUMP JUMPDEST JUMPDEST SWAP1 PUSH0 MSTORE PUSH1 0x20 PUSH0 KECCAK256 SWAP1 PUSH1 0x7 MUL ADD PUSH1 0x6 ADD DUP2 SWAP1 SSTORE POP DUP2 PUSH20 0xFFFFFFFFFFFFFFFFFFFFFFFFFFFFFFFFFFFFFFFF AND DUP2 PUSH20 0xFFFFFFFFFFFFFFFFFFFFFFFFFFFFFFFFFFFFFFFF AND DUP5 PUSH32 0x16B85F49BF01212961345D3016C9A531894ACCF62EB7680F2045D79185CC0EC0 PUSH1 0x40 MLOAD PUSH1 0x40 MLOAD DUP1 SWAP2 SUB SWAP1 LOG4 POP POP POP JUMP JUMPDEST PUSH0 DUP1 PUSH0 SWAP1 SLOAD SWAP1 PUSH2 0x100 EXP SWAP1 DIV PUSH20 0xFFFFFFFFFFFFFFFFFFFFFFFFFFFFFFFFFFFFFFFF AND SWAP1 POP SWAP1 JUMP JUMPDEST CALLER PUSH20 0xFFFFFFFFFFFFFFFFFFFFFFFFFFFFFFFFFFFFFFFF AND PUSH0 DUP1 SLOAD SWAP1 PUSH2 0x100 EXP SWAP1 DIV PUSH20 0xFFFFFFFFFFFFFFFFFFFFFFFFFFFFFFFFFFFFFFFF AND PUSH20 0xFFFFFFFFFFFFFFFFFFFFFFFFFFFFFFFFFFFFFFFF AND EQ PUSH2 0x93A JUMPI PUSH1 0x40 MLOAD PUSH32 0x8C379A000000000000000000000000000000000000000000000000000000000 DUP2 MSTORE PUSH1 0x4 ADD PUSH2 0x931 SWAP1 PUSH2 0x11B6 JUMP JUMPDEST PUSH1 0x40 MLOAD DUP1 SWAP2 SUB SWAP1 REVERT JUMPDEST PUSH0 PUSH20 0xFFFFFFFFFFFFFFFFFFFFFFFFFFFFFFFFFFFFFFFF AND DUP2 PUSH20 0xFFFFFFFFFFFFFFFFFFFFFFFFFFFFFFFFFFFFFFFF AND SUB PUSH2 0x9A8 JUMPI PUSH1 0x40 MLOAD PUSH32 0x8C379A000000000000000000000000000000000000000000000000000000000 DUP2 MSTORE PUSH1 0x4 ADD PUSH2 0x99F SWAP1 PUSH2 0x155E JUMP JUMPDEST PUSH1 0x40 MLOAD DUP1 SWAP2 SUB SWAP1 REVERT JUMPDEST DUP1 PUSH20 0xFFFFFFFFFFFFFFFFFFFFFFFFFFFFFFFFFFFFFFFF AND PUSH0 DUP1 SLOAD SWAP1 PUSH2 0x100 EXP SWAP1 DIV PUSH20 0xFFFFFFFFFFFFFFFFFFFFFFFFFFFFFFFFFFFFFFFF AND PUSH20 0xFFFFFFFFFFFFFFFFFFFFFFFFFFFFFFFFFFFFFFFF AND PUSH32 0x8BE0079C531659141344CD1FD0A4F28419497F9722A3DAAFE3B4186F6B6457E0 PUSH1 0x40 MLOAD PUSH1 0x40 MLOAD DUP1 SWAP2 SUB SWAP1 LOG3 DUP1 PUSH0 DUP1 PUSH2 0x100 EXP DUP2 SLOAD DUP2 PUSH20 0xFFFFFFFFFFFFFFFFFFFFFFFFFFFFFFFFFFFFFFFF MUL NOT AND SWAP1 DUP4 PUSH20 0xFFFFFFFFFFFFFFFFFFFFFFFFFFFFFFFFFFFFFFFF AND MUL OR SWAP1 SSTORE POP POP JUMP JUMPDEST PUSH0 DUP1 DUP3 DUP5 PUSH2 0xA71 SWAP2 SWAP1 PUSH2 0x15A9 JUMP JUMPDEST SWAP1 POP DUP4 DUP2 LT ISZERO PUSH2 0xAB6 JUMPI PUSH1 0x40 MLOAD PUSH32 0x8C379A000000000000000000000000000000000000000000000000000000000 DUP2 MSTORE PUSH1 0x4 ADD PUSH2 0xAAD SWAP1 PUSH2 0x1626 JUMP JUMPDEST PUSH1 0x40 MLOAD DUP1 SWAP2 SUB SWAP1 REVERT JUMPDEST DUP1 SWAP2 POP POP SWAP3 SWAP2 POP POP JUMP JUMPDEST PUSH1 0x40 MLOAD DUP1 PUSH1 0xE0 ADD PUSH1 0x40 MSTORE DUP1 PUSH0 DUP2 MSTORE PUSH1 0x20 ADD PUSH1 0x60 DUP2 MSTORE PUSH1 0x20 ADD PUSH0 DUP2 MSTORE PUSH1 0x20 ADD PUSH0 DUP2 MSTORE PUSH1 0x20 ADD PUSH0 PUSH20 0xFFFFFFFFFFFFFFFFFFFFFFFFFFFFFFFFFFFFFFFF AND DUP2 MSTORE PUSH1 0x20 ADD PUSH0 PUSH20 0xFFFFFFFFFFFFFFFFFFFFFFFFFFFFFFFFFFFFFFFF AND DUP2 MSTORE PUSH1 0x20 ADD PUSH0 DUP2 MSTORE POP SWAP1 JUMP JUMPDEST PUSH0 DUP2 SWAP1 POP SWAP2 SWAP1 POP JUMP JUMPDEST PUSH2 0xB35 DUP2 PUSH2 0xB23 JUMP JUMPDEST DUP3 MSTORE POP POP JUMP JUMPDEST PUSH0 PUSH1 0x20 DUP3 ADD SWAP1 POP PUSH2 0xB4E PUSH0 DUP4 ADD DUP5 PUSH2 0xB2C JUMP JUMPDEST SWAP3 SWAP2 POP POP JUMP JUMPDEST PUSH0 PUSH1 0x40 MLOAD SWAP1 POP SWAP1 JUMP JUMPDEST PUSH0 DUP1 REVERT JUMPDEST PUSH0 DUP1 REVERT JUMPDEST PUSH2 0xB6E DUP2 PUSH2 0xB23 JUMP JUMPDEST DUP2 EQ PUSH2 0xB78 JUMPI PUSH0 DUP1 REVERT JUMPDEST POP JUMP JUMPDEST PUSH0 DUP2 CALLDATALOAD SWAP1 POP PUSH2 0xB89 DUP2 PUSH2 0xB65 JUMP JUMPDEST SWAP3 SWAP2 POP POP JUMP JUMPDEST PUSH0 PUSH1 0x20 DUP3 DUP5 SUB SLT ISZERO PUSH2 0xBA4 JUMPI PUSH2 0xBA3 PUSH2 0xB5D JUMP JUMPDEST JUMPDEST PUSH0 PUSH2 0xBB1 DUP5 DUP3 DUP6 ADD PUSH2 0xB7B JUMP JUMPDEST SWAP2 POP POP SWAP3 SWAP2 POP POP JUMP JUMPDEST PUSH2 0xBC3 DUP2 PUSH2 0xB23 JUMP JUMPDEST DUP3 MSTORE POP POP JUMP JUMPDEST PUSH0 DUP2 MLOAD SWAP1 POP SWAP2 SWAP1 POP JUMP JUMPDEST PUSH0 DUP3 DUP3 MSTORE PUSH1 0x20 DUP3 ADD SWAP1 POP SWAP3 SWAP2 POP POP JUMP JUMPDEST DUP3 DUP2 DUP4 MCOPY PUSH0 DUP4 DUP4 ADD MSTORE POP POP POP JUMP JUMPDEST PUSH0 PUSH1 0x1F NOT PUSH1 0x1F DUP4 ADD AND SWAP1 POP SWAP2 SWAP1 POP JUMP JUMPDEST PUSH0 PUSH2 0xC0B DUP3 PUSH2 0xBC9 JUMP JUMPDEST PUSH2 0xC15 DUP2 DUP6 PUSH2 0xBD3 JUMP JUMPDEST SWAP4 POP PUSH2 0xC25 DUP2 DUP6 PUSH1 0x20 DUP7 ADD PUSH2 0xBE3 JUMP JUMPDEST PUSH2 0xC2E DUP2 PUSH2 0xBF1 JUMP JUMPDEST DUP5 ADD SWAP2 POP POP SWAP3 SWAP2 POP POP JUMP JUMPDEST PUSH0 PUSH20 0xFFFFFFFFFFFFFFFFFFFFFFFFFFFFFFFFFFFFFFFF DUP3 AND SWAP1 POP SWAP2 SWAP1 POP JUMP JUMPDEST PUSH0 PUSH2 0xC62 DUP3 PUSH2 0xC39 JUMP JUMPDEST SWAP1 POP SWAP2 SWAP1 POP JUMP JUMPDEST PUSH2 0xC72 DUP2 PUSH2 0xC58 JUMP JUMPDEST DUP3 MSTORE POP POP JUMP JUMPDEST PUSH0 PUSH1 0xE0 DUP4 ADD PUSH0 DUP4 ADD MLOAD PUSH2 0xC8D PUSH0 DUP7 ADD DUP3 PUSH2 0xBBA JUMP JUMPDEST POP PUSH1 0x20 DUP4 ADD MLOAD DUP5 DUP3 SUB PUSH1 0x20 DUP7 ADD MSTORE PUSH2 0xCA5 DUP3 DUP3 PUSH2 0xC01 JUMP JUMPDEST SWAP2 POP POP PUSH1 0x40 DUP4 ADD MLOAD PUSH2 0xCBA PUSH1 0x40 DUP7 ADD DUP3 PUSH2 0xBBA JUMP JUMPDEST POP PUSH1 0x60 DUP4 ADD MLOAD PUSH2 0xCCD PUSH1 0x60 DUP7 ADD DUP3 PUSH2 0xBBA JUMP JUMPDEST POP PUSH1 0x80 DUP4 ADD MLOAD PUSH2 0xCE0 PUSH1 0x80 DUP7 ADD DUP3 PUSH2 0xC69 JUMP JUMPDEST POP PUSH1 0xA0 DUP4 ADD MLOAD PUSH2 0xCF3 PUSH1 0xA0 DUP7 ADD DUP3 PUSH2 0xC69 JUMP JUMPDEST POP PUSH1 0xC0 DUP4 ADD MLOAD PUSH2 0xD06 PUSH1 0xC0 DUP7 ADD DUP3 PUSH2 0xBBA JUMP JUMPDEST POP DUP1 SWAP2 POP POP SWAP3 SWAP2 POP POP JUMP JUMPDEST PUSH0 PUSH1 0x20 DUP3 ADD SWAP1 POP DUP2 DUP2 SUB PUSH0 DUP4 ADD MSTORE PUSH2 0xD29 DUP2 DUP5 PUSH2 0xC78 JUMP JUMPDEST SWAP1 POP SWAP3 SWAP2 POP POP JUMP JUMPDEST PUSH0 DUP1 REVERT JUMPDEST PUSH0 DUP1 REVERT JUMPDEST PUSH32 0x4E487B7100000000000000000000000000000000000000000000000000000000 PUSH0 MSTORE PUSH1 0x41 PUSH1 0x4 MSTORE PUSH1 0x24 PUSH0 REVERT JUMPDEST PUSH2 0xD6F DUP3 PUSH2 0xBF1 JUMP JUMPDEST DUP2 ADD DUP2 DUP2 LT PUSH8 0xFFFFFFFFFFFFFFFF DUP3 GT OR ISZERO PUSH2 0xD8E JUMPI PUSH2 0xD8D PUSH2 0xD39 JUMP JUMPDEST JUMPDEST DUP1 PUSH1 0x40 MSTORE POP POP POP JUMP JUMPDEST PUSH0 PUSH2 0xDA0 PUSH2 0xB54 JUMP JUMPDEST SWAP1 POP PUSH2 0xDAC DUP3 DUP3 PUSH2 0xD66 JUMP JUMPDEST SWAP2 SWAP1 POP JUMP JUMPDEST PUSH0 PUSH8 0xFFFFFFFFFFFFFFFF DUP3 GT ISZERO PUSH2 0xDCB JUMPI PUSH2 0xDCA PUSH2 0xD39 JUMP JUMPDEST JUMPDEST PUSH2 0xDD4 DUP3 PUSH2 0xBF1 JUMP JUMPDEST SWAP1 POP PUSH1 0x20 DUP2 ADD SWAP1 POP SWAP2 SWAP1 POP JUMP JUMPDEST DUP3 DUP2 DUP4 CALLDATACOPY PUSH0 DUP4 DUP4 ADD MSTORE POP POP POP JUMP JUMPDEST PUSH0 PUSH2 0xE01 PUSH2 0xDFC DUP5 PUSH2 0xDB1 JUMP JUMPDEST PUSH2 0xD97 JUMP JUMPDEST SWAP1 POP DUP3 DUP2 MSTORE PUSH1 0x20 DUP2 ADD DUP5 DUP5 DUP5 ADD GT ISZERO PUSH2 0xE1D JUMPI PUSH2 0xE1C PUSH2 0xD35 JUMP JUMPDEST JUMPDEST PUSH2 0xE28 DUP5 DUP3 DUP6 PUSH2 0xDE1 JUMP JUMPDEST POP SWAP4 SWAP3 POP POP POP JUMP JUMPDEST PUSH0 DUP3 PUSH1 0x1F DUP4 ADD SLT PUSH2 0xE44 JUMPI PUSH2 0xE43 PUSH2 0xD31 JUMP JUMPDEST JUMPDEST DUP2 CALLDATALOAD PUSH2 0xE54 DUP5 DUP3 PUSH1 0x20 DUP7 ADD PUSH2 0xDEF JUMP JUMPDEST SWAP2 POP POP SWAP3 SWAP2 POP POP JUMP JUMPDEST PUSH2 0xE66 DUP2 PUSH2 0xC58 JUMP JUMPDEST DUP2 EQ PUSH2 0xE70 JUMPI PUSH0 DUP1 REVERT JUMPDEST POP JUMP JUMPDEST PUSH0 DUP2 CALLDATALOAD SWAP1 POP PUSH2 0xE81 DUP2 PUSH2 0xE5D JUMP JUMPDEST SWAP3 SWAP2 POP POP JUMP JUMPDEST PUSH0 DUP1 PUSH0 DUP1 PUSH1 0x80 DUP6 DUP8 SUB SLT ISZERO PUSH2 0xE9F JUMPI PUSH2 0xE9E PUSH2 0xB5D JUMP JUMPDEST JUMPDEST PUSH0 DUP6 ADD CALLDATALOAD PUSH8 0xFFFFFFFFFFFFFFFF DUP2 GT ISZERO PUSH2 0xEBC JUMPI PUSH2 0xEBB PUSH2 0xB61 JUMP JUMPDEST JUMPDEST PUSH2 0xEC8 DUP8 DUP3 DUP9 ADD PUSH2 0xE30 JUMP JUMPDEST SWAP5 POP POP PUSH1 0x20 PUSH2 0xED9 DUP8 DUP3 DUP9 ADD PUSH2 0xB7B JUMP JUMPDEST SWAP4 POP POP PUSH1 0x40 PUSH2 0xEEA DUP8 DUP3 DUP9 ADD PUSH2 0xB7B JUMP JUMPDEST SWAP3 POP POP PUSH1 0x60 PUSH2 0xEFB DUP8 DUP3 DUP9 ADD PUSH2 0xE73 JUMP JUMPDEST SWAP2 POP POP SWAP3 SWAP6 SWAP2 SWAP5 POP SWAP3 POP JUMP JUMPDEST PUSH0 DUP3 DUP3 MSTORE PUSH1 0x20 DUP3 ADD SWAP1 POP SWAP3 SWAP2 POP POP JUMP JUMPDEST PUSH0 PUSH2 0xF21 DUP3 PUSH2 0xBC9 JUMP JUMPDEST PUSH2 0xF2B DUP2 DUP6 PUSH2 0xF07 JUMP JUMPDEST SWAP4 POP PUSH2 0xF3B DUP2 DUP6 PUSH1 0x20 DUP7 ADD PUSH2 0xBE3 JUMP JUMPDEST PUSH2 0xF44 DUP2 PUSH2 0xBF1 JUMP JUMPDEST DUP5 ADD SWAP2 POP POP SWAP3 SWAP2 POP POP JUMP JUMPDEST PUSH2 0xF58 DUP2 PUSH2 0xC58 JUMP JUMPDEST DUP3 MSTORE POP POP JUMP JUMPDEST PUSH0 PUSH1 0xE0 DUP3 ADD SWAP1 POP PUSH2 0xF71 PUSH0 DUP4 ADD DUP11 PUSH2 0xB2C JUMP JUMPDEST DUP2 DUP2 SUB PUSH1 0x20 DUP4 ADD MSTORE PUSH2 0xF83 DUP2 DUP10 PUSH2 0xF17 JUMP JUMPDEST SWAP1 POP PUSH2 0xF92 PUSH1 0x40 DUP4 ADD DUP9 PUSH2 0xB2C JUMP JUMPDEST PUSH2 0xF9F PUSH1 0x60 DUP4 ADD DUP8 PUSH2 0xB2C JUMP JUMPDEST PUSH2 0xFAC PUSH1 0x80 DUP4 ADD DUP7 PUSH2 0xF4F JUMP JUMPDEST PUSH2 0xFB9 PUSH1 0xA0 DUP4 ADD DUP6 PUSH2 0xF4F JUMP JUMPDEST PUSH2 0xFC6 PUSH1 0xC0 DUP4 ADD DUP5 PUSH2 0xB2C JUMP JUMPDEST SWAP9 SWAP8 POP POP POP POP POP POP POP POP JUMP JUMPDEST PUSH0 DUP1 PUSH1 0x40 DUP4 DUP6 SUB SLT ISZERO PUSH2 0xFE8 JUMPI PUSH2 0xFE7 PUSH2 0xB5D JUMP JUMPDEST JUMPDEST PUSH0 PUSH2 0xFF5 DUP6 DUP3 DUP7 ADD PUSH2 0xB7B JUMP JUMPDEST SWAP3 POP POP PUSH1 0x20 PUSH2 0x1006 DUP6 DUP3 DUP7 ADD PUSH2 0xE73 JUMP JUMPDEST SWAP2 POP POP SWAP3 POP SWAP3 SWAP1 POP JUMP JUMPDEST PUSH0 PUSH1 0x20 DUP3 ADD SWAP1 POP PUSH2 0x1023 PUSH0 DUP4 ADD DUP5 PUSH2 0xF4F JUMP JUMPDEST SWAP3 SWAP2 POP POP JUMP JUMPDEST PUSH0 PUSH1 0x20 DUP3 DUP5 SUB SLT ISZERO PUSH2 0x103E JUMPI PUSH2 0x103D PUSH2 0xB5D JUMP JUMPDEST JUMPDEST PUSH0 PUSH2 0x104B DUP5 DUP3 DUP6 ADD PUSH2 0xE73 JUMP JUMPDEST SWAP2 POP POP SWAP3 SWAP2 POP POP JUMP JUMPDEST PUSH32 0x50726F647563744D616E616765723A20696E76616C69642070726F6475637420 PUSH0 DUP3 ADD MSTORE PUSH32 0x4944000000000000000000000000000000000000000000000000000000000000 PUSH1 0x20 DUP3 ADD MSTORE POP JUMP JUMPDEST PUSH0 PUSH2 0x10AE PUSH1 0x22 DUP4 PUSH2 0xF07 JUMP JUMPDEST SWAP2 POP PUSH2 0x10B9 DUP3 PUSH2 0x1054 JUMP JUMPDEST PUSH1 0x40 DUP3 ADD SWAP1 POP SWAP2 SWAP1 POP JUMP JUMPDEST PUSH0 PUSH1 0x20 DUP3 ADD SWAP1 POP DUP2 DUP2 SUB PUSH0 DUP4 ADD MSTORE PUSH2 0x10DB DUP2 PUSH2 0x10A2 JUMP JUMPDEST SWAP1 POP SWAP2 SWAP1 POP JUMP JUMPDEST PUSH32 0x4E487B7100000000000000000000000000000000000000000000000000000000 PUSH0 MSTORE PUSH1 0x32 PUSH1 0x4 MSTORE PUSH1 0x24 PUSH0 REVERT JUMPDEST PUSH32 0x4E487B7100000000000000000000000000000000000000000000000000000000 PUSH0 MSTORE PUSH1 0x22 PUSH1 0x4 MSTORE PUSH1 0x24 PUSH0 REVERT JUMPDEST PUSH0 PUSH1 0x2 DUP3 DIV SWAP1 POP PUSH1 0x1 DUP3 AND DUP1 PUSH2 0x1153 JUMPI PUSH1 0x7F DUP3 AND SWAP2 POP JUMPDEST PUSH1 0x20 DUP3 LT DUP2 SUB PUSH2 0x1166 JUMPI PUSH2 0x1165 PUSH2 0x110F JUMP JUMPDEST JUMPDEST POP SWAP2 SWAP1 POP JUMP JUMPDEST PUSH32 0x4F776E61626C653A2063616C6C6572206973206E6F7420746865206F776E6572 PUSH0 DUP3 ADD MSTORE POP JUMP JUMPDEST PUSH0 PUSH2 0x11A0 PUSH1 0x20 DUP4 PUSH2 0xF07 JUMP JUMPDEST SWAP2 POP PUSH2 0x11AB DUP3 PUSH2 0x116C JUMP JUMPDEST PUSH1 0x20 DUP3 ADD SWAP1 POP SWAP2 SWAP1 POP JUMP JUMPDEST PUSH0 PUSH1 0x20 DUP3 ADD SWAP1 POP DUP2 DUP2 SUB PUSH0 DUP4 ADD MSTORE PUSH2 0x11CD DUP2 PUSH2 0x1194 JUMP JUMPDEST SWAP1 POP SWAP2 SWAP1 POP JUMP JUMPDEST PUSH0 DUP2 SWAP1 POP DUP2 PUSH0 MSTORE PUSH1 0x20 PUSH0 KECCAK256 SWAP1 POP SWAP2 SWAP1 POP JUMP JUMPDEST PUSH0 PUSH1 0x20 PUSH1 0x1F DUP4 ADD DIV SWAP1 POP SWAP2 SWAP1 POP JUMP JUMPDEST PUSH0 DUP3 DUP3 SHL SWAP1 POP SWAP3 SWAP2 POP POP JUMP JUMPDEST PUSH0 PUSH1 0x8 DUP4 MUL PUSH2 0x1230 PUSH32 0xFFFFFFFFFFFFFFFFFFFFFFFFFFFFFFFFFFFFFFFFFFFFFFFFFFFFFFFFFFFFFFFF DUP3 PUSH2 0x11F5 JUMP JUMPDEST PUSH2 0x123A DUP7 DUP4 PUSH2 0x11F5 JUMP JUMPDEST SWAP6 POP DUP1 NOT DUP5 AND SWAP4 POP DUP1 DUP7 AND DUP5 OR SWAP3 POP POP POP SWAP4 SWAP3 POP POP POP JUMP JUMPDEST PUSH0 DUP2 SWAP1 POP SWAP2 SWAP1 POP JUMP JUMPDEST PUSH0 PUSH2 0x1275 PUSH2 0x1270 PUSH2 0x126B DUP5 PUSH2 0xB23 JUMP JUMPDEST PUSH2 0x1252 JUMP JUMPDEST PUSH2 0xB23 JUMP JUMPDEST SWAP1 POP SWAP2 SWAP1 POP JUMP JUMPDEST PUSH0 DUP2 SWAP1 POP SWAP2 SWAP1 POP JUMP JUMPDEST PUSH2 0x128E DUP4 PUSH2 0x125B JUMP JUMPDEST PUSH2 0x12A2 PUSH2 0x129A DUP3 PUSH2 0x127C JUMP JUMPDEST DUP5 DUP5 SLOAD PUSH2 0x1201 JUMP JUMPDEST DUP3 SSTORE POP POP POP POP JUMP JUMPDEST PUSH0 SWAP1 JUMP JUMPDEST PUSH2 0x12B6 PUSH2 0x12AA JUMP JUMPDEST PUSH2 0x12C1 DUP2 DUP5 DUP5 PUSH2 0x1285 JUMP JUMPDEST POP POP POP JUMP JUMPDEST JUMPDEST DUP2 DUP2 LT ISZERO PUSH2 0x12E4 JUMPI PUSH2 0x12D9 PUSH0 DUP3 PUSH2 0x12AE JUMP JUMPDEST PUSH1 0x1 DUP2 ADD SWAP1 POP PUSH2 0x12C7 JUMP JUMPDEST POP POP JUMP JUMPDEST PUSH1 0x1F DUP3 GT ISZERO PUSH2 0x1329 JUMPI PUSH2 0x12FA DUP2 PUSH2 0x11D4 JUMP JUMPDEST PUSH2 0x1303 DUP5 PUSH2 0x11E6 JUMP JUMPDEST DUP2 ADD PUSH1 0x20 DUP6 LT ISZERO PUSH2 0x1312 JUMPI DUP2 SWAP1 POP JUMPDEST PUSH2 0x1326 PUSH2 0x131E DUP6 PUSH2 0x11E6 JUMP JUMPDEST DUP4 ADD DUP3 PUSH2 0x12C6 JUMP JUMPDEST POP POP JUMPDEST POP POP POP JUMP JUMPDEST PUSH0 DUP3 DUP3 SHR SWAP1 POP SWAP3 SWAP2 POP POP JUMP JUMPDEST PUSH0 PUSH2 0x1349 PUSH0 NOT DUP5 PUSH1 0x8 MUL PUSH2 0x132E JUMP JUMPDEST NOT DUP1 DUP4 AND SWAP2 POP POP SWAP3 SWAP2 POP POP JUMP JUMPDEST PUSH0 PUSH2 0x1361 DUP4 DUP4 PUSH2 0x133A JUMP JUMPDEST SWAP2 POP DUP3 PUSH1 0x2 MUL DUP3 OR SWAP1 POP SWAP3 SWAP2 POP POP JUMP JUMPDEST PUSH2 0x137A DUP3 PUSH2 0xBC9 JUMP JUMPDEST PUSH8 0xFFFFFFFFFFFFFFFF DUP2 GT ISZERO PUSH2 0x1393 JUMPI PUSH2 0x1392 PUSH2 0xD39 JUMP JUMPDEST JUMPDEST PUSH2 0x139D DUP3 SLOAD PUSH2 0x113C JUMP JUMPDEST PUSH2 0x13A8 DUP3 DUP3 DUP6 PUSH2 0x12E8 JUMP JUMPDEST PUSH0 PUSH1 0x20 SWAP1 POP PUSH1 0x1F DUP4 GT PUSH1 0x1 DUP2 EQ PUSH2 0x13D9 JUMPI PUSH0 DUP5 ISZERO PUSH2 0x13C7 JUMPI DUP3 DUP8 ADD MLOAD SWAP1 POP JUMPDEST PUSH2 0x13D1 DUP6 DUP3 PUSH2 0x1356 JUMP JUMPDEST DUP7 SSTORE POP PUSH2 0x1438 JUMP JUMPDEST PUSH1 0x1F NOT DUP5 AND PUSH2 0x13E7 DUP7 PUSH2 0x11D4 JUMP JUMPDEST PUSH0 JUMPDEST DUP3 DUP2 LT ISZERO PUSH2 0x140E JUMPI DUP5 DUP10 ADD MLOAD DUP3 SSTORE PUSH1 0x1 DUP3 ADD SWAP2 POP PUSH1 0x20 DUP6 ADD SWAP5 POP PUSH1 0x20 DUP2 ADD SWAP1 POP PUSH2 0x13E9 JUMP JUMPDEST DUP7 DUP4 LT ISZERO PUSH2 0x142B JUMPI DUP5 DUP10 ADD MLOAD PUSH2 0x1427 PUSH1 0x1F DUP10 AND DUP3 PUSH2 0x133A JUMP JUMPDEST DUP4 SSTORE POP JUMPDEST PUSH1 0x1 PUSH1 0x2 DUP9 MUL ADD DUP9 SSTORE POP POP POP JUMPDEST POP POP POP POP POP POP JUMP JUMPDEST PUSH0 PUSH1 0x20 DUP3 ADD SWAP1 POP DUP2 DUP2 SUB PUSH0 DUP4 ADD MSTORE PUSH2 0x1458 DUP2 DUP5 PUSH2 0xF17 JUMP JUMPDEST SWAP1 POP SWAP3 SWAP2 POP POP JUMP JUMPDEST PUSH32 0x50726F647563744D616E616765723A2063616C6C6572206973206E6F74207468 PUSH0 DUP3 ADD MSTORE PUSH32 0x652063757272656E74206F776E65720000000000000000000000000000000000 PUSH1 0x20 DUP3 ADD MSTORE POP JUMP JUMPDEST PUSH0 PUSH2 0x14BA PUSH1 0x2F DUP4 PUSH2 0xF07 JUMP JUMPDEST SWAP2 POP PUSH2 0x14C5 DUP3 PUSH2 0x1460 JUMP JUMPDEST PUSH1 0x40 DUP3 ADD SWAP1 POP SWAP2 SWAP1 POP JUMP JUMPDEST PUSH0 PUSH1 0x20 DUP3 ADD SWAP1 POP DUP2 DUP2 SUB PUSH0 DUP4 ADD MSTORE PUSH2 0x14E7 DUP2 PUSH2 0x14AE JUMP JUMPDEST SWAP1 POP SWAP2 SWAP1 POP JUMP JUMPDEST PUSH32 0x4F776E61626C653A206E6577206F776E657220697320746865207A65726F2061 PUSH0 DUP3 ADD MSTORE PUSH32 0x6464726573730000000000000000000000000000000000000000000000000000 PUSH1 0x20 DUP3 ADD MSTORE POP JUMP JUMPDEST PUSH0 PUSH2 0x1548 PUSH1 0x26 DUP4 PUSH2 0xF07 JUMP JUMPDEST SWAP2 POP PUSH2 0x1553 DUP3 PUSH2 0x14EE JUMP JUMPDEST PUSH1 0x40 DUP3 ADD SWAP1 POP SWAP2 SWAP1 POP JUMP JUMPDEST PUSH0 PUSH1 0x20 DUP3 ADD SWAP1 POP DUP2 DUP2 SUB PUSH0 DUP4 ADD MSTORE PUSH2 0x1575 DUP2 PUSH2 0x153C JUMP JUMPDEST SWAP1 POP SWAP2 SWAP1 POP JUMP JUMPDEST PUSH32 0x4E487B7100000000000000000000000000000000000000000000000000000000 PUSH0 MSTORE PUSH1 0x11 PUSH1 0x4 MSTORE PUSH1 0x24 PUSH0 REVERT JUMPDEST PUSH0 PUSH2 0x15B3 DUP3 PUSH2 0xB23 JUMP JUMPDEST SWAP2 POP PUSH2 0x15BE DUP4 PUSH2 0xB23 JUMP JUMPDEST SWAP3 POP DUP3 DUP3 ADD SWAP1 POP DUP1 DUP3 GT ISZERO PUSH2 0x15D6 JUMPI PUSH2 0x15D5 PUSH2 0x157C JUMP JUMPDEST JUMPDEST SWAP3 SWAP2 POP POP JUMP JUMPDEST PUSH32 0x536166654D6174683A206164646974696F6E206F766572666C6F770000000000 PUSH0 DUP3 ADD MSTORE POP JUMP JUMPDEST PUSH0 PUSH2 0x1610 PUSH1 0x1B DUP4 PUSH2 0xF07 JUMP JUMPDEST SWAP2 POP PUSH2 0x161B DUP3 PUSH2 0x15DC JUMP JUMPDEST PUSH1 0x20 DUP3 ADD SWAP1 POP SWAP2 SWAP1 POP JUMP JUMPDEST PUSH0 PUSH1 0x20 DUP3 ADD SWAP1 POP DUP2 DUP2 SUB PUSH0 DUP4 ADD MSTORE PUSH2 0x163D DUP2 PUSH2 0x1604 JUMP JUMPDEST SWAP1 POP SWAP2 SWAP1 POP JUMP INVALID LOG2 PUSH5 0x6970667358 0x22 SLT KECCAK256 0xED DUP13 DUP8 PUSH27 0x8FC77BC3DD2D5C7F96C4BD31C91DCB8AB13B7011ABA94F95ED5885 0xB9 PUSH5 0x736F6C6343 STOP ADDMOD NOT STOP CALLER "
				},
				"gasEstimates": {
					"creation": {
						"codeDepositCost": "1150800",
						"executionCost": "32013",
						"totalCost": "1182813"
					},
					"external": {
						"createProduct(string,uint256,uint256,address)": "infinite",
						"getProductDetails(uint256)": "infinite",
						"nextProductId()": "2426",
						"owner()": "2559",
						"products(uint256)": "infinite",
						"transferOwnership(address)": "30658",
						"transferProductOwnership(uint256,address)": "62040"
					}
				},
				"methodIdentifiers": {
					"createProduct(string,uint256,uint256,address)": "72c60690",
					"getProductDetails(uint256)": "6813b53b",
					"nextProductId()": "4de91a63",
					"owner()": "8da5cb5b",
					"products(uint256)": "7acc0b20",
					"transferOwnership(address)": "f2fde38b",
					"transferProductOwnership(uint256,address)": "86b0e812"
				}
			},
			"storageLayout": {
				"storage": [
					{
						"astId": 87,
						"contract": "contracts/ProductManager.sol:ProductManager",
						"label": "_owner",
						"offset": 0,
						"slot": "0",
						"type": "t_address"
					},
					{
						"astId": 187,
						"contract": "contracts/ProductManager.sol:ProductManager",
						"label": "products",
						"offset": 0,
						"slot": "1",
						"type": "t_array(t_struct(Product)183_storage)dyn_storage"
					},
					{
						"astId": 189,
						"contract": "contracts/ProductManager.sol:ProductManager",
						"label": "nextProductId",
						"offset": 0,
						"slot": "2",
						"type": "t_uint256"
					}
				],
				"types": {
					"t_address": {
						"encoding": "inplace",
						"label": "address",
						"numberOfBytes": "20"
					},
					"t_array(t_struct(Product)183_storage)dyn_storage": {
						"base": "t_struct(Product)183_storage",
						"encoding": "dynamic_array",
						"label": "struct ProductManager.Product[]",
						"numberOfBytes": "32"
					},
					"t_string_storage": {
						"encoding": "bytes",
						"label": "string",
						"numberOfBytes": "32"
					},
					"t_struct(Product)183_storage": {
						"encoding": "inplace",
						"label": "struct ProductManager.Product",
						"members": [
							{
								"astId": 170,
								"contract": "contracts/ProductManager.sol:ProductManager",
								"label": "id",
								"offset": 0,
								"slot": "0",
								"type": "t_uint256"
							},
							{
								"astId": 172,
								"contract": "contracts/ProductManager.sol:ProductManager",
								"label": "name",
								"offset": 0,
								"slot": "1",
								"type": "t_string_storage"
							},
							{
								"astId": 174,
								"contract": "contracts/ProductManager.sol:ProductManager",
								"label": "lotNumber",
								"offset": 0,
								"slot": "2",
								"type": "t_uint256"
							},
							{
								"astId": 176,
								"contract": "contracts/ProductManager.sol:ProductManager",
								"label": "totalPerLot",
								"offset": 0,
								"slot": "3",
								"type": "t_uint256"
							},
							{
								"astId": 178,
								"contract": "contracts/ProductManager.sol:ProductManager",
								"label": "manufacturer",
								"offset": 0,
								"slot": "4",
								"type": "t_address"
							},
							{
								"astId": 180,
								"contract": "contracts/ProductManager.sol:ProductManager",
								"label": "currentOwner",
								"offset": 0,
								"slot": "5",
								"type": "t_address"
							},
							{
								"astId": 182,
								"contract": "contracts/ProductManager.sol:ProductManager",
								"label": "purchaseDate",
								"offset": 0,
								"slot": "6",
								"type": "t_uint256"
							}
						],
						"numberOfBytes": "224"
					},
					"t_uint256": {
						"encoding": "inplace",
						"label": "uint256",
						"numberOfBytes": "32"
					}
				}
			},
			"userdoc": {
				"kind": "user",
				"methods": {},
				"version": 1
			}
		}
	}
}