{
	"contracts/mainContract.sol": {
		"MainContract": {
			"abi": [
				{
					"anonymous": false,
					"inputs": [
						{
							"indexed": true,
							"internalType": "address",
							"name": "previousOwner",
							"type": "address"
						},
						{
							"indexed": true,
							"internalType": "address",
							"name": "newOwner",
							"type": "address"
						}
					],
					"name": "OwnershipTransferred",
					"type": "event"
				},
				{
					"anonymous": false,
					"inputs": [
						{
							"indexed": true,
							"internalType": "uint256",
							"name": "productId",
							"type": "uint256"
						},
						{
							"indexed": true,
							"internalType": "address",
							"name": "previousOwner",
							"type": "address"
						},
						{
							"indexed": true,
							"internalType": "address",
							"name": "newOwner",
							"type": "address"
						}
					],
					"name": "OwnershipTransferred",
					"type": "event"
				},
				{
					"anonymous": false,
					"inputs": [
						{
							"indexed": true,
							"internalType": "uint256",
							"name": "productId",
							"type": "uint256"
						},
						{
							"indexed": false,
							"internalType": "string",
							"name": "productName",
							"type": "string"
						}
					],
					"name": "ProductCreated",
					"type": "event"
				},
				{
					"anonymous": false,
					"inputs": [
						{
							"indexed": true,
							"internalType": "address",
							"name": "user",
							"type": "address"
						},
						{
							"indexed": true,
							"internalType": "uint256",
							"name": "role",
							"type": "uint256"
						}
					],
					"name": "RoleAssigned",
					"type": "event"
				},
				{
					"anonymous": false,
					"inputs": [
						{
							"indexed": true,
							"internalType": "address",
							"name": "user",
							"type": "address"
						},
						{
							"indexed": true,
							"internalType": "uint256",
							"name": "oldRole",
							"type": "uint256"
						}
					],
					"name": "RoleRevoked",
					"type": "event"
				},
				{
					"anonymous": false,
					"inputs": [
						{
							"indexed": true,
							"internalType": "address",
							"name": "addr",
							"type": "address"
						}
					],
					"name": "WhitelistedAddressAdded",
					"type": "event"
				},
				{
					"anonymous": false,
					"inputs": [
						{
							"indexed": true,
							"internalType": "address",
							"name": "addr",
							"type": "address"
						}
					],
					"name": "WhitelistedAddressRemoved",
					"type": "event"
				},
				{
					"inputs": [
						{
							"internalType": "address",
							"name": "addr",
							"type": "address"
						}
					],
					"name": "addAddressToWhitelist",
					"outputs": [],
					"stateMutability": "nonpayable",
					"type": "function"
				},
				{
					"inputs": [
						{
							"internalType": "address",
							"name": "addr",
							"type": "address"
						}
					],
					"name": "addToWhitelist",
					"outputs": [],
					"stateMutability": "nonpayable",
					"type": "function"
				},
				{
					"inputs": [
						{
							"internalType": "address",
							"name": "user",
							"type": "address"
						},
						{
							"internalType": "uint256",
							"name": "role",
							"type": "uint256"
						}
					],
					"name": "assignRole",
					"outputs": [],
					"stateMutability": "nonpayable",
					"type": "function"
				},
				{
					"inputs": [
						{
							"internalType": "address",
							"name": "user",
							"type": "address"
						},
						{
							"internalType": "uint256",
							"name": "role",
							"type": "uint256"
						}
					],
					"name": "assignUserRole",
					"outputs": [],
					"stateMutability": "nonpayable",
					"type": "function"
				},
				{
					"inputs": [
						{
							"internalType": "string",
							"name": "name",
							"type": "string"
						},
						{
							"internalType": "uint256",
							"name": "lotNumber",
							"type": "uint256"
						},
						{
							"internalType": "uint256",
							"name": "totalPerLot",
							"type": "uint256"
						},
						{
							"internalType": "address",
							"name": "manufacturer",
							"type": "address"
						}
					],
					"name": "createNewProduct",
					"outputs": [],
					"stateMutability": "nonpayable",
					"type": "function"
				},
				{
					"inputs": [
						{
							"internalType": "string",
							"name": "name",
							"type": "string"
						},
						{
							"internalType": "uint256",
							"name": "lotNumber",
							"type": "uint256"
						},
						{
							"internalType": "uint256",
							"name": "totalPerLot",
							"type": "uint256"
						},
						{
							"internalType": "address",
							"name": "manufacturer",
							"type": "address"
						}
					],
					"name": "createProduct",
					"outputs": [],
					"stateMutability": "nonpayable",
					"type": "function"
				},
				{
					"inputs": [
						{
							"internalType": "uint256",
							"name": "productId",
							"type": "uint256"
						}
					],
					"name": "getProductDetails",
					"outputs": [
						{
							"components": [
								{
									"internalType": "uint256",
									"name": "id",
									"type": "uint256"
								},
								{
									"internalType": "string",
									"name": "name",
									"type": "string"
								},
								{
									"internalType": "uint256",
									"name": "lotNumber",
									"type": "uint256"
								},
								{
									"internalType": "uint256",
									"name": "totalPerLot",
									"type": "uint256"
								},
								{
									"internalType": "address",
									"name": "manufacturer",
									"type": "address"
								},
								{
									"internalType": "address",
									"name": "currentOwner",
									"type": "address"
								},
								{
									"internalType": "uint256",
									"name": "purchaseDate",
									"type": "uint256"
								}
							],
							"internalType": "struct ProductManager.Product",
							"name": "",
							"type": "tuple"
						}
					],
					"stateMutability": "view",
					"type": "function"
				},
				{
					"inputs": [
						{
							"internalType": "address",
							"name": "addr",
							"type": "address"
						}
					],
					"name": "isWhitelisted",
					"outputs": [
						{
							"internalType": "bool",
							"name": "",
							"type": "bool"
						}
					],
					"stateMutability": "view",
					"type": "function"
				},
				{
					"inputs": [],
					"name": "nextProductId",
					"outputs": [
						{
							"internalType": "uint256",
							"name": "",
							"type": "uint256"
						}
					],
					"stateMutability": "view",
					"type": "function"
				},
				{
					"inputs": [],
					"name": "owner",
					"outputs": [
						{
							"internalType": "address",
							"name": "",
							"type": "address"
						}
					],
					"stateMutability": "view",
					"type": "function"
				},
				{
					"inputs": [
						{
							"internalType": "uint256",
							"name": "",
							"type": "uint256"
						}
					],
					"name": "products",
					"outputs": [
						{
							"internalType": "uint256",
							"name": "id",
							"type": "uint256"
						},
						{
							"internalType": "string",
							"name": "name",
							"type": "string"
						},
						{
							"internalType": "uint256",
							"name": "lotNumber",
							"type": "uint256"
						},
						{
							"internalType": "uint256",
							"name": "totalPerLot",
							"type": "uint256"
						},
						{
							"internalType": "address",
							"name": "manufacturer",
							"type": "address"
						},
						{
							"internalType": "address",
							"name": "currentOwner",
							"type": "address"
						},
						{
							"internalType": "uint256",
							"name": "purchaseDate",
							"type": "uint256"
						}
					],
					"stateMutability": "view",
					"type": "function"
				},
				{
					"inputs": [
						{
							"internalType": "address",
							"name": "addr",
							"type": "address"
						}
					],
					"name": "removeAddressFromWhitelist",
					"outputs": [],
					"stateMutability": "nonpayable",
					"type": "function"
				},
				{
					"inputs": [
						{
							"internalType": "address",
							"name": "addr",
							"type": "address"
						}
					],
					"name": "removeFromWhitelist",
					"outputs": [],
					"stateMutability": "nonpayable",
					"type": "function"
				},
				{
					"inputs": [
						{
							"internalType": "address",
							"name": "user",
							"type": "address"
						}
					],
					"name": "revokeRole",
					"outputs": [],
					"stateMutability": "nonpayable",
					"type": "function"
				},
				{
					"inputs": [
						{
							"internalType": "address",
							"name": "user",
							"type": "address"
						}
					],
					"name": "revokeUserRole",
					"outputs": [],
					"stateMutability": "nonpayable",
					"type": "function"
				},
				{
					"inputs": [
						{
							"internalType": "address",
							"name": "",
							"type": "address"
						}
					],
					"name": "roles",
					"outputs": [
						{
							"internalType": "uint256",
							"name": "",
							"type": "uint256"
						}
					],
					"stateMutability": "view",
					"type": "function"
				},
				{
					"inputs": [
						{
							"internalType": "address",
							"name": "newOwner",
							"type": "address"
						}
					],
					"name": "transferOwnership",
					"outputs": [],
					"stateMutability": "nonpayable",
					"type": "function"
				},
				{
					"inputs": [
						{
							"internalType": "uint256",
							"name": "productId",
							"type": "uint256"
						},
						{
							"internalType": "address",
							"name": "newOwner",
							"type": "address"
						}
					],
					"name": "transferProduct",
					"outputs": [],
					"stateMutability": "nonpayable",
					"type": "function"
				},
				{
					"inputs": [
						{
							"internalType": "uint256",
							"name": "productId",
							"type": "uint256"
						},
						{
							"internalType": "address",
							"name": "newOwner",
							"type": "address"
						}
					],
					"name": "transferProductOwnership",
					"outputs": [],
					"stateMutability": "nonpayable",
					"type": "function"
				}
			],
			"devdoc": {
				"kind": "dev",
				"methods": {},
				"version": 1
			},
			"evm": {
				"assembly": "    /* \"contracts/mainContract.sol\":184:1706  contract MainContract is Ownable, WhitelistManager, ProductManager, AccessControl {... */\n  mstore(0x40, 0x80)\n  callvalue\n  dup1\n  iszero\n  tag_1\n  jumpi\n  0x00\n  dup1\n  revert\ntag_1:\n  pop\n    /* \"contracts/Ownable.sol\":232:242  msg.sender */\n  caller\n    /* \"contracts/Ownable.sol\":223:229  _owner */\n  0x00\n  dup1\n    /* \"contracts/Ownable.sol\":223:242  _owner = msg.sender */\n  0x0100\n  exp\n  dup2\n  sload\n  dup2\n  0xffffffffffffffffffffffffffffffffffffffff\n  mul\n  not\n  and\n  swap1\n  dup4\n  0xffffffffffffffffffffffffffffffffffffffff\n  and\n  mul\n  or\n  swap1\n  sstore\n  pop\n    /* \"contracts/Ownable.sol\":290:300  msg.sender */\n  caller\n    /* \"contracts/Ownable.sol\":257:301  OwnershipTransferred(address(0), msg.sender) */\n  0xffffffffffffffffffffffffffffffffffffffff\n  and\n    /* \"contracts/Ownable.sol\":286:287  0 */\n  0x00\n    /* \"contracts/Ownable.sol\":257:301  OwnershipTransferred(address(0), msg.sender) */\n  0xffffffffffffffffffffffffffffffffffffffff\n  and\n  0x8be0079c531659141344cd1fd0a4f28419497f9722a3daafe3b4186f6b6457e0\n  mload(0x40)\n  mload(0x40)\n  dup1\n  swap2\n  sub\n  swap1\n  log3\n    /* \"contracts/ProductManager.sol\":728:729  0 */\n  0x00\n    /* \"contracts/ProductManager.sol\":712:725  nextProductId */\n  0x03\n    /* \"contracts/ProductManager.sol\":712:729  nextProductId = 0 */\n  dup2\n  swap1\n  sstore\n  pop\n    /* \"contracts/mainContract.sol\":184:1706  contract MainContract is Ownable, WhitelistManager, ProductManager, AccessControl {... */\n  dataSize(sub_0)\n  dup1\n  dataOffset(sub_0)\n  0x00\n  codecopy\n  0x00\n  return\nstop\n\nsub_0: assembly {\n        /* \"contracts/mainContract.sol\":184:1706  contract MainContract is Ownable, WhitelistManager, ProductManager, AccessControl {... */\n      mstore(0x40, 0x80)\n      callvalue\n      dup1\n      iszero\n      tag_1\n      jumpi\n      0x00\n      dup1\n      revert\n    tag_1:\n      pop\n      jumpi(tag_2, lt(calldatasize, 0x04))\n      shr(0xe0, calldataload(0x00))\n      dup1\n      0x80e52e3f\n      gt\n      tag_22\n      jumpi\n      dup1\n      0xbd73b25d\n      gt\n      tag_23\n      jumpi\n      dup1\n      0xbd73b25d\n      eq\n      tag_17\n      jumpi\n      dup1\n      0xdd9f09e4\n      eq\n      tag_18\n      jumpi\n      dup1\n      0xe43059e5\n      eq\n      tag_19\n      jumpi\n      dup1\n      0xe43252d7\n      eq\n      tag_20\n      jumpi\n      dup1\n      0xf2fde38b\n      eq\n      tag_21\n      jumpi\n      jump(tag_2)\n    tag_23:\n      dup1\n      0x80e52e3f\n      eq\n      tag_12\n      jumpi\n      dup1\n      0x86b0e812\n      eq\n      tag_13\n      jumpi\n      dup1\n      0x8ab1d681\n      eq\n      tag_14\n      jumpi\n      dup1\n      0x8da5cb5b\n      eq\n      tag_15\n      jumpi\n      dup1\n      0x99374642\n      eq\n      tag_16\n      jumpi\n      jump(tag_2)\n    tag_22:\n      dup1\n      0x6813b53b\n      gt\n      tag_24\n      jumpi\n      dup1\n      0x6813b53b\n      eq\n      tag_7\n      jumpi\n      dup1\n      0x6e53c7b9\n      eq\n      tag_8\n      jumpi\n      dup1\n      0x72c60690\n      eq\n      tag_9\n      jumpi\n      dup1\n      0x7acc0b20\n      eq\n      tag_10\n      jumpi\n      dup1\n      0x7b9417c8\n      eq\n      tag_11\n      jumpi\n      jump(tag_2)\n    tag_24:\n      dup1\n      0x286dd3f5\n      eq\n      tag_3\n      jumpi\n      dup1\n      0x2e3036c7\n      eq\n      tag_4\n      jumpi\n      dup1\n      0x3af32abf\n      eq\n      tag_5\n      jumpi\n      dup1\n      0x4de91a63\n      eq\n      tag_6\n      jumpi\n    tag_2:\n      0x00\n      dup1\n      revert\n        /* \"contracts/WhitelistManager.sol\":530:770  function removeAddressFromWhitelist(address addr) public onlyOwner {... */\n    tag_3:\n      tag_25\n      0x04\n      dup1\n      calldatasize\n      sub\n      dup2\n      add\n      swap1\n      tag_26\n      swap2\n      swap1\n      tag_27\n      jump\t// in\n    tag_26:\n      tag_28\n      jump\t// in\n    tag_25:\n      stop\n        /* \"contracts/AccessControl.sol\":400:542  function assignRole(address user, uint256 role) public onlyOwner {... */\n    tag_4:\n      tag_29\n      0x04\n      dup1\n      calldatasize\n      sub\n      dup2\n      add\n      swap1\n      tag_30\n      swap2\n      swap1\n      tag_31\n      jump\t// in\n    tag_30:\n      tag_32\n      jump\t// in\n    tag_29:\n      stop\n        /* \"contracts/WhitelistManager.sol\":776:880  function isWhitelisted(address addr) public view returns (bool) {... */\n    tag_5:\n      tag_33\n      0x04\n      dup1\n      calldatasize\n      sub\n      dup2\n      add\n      swap1\n      tag_34\n      swap2\n      swap1\n      tag_27\n      jump\t// in\n    tag_34:\n      tag_35\n      jump\t// in\n    tag_33:\n      mload(0x40)\n      tag_36\n      swap2\n      swap1\n      tag_37\n      jump\t// in\n    tag_36:\n      mload(0x40)\n      dup1\n      swap2\n      sub\n      swap1\n      return\n        /* \"contracts/ProductManager.sol\":447:475  uint256 public nextProductId */\n    tag_6:\n      tag_38\n      tag_39\n      jump\t// in\n    tag_38:\n      mload(0x40)\n      tag_40\n      swap2\n      swap1\n      tag_41\n      jump\t// in\n    tag_40:\n      mload(0x40)\n      dup1\n      swap2\n      sub\n      swap1\n      return\n        /* \"contracts/ProductManager.sol\":1869:2080  function getProductDetails(uint256 productId) public view returns (Product memory) {... */\n    tag_7:\n      tag_42\n      0x04\n      dup1\n      calldatasize\n      sub\n      dup2\n      add\n      swap1\n      tag_43\n      swap2\n      swap1\n      tag_44\n      jump\t// in\n    tag_43:\n      tag_45\n      jump\t// in\n    tag_42:\n      mload(0x40)\n      tag_46\n      swap2\n      swap1\n      tag_47\n      jump\t// in\n    tag_46:\n      mload(0x40)\n      dup1\n      swap2\n      sub\n      swap1\n      return\n        /* \"contracts/mainContract.sol\":1375:1491  function assignUserRole(address user, uint256 role) public onlyOwner {... */\n    tag_8:\n      tag_48\n      0x04\n      dup1\n      calldatasize\n      sub\n      dup2\n      add\n      swap1\n      tag_49\n      swap2\n      swap1\n      tag_31\n      jump\t// in\n    tag_49:\n      tag_50\n      jump\t// in\n    tag_48:\n      stop\n        /* \"contracts/ProductManager.sol\":745:1359  function createProduct(string memory name, uint256 lotNumber, uint256 totalPerLot, address manufacturer) public onlyOwner {... */\n    tag_9:\n      tag_51\n      0x04\n      dup1\n      calldatasize\n      sub\n      dup2\n      add\n      swap1\n      tag_52\n      swap2\n      swap1\n      tag_53\n      jump\t// in\n    tag_52:\n      tag_54\n      jump\t// in\n    tag_51:\n      stop\n        /* \"contracts/ProductManager.sol\":415:440  Product[] public products */\n    tag_10:\n      tag_55\n      0x04\n      dup1\n      calldatasize\n      sub\n      dup2\n      add\n      swap1\n      tag_56\n      swap2\n      swap1\n      tag_44\n      jump\t// in\n    tag_56:\n      tag_57\n      jump\t// in\n    tag_55:\n      mload(0x40)\n      tag_58\n      swap8\n      swap7\n      swap6\n      swap5\n      swap4\n      swap3\n      swap2\n      swap1\n      tag_59\n      jump\t// in\n    tag_58:\n      mload(0x40)\n      dup1\n      swap2\n      sub\n      swap1\n      return\n        /* \"contracts/WhitelistManager.sol\":292:524  function addAddressToWhitelist(address addr) public onlyOwner {... */\n    tag_11:\n      tag_60\n      0x04\n      dup1\n      calldatasize\n      sub\n      dup2\n      add\n      swap1\n      tag_61\n      swap2\n      swap1\n      tag_27\n      jump\t// in\n    tag_61:\n      tag_62\n      jump\t// in\n    tag_60:\n      stop\n        /* \"contracts/AccessControl.sol\":550:736  function revokeRole(address user) public onlyOwner {... */\n    tag_12:\n      tag_63\n      0x04\n      dup1\n      calldatasize\n      sub\n      dup2\n      add\n      swap1\n      tag_64\n      swap2\n      swap1\n      tag_27\n      jump\t// in\n    tag_64:\n      tag_65\n      jump\t// in\n    tag_63:\n      stop\n        /* \"contracts/ProductManager.sol\":1367:1861  function transferProductOwnership(uint256 productId, address newOwner) public {... */\n    tag_13:\n      tag_66\n      0x04\n      dup1\n      calldatasize\n      sub\n      dup2\n      add\n      swap1\n      tag_67\n      swap2\n      swap1\n      tag_68\n      jump\t// in\n    tag_67:\n      tag_69\n      jump\t// in\n    tag_66:\n      stop\n        /* \"contracts/mainContract.sol\":586:703  function removeFromWhitelist(address addr) public onlyOwner {... */\n    tag_14:\n      tag_70\n      0x04\n      dup1\n      calldatasize\n      sub\n      dup2\n      add\n      swap1\n      tag_71\n      swap2\n      swap1\n      tag_27\n      jump\t// in\n    tag_71:\n      tag_72\n      jump\t// in\n    tag_70:\n      stop\n        /* \"contracts/Ownable.sol\":314:391  function owner() public view returns (address) {... */\n    tag_15:\n      tag_73\n      tag_74\n      jump\t// in\n    tag_73:\n      mload(0x40)\n      tag_75\n      swap2\n      swap1\n      tag_76\n      jump\t// in\n    tag_75:\n      mload(0x40)\n      dup1\n      swap2\n      sub\n      swap1\n      return\n        /* \"contracts/AccessControl.sol\":128:168  mapping(address => uint256) public roles */\n    tag_16:\n      tag_77\n      0x04\n      dup1\n      calldatasize\n      sub\n      dup2\n      add\n      swap1\n      tag_78\n      swap2\n      swap1\n      tag_27\n      jump\t// in\n    tag_78:\n      tag_79\n      jump\t// in\n    tag_77:\n      mload(0x40)\n      tag_80\n      swap2\n      swap1\n      tag_41\n      jump\t// in\n    tag_80:\n      mload(0x40)\n      dup1\n      swap2\n      sub\n      swap1\n      return\n        /* \"contracts/mainContract.sol\":1533:1629  function revokeUserRole(address user) public onlyOwner {... */\n    tag_17:\n      tag_81\n      0x04\n      dup1\n      calldatasize\n      sub\n      dup2\n      add\n      swap1\n      tag_82\n      swap2\n      swap1\n      tag_27\n      jump\t// in\n    tag_82:\n      tag_83\n      jump\t// in\n    tag_81:\n      stop\n        /* \"contracts/mainContract.sol\":752:1046  function createNewProduct(string memory name, uint256 lotNumber, uint256 totalPerLot, address manufacturer) public {... */\n    tag_18:\n      tag_84\n      0x04\n      dup1\n      calldatasize\n      sub\n      dup2\n      add\n      swap1\n      tag_85\n      swap2\n      swap1\n      tag_53\n      jump\t// in\n    tag_85:\n      tag_86\n      jump\t// in\n    tag_84:\n      stop\n        /* \"contracts/mainContract.sol\":1106:1335  function transferProduct(uint256 productId, address newOwner) public {... */\n    tag_19:\n      tag_87\n      0x04\n      dup1\n      calldatasize\n      sub\n      dup2\n      add\n      swap1\n      tag_88\n      swap2\n      swap1\n      tag_68\n      jump\t// in\n    tag_88:\n      tag_89\n      jump\t// in\n    tag_87:\n      stop\n        /* \"contracts/mainContract.sol\":414:521  function addToWhitelist(address addr) public onlyOwner {... */\n    tag_20:\n      tag_90\n      0x04\n      dup1\n      calldatasize\n      sub\n      dup2\n      add\n      swap1\n      tag_91\n      swap2\n      swap1\n      tag_27\n      jump\t// in\n    tag_91:\n      tag_92\n      jump\t// in\n    tag_90:\n      stop\n        /* \"contracts/Ownable.sol\":517:749  function transferOwnership(address newOwner) public onlyOwner {... */\n    tag_21:\n      tag_93\n      0x04\n      dup1\n      calldatasize\n      sub\n      dup2\n      add\n      swap1\n      tag_94\n      swap2\n      swap1\n      tag_27\n      jump\t// in\n    tag_94:\n      tag_95\n      jump\t// in\n    tag_93:\n      stop\n        /* \"contracts/WhitelistManager.sol\":530:770  function removeAddressFromWhitelist(address addr) public onlyOwner {... */\n    tag_28:\n        /* \"contracts/Ownable.sol\":446:456  msg.sender */\n      caller\n        /* \"contracts/Ownable.sol\":436:456  _owner == msg.sender */\n      0xffffffffffffffffffffffffffffffffffffffff\n      and\n        /* \"contracts/Ownable.sol\":436:442  _owner */\n      0x00\n      dup1\n      sload\n      swap1\n      0x0100\n      exp\n      swap1\n      div\n      0xffffffffffffffffffffffffffffffffffffffff\n      and\n        /* \"contracts/Ownable.sol\":436:456  _owner == msg.sender */\n      0xffffffffffffffffffffffffffffffffffffffff\n      and\n      eq\n        /* \"contracts/Ownable.sol\":428:493  require(_owner == msg.sender, \"Ownable: caller is not the owner\") */\n      tag_97\n      jumpi\n      mload(0x40)\n      0x08c379a000000000000000000000000000000000000000000000000000000000\n      dup2\n      mstore\n      0x04\n      add\n      tag_98\n      swap1\n      tag_99\n      jump\t// in\n    tag_98:\n      mload(0x40)\n      dup1\n      swap2\n      sub\n      swap1\n      revert\n    tag_97:\n        /* \"contracts/WhitelistManager.sol\":631:632  0 */\n      0x00\n        /* \"contracts/WhitelistManager.sol\":615:633  addr != address(0) */\n      0xffffffffffffffffffffffffffffffffffffffff\n      and\n        /* \"contracts/WhitelistManager.sol\":615:619  addr */\n      dup2\n        /* \"contracts/WhitelistManager.sol\":615:633  addr != address(0) */\n      0xffffffffffffffffffffffffffffffffffffffff\n      and\n      sub\n        /* \"contracts/WhitelistManager.sol\":607:683  require(addr != address(0), \"WhitelistManager: address is the zero address\") */\n      tag_101\n      jumpi\n      mload(0x40)\n      0x08c379a000000000000000000000000000000000000000000000000000000000\n      dup2\n      mstore\n      0x04\n      add\n      tag_102\n      swap1\n      tag_103\n      jump\t// in\n    tag_102:\n      mload(0x40)\n      dup1\n      swap2\n      sub\n      swap1\n      revert\n    tag_101:\n        /* \"contracts/WhitelistManager.sol\":712:717  false */\n      0x00\n        /* \"contracts/WhitelistManager.sol\":693:703  _whitelist */\n      0x01\n        /* \"contracts/WhitelistManager.sol\":693:709  _whitelist[addr] */\n      0x00\n        /* \"contracts/WhitelistManager.sol\":704:708  addr */\n      dup4\n        /* \"contracts/WhitelistManager.sol\":693:709  _whitelist[addr] */\n      0xffffffffffffffffffffffffffffffffffffffff\n      and\n      0xffffffffffffffffffffffffffffffffffffffff\n      and\n      dup2\n      mstore\n      0x20\n      add\n      swap1\n      dup2\n      mstore\n      0x20\n      add\n      0x00\n      keccak256\n      0x00\n        /* \"contracts/WhitelistManager.sol\":693:717  _whitelist[addr] = false */\n      0x0100\n      exp\n      dup2\n      sload\n      dup2\n      0xff\n      mul\n      not\n      and\n      swap1\n      dup4\n      iszero\n      iszero\n      mul\n      or\n      swap1\n      sstore\n      pop\n        /* \"contracts/WhitelistManager.sol\":758:762  addr */\n      dup1\n        /* \"contracts/WhitelistManager.sol\":732:763  WhitelistedAddressRemoved(addr) */\n      0xffffffffffffffffffffffffffffffffffffffff\n      and\n      0xf1abf01a1043b7c244d128e8595cf0c1d10743b022b03a02dffd8ca3bf729f5a\n      mload(0x40)\n      mload(0x40)\n      dup1\n      swap2\n      sub\n      swap1\n      log2\n        /* \"contracts/WhitelistManager.sol\":530:770  function removeAddressFromWhitelist(address addr) public onlyOwner {... */\n      pop\n      jump\t// out\n        /* \"contracts/AccessControl.sol\":400:542  function assignRole(address user, uint256 role) public onlyOwner {... */\n    tag_32:\n        /* \"contracts/Ownable.sol\":446:456  msg.sender */\n      caller\n        /* \"contracts/Ownable.sol\":436:456  _owner == msg.sender */\n      0xffffffffffffffffffffffffffffffffffffffff\n      and\n        /* \"contracts/Ownable.sol\":436:442  _owner */\n      0x00\n      dup1\n      sload\n      swap1\n      0x0100\n      exp\n      swap1\n      div\n      0xffffffffffffffffffffffffffffffffffffffff\n      and\n        /* \"contracts/Ownable.sol\":436:456  _owner == msg.sender */\n      0xffffffffffffffffffffffffffffffffffffffff\n      and\n      eq\n        /* \"contracts/Ownable.sol\":428:493  require(_owner == msg.sender, \"Ownable: caller is not the owner\") */\n      tag_105\n      jumpi\n      mload(0x40)\n      0x08c379a000000000000000000000000000000000000000000000000000000000\n      dup2\n      mstore\n      0x04\n      add\n      tag_106\n      swap1\n      tag_99\n      jump\t// in\n    tag_106:\n      mload(0x40)\n      dup1\n      swap2\n      sub\n      swap1\n      revert\n    tag_105:\n        /* \"contracts/AccessControl.sol\":490:494  role */\n      dup1\n        /* \"contracts/AccessControl.sol\":476:481  roles */\n      0x04\n        /* \"contracts/AccessControl.sol\":476:487  roles[user] */\n      0x00\n        /* \"contracts/AccessControl.sol\":482:486  user */\n      dup5\n        /* \"contracts/AccessControl.sol\":476:487  roles[user] */\n      0xffffffffffffffffffffffffffffffffffffffff\n      and\n      0xffffffffffffffffffffffffffffffffffffffff\n      and\n      dup2\n      mstore\n      0x20\n      add\n      swap1\n      dup2\n      mstore\n      0x20\n      add\n      0x00\n      keccak256\n        /* \"contracts/AccessControl.sol\":476:494  roles[user] = role */\n      dup2\n      swap1\n      sstore\n      pop\n        /* \"contracts/AccessControl.sol\":529:533  role */\n      dup1\n        /* \"contracts/AccessControl.sol\":523:527  user */\n      dup3\n        /* \"contracts/AccessControl.sol\":510:534  RoleAssigned(user, role) */\n      0xffffffffffffffffffffffffffffffffffffffff\n      and\n      0xe2ac27c5c810aead8fa29780fdca1995888a2f0e6b8128a1316e116960b009f8\n      mload(0x40)\n      mload(0x40)\n      dup1\n      swap2\n      sub\n      swap1\n      log3\n        /* \"contracts/AccessControl.sol\":400:542  function assignRole(address user, uint256 role) public onlyOwner {... */\n      pop\n      pop\n      jump\t// out\n        /* \"contracts/WhitelistManager.sol\":776:880  function isWhitelisted(address addr) public view returns (bool) {... */\n    tag_35:\n        /* \"contracts/WhitelistManager.sol\":834:838  bool */\n      0x00\n        /* \"contracts/WhitelistManager.sol\":857:867  _whitelist */\n      0x01\n        /* \"contracts/WhitelistManager.sol\":857:873  _whitelist[addr] */\n      0x00\n        /* \"contracts/WhitelistManager.sol\":868:872  addr */\n      dup4\n        /* \"contracts/WhitelistManager.sol\":857:873  _whitelist[addr] */\n      0xffffffffffffffffffffffffffffffffffffffff\n      and\n      0xffffffffffffffffffffffffffffffffffffffff\n      and\n      dup2\n      mstore\n      0x20\n      add\n      swap1\n      dup2\n      mstore\n      0x20\n      add\n      0x00\n      keccak256\n      0x00\n      swap1\n      sload\n      swap1\n      0x0100\n      exp\n      swap1\n      div\n      0xff\n      and\n        /* \"contracts/WhitelistManager.sol\":850:873  return _whitelist[addr] */\n      swap1\n      pop\n        /* \"contracts/WhitelistManager.sol\":776:880  function isWhitelisted(address addr) public view returns (bool) {... */\n      swap2\n      swap1\n      pop\n      jump\t// out\n        /* \"contracts/ProductManager.sol\":447:475  uint256 public nextProductId */\n    tag_39:\n      sload(0x03)\n      dup2\n      jump\t// out\n        /* \"contracts/ProductManager.sol\":1869:2080  function getProductDetails(uint256 productId) public view returns (Product memory) {... */\n    tag_45:\n        /* \"contracts/ProductManager.sol\":1936:1950  Product memory */\n      tag_109\n      tag_110\n      jump\t// in\n    tag_109:\n        /* \"contracts/ProductManager.sol\":1983:1996  nextProductId */\n      sload(0x03)\n        /* \"contracts/ProductManager.sol\":1971:1980  productId */\n      dup3\n        /* \"contracts/ProductManager.sol\":1971:1996  productId < nextProductId */\n      lt\n        /* \"contracts/ProductManager.sol\":1963:2035  require(productId < nextProductId, \"ProductManager: invalid product ID\") */\n      tag_112\n      jumpi\n      mload(0x40)\n      0x08c379a000000000000000000000000000000000000000000000000000000000\n      dup2\n      mstore\n      0x04\n      add\n      tag_113\n      swap1\n      tag_114\n      jump\t// in\n    tag_113:\n      mload(0x40)\n      dup1\n      swap2\n      sub\n      swap1\n      revert\n    tag_112:\n        /* \"contracts/ProductManager.sol\":2053:2061  products */\n      0x02\n        /* \"contracts/ProductManager.sol\":2062:2071  productId */\n      dup3\n        /* \"contracts/ProductManager.sol\":2053:2072  products[productId] */\n      dup2\n      sload\n      dup2\n      lt\n      tag_115\n      jumpi\n      tag_116\n      tag_117\n      jump\t// in\n    tag_116:\n    tag_115:\n      swap1\n      0x00\n      mstore\n      keccak256(0x00, 0x20)\n      swap1\n      0x07\n      mul\n      add\n        /* \"contracts/ProductManager.sol\":2046:2072  return products[productId] */\n      mload(0x40)\n      dup1\n      0xe0\n      add\n      0x40\n      mstore\n      swap1\n      dup2\n      0x00\n      dup3\n      add\n      sload\n      dup2\n      mstore\n      0x20\n      add\n      0x01\n      dup3\n      add\n      dup1\n      sload\n      tag_119\n      swap1\n      tag_120\n      jump\t// in\n    tag_119:\n      dup1\n      0x1f\n      add\n      0x20\n      dup1\n      swap2\n      div\n      mul\n      0x20\n      add\n      mload(0x40)\n      swap1\n      dup2\n      add\n      0x40\n      mstore\n      dup1\n      swap3\n      swap2\n      swap1\n      dup2\n      dup2\n      mstore\n      0x20\n      add\n      dup3\n      dup1\n      sload\n      tag_121\n      swap1\n      tag_120\n      jump\t// in\n    tag_121:\n      dup1\n      iszero\n      tag_122\n      jumpi\n      dup1\n      0x1f\n      lt\n      tag_123\n      jumpi\n      0x0100\n      dup1\n      dup4\n      sload\n      div\n      mul\n      dup4\n      mstore\n      swap2\n      0x20\n      add\n      swap2\n      jump(tag_122)\n    tag_123:\n      dup3\n      add\n      swap2\n      swap1\n      0x00\n      mstore\n      keccak256(0x00, 0x20)\n      swap1\n    tag_124:\n      dup2\n      sload\n      dup2\n      mstore\n      swap1\n      0x01\n      add\n      swap1\n      0x20\n      add\n      dup1\n      dup4\n      gt\n      tag_124\n      jumpi\n      dup3\n      swap1\n      sub\n      0x1f\n      and\n      dup3\n      add\n      swap2\n    tag_122:\n      pop\n      pop\n      pop\n      pop\n      pop\n      dup2\n      mstore\n      0x20\n      add\n      0x02\n      dup3\n      add\n      sload\n      dup2\n      mstore\n      0x20\n      add\n      0x03\n      dup3\n      add\n      sload\n      dup2\n      mstore\n      0x20\n      add\n      0x04\n      dup3\n      add\n      0x00\n      swap1\n      sload\n      swap1\n      0x0100\n      exp\n      swap1\n      div\n      0xffffffffffffffffffffffffffffffffffffffff\n      and\n      0xffffffffffffffffffffffffffffffffffffffff\n      and\n      0xffffffffffffffffffffffffffffffffffffffff\n      and\n      dup2\n      mstore\n      0x20\n      add\n      0x05\n      dup3\n      add\n      0x00\n      swap1\n      sload\n      swap1\n      0x0100\n      exp\n      swap1\n      div\n      0xffffffffffffffffffffffffffffffffffffffff\n      and\n      0xffffffffffffffffffffffffffffffffffffffff\n      and\n      0xffffffffffffffffffffffffffffffffffffffff\n      and\n      dup2\n      mstore\n      0x20\n      add\n      0x06\n      dup3\n      add\n      sload\n      dup2\n      mstore\n      pop\n      pop\n      swap1\n      pop\n        /* \"contracts/ProductManager.sol\":1869:2080  function getProductDetails(uint256 productId) public view returns (Product memory) {... */\n      swap2\n      swap1\n      pop\n      jump\t// out\n        /* \"contracts/mainContract.sol\":1375:1491  function assignUserRole(address user, uint256 role) public onlyOwner {... */\n    tag_50:\n        /* \"contracts/Ownable.sol\":446:456  msg.sender */\n      caller\n        /* \"contracts/Ownable.sol\":436:456  _owner == msg.sender */\n      0xffffffffffffffffffffffffffffffffffffffff\n      and\n        /* \"contracts/Ownable.sol\":436:442  _owner */\n      0x00\n      dup1\n      sload\n      swap1\n      0x0100\n      exp\n      swap1\n      div\n      0xffffffffffffffffffffffffffffffffffffffff\n      and\n        /* \"contracts/Ownable.sol\":436:456  _owner == msg.sender */\n      0xffffffffffffffffffffffffffffffffffffffff\n      and\n      eq\n        /* \"contracts/Ownable.sol\":428:493  require(_owner == msg.sender, \"Ownable: caller is not the owner\") */\n      tag_126\n      jumpi\n      mload(0x40)\n      0x08c379a000000000000000000000000000000000000000000000000000000000\n      dup2\n      mstore\n      0x04\n      add\n      tag_127\n      swap1\n      tag_99\n      jump\t// in\n    tag_127:\n      mload(0x40)\n      dup1\n      swap2\n      sub\n      swap1\n      revert\n    tag_126:\n        /* \"contracts/mainContract.sol\":1455:1483  super.assignRole(user, role) */\n      tag_129\n        /* \"contracts/mainContract.sol\":1472:1476  user */\n      dup3\n        /* \"contracts/mainContract.sol\":1478:1482  role */\n      dup3\n        /* \"contracts/mainContract.sol\":1455:1471  super.assignRole */\n      tag_32\n        /* \"contracts/mainContract.sol\":1455:1483  super.assignRole(user, role) */\n      jump\t// in\n    tag_129:\n        /* \"contracts/mainContract.sol\":1375:1491  function assignUserRole(address user, uint256 role) public onlyOwner {... */\n      pop\n      pop\n      jump\t// out\n        /* \"contracts/ProductManager.sol\":745:1359  function createProduct(string memory name, uint256 lotNumber, uint256 totalPerLot, address manufacturer) public onlyOwner {... */\n    tag_54:\n        /* \"contracts/Ownable.sol\":446:456  msg.sender */\n      caller\n        /* \"contracts/Ownable.sol\":436:456  _owner == msg.sender */\n      0xffffffffffffffffffffffffffffffffffffffff\n      and\n        /* \"contracts/Ownable.sol\":436:442  _owner */\n      0x00\n      dup1\n      sload\n      swap1\n      0x0100\n      exp\n      swap1\n      div\n      0xffffffffffffffffffffffffffffffffffffffff\n      and\n        /* \"contracts/Ownable.sol\":436:456  _owner == msg.sender */\n      0xffffffffffffffffffffffffffffffffffffffff\n      and\n      eq\n        /* \"contracts/Ownable.sol\":428:493  require(_owner == msg.sender, \"Ownable: caller is not the owner\") */\n      tag_131\n      jumpi\n      mload(0x40)\n      0x08c379a000000000000000000000000000000000000000000000000000000000\n      dup2\n      mstore\n      0x04\n      add\n      tag_132\n      swap1\n      tag_99\n      jump\t// in\n    tag_132:\n      mload(0x40)\n      dup1\n      swap2\n      sub\n      swap1\n      revert\n    tag_131:\n        /* \"contracts/ProductManager.sol\":878:886  products */\n      0x02\n        /* \"contracts/ProductManager.sol\":892:1252  Product({... */\n      mload(0x40)\n      dup1\n      0xe0\n      add\n      0x40\n      mstore\n      dup1\n        /* \"contracts/ProductManager.sol\":919:932  nextProductId */\n      sload(0x03)\n        /* \"contracts/ProductManager.sol\":892:1252  Product({... */\n      dup2\n      mstore\n      0x20\n      add\n        /* \"contracts/ProductManager.sol\":953:957  name */\n      dup7\n        /* \"contracts/ProductManager.sol\":892:1252  Product({... */\n      dup2\n      mstore\n      0x20\n      add\n        /* \"contracts/ProductManager.sol\":983:992  lotNumber */\n      dup6\n        /* \"contracts/ProductManager.sol\":892:1252  Product({... */\n      dup2\n      mstore\n      0x20\n      add\n        /* \"contracts/ProductManager.sol\":1020:1031  totalPerLot */\n      dup5\n        /* \"contracts/ProductManager.sol\":892:1252  Product({... */\n      dup2\n      mstore\n      0x20\n      add\n        /* \"contracts/ProductManager.sol\":1060:1072  manufacturer */\n      dup4\n        /* \"contracts/ProductManager.sol\":892:1252  Product({... */\n      0xffffffffffffffffffffffffffffffffffffffff\n      and\n      dup2\n      mstore\n      0x20\n      add\n        /* \"contracts/ProductManager.sol\":1101:1113  manufacturer */\n      dup4\n        /* \"contracts/ProductManager.sol\":892:1252  Product({... */\n      0xffffffffffffffffffffffffffffffffffffffff\n      and\n      dup2\n      mstore\n      0x20\n      add\n        /* \"contracts/ProductManager.sol\":1191:1206  block.timestamp */\n      timestamp\n        /* \"contracts/ProductManager.sol\":892:1252  Product({... */\n      dup2\n      mstore\n      pop\n        /* \"contracts/ProductManager.sol\":878:1253  products.push(Product({... */\n      swap1\n      dup1\n      0x01\n      dup2\n      sload\n      add\n      dup1\n      dup3\n      sstore\n      dup1\n      swap2\n      pop\n      pop\n      0x01\n      swap1\n      sub\n      swap1\n      0x00\n      mstore\n      keccak256(0x00, 0x20)\n      swap1\n      0x07\n      mul\n      add\n      0x00\n      swap1\n      swap2\n      swap1\n      swap2\n      swap1\n      swap2\n      pop\n      0x00\n      dup3\n      add\n      mload\n      dup2\n      0x00\n      add\n      sstore\n      0x20\n      dup3\n      add\n      mload\n      dup2\n      0x01\n      add\n      swap1\n      dup2\n      tag_135\n      swap2\n      swap1\n      tag_136\n      jump\t// in\n    tag_135:\n      pop\n      0x40\n      dup3\n      add\n      mload\n      dup2\n      0x02\n      add\n      sstore\n      0x60\n      dup3\n      add\n      mload\n      dup2\n      0x03\n      add\n      sstore\n      0x80\n      dup3\n      add\n      mload\n      dup2\n      0x04\n      add\n      exp(0x0100, 0x00)\n      dup2\n      sload\n      dup2\n      0xffffffffffffffffffffffffffffffffffffffff\n      mul\n      not\n      and\n      swap1\n      dup4\n      0xffffffffffffffffffffffffffffffffffffffff\n      and\n      mul\n      or\n      swap1\n      sstore\n      pop\n      0xa0\n      dup3\n      add\n      mload\n      dup2\n      0x05\n      add\n      exp(0x0100, 0x00)\n      dup2\n      sload\n      dup2\n      0xffffffffffffffffffffffffffffffffffffffff\n      mul\n      not\n      and\n      swap1\n      dup4\n      0xffffffffffffffffffffffffffffffffffffffff\n      and\n      mul\n      or\n      swap1\n      sstore\n      pop\n      0xc0\n      dup3\n      add\n      mload\n      dup2\n      0x06\n      add\n      sstore\n      pop\n      pop\n        /* \"contracts/ProductManager.sol\":1284:1297  nextProductId */\n      sload(0x03)\n        /* \"contracts/ProductManager.sol\":1269:1304  ProductCreated(nextProductId, name) */\n      0x543247085674b00368d9cd41416be705a4c27143c024163a6f58bf12a41992f5\n        /* \"contracts/ProductManager.sol\":1299:1303  name */\n      dup6\n        /* \"contracts/ProductManager.sol\":1269:1304  ProductCreated(nextProductId, name) */\n      mload(0x40)\n      tag_137\n      swap2\n      swap1\n      tag_138\n      jump\t// in\n    tag_137:\n      mload(0x40)\n      dup1\n      swap2\n      sub\n      swap1\n      log2\n        /* \"contracts/ProductManager.sol\":1331:1351  nextProductId.add(1) */\n      tag_139\n        /* \"contracts/ProductManager.sol\":1349:1350  1 */\n      0x01\n        /* \"contracts/ProductManager.sol\":1331:1344  nextProductId */\n      sload(0x03)\n        /* \"contracts/ProductManager.sol\":1331:1348  nextProductId.add */\n      tag_140\n      swap1\n        /* \"contracts/ProductManager.sol\":1331:1351  nextProductId.add(1) */\n      swap2\n      swap1\n      0xffffffff\n      and\n      jump\t// in\n    tag_139:\n        /* \"contracts/ProductManager.sol\":1315:1328  nextProductId */\n      0x03\n        /* \"contracts/ProductManager.sol\":1315:1351  nextProductId = nextProductId.add(1) */\n      dup2\n      swap1\n      sstore\n      pop\n        /* \"contracts/ProductManager.sol\":745:1359  function createProduct(string memory name, uint256 lotNumber, uint256 totalPerLot, address manufacturer) public onlyOwner {... */\n      pop\n      pop\n      pop\n      pop\n      jump\t// out\n        /* \"contracts/ProductManager.sol\":415:440  Product[] public products */\n    tag_57:\n      0x02\n      dup2\n      dup2\n      sload\n      dup2\n      lt\n      tag_141\n      jumpi\n      0x00\n      dup1\n      revert\n    tag_141:\n      swap1\n      0x00\n      mstore\n      keccak256(0x00, 0x20)\n      swap1\n      0x07\n      mul\n      add\n      0x00\n      swap2\n      pop\n      swap1\n      pop\n      dup1\n      0x00\n      add\n      sload\n      swap1\n      dup1\n      0x01\n      add\n      dup1\n      sload\n      tag_143\n      swap1\n      tag_120\n      jump\t// in\n    tag_143:\n      dup1\n      0x1f\n      add\n      0x20\n      dup1\n      swap2\n      div\n      mul\n      0x20\n      add\n      mload(0x40)\n      swap1\n      dup2\n      add\n      0x40\n      mstore\n      dup1\n      swap3\n      swap2\n      swap1\n      dup2\n      dup2\n      mstore\n      0x20\n      add\n      dup3\n      dup1\n      sload\n      tag_144\n      swap1\n      tag_120\n      jump\t// in\n    tag_144:\n      dup1\n      iszero\n      tag_145\n      jumpi\n      dup1\n      0x1f\n      lt\n      tag_146\n      jumpi\n      0x0100\n      dup1\n      dup4\n      sload\n      div\n      mul\n      dup4\n      mstore\n      swap2\n      0x20\n      add\n      swap2\n      jump(tag_145)\n    tag_146:\n      dup3\n      add\n      swap2\n      swap1\n      0x00\n      mstore\n      keccak256(0x00, 0x20)\n      swap1\n    tag_147:\n      dup2\n      sload\n      dup2\n      mstore\n      swap1\n      0x01\n      add\n      swap1\n      0x20\n      add\n      dup1\n      dup4\n      gt\n      tag_147\n      jumpi\n      dup3\n      swap1\n      sub\n      0x1f\n      and\n      dup3\n      add\n      swap2\n    tag_145:\n      pop\n      pop\n      pop\n      pop\n      pop\n      swap1\n      dup1\n      0x02\n      add\n      sload\n      swap1\n      dup1\n      0x03\n      add\n      sload\n      swap1\n      dup1\n      0x04\n      add\n      0x00\n      swap1\n      sload\n      swap1\n      0x0100\n      exp\n      swap1\n      div\n      0xffffffffffffffffffffffffffffffffffffffff\n      and\n      swap1\n      dup1\n      0x05\n      add\n      0x00\n      swap1\n      sload\n      swap1\n      0x0100\n      exp\n      swap1\n      div\n      0xffffffffffffffffffffffffffffffffffffffff\n      and\n      swap1\n      dup1\n      0x06\n      add\n      sload\n      swap1\n      pop\n      dup8\n      jump\t// out\n        /* \"contracts/WhitelistManager.sol\":292:524  function addAddressToWhitelist(address addr) public onlyOwner {... */\n    tag_62:\n        /* \"contracts/Ownable.sol\":446:456  msg.sender */\n      caller\n        /* \"contracts/Ownable.sol\":436:456  _owner == msg.sender */\n      0xffffffffffffffffffffffffffffffffffffffff\n      and\n        /* \"contracts/Ownable.sol\":436:442  _owner */\n      0x00\n      dup1\n      sload\n      swap1\n      0x0100\n      exp\n      swap1\n      div\n      0xffffffffffffffffffffffffffffffffffffffff\n      and\n        /* \"contracts/Ownable.sol\":436:456  _owner == msg.sender */\n      0xffffffffffffffffffffffffffffffffffffffff\n      and\n      eq\n        /* \"contracts/Ownable.sol\":428:493  require(_owner == msg.sender, \"Ownable: caller is not the owner\") */\n      tag_149\n      jumpi\n      mload(0x40)\n      0x08c379a000000000000000000000000000000000000000000000000000000000\n      dup2\n      mstore\n      0x04\n      add\n      tag_150\n      swap1\n      tag_99\n      jump\t// in\n    tag_150:\n      mload(0x40)\n      dup1\n      swap2\n      sub\n      swap1\n      revert\n    tag_149:\n        /* \"contracts/WhitelistManager.sol\":388:389  0 */\n      0x00\n        /* \"contracts/WhitelistManager.sol\":372:390  addr != address(0) */\n      0xffffffffffffffffffffffffffffffffffffffff\n      and\n        /* \"contracts/WhitelistManager.sol\":372:376  addr */\n      dup2\n        /* \"contracts/WhitelistManager.sol\":372:390  addr != address(0) */\n      0xffffffffffffffffffffffffffffffffffffffff\n      and\n      sub\n        /* \"contracts/WhitelistManager.sol\":364:440  require(addr != address(0), \"WhitelistManager: address is the zero address\") */\n      tag_152\n      jumpi\n      mload(0x40)\n      0x08c379a000000000000000000000000000000000000000000000000000000000\n      dup2\n      mstore\n      0x04\n      add\n      tag_153\n      swap1\n      tag_103\n      jump\t// in\n    tag_153:\n      mload(0x40)\n      dup1\n      swap2\n      sub\n      swap1\n      revert\n    tag_152:\n        /* \"contracts/WhitelistManager.sol\":469:473  true */\n      0x01\n        /* \"contracts/WhitelistManager.sol\":450:460  _whitelist */\n      dup1\n        /* \"contracts/WhitelistManager.sol\":450:466  _whitelist[addr] */\n      0x00\n        /* \"contracts/WhitelistManager.sol\":461:465  addr */\n      dup4\n        /* \"contracts/WhitelistManager.sol\":450:466  _whitelist[addr] */\n      0xffffffffffffffffffffffffffffffffffffffff\n      and\n      0xffffffffffffffffffffffffffffffffffffffff\n      and\n      dup2\n      mstore\n      0x20\n      add\n      swap1\n      dup2\n      mstore\n      0x20\n      add\n      0x00\n      keccak256\n      0x00\n        /* \"contracts/WhitelistManager.sol\":450:473  _whitelist[addr] = true */\n      0x0100\n      exp\n      dup2\n      sload\n      dup2\n      0xff\n      mul\n      not\n      and\n      swap1\n      dup4\n      iszero\n      iszero\n      mul\n      or\n      swap1\n      sstore\n      pop\n        /* \"contracts/WhitelistManager.sol\":512:516  addr */\n      dup1\n        /* \"contracts/WhitelistManager.sol\":488:517  WhitelistedAddressAdded(addr) */\n      0xffffffffffffffffffffffffffffffffffffffff\n      and\n      0xd1bba68c128cc3f427e5831b3c6f99f480b6efa6b9e80c757768f6124158cc3f\n      mload(0x40)\n      mload(0x40)\n      dup1\n      swap2\n      sub\n      swap1\n      log2\n        /* \"contracts/WhitelistManager.sol\":292:524  function addAddressToWhitelist(address addr) public onlyOwner {... */\n      pop\n      jump\t// out\n        /* \"contracts/AccessControl.sol\":550:736  function revokeRole(address user) public onlyOwner {... */\n    tag_65:\n        /* \"contracts/Ownable.sol\":446:456  msg.sender */\n      caller\n        /* \"contracts/Ownable.sol\":436:456  _owner == msg.sender */\n      0xffffffffffffffffffffffffffffffffffffffff\n      and\n        /* \"contracts/Ownable.sol\":436:442  _owner */\n      0x00\n      dup1\n      sload\n      swap1\n      0x0100\n      exp\n      swap1\n      div\n      0xffffffffffffffffffffffffffffffffffffffff\n      and\n        /* \"contracts/Ownable.sol\":436:456  _owner == msg.sender */\n      0xffffffffffffffffffffffffffffffffffffffff\n      and\n      eq\n        /* \"contracts/Ownable.sol\":428:493  require(_owner == msg.sender, \"Ownable: caller is not the owner\") */\n      tag_155\n      jumpi\n      mload(0x40)\n      0x08c379a000000000000000000000000000000000000000000000000000000000\n      dup2\n      mstore\n      0x04\n      add\n      tag_156\n      swap1\n      tag_99\n      jump\t// in\n    tag_156:\n      mload(0x40)\n      dup1\n      swap2\n      sub\n      swap1\n      revert\n    tag_155:\n        /* \"contracts/AccessControl.sol\":612:627  uint256 oldRole */\n      0x00\n        /* \"contracts/AccessControl.sol\":630:635  roles */\n      0x04\n        /* \"contracts/AccessControl.sol\":630:641  roles[user] */\n      0x00\n        /* \"contracts/AccessControl.sol\":636:640  user */\n      dup4\n        /* \"contracts/AccessControl.sol\":630:641  roles[user] */\n      0xffffffffffffffffffffffffffffffffffffffff\n      and\n      0xffffffffffffffffffffffffffffffffffffffff\n      and\n      dup2\n      mstore\n      0x20\n      add\n      swap1\n      dup2\n      mstore\n      0x20\n      add\n      0x00\n      keccak256\n      sload\n        /* \"contracts/AccessControl.sol\":612:641  uint256 oldRole = roles[user] */\n      swap1\n      pop\n        /* \"contracts/AccessControl.sol\":666:667  0 */\n      0x00\n        /* \"contracts/AccessControl.sol\":652:657  roles */\n      0x04\n        /* \"contracts/AccessControl.sol\":652:663  roles[user] */\n      0x00\n        /* \"contracts/AccessControl.sol\":658:662  user */\n      dup5\n        /* \"contracts/AccessControl.sol\":652:663  roles[user] */\n      0xffffffffffffffffffffffffffffffffffffffff\n      and\n      0xffffffffffffffffffffffffffffffffffffffff\n      and\n      dup2\n      mstore\n      0x20\n      add\n      swap1\n      dup2\n      mstore\n      0x20\n      add\n      0x00\n      keccak256\n        /* \"contracts/AccessControl.sol\":652:667  roles[user] = 0 */\n      dup2\n      swap1\n      sstore\n      pop\n        /* \"contracts/AccessControl.sol\":720:727  oldRole */\n      dup1\n        /* \"contracts/AccessControl.sol\":714:718  user */\n      dup3\n        /* \"contracts/AccessControl.sol\":702:728  RoleRevoked(user, oldRole) */\n      0xffffffffffffffffffffffffffffffffffffffff\n      and\n      0x12982f922b0573398129ea86655ce1e8e425ec676c9e3d40bf5458688b1ef544\n      mload(0x40)\n      mload(0x40)\n      dup1\n      swap2\n      sub\n      swap1\n      log3\n        /* \"contracts/AccessControl.sol\":601:736  {... */\n      pop\n        /* \"contracts/AccessControl.sol\":550:736  function revokeRole(address user) public onlyOwner {... */\n      pop\n      jump\t// out\n        /* \"contracts/ProductManager.sol\":1367:1861  function transferProductOwnership(uint256 productId, address newOwner) public {... */\n    tag_69:\n        /* \"contracts/ProductManager.sol\":1478:1486  products */\n      0x02\n        /* \"contracts/ProductManager.sol\":1487:1496  productId */\n      dup3\n        /* \"contracts/ProductManager.sol\":1478:1497  products[productId] */\n      dup2\n      sload\n      dup2\n      lt\n      tag_159\n      jumpi\n      tag_160\n      tag_117\n      jump\t// in\n    tag_160:\n    tag_159:\n      swap1\n      0x00\n      mstore\n      keccak256(0x00, 0x20)\n      swap1\n      0x07\n      mul\n      add\n        /* \"contracts/ProductManager.sol\":1478:1510  products[productId].currentOwner */\n      0x05\n      add\n      0x00\n      swap1\n      sload\n      swap1\n      0x0100\n      exp\n      swap1\n      div\n      0xffffffffffffffffffffffffffffffffffffffff\n      and\n        /* \"contracts/ProductManager.sol\":1464:1510  msg.sender == products[productId].currentOwner */\n      0xffffffffffffffffffffffffffffffffffffffff\n      and\n        /* \"contracts/ProductManager.sol\":1464:1474  msg.sender */\n      caller\n        /* \"contracts/ProductManager.sol\":1464:1510  msg.sender == products[productId].currentOwner */\n      0xffffffffffffffffffffffffffffffffffffffff\n      and\n      eq\n        /* \"contracts/ProductManager.sol\":1456:1562  require(msg.sender == products[productId].currentOwner, \"ProductManager: caller is not the current owner\") */\n      tag_162\n      jumpi\n      mload(0x40)\n      0x08c379a000000000000000000000000000000000000000000000000000000000\n      dup2\n      mstore\n      0x04\n      add\n      tag_163\n      swap1\n      tag_164\n      jump\t// in\n    tag_163:\n      mload(0x40)\n      dup1\n      swap2\n      sub\n      swap1\n      revert\n    tag_162:\n        /* \"contracts/ProductManager.sol\":1573:1594  address previousOwner */\n      0x00\n        /* \"contracts/ProductManager.sol\":1597:1605  products */\n      0x02\n        /* \"contracts/ProductManager.sol\":1606:1615  productId */\n      dup4\n        /* \"contracts/ProductManager.sol\":1597:1616  products[productId] */\n      dup2\n      sload\n      dup2\n      lt\n      tag_165\n      jumpi\n      tag_166\n      tag_117\n      jump\t// in\n    tag_166:\n    tag_165:\n      swap1\n      0x00\n      mstore\n      keccak256(0x00, 0x20)\n      swap1\n      0x07\n      mul\n      add\n        /* \"contracts/ProductManager.sol\":1597:1629  products[productId].currentOwner */\n      0x05\n      add\n      0x00\n      swap1\n      sload\n      swap1\n      0x0100\n      exp\n      swap1\n      div\n      0xffffffffffffffffffffffffffffffffffffffff\n      and\n        /* \"contracts/ProductManager.sol\":1573:1629  address previousOwner = products[productId].currentOwner */\n      swap1\n      pop\n        /* \"contracts/ProductManager.sol\":1675:1683  newOwner */\n      dup2\n        /* \"contracts/ProductManager.sol\":1640:1648  products */\n      0x02\n        /* \"contracts/ProductManager.sol\":1649:1658  productId */\n      dup5\n        /* \"contracts/ProductManager.sol\":1640:1659  products[productId] */\n      dup2\n      sload\n      dup2\n      lt\n      tag_168\n      jumpi\n      tag_169\n      tag_117\n      jump\t// in\n    tag_169:\n    tag_168:\n      swap1\n      0x00\n      mstore\n      keccak256(0x00, 0x20)\n      swap1\n      0x07\n      mul\n      add\n        /* \"contracts/ProductManager.sol\":1640:1672  products[productId].currentOwner */\n      0x05\n      add\n      0x00\n        /* \"contracts/ProductManager.sol\":1640:1683  products[productId].currentOwner = newOwner */\n      0x0100\n      exp\n      dup2\n      sload\n      dup2\n      0xffffffffffffffffffffffffffffffffffffffff\n      mul\n      not\n      and\n      swap1\n      dup4\n      0xffffffffffffffffffffffffffffffffffffffff\n      and\n      mul\n      or\n      swap1\n      sstore\n      pop\n        /* \"contracts/ProductManager.sol\":1729:1744  block.timestamp */\n      timestamp\n        /* \"contracts/ProductManager.sol\":1694:1702  products */\n      0x02\n        /* \"contracts/ProductManager.sol\":1703:1712  productId */\n      dup5\n        /* \"contracts/ProductManager.sol\":1694:1713  products[productId] */\n      dup2\n      sload\n      dup2\n      lt\n      tag_171\n      jumpi\n      tag_172\n      tag_117\n      jump\t// in\n    tag_172:\n    tag_171:\n      swap1\n      0x00\n      mstore\n      keccak256(0x00, 0x20)\n      swap1\n      0x07\n      mul\n      add\n        /* \"contracts/ProductManager.sol\":1694:1726  products[productId].purchaseDate */\n      0x06\n      add\n        /* \"contracts/ProductManager.sol\":1694:1744  products[productId].purchaseDate = block.timestamp */\n      dup2\n      swap1\n      sstore\n      pop\n        /* \"contracts/ProductManager.sol\":1844:1852  newOwner */\n      dup2\n        /* \"contracts/ProductManager.sol\":1797:1853  OwnershipTransferred(productId, previousOwner, newOwner) */\n      0xffffffffffffffffffffffffffffffffffffffff\n      and\n        /* \"contracts/ProductManager.sol\":1829:1842  previousOwner */\n      dup2\n        /* \"contracts/ProductManager.sol\":1797:1853  OwnershipTransferred(productId, previousOwner, newOwner) */\n      0xffffffffffffffffffffffffffffffffffffffff\n      and\n        /* \"contracts/ProductManager.sol\":1818:1827  productId */\n      dup5\n        /* \"contracts/ProductManager.sol\":1797:1853  OwnershipTransferred(productId, previousOwner, newOwner) */\n      0x16b85f49bf01212961345d3016c9a531894accf62eb7680f2045d79185cc0ec0\n      mload(0x40)\n      mload(0x40)\n      dup1\n      swap2\n      sub\n      swap1\n      log4\n        /* \"contracts/ProductManager.sol\":1445:1861  {... */\n      pop\n        /* \"contracts/ProductManager.sol\":1367:1861  function transferProductOwnership(uint256 productId, address newOwner) public {... */\n      pop\n      pop\n      jump\t// out\n        /* \"contracts/mainContract.sol\":586:703  function removeFromWhitelist(address addr) public onlyOwner {... */\n    tag_72:\n        /* \"contracts/Ownable.sol\":446:456  msg.sender */\n      caller\n        /* \"contracts/Ownable.sol\":436:456  _owner == msg.sender */\n      0xffffffffffffffffffffffffffffffffffffffff\n      and\n        /* \"contracts/Ownable.sol\":436:442  _owner */\n      0x00\n      dup1\n      sload\n      swap1\n      0x0100\n      exp\n      swap1\n      div\n      0xffffffffffffffffffffffffffffffffffffffff\n      and\n        /* \"contracts/Ownable.sol\":436:456  _owner == msg.sender */\n      0xffffffffffffffffffffffffffffffffffffffff\n      and\n      eq\n        /* \"contracts/Ownable.sol\":428:493  require(_owner == msg.sender, \"Ownable: caller is not the owner\") */\n      tag_175\n      jumpi\n      mload(0x40)\n      0x08c379a000000000000000000000000000000000000000000000000000000000\n      dup2\n      mstore\n      0x04\n      add\n      tag_176\n      swap1\n      tag_99\n      jump\t// in\n    tag_176:\n      mload(0x40)\n      dup1\n      swap2\n      sub\n      swap1\n      revert\n    tag_175:\n        /* \"contracts/mainContract.sol\":657:695  super.removeAddressFromWhitelist(addr) */\n      tag_178\n        /* \"contracts/mainContract.sol\":690:694  addr */\n      dup2\n        /* \"contracts/mainContract.sol\":657:689  super.removeAddressFromWhitelist */\n      tag_28\n        /* \"contracts/mainContract.sol\":657:695  super.removeAddressFromWhitelist(addr) */\n      jump\t// in\n    tag_178:\n        /* \"contracts/mainContract.sol\":586:703  function removeFromWhitelist(address addr) public onlyOwner {... */\n      pop\n      jump\t// out\n        /* \"contracts/Ownable.sol\":314:391  function owner() public view returns (address) {... */\n    tag_74:\n        /* \"contracts/Ownable.sol\":352:359  address */\n      0x00\n        /* \"contracts/Ownable.sol\":378:384  _owner */\n      dup1\n      0x00\n      swap1\n      sload\n      swap1\n      0x0100\n      exp\n      swap1\n      div\n      0xffffffffffffffffffffffffffffffffffffffff\n      and\n        /* \"contracts/Ownable.sol\":371:384  return _owner */\n      swap1\n      pop\n        /* \"contracts/Ownable.sol\":314:391  function owner() public view returns (address) {... */\n      swap1\n      jump\t// out\n        /* \"contracts/AccessControl.sol\":128:168  mapping(address => uint256) public roles */\n    tag_79:\n      mstore(0x20, 0x04)\n      dup1\n      0x00\n      mstore\n      keccak256(0x00, 0x40)\n      0x00\n      swap2\n      pop\n      swap1\n      pop\n      sload\n      dup2\n      jump\t// out\n        /* \"contracts/mainContract.sol\":1533:1629  function revokeUserRole(address user) public onlyOwner {... */\n    tag_83:\n        /* \"contracts/Ownable.sol\":446:456  msg.sender */\n      caller\n        /* \"contracts/Ownable.sol\":436:456  _owner == msg.sender */\n      0xffffffffffffffffffffffffffffffffffffffff\n      and\n        /* \"contracts/Ownable.sol\":436:442  _owner */\n      0x00\n      dup1\n      sload\n      swap1\n      0x0100\n      exp\n      swap1\n      div\n      0xffffffffffffffffffffffffffffffffffffffff\n      and\n        /* \"contracts/Ownable.sol\":436:456  _owner == msg.sender */\n      0xffffffffffffffffffffffffffffffffffffffff\n      and\n      eq\n        /* \"contracts/Ownable.sol\":428:493  require(_owner == msg.sender, \"Ownable: caller is not the owner\") */\n      tag_181\n      jumpi\n      mload(0x40)\n      0x08c379a000000000000000000000000000000000000000000000000000000000\n      dup2\n      mstore\n      0x04\n      add\n      tag_182\n      swap1\n      tag_99\n      jump\t// in\n    tag_182:\n      mload(0x40)\n      dup1\n      swap2\n      sub\n      swap1\n      revert\n    tag_181:\n        /* \"contracts/mainContract.sol\":1599:1621  super.revokeRole(user) */\n      tag_184\n        /* \"contracts/mainContract.sol\":1616:1620  user */\n      dup2\n        /* \"contracts/mainContract.sol\":1599:1615  super.revokeRole */\n      tag_65\n        /* \"contracts/mainContract.sol\":1599:1621  super.revokeRole(user) */\n      jump\t// in\n    tag_184:\n        /* \"contracts/mainContract.sol\":1533:1629  function revokeUserRole(address user) public onlyOwner {... */\n      pop\n      jump\t// out\n        /* \"contracts/mainContract.sol\":752:1046  function createNewProduct(string memory name, uint256 lotNumber, uint256 totalPerLot, address manufacturer) public {... */\n    tag_86:\n        /* \"contracts/mainContract.sol\":886:913  isWhitelisted(manufacturer) */\n      tag_186\n        /* \"contracts/mainContract.sol\":900:912  manufacturer */\n      dup2\n        /* \"contracts/mainContract.sol\":886:899  isWhitelisted */\n      tag_35\n        /* \"contracts/mainContract.sol\":886:913  isWhitelisted(manufacturer) */\n      jump\t// in\n    tag_186:\n        /* \"contracts/mainContract.sol\":878:964  require(isWhitelisted(manufacturer), \"MainContract: Manufacturer must be whitelisted\") */\n      tag_187\n      jumpi\n      mload(0x40)\n      0x08c379a000000000000000000000000000000000000000000000000000000000\n      dup2\n      mstore\n      0x04\n      add\n      tag_188\n      swap1\n      tag_189\n      jump\t// in\n    tag_188:\n      mload(0x40)\n      dup1\n      swap2\n      sub\n      swap1\n      revert\n    tag_187:\n        /* \"contracts/mainContract.sol\":975:1038  super.createProduct(name, lotNumber, totalPerLot, manufacturer) */\n      tag_190\n        /* \"contracts/mainContract.sol\":995:999  name */\n      dup5\n        /* \"contracts/mainContract.sol\":1001:1010  lotNumber */\n      dup5\n        /* \"contracts/mainContract.sol\":1012:1023  totalPerLot */\n      dup5\n        /* \"contracts/mainContract.sol\":1025:1037  manufacturer */\n      dup5\n        /* \"contracts/mainContract.sol\":975:994  super.createProduct */\n      tag_54\n        /* \"contracts/mainContract.sol\":975:1038  super.createProduct(name, lotNumber, totalPerLot, manufacturer) */\n      jump\t// in\n    tag_190:\n        /* \"contracts/mainContract.sol\":752:1046  function createNewProduct(string memory name, uint256 lotNumber, uint256 totalPerLot, address manufacturer) public {... */\n      pop\n      pop\n      pop\n      pop\n      jump\t// out\n        /* \"contracts/mainContract.sol\":1106:1335  function transferProduct(uint256 productId, address newOwner) public {... */\n    tag_89:\n        /* \"contracts/mainContract.sol\":1194:1217  isWhitelisted(newOwner) */\n      tag_192\n        /* \"contracts/mainContract.sol\":1208:1216  newOwner */\n      dup2\n        /* \"contracts/mainContract.sol\":1194:1207  isWhitelisted */\n      tag_35\n        /* \"contracts/mainContract.sol\":1194:1217  isWhitelisted(newOwner) */\n      jump\t// in\n    tag_192:\n        /* \"contracts/mainContract.sol\":1186:1265  require(isWhitelisted(newOwner), \"MainContract: New owner must be whitelisted\") */\n      tag_193\n      jumpi\n      mload(0x40)\n      0x08c379a000000000000000000000000000000000000000000000000000000000\n      dup2\n      mstore\n      0x04\n      add\n      tag_194\n      swap1\n      tag_195\n      jump\t// in\n    tag_194:\n      mload(0x40)\n      dup1\n      swap2\n      sub\n      swap1\n      revert\n    tag_193:\n        /* \"contracts/mainContract.sol\":1276:1327  super.transferProductOwnership(productId, newOwner) */\n      tag_196\n        /* \"contracts/mainContract.sol\":1307:1316  productId */\n      dup3\n        /* \"contracts/mainContract.sol\":1318:1326  newOwner */\n      dup3\n        /* \"contracts/mainContract.sol\":1276:1306  super.transferProductOwnership */\n      tag_69\n        /* \"contracts/mainContract.sol\":1276:1327  super.transferProductOwnership(productId, newOwner) */\n      jump\t// in\n    tag_196:\n        /* \"contracts/mainContract.sol\":1106:1335  function transferProduct(uint256 productId, address newOwner) public {... */\n      pop\n      pop\n      jump\t// out\n        /* \"contracts/mainContract.sol\":414:521  function addToWhitelist(address addr) public onlyOwner {... */\n    tag_92:\n        /* \"contracts/Ownable.sol\":446:456  msg.sender */\n      caller\n        /* \"contracts/Ownable.sol\":436:456  _owner == msg.sender */\n      0xffffffffffffffffffffffffffffffffffffffff\n      and\n        /* \"contracts/Ownable.sol\":436:442  _owner */\n      0x00\n      dup1\n      sload\n      swap1\n      0x0100\n      exp\n      swap1\n      div\n      0xffffffffffffffffffffffffffffffffffffffff\n      and\n        /* \"contracts/Ownable.sol\":436:456  _owner == msg.sender */\n      0xffffffffffffffffffffffffffffffffffffffff\n      and\n      eq\n        /* \"contracts/Ownable.sol\":428:493  require(_owner == msg.sender, \"Ownable: caller is not the owner\") */\n      tag_198\n      jumpi\n      mload(0x40)\n      0x08c379a000000000000000000000000000000000000000000000000000000000\n      dup2\n      mstore\n      0x04\n      add\n      tag_199\n      swap1\n      tag_99\n      jump\t// in\n    tag_199:\n      mload(0x40)\n      dup1\n      swap2\n      sub\n      swap1\n      revert\n    tag_198:\n        /* \"contracts/mainContract.sol\":480:513  super.addAddressToWhitelist(addr) */\n      tag_201\n        /* \"contracts/mainContract.sol\":508:512  addr */\n      dup2\n        /* \"contracts/mainContract.sol\":480:507  super.addAddressToWhitelist */\n      tag_62\n        /* \"contracts/mainContract.sol\":480:513  super.addAddressToWhitelist(addr) */\n      jump\t// in\n    tag_201:\n        /* \"contracts/mainContract.sol\":414:521  function addToWhitelist(address addr) public onlyOwner {... */\n      pop\n      jump\t// out\n        /* \"contracts/Ownable.sol\":517:749  function transferOwnership(address newOwner) public onlyOwner {... */\n    tag_95:\n        /* \"contracts/Ownable.sol\":446:456  msg.sender */\n      caller\n        /* \"contracts/Ownable.sol\":436:456  _owner == msg.sender */\n      0xffffffffffffffffffffffffffffffffffffffff\n      and\n        /* \"contracts/Ownable.sol\":436:442  _owner */\n      0x00\n      dup1\n      sload\n      swap1\n      0x0100\n      exp\n      swap1\n      div\n      0xffffffffffffffffffffffffffffffffffffffff\n      and\n        /* \"contracts/Ownable.sol\":436:456  _owner == msg.sender */\n      0xffffffffffffffffffffffffffffffffffffffff\n      and\n      eq\n        /* \"contracts/Ownable.sol\":428:493  require(_owner == msg.sender, \"Ownable: caller is not the owner\") */\n      tag_203\n      jumpi\n      mload(0x40)\n      0x08c379a000000000000000000000000000000000000000000000000000000000\n      dup2\n      mstore\n      0x04\n      add\n      tag_204\n      swap1\n      tag_99\n      jump\t// in\n    tag_204:\n      mload(0x40)\n      dup1\n      swap2\n      sub\n      swap1\n      revert\n    tag_203:\n        /* \"contracts/Ownable.sol\":617:618  0 */\n      0x00\n        /* \"contracts/Ownable.sol\":597:619  newOwner != address(0) */\n      0xffffffffffffffffffffffffffffffffffffffff\n      and\n        /* \"contracts/Ownable.sol\":597:605  newOwner */\n      dup2\n        /* \"contracts/Ownable.sol\":597:619  newOwner != address(0) */\n      0xffffffffffffffffffffffffffffffffffffffff\n      and\n      sub\n        /* \"contracts/Ownable.sol\":589:662  require(newOwner != address(0), \"Ownable: new owner is the zero address\") */\n      tag_206\n      jumpi\n      mload(0x40)\n      0x08c379a000000000000000000000000000000000000000000000000000000000\n      dup2\n      mstore\n      0x04\n      add\n      tag_207\n      swap1\n      tag_208\n      jump\t// in\n    tag_207:\n      mload(0x40)\n      dup1\n      swap2\n      sub\n      swap1\n      revert\n    tag_206:\n        /* \"contracts/Ownable.sol\":706:714  newOwner */\n      dup1\n        /* \"contracts/Ownable.sol\":677:715  OwnershipTransferred(_owner, newOwner) */\n      0xffffffffffffffffffffffffffffffffffffffff\n      and\n        /* \"contracts/Ownable.sol\":698:704  _owner */\n      0x00\n      dup1\n      sload\n      swap1\n      0x0100\n      exp\n      swap1\n      div\n      0xffffffffffffffffffffffffffffffffffffffff\n      and\n        /* \"contracts/Ownable.sol\":677:715  OwnershipTransferred(_owner, newOwner) */\n      0xffffffffffffffffffffffffffffffffffffffff\n      and\n      0x8be0079c531659141344cd1fd0a4f28419497f9722a3daafe3b4186f6b6457e0\n      mload(0x40)\n      mload(0x40)\n      dup1\n      swap2\n      sub\n      swap1\n      log3\n        /* \"contracts/Ownable.sol\":734:742  newOwner */\n      dup1\n        /* \"contracts/Ownable.sol\":725:731  _owner */\n      0x00\n      dup1\n        /* \"contracts/Ownable.sol\":725:742  _owner = newOwner */\n      0x0100\n      exp\n      dup2\n      sload\n      dup2\n      0xffffffffffffffffffffffffffffffffffffffff\n      mul\n      not\n      and\n      swap1\n      dup4\n      0xffffffffffffffffffffffffffffffffffffffff\n      and\n      mul\n      or\n      swap1\n      sstore\n      pop\n        /* \"contracts/Ownable.sol\":517:749  function transferOwnership(address newOwner) public onlyOwner {... */\n      pop\n      jump\t// out\n        /* \"contracts/SafeMath.sol\":80:256  function add(uint256 a, uint256 b) internal pure returns (uint256) {... */\n    tag_140:\n        /* \"contracts/SafeMath.sol\":138:145  uint256 */\n      0x00\n        /* \"contracts/SafeMath.sol\":157:166  uint256 c */\n      dup1\n        /* \"contracts/SafeMath.sol\":173:174  b */\n      dup3\n        /* \"contracts/SafeMath.sol\":169:170  a */\n      dup5\n        /* \"contracts/SafeMath.sol\":169:174  a + b */\n      tag_210\n      swap2\n      swap1\n      tag_211\n      jump\t// in\n    tag_210:\n        /* \"contracts/SafeMath.sol\":157:174  uint256 c = a + b */\n      swap1\n      pop\n        /* \"contracts/SafeMath.sol\":197:198  a */\n      dup4\n        /* \"contracts/SafeMath.sol\":192:193  c */\n      dup2\n        /* \"contracts/SafeMath.sol\":192:198  c >= a */\n      lt\n      iszero\n        /* \"contracts/SafeMath.sol\":184:230  require(c >= a, \"SafeMath: addition overflow\") */\n      tag_212\n      jumpi\n      mload(0x40)\n      0x08c379a000000000000000000000000000000000000000000000000000000000\n      dup2\n      mstore\n      0x04\n      add\n      tag_213\n      swap1\n      tag_214\n      jump\t// in\n    tag_213:\n      mload(0x40)\n      dup1\n      swap2\n      sub\n      swap1\n      revert\n    tag_212:\n        /* \"contracts/SafeMath.sol\":248:249  c */\n      dup1\n        /* \"contracts/SafeMath.sol\":241:249  return c */\n      swap2\n      pop\n      pop\n        /* \"contracts/SafeMath.sol\":80:256  function add(uint256 a, uint256 b) internal pure returns (uint256) {... */\n      swap3\n      swap2\n      pop\n      pop\n      jump\t// out\n    tag_110:\n      mload(0x40)\n      dup1\n      0xe0\n      add\n      0x40\n      mstore\n      dup1\n      0x00\n      dup2\n      mstore\n      0x20\n      add\n      0x60\n      dup2\n      mstore\n      0x20\n      add\n      0x00\n      dup2\n      mstore\n      0x20\n      add\n      0x00\n      dup2\n      mstore\n      0x20\n      add\n      and(0xffffffffffffffffffffffffffffffffffffffff, 0x00)\n      dup2\n      mstore\n      0x20\n      add\n      and(0xffffffffffffffffffffffffffffffffffffffff, 0x00)\n      dup2\n      mstore\n      0x20\n      add\n      0x00\n      dup2\n      mstore\n      pop\n      swap1\n      jump\t// out\n        /* \"#utility.yul\":7:82   */\n    tag_215:\n        /* \"#utility.yul\":40:46   */\n      0x00\n        /* \"#utility.yul\":73:75   */\n      0x40\n        /* \"#utility.yul\":67:76   */\n      mload\n        /* \"#utility.yul\":57:76   */\n      swap1\n      pop\n        /* \"#utility.yul\":7:82   */\n      swap1\n      jump\t// out\n        /* \"#utility.yul\":88:205   */\n    tag_216:\n        /* \"#utility.yul\":197:198   */\n      0x00\n        /* \"#utility.yul\":194:195   */\n      dup1\n        /* \"#utility.yul\":187:199   */\n      revert\n        /* \"#utility.yul\":211:328   */\n    tag_217:\n        /* \"#utility.yul\":320:321   */\n      0x00\n        /* \"#utility.yul\":317:318   */\n      dup1\n        /* \"#utility.yul\":310:322   */\n      revert\n        /* \"#utility.yul\":334:460   */\n    tag_218:\n        /* \"#utility.yul\":371:378   */\n      0x00\n        /* \"#utility.yul\":411:453   */\n      0xffffffffffffffffffffffffffffffffffffffff\n        /* \"#utility.yul\":404:409   */\n      dup3\n        /* \"#utility.yul\":400:454   */\n      and\n        /* \"#utility.yul\":389:454   */\n      swap1\n      pop\n        /* \"#utility.yul\":334:460   */\n      swap2\n      swap1\n      pop\n      jump\t// out\n        /* \"#utility.yul\":466:562   */\n    tag_219:\n        /* \"#utility.yul\":503:510   */\n      0x00\n        /* \"#utility.yul\":532:556   */\n      tag_287\n        /* \"#utility.yul\":550:555   */\n      dup3\n        /* \"#utility.yul\":532:556   */\n      tag_218\n      jump\t// in\n    tag_287:\n        /* \"#utility.yul\":521:556   */\n      swap1\n      pop\n        /* \"#utility.yul\":466:562   */\n      swap2\n      swap1\n      pop\n      jump\t// out\n        /* \"#utility.yul\":568:690   */\n    tag_220:\n        /* \"#utility.yul\":641:665   */\n      tag_289\n        /* \"#utility.yul\":659:664   */\n      dup2\n        /* \"#utility.yul\":641:665   */\n      tag_219\n      jump\t// in\n    tag_289:\n        /* \"#utility.yul\":634:639   */\n      dup2\n        /* \"#utility.yul\":631:666   */\n      eq\n        /* \"#utility.yul\":621:684   */\n      tag_290\n      jumpi\n        /* \"#utility.yul\":680:681   */\n      0x00\n        /* \"#utility.yul\":677:678   */\n      dup1\n        /* \"#utility.yul\":670:682   */\n      revert\n        /* \"#utility.yul\":621:684   */\n    tag_290:\n        /* \"#utility.yul\":568:690   */\n      pop\n      jump\t// out\n        /* \"#utility.yul\":696:835   */\n    tag_221:\n        /* \"#utility.yul\":742:747   */\n      0x00\n        /* \"#utility.yul\":780:786   */\n      dup2\n        /* \"#utility.yul\":767:787   */\n      calldataload\n        /* \"#utility.yul\":758:787   */\n      swap1\n      pop\n        /* \"#utility.yul\":796:829   */\n      tag_292\n        /* \"#utility.yul\":823:828   */\n      dup2\n        /* \"#utility.yul\":796:829   */\n      tag_220\n      jump\t// in\n    tag_292:\n        /* \"#utility.yul\":696:835   */\n      swap3\n      swap2\n      pop\n      pop\n      jump\t// out\n        /* \"#utility.yul\":841:1170   */\n    tag_27:\n        /* \"#utility.yul\":900:906   */\n      0x00\n        /* \"#utility.yul\":949:951   */\n      0x20\n        /* \"#utility.yul\":937:946   */\n      dup3\n        /* \"#utility.yul\":928:935   */\n      dup5\n        /* \"#utility.yul\":924:947   */\n      sub\n        /* \"#utility.yul\":920:952   */\n      slt\n        /* \"#utility.yul\":917:1036   */\n      iszero\n      tag_294\n      jumpi\n        /* \"#utility.yul\":955:1034   */\n      tag_295\n      tag_216\n      jump\t// in\n    tag_295:\n        /* \"#utility.yul\":917:1036   */\n    tag_294:\n        /* \"#utility.yul\":1075:1076   */\n      0x00\n        /* \"#utility.yul\":1100:1153   */\n      tag_296\n        /* \"#utility.yul\":1145:1152   */\n      dup5\n        /* \"#utility.yul\":1136:1142   */\n      dup3\n        /* \"#utility.yul\":1125:1134   */\n      dup6\n        /* \"#utility.yul\":1121:1143   */\n      add\n        /* \"#utility.yul\":1100:1153   */\n      tag_221\n      jump\t// in\n    tag_296:\n        /* \"#utility.yul\":1090:1153   */\n      swap2\n      pop\n        /* \"#utility.yul\":1046:1163   */\n      pop\n        /* \"#utility.yul\":841:1170   */\n      swap3\n      swap2\n      pop\n      pop\n      jump\t// out\n        /* \"#utility.yul\":1176:1253   */\n    tag_222:\n        /* \"#utility.yul\":1213:1220   */\n      0x00\n        /* \"#utility.yul\":1242:1247   */\n      dup2\n        /* \"#utility.yul\":1231:1247   */\n      swap1\n      pop\n        /* \"#utility.yul\":1176:1253   */\n      swap2\n      swap1\n      pop\n      jump\t// out\n        /* \"#utility.yul\":1259:1381   */\n    tag_223:\n        /* \"#utility.yul\":1332:1356   */\n      tag_299\n        /* \"#utility.yul\":1350:1355   */\n      dup2\n        /* \"#utility.yul\":1332:1356   */\n      tag_222\n      jump\t// in\n    tag_299:\n        /* \"#utility.yul\":1325:1330   */\n      dup2\n        /* \"#utility.yul\":1322:1357   */\n      eq\n        /* \"#utility.yul\":1312:1375   */\n      tag_300\n      jumpi\n        /* \"#utility.yul\":1371:1372   */\n      0x00\n        /* \"#utility.yul\":1368:1369   */\n      dup1\n        /* \"#utility.yul\":1361:1373   */\n      revert\n        /* \"#utility.yul\":1312:1375   */\n    tag_300:\n        /* \"#utility.yul\":1259:1381   */\n      pop\n      jump\t// out\n        /* \"#utility.yul\":1387:1526   */\n    tag_224:\n        /* \"#utility.yul\":1433:1438   */\n      0x00\n        /* \"#utility.yul\":1471:1477   */\n      dup2\n        /* \"#utility.yul\":1458:1478   */\n      calldataload\n        /* \"#utility.yul\":1449:1478   */\n      swap1\n      pop\n        /* \"#utility.yul\":1487:1520   */\n      tag_302\n        /* \"#utility.yul\":1514:1519   */\n      dup2\n        /* \"#utility.yul\":1487:1520   */\n      tag_223\n      jump\t// in\n    tag_302:\n        /* \"#utility.yul\":1387:1526   */\n      swap3\n      swap2\n      pop\n      pop\n      jump\t// out\n        /* \"#utility.yul\":1532:2006   */\n    tag_31:\n        /* \"#utility.yul\":1600:1606   */\n      0x00\n        /* \"#utility.yul\":1608:1614   */\n      dup1\n        /* \"#utility.yul\":1657:1659   */\n      0x40\n        /* \"#utility.yul\":1645:1654   */\n      dup4\n        /* \"#utility.yul\":1636:1643   */\n      dup6\n        /* \"#utility.yul\":1632:1655   */\n      sub\n        /* \"#utility.yul\":1628:1660   */\n      slt\n        /* \"#utility.yul\":1625:1744   */\n      iszero\n      tag_304\n      jumpi\n        /* \"#utility.yul\":1663:1742   */\n      tag_305\n      tag_216\n      jump\t// in\n    tag_305:\n        /* \"#utility.yul\":1625:1744   */\n    tag_304:\n        /* \"#utility.yul\":1783:1784   */\n      0x00\n        /* \"#utility.yul\":1808:1861   */\n      tag_306\n        /* \"#utility.yul\":1853:1860   */\n      dup6\n        /* \"#utility.yul\":1844:1850   */\n      dup3\n        /* \"#utility.yul\":1833:1842   */\n      dup7\n        /* \"#utility.yul\":1829:1851   */\n      add\n        /* \"#utility.yul\":1808:1861   */\n      tag_221\n      jump\t// in\n    tag_306:\n        /* \"#utility.yul\":1798:1861   */\n      swap3\n      pop\n        /* \"#utility.yul\":1754:1871   */\n      pop\n        /* \"#utility.yul\":1910:1912   */\n      0x20\n        /* \"#utility.yul\":1936:1989   */\n      tag_307\n        /* \"#utility.yul\":1981:1988   */\n      dup6\n        /* \"#utility.yul\":1972:1978   */\n      dup3\n        /* \"#utility.yul\":1961:1970   */\n      dup7\n        /* \"#utility.yul\":1957:1979   */\n      add\n        /* \"#utility.yul\":1936:1989   */\n      tag_224\n      jump\t// in\n    tag_307:\n        /* \"#utility.yul\":1926:1989   */\n      swap2\n      pop\n        /* \"#utility.yul\":1881:1999   */\n      pop\n        /* \"#utility.yul\":1532:2006   */\n      swap3\n      pop\n      swap3\n      swap1\n      pop\n      jump\t// out\n        /* \"#utility.yul\":2012:2102   */\n    tag_225:\n        /* \"#utility.yul\":2046:2053   */\n      0x00\n        /* \"#utility.yul\":2089:2094   */\n      dup2\n        /* \"#utility.yul\":2082:2095   */\n      iszero\n        /* \"#utility.yul\":2075:2096   */\n      iszero\n        /* \"#utility.yul\":2064:2096   */\n      swap1\n      pop\n        /* \"#utility.yul\":2012:2102   */\n      swap2\n      swap1\n      pop\n      jump\t// out\n        /* \"#utility.yul\":2108:2217   */\n    tag_226:\n        /* \"#utility.yul\":2189:2210   */\n      tag_310\n        /* \"#utility.yul\":2204:2209   */\n      dup2\n        /* \"#utility.yul\":2189:2210   */\n      tag_225\n      jump\t// in\n    tag_310:\n        /* \"#utility.yul\":2184:2187   */\n      dup3\n        /* \"#utility.yul\":2177:2211   */\n      mstore\n        /* \"#utility.yul\":2108:2217   */\n      pop\n      pop\n      jump\t// out\n        /* \"#utility.yul\":2223:2433   */\n    tag_37:\n        /* \"#utility.yul\":2310:2314   */\n      0x00\n        /* \"#utility.yul\":2348:2350   */\n      0x20\n        /* \"#utility.yul\":2337:2346   */\n      dup3\n        /* \"#utility.yul\":2333:2351   */\n      add\n        /* \"#utility.yul\":2325:2351   */\n      swap1\n      pop\n        /* \"#utility.yul\":2361:2426   */\n      tag_312\n        /* \"#utility.yul\":2423:2424   */\n      0x00\n        /* \"#utility.yul\":2412:2421   */\n      dup4\n        /* \"#utility.yul\":2408:2425   */\n      add\n        /* \"#utility.yul\":2399:2405   */\n      dup5\n        /* \"#utility.yul\":2361:2426   */\n      tag_226\n      jump\t// in\n    tag_312:\n        /* \"#utility.yul\":2223:2433   */\n      swap3\n      swap2\n      pop\n      pop\n      jump\t// out\n        /* \"#utility.yul\":2439:2557   */\n    tag_227:\n        /* \"#utility.yul\":2526:2550   */\n      tag_314\n        /* \"#utility.yul\":2544:2549   */\n      dup2\n        /* \"#utility.yul\":2526:2550   */\n      tag_222\n      jump\t// in\n    tag_314:\n        /* \"#utility.yul\":2521:2524   */\n      dup3\n        /* \"#utility.yul\":2514:2551   */\n      mstore\n        /* \"#utility.yul\":2439:2557   */\n      pop\n      pop\n      jump\t// out\n        /* \"#utility.yul\":2563:2785   */\n    tag_41:\n        /* \"#utility.yul\":2656:2660   */\n      0x00\n        /* \"#utility.yul\":2694:2696   */\n      0x20\n        /* \"#utility.yul\":2683:2692   */\n      dup3\n        /* \"#utility.yul\":2679:2697   */\n      add\n        /* \"#utility.yul\":2671:2697   */\n      swap1\n      pop\n        /* \"#utility.yul\":2707:2778   */\n      tag_316\n        /* \"#utility.yul\":2775:2776   */\n      0x00\n        /* \"#utility.yul\":2764:2773   */\n      dup4\n        /* \"#utility.yul\":2760:2777   */\n      add\n        /* \"#utility.yul\":2751:2757   */\n      dup5\n        /* \"#utility.yul\":2707:2778   */\n      tag_227\n      jump\t// in\n    tag_316:\n        /* \"#utility.yul\":2563:2785   */\n      swap3\n      swap2\n      pop\n      pop\n      jump\t// out\n        /* \"#utility.yul\":2791:3120   */\n    tag_44:\n        /* \"#utility.yul\":2850:2856   */\n      0x00\n        /* \"#utility.yul\":2899:2901   */\n      0x20\n        /* \"#utility.yul\":2887:2896   */\n      dup3\n        /* \"#utility.yul\":2878:2885   */\n      dup5\n        /* \"#utility.yul\":2874:2897   */\n      sub\n        /* \"#utility.yul\":2870:2902   */\n      slt\n        /* \"#utility.yul\":2867:2986   */\n      iszero\n      tag_318\n      jumpi\n        /* \"#utility.yul\":2905:2984   */\n      tag_319\n      tag_216\n      jump\t// in\n    tag_319:\n        /* \"#utility.yul\":2867:2986   */\n    tag_318:\n        /* \"#utility.yul\":3025:3026   */\n      0x00\n        /* \"#utility.yul\":3050:3103   */\n      tag_320\n        /* \"#utility.yul\":3095:3102   */\n      dup5\n        /* \"#utility.yul\":3086:3092   */\n      dup3\n        /* \"#utility.yul\":3075:3084   */\n      dup6\n        /* \"#utility.yul\":3071:3093   */\n      add\n        /* \"#utility.yul\":3050:3103   */\n      tag_224\n      jump\t// in\n    tag_320:\n        /* \"#utility.yul\":3040:3103   */\n      swap2\n      pop\n        /* \"#utility.yul\":2996:3113   */\n      pop\n        /* \"#utility.yul\":2791:3120   */\n      swap3\n      swap2\n      pop\n      pop\n      jump\t// out\n        /* \"#utility.yul\":3126:3234   */\n    tag_228:\n        /* \"#utility.yul\":3203:3227   */\n      tag_322\n        /* \"#utility.yul\":3221:3226   */\n      dup2\n        /* \"#utility.yul\":3203:3227   */\n      tag_222\n      jump\t// in\n    tag_322:\n        /* \"#utility.yul\":3198:3201   */\n      dup3\n        /* \"#utility.yul\":3191:3228   */\n      mstore\n        /* \"#utility.yul\":3126:3234   */\n      pop\n      pop\n      jump\t// out\n        /* \"#utility.yul\":3240:3339   */\n    tag_229:\n        /* \"#utility.yul\":3292:3298   */\n      0x00\n        /* \"#utility.yul\":3326:3331   */\n      dup2\n        /* \"#utility.yul\":3320:3332   */\n      mload\n        /* \"#utility.yul\":3310:3332   */\n      swap1\n      pop\n        /* \"#utility.yul\":3240:3339   */\n      swap2\n      swap1\n      pop\n      jump\t// out\n        /* \"#utility.yul\":3345:3504   */\n    tag_230:\n        /* \"#utility.yul\":3419:3430   */\n      0x00\n        /* \"#utility.yul\":3453:3459   */\n      dup3\n        /* \"#utility.yul\":3448:3451   */\n      dup3\n        /* \"#utility.yul\":3441:3460   */\n      mstore\n        /* \"#utility.yul\":3493:3497   */\n      0x20\n        /* \"#utility.yul\":3488:3491   */\n      dup3\n        /* \"#utility.yul\":3484:3498   */\n      add\n        /* \"#utility.yul\":3469:3498   */\n      swap1\n      pop\n        /* \"#utility.yul\":3345:3504   */\n      swap3\n      swap2\n      pop\n      pop\n      jump\t// out\n        /* \"#utility.yul\":3510:3649   */\n    tag_231:\n        /* \"#utility.yul\":3599:3605   */\n      dup3\n        /* \"#utility.yul\":3594:3597   */\n      dup2\n        /* \"#utility.yul\":3589:3592   */\n      dup4\n        /* \"#utility.yul\":3583:3606   */\n      mcopy\n        /* \"#utility.yul\":3640:3641   */\n      0x00\n        /* \"#utility.yul\":3631:3637   */\n      dup4\n        /* \"#utility.yul\":3626:3629   */\n      dup4\n        /* \"#utility.yul\":3622:3638   */\n      add\n        /* \"#utility.yul\":3615:3642   */\n      mstore\n        /* \"#utility.yul\":3510:3649   */\n      pop\n      pop\n      pop\n      jump\t// out\n        /* \"#utility.yul\":3655:3757   */\n    tag_232:\n        /* \"#utility.yul\":3696:3702   */\n      0x00\n        /* \"#utility.yul\":3747:3749   */\n      0x1f\n        /* \"#utility.yul\":3743:3750   */\n      not\n        /* \"#utility.yul\":3738:3740   */\n      0x1f\n        /* \"#utility.yul\":3731:3736   */\n      dup4\n        /* \"#utility.yul\":3727:3741   */\n      add\n        /* \"#utility.yul\":3723:3751   */\n      and\n        /* \"#utility.yul\":3713:3751   */\n      swap1\n      pop\n        /* \"#utility.yul\":3655:3757   */\n      swap2\n      swap1\n      pop\n      jump\t// out\n        /* \"#utility.yul\":3763:4120   */\n    tag_233:\n        /* \"#utility.yul\":3841:3844   */\n      0x00\n        /* \"#utility.yul\":3869:3908   */\n      tag_328\n        /* \"#utility.yul\":3902:3907   */\n      dup3\n        /* \"#utility.yul\":3869:3908   */\n      tag_229\n      jump\t// in\n    tag_328:\n        /* \"#utility.yul\":3924:3985   */\n      tag_329\n        /* \"#utility.yul\":3978:3984   */\n      dup2\n        /* \"#utility.yul\":3973:3976   */\n      dup6\n        /* \"#utility.yul\":3924:3985   */\n      tag_230\n      jump\t// in\n    tag_329:\n        /* \"#utility.yul\":3917:3985   */\n      swap4\n      pop\n        /* \"#utility.yul\":3994:4059   */\n      tag_330\n        /* \"#utility.yul\":4052:4058   */\n      dup2\n        /* \"#utility.yul\":4047:4050   */\n      dup6\n        /* \"#utility.yul\":4040:4044   */\n      0x20\n        /* \"#utility.yul\":4033:4038   */\n      dup7\n        /* \"#utility.yul\":4029:4045   */\n      add\n        /* \"#utility.yul\":3994:4059   */\n      tag_231\n      jump\t// in\n    tag_330:\n        /* \"#utility.yul\":4084:4113   */\n      tag_331\n        /* \"#utility.yul\":4106:4112   */\n      dup2\n        /* \"#utility.yul\":4084:4113   */\n      tag_232\n      jump\t// in\n    tag_331:\n        /* \"#utility.yul\":4079:4082   */\n      dup5\n        /* \"#utility.yul\":4075:4114   */\n      add\n        /* \"#utility.yul\":4068:4114   */\n      swap2\n      pop\n        /* \"#utility.yul\":3845:4120   */\n      pop\n        /* \"#utility.yul\":3763:4120   */\n      swap3\n      swap2\n      pop\n      pop\n      jump\t// out\n        /* \"#utility.yul\":4126:4234   */\n    tag_234:\n        /* \"#utility.yul\":4203:4227   */\n      tag_333\n        /* \"#utility.yul\":4221:4226   */\n      dup2\n        /* \"#utility.yul\":4203:4227   */\n      tag_219\n      jump\t// in\n    tag_333:\n        /* \"#utility.yul\":4198:4201   */\n      dup3\n        /* \"#utility.yul\":4191:4228   */\n      mstore\n        /* \"#utility.yul\":4126:4234   */\n      pop\n      pop\n      jump\t// out\n        /* \"#utility.yul\":4310:5818   */\n    tag_235:\n        /* \"#utility.yul\":4427:4430   */\n      0x00\n        /* \"#utility.yul\":4463:4467   */\n      0xe0\n        /* \"#utility.yul\":4458:4461   */\n      dup4\n        /* \"#utility.yul\":4454:4468   */\n      add\n        /* \"#utility.yul\":4548:4552   */\n      0x00\n        /* \"#utility.yul\":4541:4546   */\n      dup4\n        /* \"#utility.yul\":4537:4553   */\n      add\n        /* \"#utility.yul\":4531:4554   */\n      mload\n        /* \"#utility.yul\":4567:4630   */\n      tag_335\n        /* \"#utility.yul\":4624:4628   */\n      0x00\n        /* \"#utility.yul\":4619:4622   */\n      dup7\n        /* \"#utility.yul\":4615:4629   */\n      add\n        /* \"#utility.yul\":4601:4613   */\n      dup3\n        /* \"#utility.yul\":4567:4630   */\n      tag_228\n      jump\t// in\n    tag_335:\n        /* \"#utility.yul\":4478:4640   */\n      pop\n        /* \"#utility.yul\":4722:4726   */\n      0x20\n        /* \"#utility.yul\":4715:4720   */\n      dup4\n        /* \"#utility.yul\":4711:4727   */\n      add\n        /* \"#utility.yul\":4705:4728   */\n      mload\n        /* \"#utility.yul\":4775:4778   */\n      dup5\n        /* \"#utility.yul\":4769:4773   */\n      dup3\n        /* \"#utility.yul\":4765:4779   */\n      sub\n        /* \"#utility.yul\":4758:4762   */\n      0x20\n        /* \"#utility.yul\":4753:4756   */\n      dup7\n        /* \"#utility.yul\":4749:4763   */\n      add\n        /* \"#utility.yul\":4742:4780   */\n      mstore\n        /* \"#utility.yul\":4801:4874   */\n      tag_336\n        /* \"#utility.yul\":4869:4873   */\n      dup3\n        /* \"#utility.yul\":4855:4867   */\n      dup3\n        /* \"#utility.yul\":4801:4874   */\n      tag_233\n      jump\t// in\n    tag_336:\n        /* \"#utility.yul\":4793:4874   */\n      swap2\n      pop\n        /* \"#utility.yul\":4650:4885   */\n      pop\n        /* \"#utility.yul\":4972:4976   */\n      0x40\n        /* \"#utility.yul\":4965:4970   */\n      dup4\n        /* \"#utility.yul\":4961:4977   */\n      add\n        /* \"#utility.yul\":4955:4978   */\n      mload\n        /* \"#utility.yul\":4991:5054   */\n      tag_337\n        /* \"#utility.yul\":5048:5052   */\n      0x40\n        /* \"#utility.yul\":5043:5046   */\n      dup7\n        /* \"#utility.yul\":5039:5053   */\n      add\n        /* \"#utility.yul\":5025:5037   */\n      dup3\n        /* \"#utility.yul\":4991:5054   */\n      tag_228\n      jump\t// in\n    tag_337:\n        /* \"#utility.yul\":4895:5064   */\n      pop\n        /* \"#utility.yul\":5153:5157   */\n      0x60\n        /* \"#utility.yul\":5146:5151   */\n      dup4\n        /* \"#utility.yul\":5142:5158   */\n      add\n        /* \"#utility.yul\":5136:5159   */\n      mload\n        /* \"#utility.yul\":5172:5235   */\n      tag_338\n        /* \"#utility.yul\":5229:5233   */\n      0x60\n        /* \"#utility.yul\":5224:5227   */\n      dup7\n        /* \"#utility.yul\":5220:5234   */\n      add\n        /* \"#utility.yul\":5206:5218   */\n      dup3\n        /* \"#utility.yul\":5172:5235   */\n      tag_228\n      jump\t// in\n    tag_338:\n        /* \"#utility.yul\":5074:5245   */\n      pop\n        /* \"#utility.yul\":5335:5339   */\n      0x80\n        /* \"#utility.yul\":5328:5333   */\n      dup4\n        /* \"#utility.yul\":5324:5340   */\n      add\n        /* \"#utility.yul\":5318:5341   */\n      mload\n        /* \"#utility.yul\":5354:5417   */\n      tag_339\n        /* \"#utility.yul\":5411:5415   */\n      0x80\n        /* \"#utility.yul\":5406:5409   */\n      dup7\n        /* \"#utility.yul\":5402:5416   */\n      add\n        /* \"#utility.yul\":5388:5400   */\n      dup3\n        /* \"#utility.yul\":5354:5417   */\n      tag_234\n      jump\t// in\n    tag_339:\n        /* \"#utility.yul\":5255:5427   */\n      pop\n        /* \"#utility.yul\":5517:5521   */\n      0xa0\n        /* \"#utility.yul\":5510:5515   */\n      dup4\n        /* \"#utility.yul\":5506:5522   */\n      add\n        /* \"#utility.yul\":5500:5523   */\n      mload\n        /* \"#utility.yul\":5536:5599   */\n      tag_340\n        /* \"#utility.yul\":5593:5597   */\n      0xa0\n        /* \"#utility.yul\":5588:5591   */\n      dup7\n        /* \"#utility.yul\":5584:5598   */\n      add\n        /* \"#utility.yul\":5570:5582   */\n      dup3\n        /* \"#utility.yul\":5536:5599   */\n      tag_234\n      jump\t// in\n    tag_340:\n        /* \"#utility.yul\":5437:5609   */\n      pop\n        /* \"#utility.yul\":5699:5703   */\n      0xc0\n        /* \"#utility.yul\":5692:5697   */\n      dup4\n        /* \"#utility.yul\":5688:5704   */\n      add\n        /* \"#utility.yul\":5682:5705   */\n      mload\n        /* \"#utility.yul\":5718:5781   */\n      tag_341\n        /* \"#utility.yul\":5775:5779   */\n      0xc0\n        /* \"#utility.yul\":5770:5773   */\n      dup7\n        /* \"#utility.yul\":5766:5780   */\n      add\n        /* \"#utility.yul\":5752:5764   */\n      dup3\n        /* \"#utility.yul\":5718:5781   */\n      tag_228\n      jump\t// in\n    tag_341:\n        /* \"#utility.yul\":5619:5791   */\n      pop\n        /* \"#utility.yul\":5808:5812   */\n      dup1\n        /* \"#utility.yul\":5801:5812   */\n      swap2\n      pop\n        /* \"#utility.yul\":4432:5818   */\n      pop\n        /* \"#utility.yul\":4310:5818   */\n      swap3\n      swap2\n      pop\n      pop\n      jump\t// out\n        /* \"#utility.yul\":5824:6193   */\n    tag_47:\n        /* \"#utility.yul\":5965:5969   */\n      0x00\n        /* \"#utility.yul\":6003:6005   */\n      0x20\n        /* \"#utility.yul\":5992:6001   */\n      dup3\n        /* \"#utility.yul\":5988:6006   */\n      add\n        /* \"#utility.yul\":5980:6006   */\n      swap1\n      pop\n        /* \"#utility.yul\":6052:6061   */\n      dup2\n        /* \"#utility.yul\":6046:6050   */\n      dup2\n        /* \"#utility.yul\":6042:6062   */\n      sub\n        /* \"#utility.yul\":6038:6039   */\n      0x00\n        /* \"#utility.yul\":6027:6036   */\n      dup4\n        /* \"#utility.yul\":6023:6040   */\n      add\n        /* \"#utility.yul\":6016:6063   */\n      mstore\n        /* \"#utility.yul\":6080:6186   */\n      tag_343\n        /* \"#utility.yul\":6181:6185   */\n      dup2\n        /* \"#utility.yul\":6172:6178   */\n      dup5\n        /* \"#utility.yul\":6080:6186   */\n      tag_235\n      jump\t// in\n    tag_343:\n        /* \"#utility.yul\":6072:6186   */\n      swap1\n      pop\n        /* \"#utility.yul\":5824:6193   */\n      swap3\n      swap2\n      pop\n      pop\n      jump\t// out\n        /* \"#utility.yul\":6199:6316   */\n    tag_236:\n        /* \"#utility.yul\":6308:6309   */\n      0x00\n        /* \"#utility.yul\":6305:6306   */\n      dup1\n        /* \"#utility.yul\":6298:6310   */\n      revert\n        /* \"#utility.yul\":6322:6439   */\n    tag_237:\n        /* \"#utility.yul\":6431:6432   */\n      0x00\n        /* \"#utility.yul\":6428:6429   */\n      dup1\n        /* \"#utility.yul\":6421:6433   */\n      revert\n        /* \"#utility.yul\":6445:6625   */\n    tag_238:\n        /* \"#utility.yul\":6493:6570   */\n      0x4e487b7100000000000000000000000000000000000000000000000000000000\n        /* \"#utility.yul\":6490:6491   */\n      0x00\n        /* \"#utility.yul\":6483:6571   */\n      mstore\n        /* \"#utility.yul\":6590:6594   */\n      0x41\n        /* \"#utility.yul\":6587:6588   */\n      0x04\n        /* \"#utility.yul\":6580:6595   */\n      mstore\n        /* \"#utility.yul\":6614:6618   */\n      0x24\n        /* \"#utility.yul\":6611:6612   */\n      0x00\n        /* \"#utility.yul\":6604:6619   */\n      revert\n        /* \"#utility.yul\":6631:6912   */\n    tag_239:\n        /* \"#utility.yul\":6714:6741   */\n      tag_348\n        /* \"#utility.yul\":6736:6740   */\n      dup3\n        /* \"#utility.yul\":6714:6741   */\n      tag_232\n      jump\t// in\n    tag_348:\n        /* \"#utility.yul\":6706:6712   */\n      dup2\n        /* \"#utility.yul\":6702:6742   */\n      add\n        /* \"#utility.yul\":6844:6850   */\n      dup2\n        /* \"#utility.yul\":6832:6842   */\n      dup2\n        /* \"#utility.yul\":6829:6851   */\n      lt\n        /* \"#utility.yul\":6808:6826   */\n      0xffffffffffffffff\n        /* \"#utility.yul\":6796:6806   */\n      dup3\n        /* \"#utility.yul\":6793:6827   */\n      gt\n        /* \"#utility.yul\":6790:6852   */\n      or\n        /* \"#utility.yul\":6787:6875   */\n      iszero\n      tag_349\n      jumpi\n        /* \"#utility.yul\":6855:6873   */\n      tag_350\n      tag_238\n      jump\t// in\n    tag_350:\n        /* \"#utility.yul\":6787:6875   */\n    tag_349:\n        /* \"#utility.yul\":6895:6905   */\n      dup1\n        /* \"#utility.yul\":6891:6893   */\n      0x40\n        /* \"#utility.yul\":6884:6906   */\n      mstore\n        /* \"#utility.yul\":6674:6912   */\n      pop\n        /* \"#utility.yul\":6631:6912   */\n      pop\n      pop\n      jump\t// out\n        /* \"#utility.yul\":6918:7047   */\n    tag_240:\n        /* \"#utility.yul\":6952:6958   */\n      0x00\n        /* \"#utility.yul\":6979:6999   */\n      tag_352\n      tag_215\n      jump\t// in\n    tag_352:\n        /* \"#utility.yul\":6969:6999   */\n      swap1\n      pop\n        /* \"#utility.yul\":7008:7041   */\n      tag_353\n        /* \"#utility.yul\":7036:7040   */\n      dup3\n        /* \"#utility.yul\":7028:7034   */\n      dup3\n        /* \"#utility.yul\":7008:7041   */\n      tag_239\n      jump\t// in\n    tag_353:\n        /* \"#utility.yul\":6918:7047   */\n      swap2\n      swap1\n      pop\n      jump\t// out\n        /* \"#utility.yul\":7053:7361   */\n    tag_241:\n        /* \"#utility.yul\":7115:7119   */\n      0x00\n        /* \"#utility.yul\":7205:7223   */\n      0xffffffffffffffff\n        /* \"#utility.yul\":7197:7203   */\n      dup3\n        /* \"#utility.yul\":7194:7224   */\n      gt\n        /* \"#utility.yul\":7191:7247   */\n      iszero\n      tag_355\n      jumpi\n        /* \"#utility.yul\":7227:7245   */\n      tag_356\n      tag_238\n      jump\t// in\n    tag_356:\n        /* \"#utility.yul\":7191:7247   */\n    tag_355:\n        /* \"#utility.yul\":7265:7294   */\n      tag_357\n        /* \"#utility.yul\":7287:7293   */\n      dup3\n        /* \"#utility.yul\":7265:7294   */\n      tag_232\n      jump\t// in\n    tag_357:\n        /* \"#utility.yul\":7257:7294   */\n      swap1\n      pop\n        /* \"#utility.yul\":7349:7353   */\n      0x20\n        /* \"#utility.yul\":7343:7347   */\n      dup2\n        /* \"#utility.yul\":7339:7354   */\n      add\n        /* \"#utility.yul\":7331:7354   */\n      swap1\n      pop\n        /* \"#utility.yul\":7053:7361   */\n      swap2\n      swap1\n      pop\n      jump\t// out\n        /* \"#utility.yul\":7367:7515   */\n    tag_242:\n        /* \"#utility.yul\":7465:7471   */\n      dup3\n        /* \"#utility.yul\":7460:7463   */\n      dup2\n        /* \"#utility.yul\":7455:7458   */\n      dup4\n        /* \"#utility.yul\":7442:7472   */\n      calldatacopy\n        /* \"#utility.yul\":7506:7507   */\n      0x00\n        /* \"#utility.yul\":7497:7503   */\n      dup4\n        /* \"#utility.yul\":7492:7495   */\n      dup4\n        /* \"#utility.yul\":7488:7504   */\n      add\n        /* \"#utility.yul\":7481:7508   */\n      mstore\n        /* \"#utility.yul\":7367:7515   */\n      pop\n      pop\n      pop\n      jump\t// out\n        /* \"#utility.yul\":7521:7946   */\n    tag_243:\n        /* \"#utility.yul\":7599:7604   */\n      0x00\n        /* \"#utility.yul\":7624:7690   */\n      tag_360\n        /* \"#utility.yul\":7640:7689   */\n      tag_361\n        /* \"#utility.yul\":7682:7688   */\n      dup5\n        /* \"#utility.yul\":7640:7689   */\n      tag_241\n      jump\t// in\n    tag_361:\n        /* \"#utility.yul\":7624:7690   */\n      tag_240\n      jump\t// in\n    tag_360:\n        /* \"#utility.yul\":7615:7690   */\n      swap1\n      pop\n        /* \"#utility.yul\":7713:7719   */\n      dup3\n        /* \"#utility.yul\":7706:7711   */\n      dup2\n        /* \"#utility.yul\":7699:7720   */\n      mstore\n        /* \"#utility.yul\":7751:7755   */\n      0x20\n        /* \"#utility.yul\":7744:7749   */\n      dup2\n        /* \"#utility.yul\":7740:7756   */\n      add\n        /* \"#utility.yul\":7789:7792   */\n      dup5\n        /* \"#utility.yul\":7780:7786   */\n      dup5\n        /* \"#utility.yul\":7775:7778   */\n      dup5\n        /* \"#utility.yul\":7771:7787   */\n      add\n        /* \"#utility.yul\":7768:7793   */\n      gt\n        /* \"#utility.yul\":7765:7877   */\n      iszero\n      tag_362\n      jumpi\n        /* \"#utility.yul\":7796:7875   */\n      tag_363\n      tag_237\n      jump\t// in\n    tag_363:\n        /* \"#utility.yul\":7765:7877   */\n    tag_362:\n        /* \"#utility.yul\":7886:7940   */\n      tag_364\n        /* \"#utility.yul\":7933:7939   */\n      dup5\n        /* \"#utility.yul\":7928:7931   */\n      dup3\n        /* \"#utility.yul\":7923:7926   */\n      dup6\n        /* \"#utility.yul\":7886:7940   */\n      tag_242\n      jump\t// in\n    tag_364:\n        /* \"#utility.yul\":7605:7946   */\n      pop\n        /* \"#utility.yul\":7521:7946   */\n      swap4\n      swap3\n      pop\n      pop\n      pop\n      jump\t// out\n        /* \"#utility.yul\":7966:8306   */\n    tag_244:\n        /* \"#utility.yul\":8022:8027   */\n      0x00\n        /* \"#utility.yul\":8071:8074   */\n      dup3\n        /* \"#utility.yul\":8064:8068   */\n      0x1f\n        /* \"#utility.yul\":8056:8062   */\n      dup4\n        /* \"#utility.yul\":8052:8069   */\n      add\n        /* \"#utility.yul\":8048:8075   */\n      slt\n        /* \"#utility.yul\":8038:8160   */\n      tag_366\n      jumpi\n        /* \"#utility.yul\":8079:8158   */\n      tag_367\n      tag_236\n      jump\t// in\n    tag_367:\n        /* \"#utility.yul\":8038:8160   */\n    tag_366:\n        /* \"#utility.yul\":8196:8202   */\n      dup2\n        /* \"#utility.yul\":8183:8203   */\n      calldataload\n        /* \"#utility.yul\":8221:8300   */\n      tag_368\n        /* \"#utility.yul\":8296:8299   */\n      dup5\n        /* \"#utility.yul\":8288:8294   */\n      dup3\n        /* \"#utility.yul\":8281:8285   */\n      0x20\n        /* \"#utility.yul\":8273:8279   */\n      dup7\n        /* \"#utility.yul\":8269:8286   */\n      add\n        /* \"#utility.yul\":8221:8300   */\n      tag_243\n      jump\t// in\n    tag_368:\n        /* \"#utility.yul\":8212:8300   */\n      swap2\n      pop\n        /* \"#utility.yul\":8028:8306   */\n      pop\n        /* \"#utility.yul\":7966:8306   */\n      swap3\n      swap2\n      pop\n      pop\n      jump\t// out\n        /* \"#utility.yul\":8312:9257   */\n    tag_53:\n        /* \"#utility.yul\":8408:8414   */\n      0x00\n        /* \"#utility.yul\":8416:8422   */\n      dup1\n        /* \"#utility.yul\":8424:8430   */\n      0x00\n        /* \"#utility.yul\":8432:8438   */\n      dup1\n        /* \"#utility.yul\":8481:8484   */\n      0x80\n        /* \"#utility.yul\":8469:8478   */\n      dup6\n        /* \"#utility.yul\":8460:8467   */\n      dup8\n        /* \"#utility.yul\":8456:8479   */\n      sub\n        /* \"#utility.yul\":8452:8485   */\n      slt\n        /* \"#utility.yul\":8449:8569   */\n      iszero\n      tag_370\n      jumpi\n        /* \"#utility.yul\":8488:8567   */\n      tag_371\n      tag_216\n      jump\t// in\n    tag_371:\n        /* \"#utility.yul\":8449:8569   */\n    tag_370:\n        /* \"#utility.yul\":8636:8637   */\n      0x00\n        /* \"#utility.yul\":8625:8634   */\n      dup6\n        /* \"#utility.yul\":8621:8638   */\n      add\n        /* \"#utility.yul\":8608:8639   */\n      calldataload\n        /* \"#utility.yul\":8666:8684   */\n      0xffffffffffffffff\n        /* \"#utility.yul\":8658:8664   */\n      dup2\n        /* \"#utility.yul\":8655:8685   */\n      gt\n        /* \"#utility.yul\":8652:8769   */\n      iszero\n      tag_372\n      jumpi\n        /* \"#utility.yul\":8688:8767   */\n      tag_373\n      tag_217\n      jump\t// in\n    tag_373:\n        /* \"#utility.yul\":8652:8769   */\n    tag_372:\n        /* \"#utility.yul\":8793:8856   */\n      tag_374\n        /* \"#utility.yul\":8848:8855   */\n      dup8\n        /* \"#utility.yul\":8839:8845   */\n      dup3\n        /* \"#utility.yul\":8828:8837   */\n      dup9\n        /* \"#utility.yul\":8824:8846   */\n      add\n        /* \"#utility.yul\":8793:8856   */\n      tag_244\n      jump\t// in\n    tag_374:\n        /* \"#utility.yul\":8783:8856   */\n      swap5\n      pop\n        /* \"#utility.yul\":8579:8866   */\n      pop\n        /* \"#utility.yul\":8905:8907   */\n      0x20\n        /* \"#utility.yul\":8931:8984   */\n      tag_375\n        /* \"#utility.yul\":8976:8983   */\n      dup8\n        /* \"#utility.yul\":8967:8973   */\n      dup3\n        /* \"#utility.yul\":8956:8965   */\n      dup9\n        /* \"#utility.yul\":8952:8974   */\n      add\n        /* \"#utility.yul\":8931:8984   */\n      tag_224\n      jump\t// in\n    tag_375:\n        /* \"#utility.yul\":8921:8984   */\n      swap4\n      pop\n        /* \"#utility.yul\":8876:8994   */\n      pop\n        /* \"#utility.yul\":9033:9035   */\n      0x40\n        /* \"#utility.yul\":9059:9112   */\n      tag_376\n        /* \"#utility.yul\":9104:9111   */\n      dup8\n        /* \"#utility.yul\":9095:9101   */\n      dup3\n        /* \"#utility.yul\":9084:9093   */\n      dup9\n        /* \"#utility.yul\":9080:9102   */\n      add\n        /* \"#utility.yul\":9059:9112   */\n      tag_224\n      jump\t// in\n    tag_376:\n        /* \"#utility.yul\":9049:9112   */\n      swap3\n      pop\n        /* \"#utility.yul\":9004:9122   */\n      pop\n        /* \"#utility.yul\":9161:9163   */\n      0x60\n        /* \"#utility.yul\":9187:9240   */\n      tag_377\n        /* \"#utility.yul\":9232:9239   */\n      dup8\n        /* \"#utility.yul\":9223:9229   */\n      dup3\n        /* \"#utility.yul\":9212:9221   */\n      dup9\n        /* \"#utility.yul\":9208:9230   */\n      add\n        /* \"#utility.yul\":9187:9240   */\n      tag_221\n      jump\t// in\n    tag_377:\n        /* \"#utility.yul\":9177:9240   */\n      swap2\n      pop\n        /* \"#utility.yul\":9132:9250   */\n      pop\n        /* \"#utility.yul\":8312:9257   */\n      swap3\n      swap6\n      swap2\n      swap5\n      pop\n      swap3\n      pop\n      jump\t// out\n        /* \"#utility.yul\":9263:9432   */\n    tag_245:\n        /* \"#utility.yul\":9347:9358   */\n      0x00\n        /* \"#utility.yul\":9381:9387   */\n      dup3\n        /* \"#utility.yul\":9376:9379   */\n      dup3\n        /* \"#utility.yul\":9369:9388   */\n      mstore\n        /* \"#utility.yul\":9421:9425   */\n      0x20\n        /* \"#utility.yul\":9416:9419   */\n      dup3\n        /* \"#utility.yul\":9412:9426   */\n      add\n        /* \"#utility.yul\":9397:9426   */\n      swap1\n      pop\n        /* \"#utility.yul\":9263:9432   */\n      swap3\n      swap2\n      pop\n      pop\n      jump\t// out\n        /* \"#utility.yul\":9438:9815   */\n    tag_246:\n        /* \"#utility.yul\":9526:9529   */\n      0x00\n        /* \"#utility.yul\":9554:9593   */\n      tag_380\n        /* \"#utility.yul\":9587:9592   */\n      dup3\n        /* \"#utility.yul\":9554:9593   */\n      tag_229\n      jump\t// in\n    tag_380:\n        /* \"#utility.yul\":9609:9680   */\n      tag_381\n        /* \"#utility.yul\":9673:9679   */\n      dup2\n        /* \"#utility.yul\":9668:9671   */\n      dup6\n        /* \"#utility.yul\":9609:9680   */\n      tag_245\n      jump\t// in\n    tag_381:\n        /* \"#utility.yul\":9602:9680   */\n      swap4\n      pop\n        /* \"#utility.yul\":9689:9754   */\n      tag_382\n        /* \"#utility.yul\":9747:9753   */\n      dup2\n        /* \"#utility.yul\":9742:9745   */\n      dup6\n        /* \"#utility.yul\":9735:9739   */\n      0x20\n        /* \"#utility.yul\":9728:9733   */\n      dup7\n        /* \"#utility.yul\":9724:9740   */\n      add\n        /* \"#utility.yul\":9689:9754   */\n      tag_231\n      jump\t// in\n    tag_382:\n        /* \"#utility.yul\":9779:9808   */\n      tag_383\n        /* \"#utility.yul\":9801:9807   */\n      dup2\n        /* \"#utility.yul\":9779:9808   */\n      tag_232\n      jump\t// in\n    tag_383:\n        /* \"#utility.yul\":9774:9777   */\n      dup5\n        /* \"#utility.yul\":9770:9809   */\n      add\n        /* \"#utility.yul\":9763:9809   */\n      swap2\n      pop\n        /* \"#utility.yul\":9530:9815   */\n      pop\n        /* \"#utility.yul\":9438:9815   */\n      swap3\n      swap2\n      pop\n      pop\n      jump\t// out\n        /* \"#utility.yul\":9821:9939   */\n    tag_247:\n        /* \"#utility.yul\":9908:9932   */\n      tag_385\n        /* \"#utility.yul\":9926:9931   */\n      dup2\n        /* \"#utility.yul\":9908:9932   */\n      tag_219\n      jump\t// in\n    tag_385:\n        /* \"#utility.yul\":9903:9906   */\n      dup3\n        /* \"#utility.yul\":9896:9933   */\n      mstore\n        /* \"#utility.yul\":9821:9939   */\n      pop\n      pop\n      jump\t// out\n        /* \"#utility.yul\":9945:10922   */\n    tag_59:\n        /* \"#utility.yul\":10226:10230   */\n      0x00\n        /* \"#utility.yul\":10264:10267   */\n      0xe0\n        /* \"#utility.yul\":10253:10262   */\n      dup3\n        /* \"#utility.yul\":10249:10268   */\n      add\n        /* \"#utility.yul\":10241:10268   */\n      swap1\n      pop\n        /* \"#utility.yul\":10278:10349   */\n      tag_387\n        /* \"#utility.yul\":10346:10347   */\n      0x00\n        /* \"#utility.yul\":10335:10344   */\n      dup4\n        /* \"#utility.yul\":10331:10348   */\n      add\n        /* \"#utility.yul\":10322:10328   */\n      dup11\n        /* \"#utility.yul\":10278:10349   */\n      tag_227\n      jump\t// in\n    tag_387:\n        /* \"#utility.yul\":10396:10405   */\n      dup2\n        /* \"#utility.yul\":10390:10394   */\n      dup2\n        /* \"#utility.yul\":10386:10406   */\n      sub\n        /* \"#utility.yul\":10381:10383   */\n      0x20\n        /* \"#utility.yul\":10370:10379   */\n      dup4\n        /* \"#utility.yul\":10366:10384   */\n      add\n        /* \"#utility.yul\":10359:10407   */\n      mstore\n        /* \"#utility.yul\":10424:10502   */\n      tag_388\n        /* \"#utility.yul\":10497:10501   */\n      dup2\n        /* \"#utility.yul\":10488:10494   */\n      dup10\n        /* \"#utility.yul\":10424:10502   */\n      tag_246\n      jump\t// in\n    tag_388:\n        /* \"#utility.yul\":10416:10502   */\n      swap1\n      pop\n        /* \"#utility.yul\":10512:10584   */\n      tag_389\n        /* \"#utility.yul\":10580:10582   */\n      0x40\n        /* \"#utility.yul\":10569:10578   */\n      dup4\n        /* \"#utility.yul\":10565:10583   */\n      add\n        /* \"#utility.yul\":10556:10562   */\n      dup9\n        /* \"#utility.yul\":10512:10584   */\n      tag_227\n      jump\t// in\n    tag_389:\n        /* \"#utility.yul\":10594:10666   */\n      tag_390\n        /* \"#utility.yul\":10662:10664   */\n      0x60\n        /* \"#utility.yul\":10651:10660   */\n      dup4\n        /* \"#utility.yul\":10647:10665   */\n      add\n        /* \"#utility.yul\":10638:10644   */\n      dup8\n        /* \"#utility.yul\":10594:10666   */\n      tag_227\n      jump\t// in\n    tag_390:\n        /* \"#utility.yul\":10676:10749   */\n      tag_391\n        /* \"#utility.yul\":10744:10747   */\n      0x80\n        /* \"#utility.yul\":10733:10742   */\n      dup4\n        /* \"#utility.yul\":10729:10748   */\n      add\n        /* \"#utility.yul\":10720:10726   */\n      dup7\n        /* \"#utility.yul\":10676:10749   */\n      tag_247\n      jump\t// in\n    tag_391:\n        /* \"#utility.yul\":10759:10832   */\n      tag_392\n        /* \"#utility.yul\":10827:10830   */\n      0xa0\n        /* \"#utility.yul\":10816:10825   */\n      dup4\n        /* \"#utility.yul\":10812:10831   */\n      add\n        /* \"#utility.yul\":10803:10809   */\n      dup6\n        /* \"#utility.yul\":10759:10832   */\n      tag_247\n      jump\t// in\n    tag_392:\n        /* \"#utility.yul\":10842:10915   */\n      tag_393\n        /* \"#utility.yul\":10910:10913   */\n      0xc0\n        /* \"#utility.yul\":10899:10908   */\n      dup4\n        /* \"#utility.yul\":10895:10914   */\n      add\n        /* \"#utility.yul\":10886:10892   */\n      dup5\n        /* \"#utility.yul\":10842:10915   */\n      tag_227\n      jump\t// in\n    tag_393:\n        /* \"#utility.yul\":9945:10922   */\n      swap9\n      swap8\n      pop\n      pop\n      pop\n      pop\n      pop\n      pop\n      pop\n      pop\n      jump\t// out\n        /* \"#utility.yul\":10928:11402   */\n    tag_68:\n        /* \"#utility.yul\":10996:11002   */\n      0x00\n        /* \"#utility.yul\":11004:11010   */\n      dup1\n        /* \"#utility.yul\":11053:11055   */\n      0x40\n        /* \"#utility.yul\":11041:11050   */\n      dup4\n        /* \"#utility.yul\":11032:11039   */\n      dup6\n        /* \"#utility.yul\":11028:11051   */\n      sub\n        /* \"#utility.yul\":11024:11056   */\n      slt\n        /* \"#utility.yul\":11021:11140   */\n      iszero\n      tag_395\n      jumpi\n        /* \"#utility.yul\":11059:11138   */\n      tag_396\n      tag_216\n      jump\t// in\n    tag_396:\n        /* \"#utility.yul\":11021:11140   */\n    tag_395:\n        /* \"#utility.yul\":11179:11180   */\n      0x00\n        /* \"#utility.yul\":11204:11257   */\n      tag_397\n        /* \"#utility.yul\":11249:11256   */\n      dup6\n        /* \"#utility.yul\":11240:11246   */\n      dup3\n        /* \"#utility.yul\":11229:11238   */\n      dup7\n        /* \"#utility.yul\":11225:11247   */\n      add\n        /* \"#utility.yul\":11204:11257   */\n      tag_224\n      jump\t// in\n    tag_397:\n        /* \"#utility.yul\":11194:11257   */\n      swap3\n      pop\n        /* \"#utility.yul\":11150:11267   */\n      pop\n        /* \"#utility.yul\":11306:11308   */\n      0x20\n        /* \"#utility.yul\":11332:11385   */\n      tag_398\n        /* \"#utility.yul\":11377:11384   */\n      dup6\n        /* \"#utility.yul\":11368:11374   */\n      dup3\n        /* \"#utility.yul\":11357:11366   */\n      dup7\n        /* \"#utility.yul\":11353:11375   */\n      add\n        /* \"#utility.yul\":11332:11385   */\n      tag_221\n      jump\t// in\n    tag_398:\n        /* \"#utility.yul\":11322:11385   */\n      swap2\n      pop\n        /* \"#utility.yul\":11277:11395   */\n      pop\n        /* \"#utility.yul\":10928:11402   */\n      swap3\n      pop\n      swap3\n      swap1\n      pop\n      jump\t// out\n        /* \"#utility.yul\":11408:11630   */\n    tag_76:\n        /* \"#utility.yul\":11501:11505   */\n      0x00\n        /* \"#utility.yul\":11539:11541   */\n      0x20\n        /* \"#utility.yul\":11528:11537   */\n      dup3\n        /* \"#utility.yul\":11524:11542   */\n      add\n        /* \"#utility.yul\":11516:11542   */\n      swap1\n      pop\n        /* \"#utility.yul\":11552:11623   */\n      tag_400\n        /* \"#utility.yul\":11620:11621   */\n      0x00\n        /* \"#utility.yul\":11609:11618   */\n      dup4\n        /* \"#utility.yul\":11605:11622   */\n      add\n        /* \"#utility.yul\":11596:11602   */\n      dup5\n        /* \"#utility.yul\":11552:11623   */\n      tag_247\n      jump\t// in\n    tag_400:\n        /* \"#utility.yul\":11408:11630   */\n      swap3\n      swap2\n      pop\n      pop\n      jump\t// out\n        /* \"#utility.yul\":11636:11818   */\n    tag_248:\n        /* \"#utility.yul\":11776:11810   */\n      0x4f776e61626c653a2063616c6c6572206973206e6f7420746865206f776e6572\n        /* \"#utility.yul\":11772:11773   */\n      0x00\n        /* \"#utility.yul\":11764:11770   */\n      dup3\n        /* \"#utility.yul\":11760:11774   */\n      add\n        /* \"#utility.yul\":11753:11811   */\n      mstore\n        /* \"#utility.yul\":11636:11818   */\n      pop\n      jump\t// out\n        /* \"#utility.yul\":11824:12190   */\n    tag_249:\n        /* \"#utility.yul\":11966:11969   */\n      0x00\n        /* \"#utility.yul\":11987:12054   */\n      tag_403\n        /* \"#utility.yul\":12051:12053   */\n      0x20\n        /* \"#utility.yul\":12046:12049   */\n      dup4\n        /* \"#utility.yul\":11987:12054   */\n      tag_245\n      jump\t// in\n    tag_403:\n        /* \"#utility.yul\":11980:12054   */\n      swap2\n      pop\n        /* \"#utility.yul\":12063:12156   */\n      tag_404\n        /* \"#utility.yul\":12152:12155   */\n      dup3\n        /* \"#utility.yul\":12063:12156   */\n      tag_248\n      jump\t// in\n    tag_404:\n        /* \"#utility.yul\":12181:12183   */\n      0x20\n        /* \"#utility.yul\":12176:12179   */\n      dup3\n        /* \"#utility.yul\":12172:12184   */\n      add\n        /* \"#utility.yul\":12165:12184   */\n      swap1\n      pop\n        /* \"#utility.yul\":11824:12190   */\n      swap2\n      swap1\n      pop\n      jump\t// out\n        /* \"#utility.yul\":12196:12615   */\n    tag_99:\n        /* \"#utility.yul\":12362:12366   */\n      0x00\n        /* \"#utility.yul\":12400:12402   */\n      0x20\n        /* \"#utility.yul\":12389:12398   */\n      dup3\n        /* \"#utility.yul\":12385:12403   */\n      add\n        /* \"#utility.yul\":12377:12403   */\n      swap1\n      pop\n        /* \"#utility.yul\":12449:12458   */\n      dup2\n        /* \"#utility.yul\":12443:12447   */\n      dup2\n        /* \"#utility.yul\":12439:12459   */\n      sub\n        /* \"#utility.yul\":12435:12436   */\n      0x00\n        /* \"#utility.yul\":12424:12433   */\n      dup4\n        /* \"#utility.yul\":12420:12437   */\n      add\n        /* \"#utility.yul\":12413:12460   */\n      mstore\n        /* \"#utility.yul\":12477:12608   */\n      tag_406\n        /* \"#utility.yul\":12603:12607   */\n      dup2\n        /* \"#utility.yul\":12477:12608   */\n      tag_249\n      jump\t// in\n    tag_406:\n        /* \"#utility.yul\":12469:12608   */\n      swap1\n      pop\n        /* \"#utility.yul\":12196:12615   */\n      swap2\n      swap1\n      pop\n      jump\t// out\n        /* \"#utility.yul\":12621:12853   */\n    tag_250:\n        /* \"#utility.yul\":12761:12795   */\n      0x57686974656c6973744d616e616765723a206164647265737320697320746865\n        /* \"#utility.yul\":12757:12758   */\n      0x00\n        /* \"#utility.yul\":12749:12755   */\n      dup3\n        /* \"#utility.yul\":12745:12759   */\n      add\n        /* \"#utility.yul\":12738:12796   */\n      mstore\n        /* \"#utility.yul\":12830:12845   */\n      0x207a65726f206164647265737300000000000000000000000000000000000000\n        /* \"#utility.yul\":12825:12827   */\n      0x20\n        /* \"#utility.yul\":12817:12823   */\n      dup3\n        /* \"#utility.yul\":12813:12828   */\n      add\n        /* \"#utility.yul\":12806:12846   */\n      mstore\n        /* \"#utility.yul\":12621:12853   */\n      pop\n      jump\t// out\n        /* \"#utility.yul\":12859:13225   */\n    tag_251:\n        /* \"#utility.yul\":13001:13004   */\n      0x00\n        /* \"#utility.yul\":13022:13089   */\n      tag_409\n        /* \"#utility.yul\":13086:13088   */\n      0x2d\n        /* \"#utility.yul\":13081:13084   */\n      dup4\n        /* \"#utility.yul\":13022:13089   */\n      tag_245\n      jump\t// in\n    tag_409:\n        /* \"#utility.yul\":13015:13089   */\n      swap2\n      pop\n        /* \"#utility.yul\":13098:13191   */\n      tag_410\n        /* \"#utility.yul\":13187:13190   */\n      dup3\n        /* \"#utility.yul\":13098:13191   */\n      tag_250\n      jump\t// in\n    tag_410:\n        /* \"#utility.yul\":13216:13218   */\n      0x40\n        /* \"#utility.yul\":13211:13214   */\n      dup3\n        /* \"#utility.yul\":13207:13219   */\n      add\n        /* \"#utility.yul\":13200:13219   */\n      swap1\n      pop\n        /* \"#utility.yul\":12859:13225   */\n      swap2\n      swap1\n      pop\n      jump\t// out\n        /* \"#utility.yul\":13231:13650   */\n    tag_103:\n        /* \"#utility.yul\":13397:13401   */\n      0x00\n        /* \"#utility.yul\":13435:13437   */\n      0x20\n        /* \"#utility.yul\":13424:13433   */\n      dup3\n        /* \"#utility.yul\":13420:13438   */\n      add\n        /* \"#utility.yul\":13412:13438   */\n      swap1\n      pop\n        /* \"#utility.yul\":13484:13493   */\n      dup2\n        /* \"#utility.yul\":13478:13482   */\n      dup2\n        /* \"#utility.yul\":13474:13494   */\n      sub\n        /* \"#utility.yul\":13470:13471   */\n      0x00\n        /* \"#utility.yul\":13459:13468   */\n      dup4\n        /* \"#utility.yul\":13455:13472   */\n      add\n        /* \"#utility.yul\":13448:13495   */\n      mstore\n        /* \"#utility.yul\":13512:13643   */\n      tag_412\n        /* \"#utility.yul\":13638:13642   */\n      dup2\n        /* \"#utility.yul\":13512:13643   */\n      tag_251\n      jump\t// in\n    tag_412:\n        /* \"#utility.yul\":13504:13643   */\n      swap1\n      pop\n        /* \"#utility.yul\":13231:13650   */\n      swap2\n      swap1\n      pop\n      jump\t// out\n        /* \"#utility.yul\":13656:13877   */\n    tag_252:\n        /* \"#utility.yul\":13796:13830   */\n      0x50726f647563744d616e616765723a20696e76616c69642070726f6475637420\n        /* \"#utility.yul\":13792:13793   */\n      0x00\n        /* \"#utility.yul\":13784:13790   */\n      dup3\n        /* \"#utility.yul\":13780:13794   */\n      add\n        /* \"#utility.yul\":13773:13831   */\n      mstore\n        /* \"#utility.yul\":13865:13869   */\n      0x4944000000000000000000000000000000000000000000000000000000000000\n        /* \"#utility.yul\":13860:13862   */\n      0x20\n        /* \"#utility.yul\":13852:13858   */\n      dup3\n        /* \"#utility.yul\":13848:13863   */\n      add\n        /* \"#utility.yul\":13841:13870   */\n      mstore\n        /* \"#utility.yul\":13656:13877   */\n      pop\n      jump\t// out\n        /* \"#utility.yul\":13883:14249   */\n    tag_253:\n        /* \"#utility.yul\":14025:14028   */\n      0x00\n        /* \"#utility.yul\":14046:14113   */\n      tag_415\n        /* \"#utility.yul\":14110:14112   */\n      0x22\n        /* \"#utility.yul\":14105:14108   */\n      dup4\n        /* \"#utility.yul\":14046:14113   */\n      tag_245\n      jump\t// in\n    tag_415:\n        /* \"#utility.yul\":14039:14113   */\n      swap2\n      pop\n        /* \"#utility.yul\":14122:14215   */\n      tag_416\n        /* \"#utility.yul\":14211:14214   */\n      dup3\n        /* \"#utility.yul\":14122:14215   */\n      tag_252\n      jump\t// in\n    tag_416:\n        /* \"#utility.yul\":14240:14242   */\n      0x40\n        /* \"#utility.yul\":14235:14238   */\n      dup3\n        /* \"#utility.yul\":14231:14243   */\n      add\n        /* \"#utility.yul\":14224:14243   */\n      swap1\n      pop\n        /* \"#utility.yul\":13883:14249   */\n      swap2\n      swap1\n      pop\n      jump\t// out\n        /* \"#utility.yul\":14255:14674   */\n    tag_114:\n        /* \"#utility.yul\":14421:14425   */\n      0x00\n        /* \"#utility.yul\":14459:14461   */\n      0x20\n        /* \"#utility.yul\":14448:14457   */\n      dup3\n        /* \"#utility.yul\":14444:14462   */\n      add\n        /* \"#utility.yul\":14436:14462   */\n      swap1\n      pop\n        /* \"#utility.yul\":14508:14517   */\n      dup2\n        /* \"#utility.yul\":14502:14506   */\n      dup2\n        /* \"#utility.yul\":14498:14518   */\n      sub\n        /* \"#utility.yul\":14494:14495   */\n      0x00\n        /* \"#utility.yul\":14483:14492   */\n      dup4\n        /* \"#utility.yul\":14479:14496   */\n      add\n        /* \"#utility.yul\":14472:14519   */\n      mstore\n        /* \"#utility.yul\":14536:14667   */\n      tag_418\n        /* \"#utility.yul\":14662:14666   */\n      dup2\n        /* \"#utility.yul\":14536:14667   */\n      tag_253\n      jump\t// in\n    tag_418:\n        /* \"#utility.yul\":14528:14667   */\n      swap1\n      pop\n        /* \"#utility.yul\":14255:14674   */\n      swap2\n      swap1\n      pop\n      jump\t// out\n        /* \"#utility.yul\":14680:14860   */\n    tag_117:\n        /* \"#utility.yul\":14728:14805   */\n      0x4e487b7100000000000000000000000000000000000000000000000000000000\n        /* \"#utility.yul\":14725:14726   */\n      0x00\n        /* \"#utility.yul\":14718:14806   */\n      mstore\n        /* \"#utility.yul\":14825:14829   */\n      0x32\n        /* \"#utility.yul\":14822:14823   */\n      0x04\n        /* \"#utility.yul\":14815:14830   */\n      mstore\n        /* \"#utility.yul\":14849:14853   */\n      0x24\n        /* \"#utility.yul\":14846:14847   */\n      0x00\n        /* \"#utility.yul\":14839:14854   */\n      revert\n        /* \"#utility.yul\":14866:15046   */\n    tag_254:\n        /* \"#utility.yul\":14914:14991   */\n      0x4e487b7100000000000000000000000000000000000000000000000000000000\n        /* \"#utility.yul\":14911:14912   */\n      0x00\n        /* \"#utility.yul\":14904:14992   */\n      mstore\n        /* \"#utility.yul\":15011:15015   */\n      0x22\n        /* \"#utility.yul\":15008:15009   */\n      0x04\n        /* \"#utility.yul\":15001:15016   */\n      mstore\n        /* \"#utility.yul\":15035:15039   */\n      0x24\n        /* \"#utility.yul\":15032:15033   */\n      0x00\n        /* \"#utility.yul\":15025:15040   */\n      revert\n        /* \"#utility.yul\":15052:15372   */\n    tag_120:\n        /* \"#utility.yul\":15096:15102   */\n      0x00\n        /* \"#utility.yul\":15133:15134   */\n      0x02\n        /* \"#utility.yul\":15127:15131   */\n      dup3\n        /* \"#utility.yul\":15123:15135   */\n      div\n        /* \"#utility.yul\":15113:15135   */\n      swap1\n      pop\n        /* \"#utility.yul\":15180:15181   */\n      0x01\n        /* \"#utility.yul\":15174:15178   */\n      dup3\n        /* \"#utility.yul\":15170:15182   */\n      and\n        /* \"#utility.yul\":15201:15219   */\n      dup1\n        /* \"#utility.yul\":15191:15272   */\n      tag_422\n      jumpi\n        /* \"#utility.yul\":15257:15261   */\n      0x7f\n        /* \"#utility.yul\":15249:15255   */\n      dup3\n        /* \"#utility.yul\":15245:15262   */\n      and\n        /* \"#utility.yul\":15235:15262   */\n      swap2\n      pop\n        /* \"#utility.yul\":15191:15272   */\n    tag_422:\n        /* \"#utility.yul\":15319:15321   */\n      0x20\n        /* \"#utility.yul\":15311:15317   */\n      dup3\n        /* \"#utility.yul\":15308:15322   */\n      lt\n        /* \"#utility.yul\":15288:15306   */\n      dup2\n        /* \"#utility.yul\":15285:15323   */\n      sub\n        /* \"#utility.yul\":15282:15366   */\n      tag_423\n      jumpi\n        /* \"#utility.yul\":15338:15356   */\n      tag_424\n      tag_254\n      jump\t// in\n    tag_424:\n        /* \"#utility.yul\":15282:15366   */\n    tag_423:\n        /* \"#utility.yul\":15103:15372   */\n      pop\n        /* \"#utility.yul\":15052:15372   */\n      swap2\n      swap1\n      pop\n      jump\t// out\n        /* \"#utility.yul\":15378:15519   */\n    tag_255:\n        /* \"#utility.yul\":15427:15431   */\n      0x00\n        /* \"#utility.yul\":15450:15453   */\n      dup2\n        /* \"#utility.yul\":15442:15453   */\n      swap1\n      pop\n        /* \"#utility.yul\":15473:15476   */\n      dup2\n        /* \"#utility.yul\":15470:15471   */\n      0x00\n        /* \"#utility.yul\":15463:15477   */\n      mstore\n        /* \"#utility.yul\":15507:15511   */\n      0x20\n        /* \"#utility.yul\":15504:15505   */\n      0x00\n        /* \"#utility.yul\":15494:15512   */\n      keccak256\n        /* \"#utility.yul\":15486:15512   */\n      swap1\n      pop\n        /* \"#utility.yul\":15378:15519   */\n      swap2\n      swap1\n      pop\n      jump\t// out\n        /* \"#utility.yul\":15525:15618   */\n    tag_256:\n        /* \"#utility.yul\":15562:15568   */\n      0x00\n        /* \"#utility.yul\":15609:15611   */\n      0x20\n        /* \"#utility.yul\":15604:15606   */\n      0x1f\n        /* \"#utility.yul\":15597:15602   */\n      dup4\n        /* \"#utility.yul\":15593:15607   */\n      add\n        /* \"#utility.yul\":15589:15612   */\n      div\n        /* \"#utility.yul\":15579:15612   */\n      swap1\n      pop\n        /* \"#utility.yul\":15525:15618   */\n      swap2\n      swap1\n      pop\n      jump\t// out\n        /* \"#utility.yul\":15624:15731   */\n    tag_257:\n        /* \"#utility.yul\":15668:15676   */\n      0x00\n        /* \"#utility.yul\":15718:15723   */\n      dup3\n        /* \"#utility.yul\":15712:15716   */\n      dup3\n        /* \"#utility.yul\":15708:15724   */\n      shl\n        /* \"#utility.yul\":15687:15724   */\n      swap1\n      pop\n        /* \"#utility.yul\":15624:15731   */\n      swap3\n      swap2\n      pop\n      pop\n      jump\t// out\n        /* \"#utility.yul\":15737:16130   */\n    tag_258:\n        /* \"#utility.yul\":15806:15812   */\n      0x00\n        /* \"#utility.yul\":15856:15857   */\n      0x08\n        /* \"#utility.yul\":15844:15854   */\n      dup4\n        /* \"#utility.yul\":15840:15858   */\n      mul\n        /* \"#utility.yul\":15879:15976   */\n      tag_429\n        /* \"#utility.yul\":15909:15975   */\n      0xffffffffffffffffffffffffffffffffffffffffffffffffffffffffffffffff\n        /* \"#utility.yul\":15898:15907   */\n      dup3\n        /* \"#utility.yul\":15879:15976   */\n      tag_257\n      jump\t// in\n    tag_429:\n        /* \"#utility.yul\":15997:16036   */\n      tag_430\n        /* \"#utility.yul\":16027:16035   */\n      dup7\n        /* \"#utility.yul\":16016:16025   */\n      dup4\n        /* \"#utility.yul\":15997:16036   */\n      tag_257\n      jump\t// in\n    tag_430:\n        /* \"#utility.yul\":15985:16036   */\n      swap6\n      pop\n        /* \"#utility.yul\":16069:16073   */\n      dup1\n        /* \"#utility.yul\":16065:16074   */\n      not\n        /* \"#utility.yul\":16058:16063   */\n      dup5\n        /* \"#utility.yul\":16054:16075   */\n      and\n        /* \"#utility.yul\":16045:16075   */\n      swap4\n      pop\n        /* \"#utility.yul\":16118:16122   */\n      dup1\n        /* \"#utility.yul\":16108:16116   */\n      dup7\n        /* \"#utility.yul\":16104:16123   */\n      and\n        /* \"#utility.yul\":16097:16102   */\n      dup5\n        /* \"#utility.yul\":16094:16124   */\n      or\n        /* \"#utility.yul\":16084:16124   */\n      swap3\n      pop\n        /* \"#utility.yul\":15813:16130   */\n      pop\n      pop\n        /* \"#utility.yul\":15737:16130   */\n      swap4\n      swap3\n      pop\n      pop\n      pop\n      jump\t// out\n        /* \"#utility.yul\":16136:16196   */\n    tag_259:\n        /* \"#utility.yul\":16164:16167   */\n      0x00\n        /* \"#utility.yul\":16185:16190   */\n      dup2\n        /* \"#utility.yul\":16178:16190   */\n      swap1\n      pop\n        /* \"#utility.yul\":16136:16196   */\n      swap2\n      swap1\n      pop\n      jump\t// out\n        /* \"#utility.yul\":16202:16344   */\n    tag_260:\n        /* \"#utility.yul\":16252:16261   */\n      0x00\n        /* \"#utility.yul\":16285:16338   */\n      tag_433\n        /* \"#utility.yul\":16303:16337   */\n      tag_434\n        /* \"#utility.yul\":16312:16336   */\n      tag_435\n        /* \"#utility.yul\":16330:16335   */\n      dup5\n        /* \"#utility.yul\":16312:16336   */\n      tag_222\n      jump\t// in\n    tag_435:\n        /* \"#utility.yul\":16303:16337   */\n      tag_259\n      jump\t// in\n    tag_434:\n        /* \"#utility.yul\":16285:16338   */\n      tag_222\n      jump\t// in\n    tag_433:\n        /* \"#utility.yul\":16272:16338   */\n      swap1\n      pop\n        /* \"#utility.yul\":16202:16344   */\n      swap2\n      swap1\n      pop\n      jump\t// out\n        /* \"#utility.yul\":16350:16425   */\n    tag_261:\n        /* \"#utility.yul\":16393:16396   */\n      0x00\n        /* \"#utility.yul\":16414:16419   */\n      dup2\n        /* \"#utility.yul\":16407:16419   */\n      swap1\n      pop\n        /* \"#utility.yul\":16350:16425   */\n      swap2\n      swap1\n      pop\n      jump\t// out\n        /* \"#utility.yul\":16431:16700   */\n    tag_262:\n        /* \"#utility.yul\":16541:16580   */\n      tag_438\n        /* \"#utility.yul\":16572:16579   */\n      dup4\n        /* \"#utility.yul\":16541:16580   */\n      tag_260\n      jump\t// in\n    tag_438:\n        /* \"#utility.yul\":16602:16693   */\n      tag_439\n        /* \"#utility.yul\":16651:16692   */\n      tag_440\n        /* \"#utility.yul\":16675:16691   */\n      dup3\n        /* \"#utility.yul\":16651:16692   */\n      tag_261\n      jump\t// in\n    tag_440:\n        /* \"#utility.yul\":16643:16649   */\n      dup5\n        /* \"#utility.yul\":16636:16640   */\n      dup5\n        /* \"#utility.yul\":16630:16641   */\n      sload\n        /* \"#utility.yul\":16602:16693   */\n      tag_258\n      jump\t// in\n    tag_439:\n        /* \"#utility.yul\":16596:16600   */\n      dup3\n        /* \"#utility.yul\":16589:16694   */\n      sstore\n        /* \"#utility.yul\":16507:16700   */\n      pop\n        /* \"#utility.yul\":16431:16700   */\n      pop\n      pop\n      pop\n      jump\t// out\n        /* \"#utility.yul\":16706:16779   */\n    tag_263:\n        /* \"#utility.yul\":16751:16754   */\n      0x00\n        /* \"#utility.yul\":16706:16779   */\n      swap1\n      jump\t// out\n        /* \"#utility.yul\":16785:16974   */\n    tag_264:\n        /* \"#utility.yul\":16862:16894   */\n      tag_443\n      tag_263\n      jump\t// in\n    tag_443:\n        /* \"#utility.yul\":16903:16968   */\n      tag_444\n        /* \"#utility.yul\":16961:16967   */\n      dup2\n        /* \"#utility.yul\":16953:16959   */\n      dup5\n        /* \"#utility.yul\":16947:16951   */\n      dup5\n        /* \"#utility.yul\":16903:16968   */\n      tag_262\n      jump\t// in\n    tag_444:\n        /* \"#utility.yul\":16838:16974   */\n      pop\n        /* \"#utility.yul\":16785:16974   */\n      pop\n      pop\n      jump\t// out\n        /* \"#utility.yul\":16980:17166   */\n    tag_265:\n        /* \"#utility.yul\":17040:17160   */\n    tag_446:\n        /* \"#utility.yul\":17057:17060   */\n      dup2\n        /* \"#utility.yul\":17050:17055   */\n      dup2\n        /* \"#utility.yul\":17047:17061   */\n      lt\n        /* \"#utility.yul\":17040:17160   */\n      iszero\n      tag_448\n      jumpi\n        /* \"#utility.yul\":17111:17150   */\n      tag_449\n        /* \"#utility.yul\":17148:17149   */\n      0x00\n        /* \"#utility.yul\":17141:17146   */\n      dup3\n        /* \"#utility.yul\":17111:17150   */\n      tag_264\n      jump\t// in\n    tag_449:\n        /* \"#utility.yul\":17084:17085   */\n      0x01\n        /* \"#utility.yul\":17077:17082   */\n      dup2\n        /* \"#utility.yul\":17073:17086   */\n      add\n        /* \"#utility.yul\":17064:17086   */\n      swap1\n      pop\n        /* \"#utility.yul\":17040:17160   */\n      jump(tag_446)\n    tag_448:\n        /* \"#utility.yul\":16980:17166   */\n      pop\n      pop\n      jump\t// out\n        /* \"#utility.yul\":17172:17715   */\n    tag_266:\n        /* \"#utility.yul\":17273:17275   */\n      0x1f\n        /* \"#utility.yul\":17268:17271   */\n      dup3\n        /* \"#utility.yul\":17265:17276   */\n      gt\n        /* \"#utility.yul\":17262:17708   */\n      iszero\n      tag_451\n      jumpi\n        /* \"#utility.yul\":17307:17345   */\n      tag_452\n        /* \"#utility.yul\":17339:17344   */\n      dup2\n        /* \"#utility.yul\":17307:17345   */\n      tag_255\n      jump\t// in\n    tag_452:\n        /* \"#utility.yul\":17391:17420   */\n      tag_453\n        /* \"#utility.yul\":17409:17419   */\n      dup5\n        /* \"#utility.yul\":17391:17420   */\n      tag_256\n      jump\t// in\n    tag_453:\n        /* \"#utility.yul\":17381:17389   */\n      dup2\n        /* \"#utility.yul\":17377:17421   */\n      add\n        /* \"#utility.yul\":17574:17576   */\n      0x20\n        /* \"#utility.yul\":17562:17572   */\n      dup6\n        /* \"#utility.yul\":17559:17577   */\n      lt\n        /* \"#utility.yul\":17556:17605   */\n      iszero\n      tag_454\n      jumpi\n        /* \"#utility.yul\":17595:17603   */\n      dup2\n        /* \"#utility.yul\":17580:17603   */\n      swap1\n      pop\n        /* \"#utility.yul\":17556:17605   */\n    tag_454:\n        /* \"#utility.yul\":17618:17698   */\n      tag_455\n        /* \"#utility.yul\":17674:17696   */\n      tag_456\n        /* \"#utility.yul\":17692:17695   */\n      dup6\n        /* \"#utility.yul\":17674:17696   */\n      tag_256\n      jump\t// in\n    tag_456:\n        /* \"#utility.yul\":17664:17672   */\n      dup4\n        /* \"#utility.yul\":17660:17697   */\n      add\n        /* \"#utility.yul\":17647:17658   */\n      dup3\n        /* \"#utility.yul\":17618:17698   */\n      tag_265\n      jump\t// in\n    tag_455:\n        /* \"#utility.yul\":17277:17708   */\n      pop\n      pop\n        /* \"#utility.yul\":17262:17708   */\n    tag_451:\n        /* \"#utility.yul\":17172:17715   */\n      pop\n      pop\n      pop\n      jump\t// out\n        /* \"#utility.yul\":17721:17838   */\n    tag_267:\n        /* \"#utility.yul\":17775:17783   */\n      0x00\n        /* \"#utility.yul\":17825:17830   */\n      dup3\n        /* \"#utility.yul\":17819:17823   */\n      dup3\n        /* \"#utility.yul\":17815:17831   */\n      shr\n        /* \"#utility.yul\":17794:17831   */\n      swap1\n      pop\n        /* \"#utility.yul\":17721:17838   */\n      swap3\n      swap2\n      pop\n      pop\n      jump\t// out\n        /* \"#utility.yul\":17844:18013   */\n    tag_268:\n        /* \"#utility.yul\":17888:17894   */\n      0x00\n        /* \"#utility.yul\":17921:17972   */\n      tag_459\n        /* \"#utility.yul\":17969:17970   */\n      0x00\n        /* \"#utility.yul\":17965:17971   */\n      not\n        /* \"#utility.yul\":17957:17962   */\n      dup5\n        /* \"#utility.yul\":17954:17955   */\n      0x08\n        /* \"#utility.yul\":17950:17963   */\n      mul\n        /* \"#utility.yul\":17921:17972   */\n      tag_267\n      jump\t// in\n    tag_459:\n        /* \"#utility.yul\":17917:17973   */\n      not\n        /* \"#utility.yul\":18002:18006   */\n      dup1\n        /* \"#utility.yul\":17996:18000   */\n      dup4\n        /* \"#utility.yul\":17992:18007   */\n      and\n        /* \"#utility.yul\":17982:18007   */\n      swap2\n      pop\n        /* \"#utility.yul\":17895:18013   */\n      pop\n        /* \"#utility.yul\":17844:18013   */\n      swap3\n      swap2\n      pop\n      pop\n      jump\t// out\n        /* \"#utility.yul\":18018:18313   */\n    tag_269:\n        /* \"#utility.yul\":18094:18098   */\n      0x00\n        /* \"#utility.yul\":18240:18269   */\n      tag_461\n        /* \"#utility.yul\":18265:18268   */\n      dup4\n        /* \"#utility.yul\":18259:18263   */\n      dup4\n        /* \"#utility.yul\":18240:18269   */\n      tag_268\n      jump\t// in\n    tag_461:\n        /* \"#utility.yul\":18232:18269   */\n      swap2\n      pop\n        /* \"#utility.yul\":18302:18305   */\n      dup3\n        /* \"#utility.yul\":18299:18300   */\n      0x02\n        /* \"#utility.yul\":18295:18306   */\n      mul\n        /* \"#utility.yul\":18289:18293   */\n      dup3\n        /* \"#utility.yul\":18286:18307   */\n      or\n        /* \"#utility.yul\":18278:18307   */\n      swap1\n      pop\n        /* \"#utility.yul\":18018:18313   */\n      swap3\n      swap2\n      pop\n      pop\n      jump\t// out\n        /* \"#utility.yul\":18318:19713   */\n    tag_136:\n        /* \"#utility.yul\":18435:18472   */\n      tag_463\n        /* \"#utility.yul\":18468:18471   */\n      dup3\n        /* \"#utility.yul\":18435:18472   */\n      tag_229\n      jump\t// in\n    tag_463:\n        /* \"#utility.yul\":18537:18555   */\n      0xffffffffffffffff\n        /* \"#utility.yul\":18529:18535   */\n      dup2\n        /* \"#utility.yul\":18526:18556   */\n      gt\n        /* \"#utility.yul\":18523:18579   */\n      iszero\n      tag_464\n      jumpi\n        /* \"#utility.yul\":18559:18577   */\n      tag_465\n      tag_238\n      jump\t// in\n    tag_465:\n        /* \"#utility.yul\":18523:18579   */\n    tag_464:\n        /* \"#utility.yul\":18603:18641   */\n      tag_466\n        /* \"#utility.yul\":18635:18639   */\n      dup3\n        /* \"#utility.yul\":18629:18640   */\n      sload\n        /* \"#utility.yul\":18603:18641   */\n      tag_120\n      jump\t// in\n    tag_466:\n        /* \"#utility.yul\":18688:18755   */\n      tag_467\n        /* \"#utility.yul\":18748:18754   */\n      dup3\n        /* \"#utility.yul\":18740:18746   */\n      dup3\n        /* \"#utility.yul\":18734:18738   */\n      dup6\n        /* \"#utility.yul\":18688:18755   */\n      tag_266\n      jump\t// in\n    tag_467:\n        /* \"#utility.yul\":18782:18783   */\n      0x00\n        /* \"#utility.yul\":18806:18810   */\n      0x20\n        /* \"#utility.yul\":18793:18810   */\n      swap1\n      pop\n        /* \"#utility.yul\":18838:18840   */\n      0x1f\n        /* \"#utility.yul\":18830:18836   */\n      dup4\n        /* \"#utility.yul\":18827:18841   */\n      gt\n        /* \"#utility.yul\":18855:18856   */\n      0x01\n        /* \"#utility.yul\":18850:19468   */\n      dup2\n      eq\n      tag_469\n      jumpi\n        /* \"#utility.yul\":19512:19513   */\n      0x00\n        /* \"#utility.yul\":19529:19535   */\n      dup5\n        /* \"#utility.yul\":19526:19603   */\n      iszero\n      tag_470\n      jumpi\n        /* \"#utility.yul\":19578:19587   */\n      dup3\n        /* \"#utility.yul\":19573:19576   */\n      dup8\n        /* \"#utility.yul\":19569:19588   */\n      add\n        /* \"#utility.yul\":19563:19589   */\n      mload\n        /* \"#utility.yul\":19554:19589   */\n      swap1\n      pop\n        /* \"#utility.yul\":19526:19603   */\n    tag_470:\n        /* \"#utility.yul\":19629:19696   */\n      tag_471\n        /* \"#utility.yul\":19689:19695   */\n      dup6\n        /* \"#utility.yul\":19682:19687   */\n      dup3\n        /* \"#utility.yul\":19629:19696   */\n      tag_269\n      jump\t// in\n    tag_471:\n        /* \"#utility.yul\":19623:19627   */\n      dup7\n        /* \"#utility.yul\":19616:19697   */\n      sstore\n        /* \"#utility.yul\":19485:19707   */\n      pop\n        /* \"#utility.yul\":18820:19707   */\n      jump(tag_468)\n        /* \"#utility.yul\":18850:19468   */\n    tag_469:\n        /* \"#utility.yul\":18902:18906   */\n      0x1f\n        /* \"#utility.yul\":18898:18907   */\n      not\n        /* \"#utility.yul\":18890:18896   */\n      dup5\n        /* \"#utility.yul\":18886:18908   */\n      and\n        /* \"#utility.yul\":18936:18973   */\n      tag_472\n        /* \"#utility.yul\":18968:18972   */\n      dup7\n        /* \"#utility.yul\":18936:18973   */\n      tag_255\n      jump\t// in\n    tag_472:\n        /* \"#utility.yul\":18995:18996   */\n      0x00\n        /* \"#utility.yul\":19009:19217   */\n    tag_473:\n        /* \"#utility.yul\":19023:19030   */\n      dup3\n        /* \"#utility.yul\":19020:19021   */\n      dup2\n        /* \"#utility.yul\":19017:19031   */\n      lt\n        /* \"#utility.yul\":19009:19217   */\n      iszero\n      tag_475\n      jumpi\n        /* \"#utility.yul\":19102:19111   */\n      dup5\n        /* \"#utility.yul\":19097:19100   */\n      dup10\n        /* \"#utility.yul\":19093:19112   */\n      add\n        /* \"#utility.yul\":19087:19113   */\n      mload\n        /* \"#utility.yul\":19079:19085   */\n      dup3\n        /* \"#utility.yul\":19072:19114   */\n      sstore\n        /* \"#utility.yul\":19153:19154   */\n      0x01\n        /* \"#utility.yul\":19145:19151   */\n      dup3\n        /* \"#utility.yul\":19141:19155   */\n      add\n        /* \"#utility.yul\":19131:19155   */\n      swap2\n      pop\n        /* \"#utility.yul\":19200:19202   */\n      0x20\n        /* \"#utility.yul\":19189:19198   */\n      dup6\n        /* \"#utility.yul\":19185:19203   */\n      add\n        /* \"#utility.yul\":19172:19203   */\n      swap5\n      pop\n        /* \"#utility.yul\":19046:19050   */\n      0x20\n        /* \"#utility.yul\":19043:19044   */\n      dup2\n        /* \"#utility.yul\":19039:19051   */\n      add\n        /* \"#utility.yul\":19034:19051   */\n      swap1\n      pop\n        /* \"#utility.yul\":19009:19217   */\n      jump(tag_473)\n    tag_475:\n        /* \"#utility.yul\":19245:19251   */\n      dup7\n        /* \"#utility.yul\":19236:19243   */\n      dup4\n        /* \"#utility.yul\":19233:19252   */\n      lt\n        /* \"#utility.yul\":19230:19409   */\n      iszero\n      tag_476\n      jumpi\n        /* \"#utility.yul\":19303:19312   */\n      dup5\n        /* \"#utility.yul\":19298:19301   */\n      dup10\n        /* \"#utility.yul\":19294:19313   */\n      add\n        /* \"#utility.yul\":19288:19314   */\n      mload\n        /* \"#utility.yul\":19346:19394   */\n      tag_477\n        /* \"#utility.yul\":19388:19392   */\n      0x1f\n        /* \"#utility.yul\":19380:19386   */\n      dup10\n        /* \"#utility.yul\":19376:19393   */\n      and\n        /* \"#utility.yul\":19365:19374   */\n      dup3\n        /* \"#utility.yul\":19346:19394   */\n      tag_268\n      jump\t// in\n    tag_477:\n        /* \"#utility.yul\":19338:19344   */\n      dup4\n        /* \"#utility.yul\":19331:19395   */\n      sstore\n        /* \"#utility.yul\":19253:19409   */\n      pop\n        /* \"#utility.yul\":19230:19409   */\n    tag_476:\n        /* \"#utility.yul\":19455:19456   */\n      0x01\n        /* \"#utility.yul\":19451:19452   */\n      0x02\n        /* \"#utility.yul\":19443:19449   */\n      dup9\n        /* \"#utility.yul\":19439:19453   */\n      mul\n        /* \"#utility.yul\":19435:19457   */\n      add\n        /* \"#utility.yul\":19429:19433   */\n      dup9\n        /* \"#utility.yul\":19422:19458   */\n      sstore\n        /* \"#utility.yul\":18857:19468   */\n      pop\n      pop\n      pop\n        /* \"#utility.yul\":18820:19707   */\n    tag_468:\n      pop\n        /* \"#utility.yul\":18410:19713   */\n      pop\n      pop\n      pop\n        /* \"#utility.yul\":18318:19713   */\n      pop\n      pop\n      jump\t// out\n        /* \"#utility.yul\":19719:20032   */\n    tag_138:\n        /* \"#utility.yul\":19832:19836   */\n      0x00\n        /* \"#utility.yul\":19870:19872   */\n      0x20\n        /* \"#utility.yul\":19859:19868   */\n      dup3\n        /* \"#utility.yul\":19855:19873   */\n      add\n        /* \"#utility.yul\":19847:19873   */\n      swap1\n      pop\n        /* \"#utility.yul\":19919:19928   */\n      dup2\n        /* \"#utility.yul\":19913:19917   */\n      dup2\n        /* \"#utility.yul\":19909:19929   */\n      sub\n        /* \"#utility.yul\":19905:19906   */\n      0x00\n        /* \"#utility.yul\":19894:19903   */\n      dup4\n        /* \"#utility.yul\":19890:19907   */\n      add\n        /* \"#utility.yul\":19883:19930   */\n      mstore\n        /* \"#utility.yul\":19947:20025   */\n      tag_479\n        /* \"#utility.yul\":20020:20024   */\n      dup2\n        /* \"#utility.yul\":20011:20017   */\n      dup5\n        /* \"#utility.yul\":19947:20025   */\n      tag_246\n      jump\t// in\n    tag_479:\n        /* \"#utility.yul\":19939:20025   */\n      swap1\n      pop\n        /* \"#utility.yul\":19719:20032   */\n      swap3\n      swap2\n      pop\n      pop\n      jump\t// out\n        /* \"#utility.yul\":20038:20272   */\n    tag_270:\n        /* \"#utility.yul\":20178:20212   */\n      0x50726f647563744d616e616765723a2063616c6c6572206973206e6f74207468\n        /* \"#utility.yul\":20174:20175   */\n      0x00\n        /* \"#utility.yul\":20166:20172   */\n      dup3\n        /* \"#utility.yul\":20162:20176   */\n      add\n        /* \"#utility.yul\":20155:20213   */\n      mstore\n        /* \"#utility.yul\":20247:20264   */\n      0x652063757272656e74206f776e65720000000000000000000000000000000000\n        /* \"#utility.yul\":20242:20244   */\n      0x20\n        /* \"#utility.yul\":20234:20240   */\n      dup3\n        /* \"#utility.yul\":20230:20245   */\n      add\n        /* \"#utility.yul\":20223:20265   */\n      mstore\n        /* \"#utility.yul\":20038:20272   */\n      pop\n      jump\t// out\n        /* \"#utility.yul\":20278:20644   */\n    tag_271:\n        /* \"#utility.yul\":20420:20423   */\n      0x00\n        /* \"#utility.yul\":20441:20508   */\n      tag_482\n        /* \"#utility.yul\":20505:20507   */\n      0x2f\n        /* \"#utility.yul\":20500:20503   */\n      dup4\n        /* \"#utility.yul\":20441:20508   */\n      tag_245\n      jump\t// in\n    tag_482:\n        /* \"#utility.yul\":20434:20508   */\n      swap2\n      pop\n        /* \"#utility.yul\":20517:20610   */\n      tag_483\n        /* \"#utility.yul\":20606:20609   */\n      dup3\n        /* \"#utility.yul\":20517:20610   */\n      tag_270\n      jump\t// in\n    tag_483:\n        /* \"#utility.yul\":20635:20637   */\n      0x40\n        /* \"#utility.yul\":20630:20633   */\n      dup3\n        /* \"#utility.yul\":20626:20638   */\n      add\n        /* \"#utility.yul\":20619:20638   */\n      swap1\n      pop\n        /* \"#utility.yul\":20278:20644   */\n      swap2\n      swap1\n      pop\n      jump\t// out\n        /* \"#utility.yul\":20650:21069   */\n    tag_164:\n        /* \"#utility.yul\":20816:20820   */\n      0x00\n        /* \"#utility.yul\":20854:20856   */\n      0x20\n        /* \"#utility.yul\":20843:20852   */\n      dup3\n        /* \"#utility.yul\":20839:20857   */\n      add\n        /* \"#utility.yul\":20831:20857   */\n      swap1\n      pop\n        /* \"#utility.yul\":20903:20912   */\n      dup2\n        /* \"#utility.yul\":20897:20901   */\n      dup2\n        /* \"#utility.yul\":20893:20913   */\n      sub\n        /* \"#utility.yul\":20889:20890   */\n      0x00\n        /* \"#utility.yul\":20878:20887   */\n      dup4\n        /* \"#utility.yul\":20874:20891   */\n      add\n        /* \"#utility.yul\":20867:20914   */\n      mstore\n        /* \"#utility.yul\":20931:21062   */\n      tag_485\n        /* \"#utility.yul\":21057:21061   */\n      dup2\n        /* \"#utility.yul\":20931:21062   */\n      tag_271\n      jump\t// in\n    tag_485:\n        /* \"#utility.yul\":20923:21062   */\n      swap1\n      pop\n        /* \"#utility.yul\":20650:21069   */\n      swap2\n      swap1\n      pop\n      jump\t// out\n        /* \"#utility.yul\":21075:21308   */\n    tag_272:\n        /* \"#utility.yul\":21215:21249   */\n      0x4d61696e436f6e74726163743a204d616e756661637475726572206d75737420\n        /* \"#utility.yul\":21211:21212   */\n      0x00\n        /* \"#utility.yul\":21203:21209   */\n      dup3\n        /* \"#utility.yul\":21199:21213   */\n      add\n        /* \"#utility.yul\":21192:21250   */\n      mstore\n        /* \"#utility.yul\":21284:21300   */\n      0x62652077686974656c6973746564000000000000000000000000000000000000\n        /* \"#utility.yul\":21279:21281   */\n      0x20\n        /* \"#utility.yul\":21271:21277   */\n      dup3\n        /* \"#utility.yul\":21267:21282   */\n      add\n        /* \"#utility.yul\":21260:21301   */\n      mstore\n        /* \"#utility.yul\":21075:21308   */\n      pop\n      jump\t// out\n        /* \"#utility.yul\":21314:21680   */\n    tag_273:\n        /* \"#utility.yul\":21456:21459   */\n      0x00\n        /* \"#utility.yul\":21477:21544   */\n      tag_488\n        /* \"#utility.yul\":21541:21543   */\n      0x2e\n        /* \"#utility.yul\":21536:21539   */\n      dup4\n        /* \"#utility.yul\":21477:21544   */\n      tag_245\n      jump\t// in\n    tag_488:\n        /* \"#utility.yul\":21470:21544   */\n      swap2\n      pop\n        /* \"#utility.yul\":21553:21646   */\n      tag_489\n        /* \"#utility.yul\":21642:21645   */\n      dup3\n        /* \"#utility.yul\":21553:21646   */\n      tag_272\n      jump\t// in\n    tag_489:\n        /* \"#utility.yul\":21671:21673   */\n      0x40\n        /* \"#utility.yul\":21666:21669   */\n      dup3\n        /* \"#utility.yul\":21662:21674   */\n      add\n        /* \"#utility.yul\":21655:21674   */\n      swap1\n      pop\n        /* \"#utility.yul\":21314:21680   */\n      swap2\n      swap1\n      pop\n      jump\t// out\n        /* \"#utility.yul\":21686:22105   */\n    tag_189:\n        /* \"#utility.yul\":21852:21856   */\n      0x00\n        /* \"#utility.yul\":21890:21892   */\n      0x20\n        /* \"#utility.yul\":21879:21888   */\n      dup3\n        /* \"#utility.yul\":21875:21893   */\n      add\n        /* \"#utility.yul\":21867:21893   */\n      swap1\n      pop\n        /* \"#utility.yul\":21939:21948   */\n      dup2\n        /* \"#utility.yul\":21933:21937   */\n      dup2\n        /* \"#utility.yul\":21929:21949   */\n      sub\n        /* \"#utility.yul\":21925:21926   */\n      0x00\n        /* \"#utility.yul\":21914:21923   */\n      dup4\n        /* \"#utility.yul\":21910:21927   */\n      add\n        /* \"#utility.yul\":21903:21950   */\n      mstore\n        /* \"#utility.yul\":21967:22098   */\n      tag_491\n        /* \"#utility.yul\":22093:22097   */\n      dup2\n        /* \"#utility.yul\":21967:22098   */\n      tag_273\n      jump\t// in\n    tag_491:\n        /* \"#utility.yul\":21959:22098   */\n      swap1\n      pop\n        /* \"#utility.yul\":21686:22105   */\n      swap2\n      swap1\n      pop\n      jump\t// out\n        /* \"#utility.yul\":22111:22341   */\n    tag_274:\n        /* \"#utility.yul\":22251:22285   */\n      0x4d61696e436f6e74726163743a204e6577206f776e6572206d75737420626520\n        /* \"#utility.yul\":22247:22248   */\n      0x00\n        /* \"#utility.yul\":22239:22245   */\n      dup3\n        /* \"#utility.yul\":22235:22249   */\n      add\n        /* \"#utility.yul\":22228:22286   */\n      mstore\n        /* \"#utility.yul\":22320:22333   */\n      0x77686974656c6973746564000000000000000000000000000000000000000000\n        /* \"#utility.yul\":22315:22317   */\n      0x20\n        /* \"#utility.yul\":22307:22313   */\n      dup3\n        /* \"#utility.yul\":22303:22318   */\n      add\n        /* \"#utility.yul\":22296:22334   */\n      mstore\n        /* \"#utility.yul\":22111:22341   */\n      pop\n      jump\t// out\n        /* \"#utility.yul\":22347:22713   */\n    tag_275:\n        /* \"#utility.yul\":22489:22492   */\n      0x00\n        /* \"#utility.yul\":22510:22577   */\n      tag_494\n        /* \"#utility.yul\":22574:22576   */\n      0x2b\n        /* \"#utility.yul\":22569:22572   */\n      dup4\n        /* \"#utility.yul\":22510:22577   */\n      tag_245\n      jump\t// in\n    tag_494:\n        /* \"#utility.yul\":22503:22577   */\n      swap2\n      pop\n        /* \"#utility.yul\":22586:22679   */\n      tag_495\n        /* \"#utility.yul\":22675:22678   */\n      dup3\n        /* \"#utility.yul\":22586:22679   */\n      tag_274\n      jump\t// in\n    tag_495:\n        /* \"#utility.yul\":22704:22706   */\n      0x40\n        /* \"#utility.yul\":22699:22702   */\n      dup3\n        /* \"#utility.yul\":22695:22707   */\n      add\n        /* \"#utility.yul\":22688:22707   */\n      swap1\n      pop\n        /* \"#utility.yul\":22347:22713   */\n      swap2\n      swap1\n      pop\n      jump\t// out\n        /* \"#utility.yul\":22719:23138   */\n    tag_195:\n        /* \"#utility.yul\":22885:22889   */\n      0x00\n        /* \"#utility.yul\":22923:22925   */\n      0x20\n        /* \"#utility.yul\":22912:22921   */\n      dup3\n        /* \"#utility.yul\":22908:22926   */\n      add\n        /* \"#utility.yul\":22900:22926   */\n      swap1\n      pop\n        /* \"#utility.yul\":22972:22981   */\n      dup2\n        /* \"#utility.yul\":22966:22970   */\n      dup2\n        /* \"#utility.yul\":22962:22982   */\n      sub\n        /* \"#utility.yul\":22958:22959   */\n      0x00\n        /* \"#utility.yul\":22947:22956   */\n      dup4\n        /* \"#utility.yul\":22943:22960   */\n      add\n        /* \"#utility.yul\":22936:22983   */\n      mstore\n        /* \"#utility.yul\":23000:23131   */\n      tag_497\n        /* \"#utility.yul\":23126:23130   */\n      dup2\n        /* \"#utility.yul\":23000:23131   */\n      tag_275\n      jump\t// in\n    tag_497:\n        /* \"#utility.yul\":22992:23131   */\n      swap1\n      pop\n        /* \"#utility.yul\":22719:23138   */\n      swap2\n      swap1\n      pop\n      jump\t// out\n        /* \"#utility.yul\":23144:23369   */\n    tag_276:\n        /* \"#utility.yul\":23284:23318   */\n      0x4f776e61626c653a206e6577206f776e657220697320746865207a65726f2061\n        /* \"#utility.yul\":23280:23281   */\n      0x00\n        /* \"#utility.yul\":23272:23278   */\n      dup3\n        /* \"#utility.yul\":23268:23282   */\n      add\n        /* \"#utility.yul\":23261:23319   */\n      mstore\n        /* \"#utility.yul\":23353:23361   */\n      0x6464726573730000000000000000000000000000000000000000000000000000\n        /* \"#utility.yul\":23348:23350   */\n      0x20\n        /* \"#utility.yul\":23340:23346   */\n      dup3\n        /* \"#utility.yul\":23336:23351   */\n      add\n        /* \"#utility.yul\":23329:23362   */\n      mstore\n        /* \"#utility.yul\":23144:23369   */\n      pop\n      jump\t// out\n        /* \"#utility.yul\":23375:23741   */\n    tag_277:\n        /* \"#utility.yul\":23517:23520   */\n      0x00\n        /* \"#utility.yul\":23538:23605   */\n      tag_500\n        /* \"#utility.yul\":23602:23604   */\n      0x26\n        /* \"#utility.yul\":23597:23600   */\n      dup4\n        /* \"#utility.yul\":23538:23605   */\n      tag_245\n      jump\t// in\n    tag_500:\n        /* \"#utility.yul\":23531:23605   */\n      swap2\n      pop\n        /* \"#utility.yul\":23614:23707   */\n      tag_501\n        /* \"#utility.yul\":23703:23706   */\n      dup3\n        /* \"#utility.yul\":23614:23707   */\n      tag_276\n      jump\t// in\n    tag_501:\n        /* \"#utility.yul\":23732:23734   */\n      0x40\n        /* \"#utility.yul\":23727:23730   */\n      dup3\n        /* \"#utility.yul\":23723:23735   */\n      add\n        /* \"#utility.yul\":23716:23735   */\n      swap1\n      pop\n        /* \"#utility.yul\":23375:23741   */\n      swap2\n      swap1\n      pop\n      jump\t// out\n        /* \"#utility.yul\":23747:24166   */\n    tag_208:\n        /* \"#utility.yul\":23913:23917   */\n      0x00\n        /* \"#utility.yul\":23951:23953   */\n      0x20\n        /* \"#utility.yul\":23940:23949   */\n      dup3\n        /* \"#utility.yul\":23936:23954   */\n      add\n        /* \"#utility.yul\":23928:23954   */\n      swap1\n      pop\n        /* \"#utility.yul\":24000:24009   */\n      dup2\n        /* \"#utility.yul\":23994:23998   */\n      dup2\n        /* \"#utility.yul\":23990:24010   */\n      sub\n        /* \"#utility.yul\":23986:23987   */\n      0x00\n        /* \"#utility.yul\":23975:23984   */\n      dup4\n        /* \"#utility.yul\":23971:23988   */\n      add\n        /* \"#utility.yul\":23964:24011   */\n      mstore\n        /* \"#utility.yul\":24028:24159   */\n      tag_503\n        /* \"#utility.yul\":24154:24158   */\n      dup2\n        /* \"#utility.yul\":24028:24159   */\n      tag_277\n      jump\t// in\n    tag_503:\n        /* \"#utility.yul\":24020:24159   */\n      swap1\n      pop\n        /* \"#utility.yul\":23747:24166   */\n      swap2\n      swap1\n      pop\n      jump\t// out\n        /* \"#utility.yul\":24172:24352   */\n    tag_278:\n        /* \"#utility.yul\":24220:24297   */\n      0x4e487b7100000000000000000000000000000000000000000000000000000000\n        /* \"#utility.yul\":24217:24218   */\n      0x00\n        /* \"#utility.yul\":24210:24298   */\n      mstore\n        /* \"#utility.yul\":24317:24321   */\n      0x11\n        /* \"#utility.yul\":24314:24315   */\n      0x04\n        /* \"#utility.yul\":24307:24322   */\n      mstore\n        /* \"#utility.yul\":24341:24345   */\n      0x24\n        /* \"#utility.yul\":24338:24339   */\n      0x00\n        /* \"#utility.yul\":24331:24346   */\n      revert\n        /* \"#utility.yul\":24358:24549   */\n    tag_211:\n        /* \"#utility.yul\":24398:24401   */\n      0x00\n        /* \"#utility.yul\":24417:24437   */\n      tag_506\n        /* \"#utility.yul\":24435:24436   */\n      dup3\n        /* \"#utility.yul\":24417:24437   */\n      tag_222\n      jump\t// in\n    tag_506:\n        /* \"#utility.yul\":24412:24437   */\n      swap2\n      pop\n        /* \"#utility.yul\":24451:24471   */\n      tag_507\n        /* \"#utility.yul\":24469:24470   */\n      dup4\n        /* \"#utility.yul\":24451:24471   */\n      tag_222\n      jump\t// in\n    tag_507:\n        /* \"#utility.yul\":24446:24471   */\n      swap3\n      pop\n        /* \"#utility.yul\":24494:24495   */\n      dup3\n        /* \"#utility.yul\":24491:24492   */\n      dup3\n        /* \"#utility.yul\":24487:24496   */\n      add\n        /* \"#utility.yul\":24480:24496   */\n      swap1\n      pop\n        /* \"#utility.yul\":24515:24518   */\n      dup1\n        /* \"#utility.yul\":24512:24513   */\n      dup3\n        /* \"#utility.yul\":24509:24519   */\n      gt\n        /* \"#utility.yul\":24506:24542   */\n      iszero\n      tag_508\n      jumpi\n        /* \"#utility.yul\":24522:24540   */\n      tag_509\n      tag_278\n      jump\t// in\n    tag_509:\n        /* \"#utility.yul\":24506:24542   */\n    tag_508:\n        /* \"#utility.yul\":24358:24549   */\n      swap3\n      swap2\n      pop\n      pop\n      jump\t// out\n        /* \"#utility.yul\":24555:24732   */\n    tag_279:\n        /* \"#utility.yul\":24695:24724   */\n      0x536166654d6174683a206164646974696f6e206f766572666c6f770000000000\n        /* \"#utility.yul\":24691:24692   */\n      0x00\n        /* \"#utility.yul\":24683:24689   */\n      dup3\n        /* \"#utility.yul\":24679:24693   */\n      add\n        /* \"#utility.yul\":24672:24725   */\n      mstore\n        /* \"#utility.yul\":24555:24732   */\n      pop\n      jump\t// out\n        /* \"#utility.yul\":24738:25104   */\n    tag_280:\n        /* \"#utility.yul\":24880:24883   */\n      0x00\n        /* \"#utility.yul\":24901:24968   */\n      tag_512\n        /* \"#utility.yul\":24965:24967   */\n      0x1b\n        /* \"#utility.yul\":24960:24963   */\n      dup4\n        /* \"#utility.yul\":24901:24968   */\n      tag_245\n      jump\t// in\n    tag_512:\n        /* \"#utility.yul\":24894:24968   */\n      swap2\n      pop\n        /* \"#utility.yul\":24977:25070   */\n      tag_513\n        /* \"#utility.yul\":25066:25069   */\n      dup3\n        /* \"#utility.yul\":24977:25070   */\n      tag_279\n      jump\t// in\n    tag_513:\n        /* \"#utility.yul\":25095:25097   */\n      0x20\n        /* \"#utility.yul\":25090:25093   */\n      dup3\n        /* \"#utility.yul\":25086:25098   */\n      add\n        /* \"#utility.yul\":25079:25098   */\n      swap1\n      pop\n        /* \"#utility.yul\":24738:25104   */\n      swap2\n      swap1\n      pop\n      jump\t// out\n        /* \"#utility.yul\":25110:25529   */\n    tag_214:\n        /* \"#utility.yul\":25276:25280   */\n      0x00\n        /* \"#utility.yul\":25314:25316   */\n      0x20\n        /* \"#utility.yul\":25303:25312   */\n      dup3\n        /* \"#utility.yul\":25299:25317   */\n      add\n        /* \"#utility.yul\":25291:25317   */\n      swap1\n      pop\n        /* \"#utility.yul\":25363:25372   */\n      dup2\n        /* \"#utility.yul\":25357:25361   */\n      dup2\n        /* \"#utility.yul\":25353:25373   */\n      sub\n        /* \"#utility.yul\":25349:25350   */\n      0x00\n        /* \"#utility.yul\":25338:25347   */\n      dup4\n        /* \"#utility.yul\":25334:25351   */\n      add\n        /* \"#utility.yul\":25327:25374   */\n      mstore\n        /* \"#utility.yul\":25391:25522   */\n      tag_515\n        /* \"#utility.yul\":25517:25521   */\n      dup2\n        /* \"#utility.yul\":25391:25522   */\n      tag_280\n      jump\t// in\n    tag_515:\n        /* \"#utility.yul\":25383:25522   */\n      swap1\n      pop\n        /* \"#utility.yul\":25110:25529   */\n      swap2\n      swap1\n      pop\n      jump\t// out\n\n    auxdata: 0xa26469706673582212209608c295c824dbc062504aa6e628ecee4b28cb2c58c0affdbf848bf292b9092764736f6c63430008190033\n}\n",
				"bytecode": {
					"linkReferences": {},
					"object": "6080604052348015600e575f80fd5b50335f806101000a81548173ffffffffffffffffffffffffffffffffffffffff021916908373ffffffffffffffffffffffffffffffffffffffff1602179055503373ffffffffffffffffffffffffffffffffffffffff165f73ffffffffffffffffffffffffffffffffffffffff167f8be0079c531659141344cd1fd0a4f28419497f9722a3daafe3b4186f6b6457e060405160405180910390a35f6003819055506123c7806100bc5f395ff3fe608060405234801561000f575f80fd5b506004361061011f575f3560e01c806380e52e3f116100ab578063bd73b25d1161006f578063bd73b25d14610305578063dd9f09e414610321578063e43059e51461033d578063e43252d714610359578063f2fde38b146103755761011f565b806380e52e3f1461026357806386b0e8121461027f5780638ab1d6811461029b5780638da5cb5b146102b757806399374642146102d55761011f565b80636813b53b116100f25780636813b53b146101a95780636e53c7b9146101d957806372c60690146101f55780637acc0b20146102115780637b9417c8146102475761011f565b8063286dd3f5146101235780632e3036c71461013f5780633af32abf1461015b5780634de91a631461018b575b5f80fd5b61013d600480360381019061013891906116c0565b610391565b005b6101596004803603810190610154919061171e565b610526565b005b610175600480360381019061017091906116c0565b61063d565b6040516101829190611776565b60405180910390f35b61019361068f565b6040516101a0919061179e565b60405180910390f35b6101c360048036038101906101be91906117b7565b610695565b6040516101d09190611909565b60405180910390f35b6101f360048036038101906101ee919061171e565b610874565b005b61020f600480360381019061020a9190611a55565b61090f565b005b61022b600480360381019061022691906117b7565b610b4b565b60405161023e9796959493929190611b2c565b60405180910390f35b610261600480360381019061025c91906116c0565b610c5c565b005b61027d600480360381019061027891906116c0565b610df1565b005b61029960048036038101906102949190611ba0565b610f49565b005b6102b560048036038101906102b091906116c0565b611128565b005b6102bf6111c1565b6040516102cc9190611bde565b60405180910390f35b6102ef60048036038101906102ea91906116c0565b6111e8565b6040516102fc919061179e565b60405180910390f35b61031f600480360381019061031a91906116c0565b6111fd565b005b61033b60048036038101906103369190611a55565b611296565b005b61035760048036038101906103529190611ba0565b6112f0565b005b610373600480360381019061036e91906116c0565b611346565b005b61038f600480360381019061038a91906116c0565b6113df565b005b3373ffffffffffffffffffffffffffffffffffffffff165f8054906101000a900473ffffffffffffffffffffffffffffffffffffffff1673ffffffffffffffffffffffffffffffffffffffff161461041e576040517f08c379a000000000000000000000000000000000000000000000000000000000815260040161041590611c41565b60405180910390fd5b5f73ffffffffffffffffffffffffffffffffffffffff168173ffffffffffffffffffffffffffffffffffffffff160361048c576040517f08c379a000000000000000000000000000000000000000000000000000000000815260040161048390611ccf565b60405180910390fd5b5f60015f8373ffffffffffffffffffffffffffffffffffffffff1673ffffffffffffffffffffffffffffffffffffffff1681526020019081526020015f205f6101000a81548160ff0219169083151502179055508073ffffffffffffffffffffffffffffffffffffffff167ff1abf01a1043b7c244d128e8595cf0c1d10743b022b03a02dffd8ca3bf729f5a60405160405180910390a250565b3373ffffffffffffffffffffffffffffffffffffffff165f8054906101000a900473ffffffffffffffffffffffffffffffffffffffff1673ffffffffffffffffffffffffffffffffffffffff16146105b3576040517f08c379a00000000000000000000000000000000000000000000000000000000081526004016105aa90611c41565b60405180910390fd5b8060045f8473ffffffffffffffffffffffffffffffffffffffff1673ffffffffffffffffffffffffffffffffffffffff1681526020019081526020015f2081905550808273ffffffffffffffffffffffffffffffffffffffff167fe2ac27c5c810aead8fa29780fdca1995888a2f0e6b8128a1316e116960b009f860405160405180910390a35050565b5f60015f8373ffffffffffffffffffffffffffffffffffffffff1673ffffffffffffffffffffffffffffffffffffffff1681526020019081526020015f205f9054906101000a900460ff169050919050565b60035481565b61069d6115f2565b60035482106106e1576040517f08c379a00000000000000000000000000000000000000000000000000000000081526004016106d890611d5d565b60405180910390fd5b600282815481106106f5576106f4611d7b565b5b905f5260205f2090600702016040518060e00160405290815f820154815260200160018201805461072590611dd5565b80601f016020809104026020016040519081016040528092919081815260200182805461075190611dd5565b801561079c5780601f106107735761010080835404028352916020019161079c565b820191905f5260205f20905b81548152906001019060200180831161077f57829003601f168201915b505050505081526020016002820154815260200160038201548152602001600482015f9054906101000a900473ffffffffffffffffffffffffffffffffffffffff1673ffffffffffffffffffffffffffffffffffffffff1673ffffffffffffffffffffffffffffffffffffffff168152602001600582015f9054906101000a900473ffffffffffffffffffffffffffffffffffffffff1673ffffffffffffffffffffffffffffffffffffffff1673ffffffffffffffffffffffffffffffffffffffff1681526020016006820154815250509050919050565b3373ffffffffffffffffffffffffffffffffffffffff165f8054906101000a900473ffffffffffffffffffffffffffffffffffffffff1673ffffffffffffffffffffffffffffffffffffffff1614610901576040517f08c379a00000000000000000000000000000000000000000000000000000000081526004016108f890611c41565b60405180910390fd5b61090b8282610526565b5050565b3373ffffffffffffffffffffffffffffffffffffffff165f8054906101000a900473ffffffffffffffffffffffffffffffffffffffff1673ffffffffffffffffffffffffffffffffffffffff161461099c576040517f08c379a000000000000000000000000000000000000000000000000000000000815260040161099390611c41565b60405180910390fd5b60026040518060e0016040528060035481526020018681526020018581526020018481526020018373ffffffffffffffffffffffffffffffffffffffff1681526020018373ffffffffffffffffffffffffffffffffffffffff16815260200142815250908060018154018082558091505060019003905f5260205f2090600702015f909190919091505f820151815f01556020820151816001019081610a429190611fa2565b5060408201518160020155606082015181600301556080820151816004015f6101000a81548173ffffffffffffffffffffffffffffffffffffffff021916908373ffffffffffffffffffffffffffffffffffffffff16021790555060a0820151816005015f6101000a81548173ffffffffffffffffffffffffffffffffffffffff021916908373ffffffffffffffffffffffffffffffffffffffff16021790555060c0820151816006015550506003547f543247085674b00368d9cd41416be705a4c27143c024163a6f58bf12a41992f585604051610b219190612071565b60405180910390a2610b3f600160035461159590919063ffffffff16565b60038190555050505050565b60028181548110610b5a575f80fd5b905f5260205f2090600702015f91509050805f015490806001018054610b7f90611dd5565b80601f0160208091040260200160405190810160405280929190818152602001828054610bab90611dd5565b8015610bf65780601f10610bcd57610100808354040283529160200191610bf6565b820191905f5260205f20905b815481529060010190602001808311610bd957829003601f168201915b505050505090806002015490806003015490806004015f9054906101000a900473ffffffffffffffffffffffffffffffffffffffff1690806005015f9054906101000a900473ffffffffffffffffffffffffffffffffffffffff16908060060154905087565b3373ffffffffffffffffffffffffffffffffffffffff165f8054906101000a900473ffffffffffffffffffffffffffffffffffffffff1673ffffffffffffffffffffffffffffffffffffffff1614610ce9576040517f08c379a0000000000000000000000000000000000000000000000000000000008152600401610ce090611c41565b60405180910390fd5b5f73ffffffffffffffffffffffffffffffffffffffff168173ffffffffffffffffffffffffffffffffffffffff1603610d57576040517f08c379a0000000000000000000000000000000000000000000000000000000008152600401610d4e90611ccf565b60405180910390fd5b6001805f8373ffffffffffffffffffffffffffffffffffffffff1673ffffffffffffffffffffffffffffffffffffffff1681526020019081526020015f205f6101000a81548160ff0219169083151502179055508073ffffffffffffffffffffffffffffffffffffffff167fd1bba68c128cc3f427e5831b3c6f99f480b6efa6b9e80c757768f6124158cc3f60405160405180910390a250565b3373ffffffffffffffffffffffffffffffffffffffff165f8054906101000a900473ffffffffffffffffffffffffffffffffffffffff1673ffffffffffffffffffffffffffffffffffffffff1614610e7e576040517f08c379a0000000000000000000000000000000000000000000000000000000008152600401610e7590611c41565b60405180910390fd5b5f60045f8373ffffffffffffffffffffffffffffffffffffffff1673ffffffffffffffffffffffffffffffffffffffff1681526020019081526020015f205490505f60045f8473ffffffffffffffffffffffffffffffffffffffff1673ffffffffffffffffffffffffffffffffffffffff1681526020019081526020015f2081905550808273ffffffffffffffffffffffffffffffffffffffff167f12982f922b0573398129ea86655ce1e8e425ec676c9e3d40bf5458688b1ef54460405160405180910390a35050565b60028281548110610f5d57610f5c611d7b565b5b905f5260205f2090600702016005015f9054906101000a900473ffffffffffffffffffffffffffffffffffffffff1673ffffffffffffffffffffffffffffffffffffffff163373ffffffffffffffffffffffffffffffffffffffff1614610ff9576040517f08c379a0000000000000000000000000000000000000000000000000000000008152600401610ff090612101565b60405180910390fd5b5f6002838154811061100e5761100d611d7b565b5b905f5260205f2090600702016005015f9054906101000a900473ffffffffffffffffffffffffffffffffffffffff169050816002848154811061105457611053611d7b565b5b905f5260205f2090600702016005015f6101000a81548173ffffffffffffffffffffffffffffffffffffffff021916908373ffffffffffffffffffffffffffffffffffffffff16021790555042600284815481106110b5576110b4611d7b565b5b905f5260205f209060070201600601819055508173ffffffffffffffffffffffffffffffffffffffff168173ffffffffffffffffffffffffffffffffffffffff16847f16b85f49bf01212961345d3016c9a531894accf62eb7680f2045d79185cc0ec060405160405180910390a4505050565b3373ffffffffffffffffffffffffffffffffffffffff165f8054906101000a900473ffffffffffffffffffffffffffffffffffffffff1673ffffffffffffffffffffffffffffffffffffffff16146111b5576040517f08c379a00000000000000000000000000000000000000000000000000000000081526004016111ac90611c41565b60405180910390fd5b6111be81610391565b50565b5f805f9054906101000a900473ffffffffffffffffffffffffffffffffffffffff16905090565b6004602052805f5260405f205f915090505481565b3373ffffffffffffffffffffffffffffffffffffffff165f8054906101000a900473ffffffffffffffffffffffffffffffffffffffff1673ffffffffffffffffffffffffffffffffffffffff161461128a576040517f08c379a000000000000000000000000000000000000000000000000000000000815260040161128190611c41565b60405180910390fd5b61129381610df1565b50565b61129f8161063d565b6112de576040517f08c379a00000000000000000000000000000000000000000000000000000000081526004016112d59061218f565b60405180910390fd5b6112ea8484848461090f565b50505050565b6112f98161063d565b611338576040517f08c379a000000000000000000000000000000000000000000000000000000000815260040161132f9061221d565b60405180910390fd5b6113428282610f49565b5050565b3373ffffffffffffffffffffffffffffffffffffffff165f8054906101000a900473ffffffffffffffffffffffffffffffffffffffff1673ffffffffffffffffffffffffffffffffffffffff16146113d3576040517f08c379a00000000000000000000000000000000000000000000000000000000081526004016113ca90611c41565b60405180910390fd5b6113dc81610c5c565b50565b3373ffffffffffffffffffffffffffffffffffffffff165f8054906101000a900473ffffffffffffffffffffffffffffffffffffffff1673ffffffffffffffffffffffffffffffffffffffff161461146c576040517f08c379a000000000000000000000000000000000000000000000000000000000815260040161146390611c41565b60405180910390fd5b5f73ffffffffffffffffffffffffffffffffffffffff168173ffffffffffffffffffffffffffffffffffffffff16036114da576040517f08c379a00000000000000000000000000000000000000000000000000000000081526004016114d1906122ab565b60405180910390fd5b8073ffffffffffffffffffffffffffffffffffffffff165f8054906101000a900473ffffffffffffffffffffffffffffffffffffffff1673ffffffffffffffffffffffffffffffffffffffff167f8be0079c531659141344cd1fd0a4f28419497f9722a3daafe3b4186f6b6457e060405160405180910390a3805f806101000a81548173ffffffffffffffffffffffffffffffffffffffff021916908373ffffffffffffffffffffffffffffffffffffffff16021790555050565b5f8082846115a391906122f6565b9050838110156115e8576040517f08c379a00000000000000000000000000000000000000000000000000000000081526004016115df90612373565b60405180910390fd5b8091505092915050565b6040518060e001604052805f8152602001606081526020015f81526020015f81526020015f73ffffffffffffffffffffffffffffffffffffffff1681526020015f73ffffffffffffffffffffffffffffffffffffffff1681526020015f81525090565b5f604051905090565b5f80fd5b5f80fd5b5f73ffffffffffffffffffffffffffffffffffffffff82169050919050565b5f61168f82611666565b9050919050565b61169f81611685565b81146116a9575f80fd5b50565b5f813590506116ba81611696565b92915050565b5f602082840312156116d5576116d461165e565b5b5f6116e2848285016116ac565b91505092915050565b5f819050919050565b6116fd816116eb565b8114611707575f80fd5b50565b5f81359050611718816116f4565b92915050565b5f80604083850312156117345761173361165e565b5b5f611741858286016116ac565b92505060206117528582860161170a565b9150509250929050565b5f8115159050919050565b6117708161175c565b82525050565b5f6020820190506117895f830184611767565b92915050565b611798816116eb565b82525050565b5f6020820190506117b15f83018461178f565b92915050565b5f602082840312156117cc576117cb61165e565b5b5f6117d98482850161170a565b91505092915050565b6117eb816116eb565b82525050565b5f81519050919050565b5f82825260208201905092915050565b8281835e5f83830152505050565b5f601f19601f8301169050919050565b5f611833826117f1565b61183d81856117fb565b935061184d81856020860161180b565b61185681611819565b840191505092915050565b61186a81611685565b82525050565b5f60e083015f8301516118855f8601826117e2565b506020830151848203602086015261189d8282611829565b91505060408301516118b260408601826117e2565b5060608301516118c560608601826117e2565b5060808301516118d86080860182611861565b5060a08301516118eb60a0860182611861565b5060c08301516118fe60c08601826117e2565b508091505092915050565b5f6020820190508181035f8301526119218184611870565b905092915050565b5f80fd5b5f80fd5b7f4e487b71000000000000000000000000000000000000000000000000000000005f52604160045260245ffd5b61196782611819565b810181811067ffffffffffffffff8211171561198657611985611931565b5b80604052505050565b5f611998611655565b90506119a4828261195e565b919050565b5f67ffffffffffffffff8211156119c3576119c2611931565b5b6119cc82611819565b9050602081019050919050565b828183375f83830152505050565b5f6119f96119f4846119a9565b61198f565b905082815260208101848484011115611a1557611a1461192d565b5b611a208482856119d9565b509392505050565b5f82601f830112611a3c57611a3b611929565b5b8135611a4c8482602086016119e7565b91505092915050565b5f805f8060808587031215611a6d57611a6c61165e565b5b5f85013567ffffffffffffffff811115611a8a57611a89611662565b5b611a9687828801611a28565b9450506020611aa78782880161170a565b9350506040611ab88782880161170a565b9250506060611ac9878288016116ac565b91505092959194509250565b5f82825260208201905092915050565b5f611aef826117f1565b611af98185611ad5565b9350611b0981856020860161180b565b611b1281611819565b840191505092915050565b611b2681611685565b82525050565b5f60e082019050611b3f5f83018a61178f565b8181036020830152611b518189611ae5565b9050611b60604083018861178f565b611b6d606083018761178f565b611b7a6080830186611b1d565b611b8760a0830185611b1d565b611b9460c083018461178f565b98975050505050505050565b5f8060408385031215611bb657611bb561165e565b5b5f611bc38582860161170a565b9250506020611bd4858286016116ac565b9150509250929050565b5f602082019050611bf15f830184611b1d565b92915050565b7f4f776e61626c653a2063616c6c6572206973206e6f7420746865206f776e65725f82015250565b5f611c2b602083611ad5565b9150611c3682611bf7565b602082019050919050565b5f6020820190508181035f830152611c5881611c1f565b9050919050565b7f57686974656c6973744d616e616765723a2061646472657373206973207468655f8201527f207a65726f206164647265737300000000000000000000000000000000000000602082015250565b5f611cb9602d83611ad5565b9150611cc482611c5f565b604082019050919050565b5f6020820190508181035f830152611ce681611cad565b9050919050565b7f50726f647563744d616e616765723a20696e76616c69642070726f64756374205f8201527f4944000000000000000000000000000000000000000000000000000000000000602082015250565b5f611d47602283611ad5565b9150611d5282611ced565b604082019050919050565b5f6020820190508181035f830152611d7481611d3b565b9050919050565b7f4e487b71000000000000000000000000000000000000000000000000000000005f52603260045260245ffd5b7f4e487b71000000000000000000000000000000000000000000000000000000005f52602260045260245ffd5b5f6002820490506001821680611dec57607f821691505b602082108103611dff57611dfe611da8565b5b50919050565b5f819050815f5260205f209050919050565b5f6020601f8301049050919050565b5f82821b905092915050565b5f60088302611e617fffffffffffffffffffffffffffffffffffffffffffffffffffffffffffffffff82611e26565b611e6b8683611e26565b95508019841693508086168417925050509392505050565b5f819050919050565b5f611ea6611ea1611e9c846116eb565b611e83565b6116eb565b9050919050565b5f819050919050565b611ebf83611e8c565b611ed3611ecb82611ead565b848454611e32565b825550505050565b5f90565b611ee7611edb565b611ef2818484611eb6565b505050565b5b81811015611f1557611f0a5f82611edf565b600181019050611ef8565b5050565b601f821115611f5a57611f2b81611e05565b611f3484611e17565b81016020851015611f43578190505b611f57611f4f85611e17565b830182611ef7565b50505b505050565b5f82821c905092915050565b5f611f7a5f1984600802611f5f565b1980831691505092915050565b5f611f928383611f6b565b9150826002028217905092915050565b611fab826117f1565b67ffffffffffffffff811115611fc457611fc3611931565b5b611fce8254611dd5565b611fd9828285611f19565b5f60209050601f83116001811461200a575f8415611ff8578287015190505b6120028582611f87565b865550612069565b601f19841661201886611e05565b5f5b8281101561203f5784890151825560018201915060208501945060208101905061201a565b8683101561205c5784890151612058601f891682611f6b565b8355505b6001600288020188555050505b505050505050565b5f6020820190508181035f8301526120898184611ae5565b905092915050565b7f50726f647563744d616e616765723a2063616c6c6572206973206e6f742074685f8201527f652063757272656e74206f776e65720000000000000000000000000000000000602082015250565b5f6120eb602f83611ad5565b91506120f682612091565b604082019050919050565b5f6020820190508181035f830152612118816120df565b9050919050565b7f4d61696e436f6e74726163743a204d616e756661637475726572206d757374205f8201527f62652077686974656c6973746564000000000000000000000000000000000000602082015250565b5f612179602e83611ad5565b91506121848261211f565b604082019050919050565b5f6020820190508181035f8301526121a68161216d565b9050919050565b7f4d61696e436f6e74726163743a204e6577206f776e6572206d757374206265205f8201527f77686974656c6973746564000000000000000000000000000000000000000000602082015250565b5f612207602b83611ad5565b9150612212826121ad565b604082019050919050565b5f6020820190508181035f830152612234816121fb565b9050919050565b7f4f776e61626c653a206e6577206f776e657220697320746865207a65726f20615f8201527f6464726573730000000000000000000000000000000000000000000000000000602082015250565b5f612295602683611ad5565b91506122a08261223b565b604082019050919050565b5f6020820190508181035f8301526122c281612289565b9050919050565b7f4e487b71000000000000000000000000000000000000000000000000000000005f52601160045260245ffd5b5f612300826116eb565b915061230b836116eb565b9250828201905080821115612323576123226122c9565b5b92915050565b7f536166654d6174683a206164646974696f6e206f766572666c6f7700000000005f82015250565b5f61235d601b83611ad5565b915061236882612329565b602082019050919050565b5f6020820190508181035f83015261238a81612351565b905091905056fea26469706673582212209608c295c824dbc062504aa6e628ecee4b28cb2c58c0affdbf848bf292b9092764736f6c63430008190033",
					"opcodes": "PUSH1 0x80 PUSH1 0x40 MSTORE CALLVALUE DUP1 ISZERO PUSH1 0xE JUMPI PUSH0 DUP1 REVERT JUMPDEST POP CALLER PUSH0 DUP1 PUSH2 0x100 EXP DUP2 SLOAD DUP2 PUSH20 0xFFFFFFFFFFFFFFFFFFFFFFFFFFFFFFFFFFFFFFFF MUL NOT AND SWAP1 DUP4 PUSH20 0xFFFFFFFFFFFFFFFFFFFFFFFFFFFFFFFFFFFFFFFF AND MUL OR SWAP1 SSTORE POP CALLER PUSH20 0xFFFFFFFFFFFFFFFFFFFFFFFFFFFFFFFFFFFFFFFF AND PUSH0 PUSH20 0xFFFFFFFFFFFFFFFFFFFFFFFFFFFFFFFFFFFFFFFF AND PUSH32 0x8BE0079C531659141344CD1FD0A4F28419497F9722A3DAAFE3B4186F6B6457E0 PUSH1 0x40 MLOAD PUSH1 0x40 MLOAD DUP1 SWAP2 SUB SWAP1 LOG3 PUSH0 PUSH1 0x3 DUP2 SWAP1 SSTORE POP PUSH2 0x23C7 DUP1 PUSH2 0xBC PUSH0 CODECOPY PUSH0 RETURN INVALID PUSH1 0x80 PUSH1 0x40 MSTORE CALLVALUE DUP1 ISZERO PUSH2 0xF JUMPI PUSH0 DUP1 REVERT JUMPDEST POP PUSH1 0x4 CALLDATASIZE LT PUSH2 0x11F JUMPI PUSH0 CALLDATALOAD PUSH1 0xE0 SHR DUP1 PUSH4 0x80E52E3F GT PUSH2 0xAB JUMPI DUP1 PUSH4 0xBD73B25D GT PUSH2 0x6F JUMPI DUP1 PUSH4 0xBD73B25D EQ PUSH2 0x305 JUMPI DUP1 PUSH4 0xDD9F09E4 EQ PUSH2 0x321 JUMPI DUP1 PUSH4 0xE43059E5 EQ PUSH2 0x33D JUMPI DUP1 PUSH4 0xE43252D7 EQ PUSH2 0x359 JUMPI DUP1 PUSH4 0xF2FDE38B EQ PUSH2 0x375 JUMPI PUSH2 0x11F JUMP JUMPDEST DUP1 PUSH4 0x80E52E3F EQ PUSH2 0x263 JUMPI DUP1 PUSH4 0x86B0E812 EQ PUSH2 0x27F JUMPI DUP1 PUSH4 0x8AB1D681 EQ PUSH2 0x29B JUMPI DUP1 PUSH4 0x8DA5CB5B EQ PUSH2 0x2B7 JUMPI DUP1 PUSH4 0x99374642 EQ PUSH2 0x2D5 JUMPI PUSH2 0x11F JUMP JUMPDEST DUP1 PUSH4 0x6813B53B GT PUSH2 0xF2 JUMPI DUP1 PUSH4 0x6813B53B EQ PUSH2 0x1A9 JUMPI DUP1 PUSH4 0x6E53C7B9 EQ PUSH2 0x1D9 JUMPI DUP1 PUSH4 0x72C60690 EQ PUSH2 0x1F5 JUMPI DUP1 PUSH4 0x7ACC0B20 EQ PUSH2 0x211 JUMPI DUP1 PUSH4 0x7B9417C8 EQ PUSH2 0x247 JUMPI PUSH2 0x11F JUMP JUMPDEST DUP1 PUSH4 0x286DD3F5 EQ PUSH2 0x123 JUMPI DUP1 PUSH4 0x2E3036C7 EQ PUSH2 0x13F JUMPI DUP1 PUSH4 0x3AF32ABF EQ PUSH2 0x15B JUMPI DUP1 PUSH4 0x4DE91A63 EQ PUSH2 0x18B JUMPI JUMPDEST PUSH0 DUP1 REVERT JUMPDEST PUSH2 0x13D PUSH1 0x4 DUP1 CALLDATASIZE SUB DUP2 ADD SWAP1 PUSH2 0x138 SWAP2 SWAP1 PUSH2 0x16C0 JUMP JUMPDEST PUSH2 0x391 JUMP JUMPDEST STOP JUMPDEST PUSH2 0x159 PUSH1 0x4 DUP1 CALLDATASIZE SUB DUP2 ADD SWAP1 PUSH2 0x154 SWAP2 SWAP1 PUSH2 0x171E JUMP JUMPDEST PUSH2 0x526 JUMP JUMPDEST STOP JUMPDEST PUSH2 0x175 PUSH1 0x4 DUP1 CALLDATASIZE SUB DUP2 ADD SWAP1 PUSH2 0x170 SWAP2 SWAP1 PUSH2 0x16C0 JUMP JUMPDEST PUSH2 0x63D JUMP JUMPDEST PUSH1 0x40 MLOAD PUSH2 0x182 SWAP2 SWAP1 PUSH2 0x1776 JUMP JUMPDEST PUSH1 0x40 MLOAD DUP1 SWAP2 SUB SWAP1 RETURN JUMPDEST PUSH2 0x193 PUSH2 0x68F JUMP JUMPDEST PUSH1 0x40 MLOAD PUSH2 0x1A0 SWAP2 SWAP1 PUSH2 0x179E JUMP JUMPDEST PUSH1 0x40 MLOAD DUP1 SWAP2 SUB SWAP1 RETURN JUMPDEST PUSH2 0x1C3 PUSH1 0x4 DUP1 CALLDATASIZE SUB DUP2 ADD SWAP1 PUSH2 0x1BE SWAP2 SWAP1 PUSH2 0x17B7 JUMP JUMPDEST PUSH2 0x695 JUMP JUMPDEST PUSH1 0x40 MLOAD PUSH2 0x1D0 SWAP2 SWAP1 PUSH2 0x1909 JUMP JUMPDEST PUSH1 0x40 MLOAD DUP1 SWAP2 SUB SWAP1 RETURN JUMPDEST PUSH2 0x1F3 PUSH1 0x4 DUP1 CALLDATASIZE SUB DUP2 ADD SWAP1 PUSH2 0x1EE SWAP2 SWAP1 PUSH2 0x171E JUMP JUMPDEST PUSH2 0x874 JUMP JUMPDEST STOP JUMPDEST PUSH2 0x20F PUSH1 0x4 DUP1 CALLDATASIZE SUB DUP2 ADD SWAP1 PUSH2 0x20A SWAP2 SWAP1 PUSH2 0x1A55 JUMP JUMPDEST PUSH2 0x90F JUMP JUMPDEST STOP JUMPDEST PUSH2 0x22B PUSH1 0x4 DUP1 CALLDATASIZE SUB DUP2 ADD SWAP1 PUSH2 0x226 SWAP2 SWAP1 PUSH2 0x17B7 JUMP JUMPDEST PUSH2 0xB4B JUMP JUMPDEST PUSH1 0x40 MLOAD PUSH2 0x23E SWAP8 SWAP7 SWAP6 SWAP5 SWAP4 SWAP3 SWAP2 SWAP1 PUSH2 0x1B2C JUMP JUMPDEST PUSH1 0x40 MLOAD DUP1 SWAP2 SUB SWAP1 RETURN JUMPDEST PUSH2 0x261 PUSH1 0x4 DUP1 CALLDATASIZE SUB DUP2 ADD SWAP1 PUSH2 0x25C SWAP2 SWAP1 PUSH2 0x16C0 JUMP JUMPDEST PUSH2 0xC5C JUMP JUMPDEST STOP JUMPDEST PUSH2 0x27D PUSH1 0x4 DUP1 CALLDATASIZE SUB DUP2 ADD SWAP1 PUSH2 0x278 SWAP2 SWAP1 PUSH2 0x16C0 JUMP JUMPDEST PUSH2 0xDF1 JUMP JUMPDEST STOP JUMPDEST PUSH2 0x299 PUSH1 0x4 DUP1 CALLDATASIZE SUB DUP2 ADD SWAP1 PUSH2 0x294 SWAP2 SWAP1 PUSH2 0x1BA0 JUMP JUMPDEST PUSH2 0xF49 JUMP JUMPDEST STOP JUMPDEST PUSH2 0x2B5 PUSH1 0x4 DUP1 CALLDATASIZE SUB DUP2 ADD SWAP1 PUSH2 0x2B0 SWAP2 SWAP1 PUSH2 0x16C0 JUMP JUMPDEST PUSH2 0x1128 JUMP JUMPDEST STOP JUMPDEST PUSH2 0x2BF PUSH2 0x11C1 JUMP JUMPDEST PUSH1 0x40 MLOAD PUSH2 0x2CC SWAP2 SWAP1 PUSH2 0x1BDE JUMP JUMPDEST PUSH1 0x40 MLOAD DUP1 SWAP2 SUB SWAP1 RETURN JUMPDEST PUSH2 0x2EF PUSH1 0x4 DUP1 CALLDATASIZE SUB DUP2 ADD SWAP1 PUSH2 0x2EA SWAP2 SWAP1 PUSH2 0x16C0 JUMP JUMPDEST PUSH2 0x11E8 JUMP JUMPDEST PUSH1 0x40 MLOAD PUSH2 0x2FC SWAP2 SWAP1 PUSH2 0x179E JUMP JUMPDEST PUSH1 0x40 MLOAD DUP1 SWAP2 SUB SWAP1 RETURN JUMPDEST PUSH2 0x31F PUSH1 0x4 DUP1 CALLDATASIZE SUB DUP2 ADD SWAP1 PUSH2 0x31A SWAP2 SWAP1 PUSH2 0x16C0 JUMP JUMPDEST PUSH2 0x11FD JUMP JUMPDEST STOP JUMPDEST PUSH2 0x33B PUSH1 0x4 DUP1 CALLDATASIZE SUB DUP2 ADD SWAP1 PUSH2 0x336 SWAP2 SWAP1 PUSH2 0x1A55 JUMP JUMPDEST PUSH2 0x1296 JUMP JUMPDEST STOP JUMPDEST PUSH2 0x357 PUSH1 0x4 DUP1 CALLDATASIZE SUB DUP2 ADD SWAP1 PUSH2 0x352 SWAP2 SWAP1 PUSH2 0x1BA0 JUMP JUMPDEST PUSH2 0x12F0 JUMP JUMPDEST STOP JUMPDEST PUSH2 0x373 PUSH1 0x4 DUP1 CALLDATASIZE SUB DUP2 ADD SWAP1 PUSH2 0x36E SWAP2 SWAP1 PUSH2 0x16C0 JUMP JUMPDEST PUSH2 0x1346 JUMP JUMPDEST STOP JUMPDEST PUSH2 0x38F PUSH1 0x4 DUP1 CALLDATASIZE SUB DUP2 ADD SWAP1 PUSH2 0x38A SWAP2 SWAP1 PUSH2 0x16C0 JUMP JUMPDEST PUSH2 0x13DF JUMP JUMPDEST STOP JUMPDEST CALLER PUSH20 0xFFFFFFFFFFFFFFFFFFFFFFFFFFFFFFFFFFFFFFFF AND PUSH0 DUP1 SLOAD SWAP1 PUSH2 0x100 EXP SWAP1 DIV PUSH20 0xFFFFFFFFFFFFFFFFFFFFFFFFFFFFFFFFFFFFFFFF AND PUSH20 0xFFFFFFFFFFFFFFFFFFFFFFFFFFFFFFFFFFFFFFFF AND EQ PUSH2 0x41E JUMPI PUSH1 0x40 MLOAD PUSH32 0x8C379A000000000000000000000000000000000000000000000000000000000 DUP2 MSTORE PUSH1 0x4 ADD PUSH2 0x415 SWAP1 PUSH2 0x1C41 JUMP JUMPDEST PUSH1 0x40 MLOAD DUP1 SWAP2 SUB SWAP1 REVERT JUMPDEST PUSH0 PUSH20 0xFFFFFFFFFFFFFFFFFFFFFFFFFFFFFFFFFFFFFFFF AND DUP2 PUSH20 0xFFFFFFFFFFFFFFFFFFFFFFFFFFFFFFFFFFFFFFFF AND SUB PUSH2 0x48C JUMPI PUSH1 0x40 MLOAD PUSH32 0x8C379A000000000000000000000000000000000000000000000000000000000 DUP2 MSTORE PUSH1 0x4 ADD PUSH2 0x483 SWAP1 PUSH2 0x1CCF JUMP JUMPDEST PUSH1 0x40 MLOAD DUP1 SWAP2 SUB SWAP1 REVERT JUMPDEST PUSH0 PUSH1 0x1 PUSH0 DUP4 PUSH20 0xFFFFFFFFFFFFFFFFFFFFFFFFFFFFFFFFFFFFFFFF AND PUSH20 0xFFFFFFFFFFFFFFFFFFFFFFFFFFFFFFFFFFFFFFFF AND DUP2 MSTORE PUSH1 0x20 ADD SWAP1 DUP2 MSTORE PUSH1 0x20 ADD PUSH0 KECCAK256 PUSH0 PUSH2 0x100 EXP DUP2 SLOAD DUP2 PUSH1 0xFF MUL NOT AND SWAP1 DUP4 ISZERO ISZERO MUL OR SWAP1 SSTORE POP DUP1 PUSH20 0xFFFFFFFFFFFFFFFFFFFFFFFFFFFFFFFFFFFFFFFF AND PUSH32 0xF1ABF01A1043B7C244D128E8595CF0C1D10743B022B03A02DFFD8CA3BF729F5A PUSH1 0x40 MLOAD PUSH1 0x40 MLOAD DUP1 SWAP2 SUB SWAP1 LOG2 POP JUMP JUMPDEST CALLER PUSH20 0xFFFFFFFFFFFFFFFFFFFFFFFFFFFFFFFFFFFFFFFF AND PUSH0 DUP1 SLOAD SWAP1 PUSH2 0x100 EXP SWAP1 DIV PUSH20 0xFFFFFFFFFFFFFFFFFFFFFFFFFFFFFFFFFFFFFFFF AND PUSH20 0xFFFFFFFFFFFFFFFFFFFFFFFFFFFFFFFFFFFFFFFF AND EQ PUSH2 0x5B3 JUMPI PUSH1 0x40 MLOAD PUSH32 0x8C379A000000000000000000000000000000000000000000000000000000000 DUP2 MSTORE PUSH1 0x4 ADD PUSH2 0x5AA SWAP1 PUSH2 0x1C41 JUMP JUMPDEST PUSH1 0x40 MLOAD DUP1 SWAP2 SUB SWAP1 REVERT JUMPDEST DUP1 PUSH1 0x4 PUSH0 DUP5 PUSH20 0xFFFFFFFFFFFFFFFFFFFFFFFFFFFFFFFFFFFFFFFF AND PUSH20 0xFFFFFFFFFFFFFFFFFFFFFFFFFFFFFFFFFFFFFFFF AND DUP2 MSTORE PUSH1 0x20 ADD SWAP1 DUP2 MSTORE PUSH1 0x20 ADD PUSH0 KECCAK256 DUP2 SWAP1 SSTORE POP DUP1 DUP3 PUSH20 0xFFFFFFFFFFFFFFFFFFFFFFFFFFFFFFFFFFFFFFFF AND PUSH32 0xE2AC27C5C810AEAD8FA29780FDCA1995888A2F0E6B8128A1316E116960B009F8 PUSH1 0x40 MLOAD PUSH1 0x40 MLOAD DUP1 SWAP2 SUB SWAP1 LOG3 POP POP JUMP JUMPDEST PUSH0 PUSH1 0x1 PUSH0 DUP4 PUSH20 0xFFFFFFFFFFFFFFFFFFFFFFFFFFFFFFFFFFFFFFFF AND PUSH20 0xFFFFFFFFFFFFFFFFFFFFFFFFFFFFFFFFFFFFFFFF AND DUP2 MSTORE PUSH1 0x20 ADD SWAP1 DUP2 MSTORE PUSH1 0x20 ADD PUSH0 KECCAK256 PUSH0 SWAP1 SLOAD SWAP1 PUSH2 0x100 EXP SWAP1 DIV PUSH1 0xFF AND SWAP1 POP SWAP2 SWAP1 POP JUMP JUMPDEST PUSH1 0x3 SLOAD DUP2 JUMP JUMPDEST PUSH2 0x69D PUSH2 0x15F2 JUMP JUMPDEST PUSH1 0x3 SLOAD DUP3 LT PUSH2 0x6E1 JUMPI PUSH1 0x40 MLOAD PUSH32 0x8C379A000000000000000000000000000000000000000000000000000000000 DUP2 MSTORE PUSH1 0x4 ADD PUSH2 0x6D8 SWAP1 PUSH2 0x1D5D JUMP JUMPDEST PUSH1 0x40 MLOAD DUP1 SWAP2 SUB SWAP1 REVERT JUMPDEST PUSH1 0x2 DUP3 DUP2 SLOAD DUP2 LT PUSH2 0x6F5 JUMPI PUSH2 0x6F4 PUSH2 0x1D7B JUMP JUMPDEST JUMPDEST SWAP1 PUSH0 MSTORE PUSH1 0x20 PUSH0 KECCAK256 SWAP1 PUSH1 0x7 MUL ADD PUSH1 0x40 MLOAD DUP1 PUSH1 0xE0 ADD PUSH1 0x40 MSTORE SWAP1 DUP2 PUSH0 DUP3 ADD SLOAD DUP2 MSTORE PUSH1 0x20 ADD PUSH1 0x1 DUP3 ADD DUP1 SLOAD PUSH2 0x725 SWAP1 PUSH2 0x1DD5 JUMP JUMPDEST DUP1 PUSH1 0x1F ADD PUSH1 0x20 DUP1 SWAP2 DIV MUL PUSH1 0x20 ADD PUSH1 0x40 MLOAD SWAP1 DUP2 ADD PUSH1 0x40 MSTORE DUP1 SWAP3 SWAP2 SWAP1 DUP2 DUP2 MSTORE PUSH1 0x20 ADD DUP3 DUP1 SLOAD PUSH2 0x751 SWAP1 PUSH2 0x1DD5 JUMP JUMPDEST DUP1 ISZERO PUSH2 0x79C JUMPI DUP1 PUSH1 0x1F LT PUSH2 0x773 JUMPI PUSH2 0x100 DUP1 DUP4 SLOAD DIV MUL DUP4 MSTORE SWAP2 PUSH1 0x20 ADD SWAP2 PUSH2 0x79C JUMP JUMPDEST DUP3 ADD SWAP2 SWAP1 PUSH0 MSTORE PUSH1 0x20 PUSH0 KECCAK256 SWAP1 JUMPDEST DUP2 SLOAD DUP2 MSTORE SWAP1 PUSH1 0x1 ADD SWAP1 PUSH1 0x20 ADD DUP1 DUP4 GT PUSH2 0x77F JUMPI DUP3 SWAP1 SUB PUSH1 0x1F AND DUP3 ADD SWAP2 JUMPDEST POP POP POP POP POP DUP2 MSTORE PUSH1 0x20 ADD PUSH1 0x2 DUP3 ADD SLOAD DUP2 MSTORE PUSH1 0x20 ADD PUSH1 0x3 DUP3 ADD SLOAD DUP2 MSTORE PUSH1 0x20 ADD PUSH1 0x4 DUP3 ADD PUSH0 SWAP1 SLOAD SWAP1 PUSH2 0x100 EXP SWAP1 DIV PUSH20 0xFFFFFFFFFFFFFFFFFFFFFFFFFFFFFFFFFFFFFFFF AND PUSH20 0xFFFFFFFFFFFFFFFFFFFFFFFFFFFFFFFFFFFFFFFF AND PUSH20 0xFFFFFFFFFFFFFFFFFFFFFFFFFFFFFFFFFFFFFFFF AND DUP2 MSTORE PUSH1 0x20 ADD PUSH1 0x5 DUP3 ADD PUSH0 SWAP1 SLOAD SWAP1 PUSH2 0x100 EXP SWAP1 DIV PUSH20 0xFFFFFFFFFFFFFFFFFFFFFFFFFFFFFFFFFFFFFFFF AND PUSH20 0xFFFFFFFFFFFFFFFFFFFFFFFFFFFFFFFFFFFFFFFF AND PUSH20 0xFFFFFFFFFFFFFFFFFFFFFFFFFFFFFFFFFFFFFFFF AND DUP2 MSTORE PUSH1 0x20 ADD PUSH1 0x6 DUP3 ADD SLOAD DUP2 MSTORE POP POP SWAP1 POP SWAP2 SWAP1 POP JUMP JUMPDEST CALLER PUSH20 0xFFFFFFFFFFFFFFFFFFFFFFFFFFFFFFFFFFFFFFFF AND PUSH0 DUP1 SLOAD SWAP1 PUSH2 0x100 EXP SWAP1 DIV PUSH20 0xFFFFFFFFFFFFFFFFFFFFFFFFFFFFFFFFFFFFFFFF AND PUSH20 0xFFFFFFFFFFFFFFFFFFFFFFFFFFFFFFFFFFFFFFFF AND EQ PUSH2 0x901 JUMPI PUSH1 0x40 MLOAD PUSH32 0x8C379A000000000000000000000000000000000000000000000000000000000 DUP2 MSTORE PUSH1 0x4 ADD PUSH2 0x8F8 SWAP1 PUSH2 0x1C41 JUMP JUMPDEST PUSH1 0x40 MLOAD DUP1 SWAP2 SUB SWAP1 REVERT JUMPDEST PUSH2 0x90B DUP3 DUP3 PUSH2 0x526 JUMP JUMPDEST POP POP JUMP JUMPDEST CALLER PUSH20 0xFFFFFFFFFFFFFFFFFFFFFFFFFFFFFFFFFFFFFFFF AND PUSH0 DUP1 SLOAD SWAP1 PUSH2 0x100 EXP SWAP1 DIV PUSH20 0xFFFFFFFFFFFFFFFFFFFFFFFFFFFFFFFFFFFFFFFF AND PUSH20 0xFFFFFFFFFFFFFFFFFFFFFFFFFFFFFFFFFFFFFFFF AND EQ PUSH2 0x99C JUMPI PUSH1 0x40 MLOAD PUSH32 0x8C379A000000000000000000000000000000000000000000000000000000000 DUP2 MSTORE PUSH1 0x4 ADD PUSH2 0x993 SWAP1 PUSH2 0x1C41 JUMP JUMPDEST PUSH1 0x40 MLOAD DUP1 SWAP2 SUB SWAP1 REVERT JUMPDEST PUSH1 0x2 PUSH1 0x40 MLOAD DUP1 PUSH1 0xE0 ADD PUSH1 0x40 MSTORE DUP1 PUSH1 0x3 SLOAD DUP2 MSTORE PUSH1 0x20 ADD DUP7 DUP2 MSTORE PUSH1 0x20 ADD DUP6 DUP2 MSTORE PUSH1 0x20 ADD DUP5 DUP2 MSTORE PUSH1 0x20 ADD DUP4 PUSH20 0xFFFFFFFFFFFFFFFFFFFFFFFFFFFFFFFFFFFFFFFF AND DUP2 MSTORE PUSH1 0x20 ADD DUP4 PUSH20 0xFFFFFFFFFFFFFFFFFFFFFFFFFFFFFFFFFFFFFFFF AND DUP2 MSTORE PUSH1 0x20 ADD TIMESTAMP DUP2 MSTORE POP SWAP1 DUP1 PUSH1 0x1 DUP2 SLOAD ADD DUP1 DUP3 SSTORE DUP1 SWAP2 POP POP PUSH1 0x1 SWAP1 SUB SWAP1 PUSH0 MSTORE PUSH1 0x20 PUSH0 KECCAK256 SWAP1 PUSH1 0x7 MUL ADD PUSH0 SWAP1 SWAP2 SWAP1 SWAP2 SWAP1 SWAP2 POP PUSH0 DUP3 ADD MLOAD DUP2 PUSH0 ADD SSTORE PUSH1 0x20 DUP3 ADD MLOAD DUP2 PUSH1 0x1 ADD SWAP1 DUP2 PUSH2 0xA42 SWAP2 SWAP1 PUSH2 0x1FA2 JUMP JUMPDEST POP PUSH1 0x40 DUP3 ADD MLOAD DUP2 PUSH1 0x2 ADD SSTORE PUSH1 0x60 DUP3 ADD MLOAD DUP2 PUSH1 0x3 ADD SSTORE PUSH1 0x80 DUP3 ADD MLOAD DUP2 PUSH1 0x4 ADD PUSH0 PUSH2 0x100 EXP DUP2 SLOAD DUP2 PUSH20 0xFFFFFFFFFFFFFFFFFFFFFFFFFFFFFFFFFFFFFFFF MUL NOT AND SWAP1 DUP4 PUSH20 0xFFFFFFFFFFFFFFFFFFFFFFFFFFFFFFFFFFFFFFFF AND MUL OR SWAP1 SSTORE POP PUSH1 0xA0 DUP3 ADD MLOAD DUP2 PUSH1 0x5 ADD PUSH0 PUSH2 0x100 EXP DUP2 SLOAD DUP2 PUSH20 0xFFFFFFFFFFFFFFFFFFFFFFFFFFFFFFFFFFFFFFFF MUL NOT AND SWAP1 DUP4 PUSH20 0xFFFFFFFFFFFFFFFFFFFFFFFFFFFFFFFFFFFFFFFF AND MUL OR SWAP1 SSTORE POP PUSH1 0xC0 DUP3 ADD MLOAD DUP2 PUSH1 0x6 ADD SSTORE POP POP PUSH1 0x3 SLOAD PUSH32 0x543247085674B00368D9CD41416BE705A4C27143C024163A6F58BF12A41992F5 DUP6 PUSH1 0x40 MLOAD PUSH2 0xB21 SWAP2 SWAP1 PUSH2 0x2071 JUMP JUMPDEST PUSH1 0x40 MLOAD DUP1 SWAP2 SUB SWAP1 LOG2 PUSH2 0xB3F PUSH1 0x1 PUSH1 0x3 SLOAD PUSH2 0x1595 SWAP1 SWAP2 SWAP1 PUSH4 0xFFFFFFFF AND JUMP JUMPDEST PUSH1 0x3 DUP2 SWAP1 SSTORE POP POP POP POP POP JUMP JUMPDEST PUSH1 0x2 DUP2 DUP2 SLOAD DUP2 LT PUSH2 0xB5A JUMPI PUSH0 DUP1 REVERT JUMPDEST SWAP1 PUSH0 MSTORE PUSH1 0x20 PUSH0 KECCAK256 SWAP1 PUSH1 0x7 MUL ADD PUSH0 SWAP2 POP SWAP1 POP DUP1 PUSH0 ADD SLOAD SWAP1 DUP1 PUSH1 0x1 ADD DUP1 SLOAD PUSH2 0xB7F SWAP1 PUSH2 0x1DD5 JUMP JUMPDEST DUP1 PUSH1 0x1F ADD PUSH1 0x20 DUP1 SWAP2 DIV MUL PUSH1 0x20 ADD PUSH1 0x40 MLOAD SWAP1 DUP2 ADD PUSH1 0x40 MSTORE DUP1 SWAP3 SWAP2 SWAP1 DUP2 DUP2 MSTORE PUSH1 0x20 ADD DUP3 DUP1 SLOAD PUSH2 0xBAB SWAP1 PUSH2 0x1DD5 JUMP JUMPDEST DUP1 ISZERO PUSH2 0xBF6 JUMPI DUP1 PUSH1 0x1F LT PUSH2 0xBCD JUMPI PUSH2 0x100 DUP1 DUP4 SLOAD DIV MUL DUP4 MSTORE SWAP2 PUSH1 0x20 ADD SWAP2 PUSH2 0xBF6 JUMP JUMPDEST DUP3 ADD SWAP2 SWAP1 PUSH0 MSTORE PUSH1 0x20 PUSH0 KECCAK256 SWAP1 JUMPDEST DUP2 SLOAD DUP2 MSTORE SWAP1 PUSH1 0x1 ADD SWAP1 PUSH1 0x20 ADD DUP1 DUP4 GT PUSH2 0xBD9 JUMPI DUP3 SWAP1 SUB PUSH1 0x1F AND DUP3 ADD SWAP2 JUMPDEST POP POP POP POP POP SWAP1 DUP1 PUSH1 0x2 ADD SLOAD SWAP1 DUP1 PUSH1 0x3 ADD SLOAD SWAP1 DUP1 PUSH1 0x4 ADD PUSH0 SWAP1 SLOAD SWAP1 PUSH2 0x100 EXP SWAP1 DIV PUSH20 0xFFFFFFFFFFFFFFFFFFFFFFFFFFFFFFFFFFFFFFFF AND SWAP1 DUP1 PUSH1 0x5 ADD PUSH0 SWAP1 SLOAD SWAP1 PUSH2 0x100 EXP SWAP1 DIV PUSH20 0xFFFFFFFFFFFFFFFFFFFFFFFFFFFFFFFFFFFFFFFF AND SWAP1 DUP1 PUSH1 0x6 ADD SLOAD SWAP1 POP DUP8 JUMP JUMPDEST CALLER PUSH20 0xFFFFFFFFFFFFFFFFFFFFFFFFFFFFFFFFFFFFFFFF AND PUSH0 DUP1 SLOAD SWAP1 PUSH2 0x100 EXP SWAP1 DIV PUSH20 0xFFFFFFFFFFFFFFFFFFFFFFFFFFFFFFFFFFFFFFFF AND PUSH20 0xFFFFFFFFFFFFFFFFFFFFFFFFFFFFFFFFFFFFFFFF AND EQ PUSH2 0xCE9 JUMPI PUSH1 0x40 MLOAD PUSH32 0x8C379A000000000000000000000000000000000000000000000000000000000 DUP2 MSTORE PUSH1 0x4 ADD PUSH2 0xCE0 SWAP1 PUSH2 0x1C41 JUMP JUMPDEST PUSH1 0x40 MLOAD DUP1 SWAP2 SUB SWAP1 REVERT JUMPDEST PUSH0 PUSH20 0xFFFFFFFFFFFFFFFFFFFFFFFFFFFFFFFFFFFFFFFF AND DUP2 PUSH20 0xFFFFFFFFFFFFFFFFFFFFFFFFFFFFFFFFFFFFFFFF AND SUB PUSH2 0xD57 JUMPI PUSH1 0x40 MLOAD PUSH32 0x8C379A000000000000000000000000000000000000000000000000000000000 DUP2 MSTORE PUSH1 0x4 ADD PUSH2 0xD4E SWAP1 PUSH2 0x1CCF JUMP JUMPDEST PUSH1 0x40 MLOAD DUP1 SWAP2 SUB SWAP1 REVERT JUMPDEST PUSH1 0x1 DUP1 PUSH0 DUP4 PUSH20 0xFFFFFFFFFFFFFFFFFFFFFFFFFFFFFFFFFFFFFFFF AND PUSH20 0xFFFFFFFFFFFFFFFFFFFFFFFFFFFFFFFFFFFFFFFF AND DUP2 MSTORE PUSH1 0x20 ADD SWAP1 DUP2 MSTORE PUSH1 0x20 ADD PUSH0 KECCAK256 PUSH0 PUSH2 0x100 EXP DUP2 SLOAD DUP2 PUSH1 0xFF MUL NOT AND SWAP1 DUP4 ISZERO ISZERO MUL OR SWAP1 SSTORE POP DUP1 PUSH20 0xFFFFFFFFFFFFFFFFFFFFFFFFFFFFFFFFFFFFFFFF AND PUSH32 0xD1BBA68C128CC3F427E5831B3C6F99F480B6EFA6B9E80C757768F6124158CC3F PUSH1 0x40 MLOAD PUSH1 0x40 MLOAD DUP1 SWAP2 SUB SWAP1 LOG2 POP JUMP JUMPDEST CALLER PUSH20 0xFFFFFFFFFFFFFFFFFFFFFFFFFFFFFFFFFFFFFFFF AND PUSH0 DUP1 SLOAD SWAP1 PUSH2 0x100 EXP SWAP1 DIV PUSH20 0xFFFFFFFFFFFFFFFFFFFFFFFFFFFFFFFFFFFFFFFF AND PUSH20 0xFFFFFFFFFFFFFFFFFFFFFFFFFFFFFFFFFFFFFFFF AND EQ PUSH2 0xE7E JUMPI PUSH1 0x40 MLOAD PUSH32 0x8C379A000000000000000000000000000000000000000000000000000000000 DUP2 MSTORE PUSH1 0x4 ADD PUSH2 0xE75 SWAP1 PUSH2 0x1C41 JUMP JUMPDEST PUSH1 0x40 MLOAD DUP1 SWAP2 SUB SWAP1 REVERT JUMPDEST PUSH0 PUSH1 0x4 PUSH0 DUP4 PUSH20 0xFFFFFFFFFFFFFFFFFFFFFFFFFFFFFFFFFFFFFFFF AND PUSH20 0xFFFFFFFFFFFFFFFFFFFFFFFFFFFFFFFFFFFFFFFF AND DUP2 MSTORE PUSH1 0x20 ADD SWAP1 DUP2 MSTORE PUSH1 0x20 ADD PUSH0 KECCAK256 SLOAD SWAP1 POP PUSH0 PUSH1 0x4 PUSH0 DUP5 PUSH20 0xFFFFFFFFFFFFFFFFFFFFFFFFFFFFFFFFFFFFFFFF AND PUSH20 0xFFFFFFFFFFFFFFFFFFFFFFFFFFFFFFFFFFFFFFFF AND DUP2 MSTORE PUSH1 0x20 ADD SWAP1 DUP2 MSTORE PUSH1 0x20 ADD PUSH0 KECCAK256 DUP2 SWAP1 SSTORE POP DUP1 DUP3 PUSH20 0xFFFFFFFFFFFFFFFFFFFFFFFFFFFFFFFFFFFFFFFF AND PUSH32 0x12982F922B0573398129EA86655CE1E8E425EC676C9E3D40BF5458688B1EF544 PUSH1 0x40 MLOAD PUSH1 0x40 MLOAD DUP1 SWAP2 SUB SWAP1 LOG3 POP POP JUMP JUMPDEST PUSH1 0x2 DUP3 DUP2 SLOAD DUP2 LT PUSH2 0xF5D JUMPI PUSH2 0xF5C PUSH2 0x1D7B JUMP JUMPDEST JUMPDEST SWAP1 PUSH0 MSTORE PUSH1 0x20 PUSH0 KECCAK256 SWAP1 PUSH1 0x7 MUL ADD PUSH1 0x5 ADD PUSH0 SWAP1 SLOAD SWAP1 PUSH2 0x100 EXP SWAP1 DIV PUSH20 0xFFFFFFFFFFFFFFFFFFFFFFFFFFFFFFFFFFFFFFFF AND PUSH20 0xFFFFFFFFFFFFFFFFFFFFFFFFFFFFFFFFFFFFFFFF AND CALLER PUSH20 0xFFFFFFFFFFFFFFFFFFFFFFFFFFFFFFFFFFFFFFFF AND EQ PUSH2 0xFF9 JUMPI PUSH1 0x40 MLOAD PUSH32 0x8C379A000000000000000000000000000000000000000000000000000000000 DUP2 MSTORE PUSH1 0x4 ADD PUSH2 0xFF0 SWAP1 PUSH2 0x2101 JUMP JUMPDEST PUSH1 0x40 MLOAD DUP1 SWAP2 SUB SWAP1 REVERT JUMPDEST PUSH0 PUSH1 0x2 DUP4 DUP2 SLOAD DUP2 LT PUSH2 0x100E JUMPI PUSH2 0x100D PUSH2 0x1D7B JUMP JUMPDEST JUMPDEST SWAP1 PUSH0 MSTORE PUSH1 0x20 PUSH0 KECCAK256 SWAP1 PUSH1 0x7 MUL ADD PUSH1 0x5 ADD PUSH0 SWAP1 SLOAD SWAP1 PUSH2 0x100 EXP SWAP1 DIV PUSH20 0xFFFFFFFFFFFFFFFFFFFFFFFFFFFFFFFFFFFFFFFF AND SWAP1 POP DUP2 PUSH1 0x2 DUP5 DUP2 SLOAD DUP2 LT PUSH2 0x1054 JUMPI PUSH2 0x1053 PUSH2 0x1D7B JUMP JUMPDEST JUMPDEST SWAP1 PUSH0 MSTORE PUSH1 0x20 PUSH0 KECCAK256 SWAP1 PUSH1 0x7 MUL ADD PUSH1 0x5 ADD PUSH0 PUSH2 0x100 EXP DUP2 SLOAD DUP2 PUSH20 0xFFFFFFFFFFFFFFFFFFFFFFFFFFFFFFFFFFFFFFFF MUL NOT AND SWAP1 DUP4 PUSH20 0xFFFFFFFFFFFFFFFFFFFFFFFFFFFFFFFFFFFFFFFF AND MUL OR SWAP1 SSTORE POP TIMESTAMP PUSH1 0x2 DUP5 DUP2 SLOAD DUP2 LT PUSH2 0x10B5 JUMPI PUSH2 0x10B4 PUSH2 0x1D7B JUMP JUMPDEST JUMPDEST SWAP1 PUSH0 MSTORE PUSH1 0x20 PUSH0 KECCAK256 SWAP1 PUSH1 0x7 MUL ADD PUSH1 0x6 ADD DUP2 SWAP1 SSTORE POP DUP2 PUSH20 0xFFFFFFFFFFFFFFFFFFFFFFFFFFFFFFFFFFFFFFFF AND DUP2 PUSH20 0xFFFFFFFFFFFFFFFFFFFFFFFFFFFFFFFFFFFFFFFF AND DUP5 PUSH32 0x16B85F49BF01212961345D3016C9A531894ACCF62EB7680F2045D79185CC0EC0 PUSH1 0x40 MLOAD PUSH1 0x40 MLOAD DUP1 SWAP2 SUB SWAP1 LOG4 POP POP POP JUMP JUMPDEST CALLER PUSH20 0xFFFFFFFFFFFFFFFFFFFFFFFFFFFFFFFFFFFFFFFF AND PUSH0 DUP1 SLOAD SWAP1 PUSH2 0x100 EXP SWAP1 DIV PUSH20 0xFFFFFFFFFFFFFFFFFFFFFFFFFFFFFFFFFFFFFFFF AND PUSH20 0xFFFFFFFFFFFFFFFFFFFFFFFFFFFFFFFFFFFFFFFF AND EQ PUSH2 0x11B5 JUMPI PUSH1 0x40 MLOAD PUSH32 0x8C379A000000000000000000000000000000000000000000000000000000000 DUP2 MSTORE PUSH1 0x4 ADD PUSH2 0x11AC SWAP1 PUSH2 0x1C41 JUMP JUMPDEST PUSH1 0x40 MLOAD DUP1 SWAP2 SUB SWAP1 REVERT JUMPDEST PUSH2 0x11BE DUP2 PUSH2 0x391 JUMP JUMPDEST POP JUMP JUMPDEST PUSH0 DUP1 PUSH0 SWAP1 SLOAD SWAP1 PUSH2 0x100 EXP SWAP1 DIV PUSH20 0xFFFFFFFFFFFFFFFFFFFFFFFFFFFFFFFFFFFFFFFF AND SWAP1 POP SWAP1 JUMP JUMPDEST PUSH1 0x4 PUSH1 0x20 MSTORE DUP1 PUSH0 MSTORE PUSH1 0x40 PUSH0 KECCAK256 PUSH0 SWAP2 POP SWAP1 POP SLOAD DUP2 JUMP JUMPDEST CALLER PUSH20 0xFFFFFFFFFFFFFFFFFFFFFFFFFFFFFFFFFFFFFFFF AND PUSH0 DUP1 SLOAD SWAP1 PUSH2 0x100 EXP SWAP1 DIV PUSH20 0xFFFFFFFFFFFFFFFFFFFFFFFFFFFFFFFFFFFFFFFF AND PUSH20 0xFFFFFFFFFFFFFFFFFFFFFFFFFFFFFFFFFFFFFFFF AND EQ PUSH2 0x128A JUMPI PUSH1 0x40 MLOAD PUSH32 0x8C379A000000000000000000000000000000000000000000000000000000000 DUP2 MSTORE PUSH1 0x4 ADD PUSH2 0x1281 SWAP1 PUSH2 0x1C41 JUMP JUMPDEST PUSH1 0x40 MLOAD DUP1 SWAP2 SUB SWAP1 REVERT JUMPDEST PUSH2 0x1293 DUP2 PUSH2 0xDF1 JUMP JUMPDEST POP JUMP JUMPDEST PUSH2 0x129F DUP2 PUSH2 0x63D JUMP JUMPDEST PUSH2 0x12DE JUMPI PUSH1 0x40 MLOAD PUSH32 0x8C379A000000000000000000000000000000000000000000000000000000000 DUP2 MSTORE PUSH1 0x4 ADD PUSH2 0x12D5 SWAP1 PUSH2 0x218F JUMP JUMPDEST PUSH1 0x40 MLOAD DUP1 SWAP2 SUB SWAP1 REVERT JUMPDEST PUSH2 0x12EA DUP5 DUP5 DUP5 DUP5 PUSH2 0x90F JUMP JUMPDEST POP POP POP POP JUMP JUMPDEST PUSH2 0x12F9 DUP2 PUSH2 0x63D JUMP JUMPDEST PUSH2 0x1338 JUMPI PUSH1 0x40 MLOAD PUSH32 0x8C379A000000000000000000000000000000000000000000000000000000000 DUP2 MSTORE PUSH1 0x4 ADD PUSH2 0x132F SWAP1 PUSH2 0x221D JUMP JUMPDEST PUSH1 0x40 MLOAD DUP1 SWAP2 SUB SWAP1 REVERT JUMPDEST PUSH2 0x1342 DUP3 DUP3 PUSH2 0xF49 JUMP JUMPDEST POP POP JUMP JUMPDEST CALLER PUSH20 0xFFFFFFFFFFFFFFFFFFFFFFFFFFFFFFFFFFFFFFFF AND PUSH0 DUP1 SLOAD SWAP1 PUSH2 0x100 EXP SWAP1 DIV PUSH20 0xFFFFFFFFFFFFFFFFFFFFFFFFFFFFFFFFFFFFFFFF AND PUSH20 0xFFFFFFFFFFFFFFFFFFFFFFFFFFFFFFFFFFFFFFFF AND EQ PUSH2 0x13D3 JUMPI PUSH1 0x40 MLOAD PUSH32 0x8C379A000000000000000000000000000000000000000000000000000000000 DUP2 MSTORE PUSH1 0x4 ADD PUSH2 0x13CA SWAP1 PUSH2 0x1C41 JUMP JUMPDEST PUSH1 0x40 MLOAD DUP1 SWAP2 SUB SWAP1 REVERT JUMPDEST PUSH2 0x13DC DUP2 PUSH2 0xC5C JUMP JUMPDEST POP JUMP JUMPDEST CALLER PUSH20 0xFFFFFFFFFFFFFFFFFFFFFFFFFFFFFFFFFFFFFFFF AND PUSH0 DUP1 SLOAD SWAP1 PUSH2 0x100 EXP SWAP1 DIV PUSH20 0xFFFFFFFFFFFFFFFFFFFFFFFFFFFFFFFFFFFFFFFF AND PUSH20 0xFFFFFFFFFFFFFFFFFFFFFFFFFFFFFFFFFFFFFFFF AND EQ PUSH2 0x146C JUMPI PUSH1 0x40 MLOAD PUSH32 0x8C379A000000000000000000000000000000000000000000000000000000000 DUP2 MSTORE PUSH1 0x4 ADD PUSH2 0x1463 SWAP1 PUSH2 0x1C41 JUMP JUMPDEST PUSH1 0x40 MLOAD DUP1 SWAP2 SUB SWAP1 REVERT JUMPDEST PUSH0 PUSH20 0xFFFFFFFFFFFFFFFFFFFFFFFFFFFFFFFFFFFFFFFF AND DUP2 PUSH20 0xFFFFFFFFFFFFFFFFFFFFFFFFFFFFFFFFFFFFFFFF AND SUB PUSH2 0x14DA JUMPI PUSH1 0x40 MLOAD PUSH32 0x8C379A000000000000000000000000000000000000000000000000000000000 DUP2 MSTORE PUSH1 0x4 ADD PUSH2 0x14D1 SWAP1 PUSH2 0x22AB JUMP JUMPDEST PUSH1 0x40 MLOAD DUP1 SWAP2 SUB SWAP1 REVERT JUMPDEST DUP1 PUSH20 0xFFFFFFFFFFFFFFFFFFFFFFFFFFFFFFFFFFFFFFFF AND PUSH0 DUP1 SLOAD SWAP1 PUSH2 0x100 EXP SWAP1 DIV PUSH20 0xFFFFFFFFFFFFFFFFFFFFFFFFFFFFFFFFFFFFFFFF AND PUSH20 0xFFFFFFFFFFFFFFFFFFFFFFFFFFFFFFFFFFFFFFFF AND PUSH32 0x8BE0079C531659141344CD1FD0A4F28419497F9722A3DAAFE3B4186F6B6457E0 PUSH1 0x40 MLOAD PUSH1 0x40 MLOAD DUP1 SWAP2 SUB SWAP1 LOG3 DUP1 PUSH0 DUP1 PUSH2 0x100 EXP DUP2 SLOAD DUP2 PUSH20 0xFFFFFFFFFFFFFFFFFFFFFFFFFFFFFFFFFFFFFFFF MUL NOT AND SWAP1 DUP4 PUSH20 0xFFFFFFFFFFFFFFFFFFFFFFFFFFFFFFFFFFFFFFFF AND MUL OR SWAP1 SSTORE POP POP JUMP JUMPDEST PUSH0 DUP1 DUP3 DUP5 PUSH2 0x15A3 SWAP2 SWAP1 PUSH2 0x22F6 JUMP JUMPDEST SWAP1 POP DUP4 DUP2 LT ISZERO PUSH2 0x15E8 JUMPI PUSH1 0x40 MLOAD PUSH32 0x8C379A000000000000000000000000000000000000000000000000000000000 DUP2 MSTORE PUSH1 0x4 ADD PUSH2 0x15DF SWAP1 PUSH2 0x2373 JUMP JUMPDEST PUSH1 0x40 MLOAD DUP1 SWAP2 SUB SWAP1 REVERT JUMPDEST DUP1 SWAP2 POP POP SWAP3 SWAP2 POP POP JUMP JUMPDEST PUSH1 0x40 MLOAD DUP1 PUSH1 0xE0 ADD PUSH1 0x40 MSTORE DUP1 PUSH0 DUP2 MSTORE PUSH1 0x20 ADD PUSH1 0x60 DUP2 MSTORE PUSH1 0x20 ADD PUSH0 DUP2 MSTORE PUSH1 0x20 ADD PUSH0 DUP2 MSTORE PUSH1 0x20 ADD PUSH0 PUSH20 0xFFFFFFFFFFFFFFFFFFFFFFFFFFFFFFFFFFFFFFFF AND DUP2 MSTORE PUSH1 0x20 ADD PUSH0 PUSH20 0xFFFFFFFFFFFFFFFFFFFFFFFFFFFFFFFFFFFFFFFF AND DUP2 MSTORE PUSH1 0x20 ADD PUSH0 DUP2 MSTORE POP SWAP1 JUMP JUMPDEST PUSH0 PUSH1 0x40 MLOAD SWAP1 POP SWAP1 JUMP JUMPDEST PUSH0 DUP1 REVERT JUMPDEST PUSH0 DUP1 REVERT JUMPDEST PUSH0 PUSH20 0xFFFFFFFFFFFFFFFFFFFFFFFFFFFFFFFFFFFFFFFF DUP3 AND SWAP1 POP SWAP2 SWAP1 POP JUMP JUMPDEST PUSH0 PUSH2 0x168F DUP3 PUSH2 0x1666 JUMP JUMPDEST SWAP1 POP SWAP2 SWAP1 POP JUMP JUMPDEST PUSH2 0x169F DUP2 PUSH2 0x1685 JUMP JUMPDEST DUP2 EQ PUSH2 0x16A9 JUMPI PUSH0 DUP1 REVERT JUMPDEST POP JUMP JUMPDEST PUSH0 DUP2 CALLDATALOAD SWAP1 POP PUSH2 0x16BA DUP2 PUSH2 0x1696 JUMP JUMPDEST SWAP3 SWAP2 POP POP JUMP JUMPDEST PUSH0 PUSH1 0x20 DUP3 DUP5 SUB SLT ISZERO PUSH2 0x16D5 JUMPI PUSH2 0x16D4 PUSH2 0x165E JUMP JUMPDEST JUMPDEST PUSH0 PUSH2 0x16E2 DUP5 DUP3 DUP6 ADD PUSH2 0x16AC JUMP JUMPDEST SWAP2 POP POP SWAP3 SWAP2 POP POP JUMP JUMPDEST PUSH0 DUP2 SWAP1 POP SWAP2 SWAP1 POP JUMP JUMPDEST PUSH2 0x16FD DUP2 PUSH2 0x16EB JUMP JUMPDEST DUP2 EQ PUSH2 0x1707 JUMPI PUSH0 DUP1 REVERT JUMPDEST POP JUMP JUMPDEST PUSH0 DUP2 CALLDATALOAD SWAP1 POP PUSH2 0x1718 DUP2 PUSH2 0x16F4 JUMP JUMPDEST SWAP3 SWAP2 POP POP JUMP JUMPDEST PUSH0 DUP1 PUSH1 0x40 DUP4 DUP6 SUB SLT ISZERO PUSH2 0x1734 JUMPI PUSH2 0x1733 PUSH2 0x165E JUMP JUMPDEST JUMPDEST PUSH0 PUSH2 0x1741 DUP6 DUP3 DUP7 ADD PUSH2 0x16AC JUMP JUMPDEST SWAP3 POP POP PUSH1 0x20 PUSH2 0x1752 DUP6 DUP3 DUP7 ADD PUSH2 0x170A JUMP JUMPDEST SWAP2 POP POP SWAP3 POP SWAP3 SWAP1 POP JUMP JUMPDEST PUSH0 DUP2 ISZERO ISZERO SWAP1 POP SWAP2 SWAP1 POP JUMP JUMPDEST PUSH2 0x1770 DUP2 PUSH2 0x175C JUMP JUMPDEST DUP3 MSTORE POP POP JUMP JUMPDEST PUSH0 PUSH1 0x20 DUP3 ADD SWAP1 POP PUSH2 0x1789 PUSH0 DUP4 ADD DUP5 PUSH2 0x1767 JUMP JUMPDEST SWAP3 SWAP2 POP POP JUMP JUMPDEST PUSH2 0x1798 DUP2 PUSH2 0x16EB JUMP JUMPDEST DUP3 MSTORE POP POP JUMP JUMPDEST PUSH0 PUSH1 0x20 DUP3 ADD SWAP1 POP PUSH2 0x17B1 PUSH0 DUP4 ADD DUP5 PUSH2 0x178F JUMP JUMPDEST SWAP3 SWAP2 POP POP JUMP JUMPDEST PUSH0 PUSH1 0x20 DUP3 DUP5 SUB SLT ISZERO PUSH2 0x17CC JUMPI PUSH2 0x17CB PUSH2 0x165E JUMP JUMPDEST JUMPDEST PUSH0 PUSH2 0x17D9 DUP5 DUP3 DUP6 ADD PUSH2 0x170A JUMP JUMPDEST SWAP2 POP POP SWAP3 SWAP2 POP POP JUMP JUMPDEST PUSH2 0x17EB DUP2 PUSH2 0x16EB JUMP JUMPDEST DUP3 MSTORE POP POP JUMP JUMPDEST PUSH0 DUP2 MLOAD SWAP1 POP SWAP2 SWAP1 POP JUMP JUMPDEST PUSH0 DUP3 DUP3 MSTORE PUSH1 0x20 DUP3 ADD SWAP1 POP SWAP3 SWAP2 POP POP JUMP JUMPDEST DUP3 DUP2 DUP4 MCOPY PUSH0 DUP4 DUP4 ADD MSTORE POP POP POP JUMP JUMPDEST PUSH0 PUSH1 0x1F NOT PUSH1 0x1F DUP4 ADD AND SWAP1 POP SWAP2 SWAP1 POP JUMP JUMPDEST PUSH0 PUSH2 0x1833 DUP3 PUSH2 0x17F1 JUMP JUMPDEST PUSH2 0x183D DUP2 DUP6 PUSH2 0x17FB JUMP JUMPDEST SWAP4 POP PUSH2 0x184D DUP2 DUP6 PUSH1 0x20 DUP7 ADD PUSH2 0x180B JUMP JUMPDEST PUSH2 0x1856 DUP2 PUSH2 0x1819 JUMP JUMPDEST DUP5 ADD SWAP2 POP POP SWAP3 SWAP2 POP POP JUMP JUMPDEST PUSH2 0x186A DUP2 PUSH2 0x1685 JUMP JUMPDEST DUP3 MSTORE POP POP JUMP JUMPDEST PUSH0 PUSH1 0xE0 DUP4 ADD PUSH0 DUP4 ADD MLOAD PUSH2 0x1885 PUSH0 DUP7 ADD DUP3 PUSH2 0x17E2 JUMP JUMPDEST POP PUSH1 0x20 DUP4 ADD MLOAD DUP5 DUP3 SUB PUSH1 0x20 DUP7 ADD MSTORE PUSH2 0x189D DUP3 DUP3 PUSH2 0x1829 JUMP JUMPDEST SWAP2 POP POP PUSH1 0x40 DUP4 ADD MLOAD PUSH2 0x18B2 PUSH1 0x40 DUP7 ADD DUP3 PUSH2 0x17E2 JUMP JUMPDEST POP PUSH1 0x60 DUP4 ADD MLOAD PUSH2 0x18C5 PUSH1 0x60 DUP7 ADD DUP3 PUSH2 0x17E2 JUMP JUMPDEST POP PUSH1 0x80 DUP4 ADD MLOAD PUSH2 0x18D8 PUSH1 0x80 DUP7 ADD DUP3 PUSH2 0x1861 JUMP JUMPDEST POP PUSH1 0xA0 DUP4 ADD MLOAD PUSH2 0x18EB PUSH1 0xA0 DUP7 ADD DUP3 PUSH2 0x1861 JUMP JUMPDEST POP PUSH1 0xC0 DUP4 ADD MLOAD PUSH2 0x18FE PUSH1 0xC0 DUP7 ADD DUP3 PUSH2 0x17E2 JUMP JUMPDEST POP DUP1 SWAP2 POP POP SWAP3 SWAP2 POP POP JUMP JUMPDEST PUSH0 PUSH1 0x20 DUP3 ADD SWAP1 POP DUP2 DUP2 SUB PUSH0 DUP4 ADD MSTORE PUSH2 0x1921 DUP2 DUP5 PUSH2 0x1870 JUMP JUMPDEST SWAP1 POP SWAP3 SWAP2 POP POP JUMP JUMPDEST PUSH0 DUP1 REVERT JUMPDEST PUSH0 DUP1 REVERT JUMPDEST PUSH32 0x4E487B7100000000000000000000000000000000000000000000000000000000 PUSH0 MSTORE PUSH1 0x41 PUSH1 0x4 MSTORE PUSH1 0x24 PUSH0 REVERT JUMPDEST PUSH2 0x1967 DUP3 PUSH2 0x1819 JUMP JUMPDEST DUP2 ADD DUP2 DUP2 LT PUSH8 0xFFFFFFFFFFFFFFFF DUP3 GT OR ISZERO PUSH2 0x1986 JUMPI PUSH2 0x1985 PUSH2 0x1931 JUMP JUMPDEST JUMPDEST DUP1 PUSH1 0x40 MSTORE POP POP POP JUMP JUMPDEST PUSH0 PUSH2 0x1998 PUSH2 0x1655 JUMP JUMPDEST SWAP1 POP PUSH2 0x19A4 DUP3 DUP3 PUSH2 0x195E JUMP JUMPDEST SWAP2 SWAP1 POP JUMP JUMPDEST PUSH0 PUSH8 0xFFFFFFFFFFFFFFFF DUP3 GT ISZERO PUSH2 0x19C3 JUMPI PUSH2 0x19C2 PUSH2 0x1931 JUMP JUMPDEST JUMPDEST PUSH2 0x19CC DUP3 PUSH2 0x1819 JUMP JUMPDEST SWAP1 POP PUSH1 0x20 DUP2 ADD SWAP1 POP SWAP2 SWAP1 POP JUMP JUMPDEST DUP3 DUP2 DUP4 CALLDATACOPY PUSH0 DUP4 DUP4 ADD MSTORE POP POP POP JUMP JUMPDEST PUSH0 PUSH2 0x19F9 PUSH2 0x19F4 DUP5 PUSH2 0x19A9 JUMP JUMPDEST PUSH2 0x198F JUMP JUMPDEST SWAP1 POP DUP3 DUP2 MSTORE PUSH1 0x20 DUP2 ADD DUP5 DUP5 DUP5 ADD GT ISZERO PUSH2 0x1A15 JUMPI PUSH2 0x1A14 PUSH2 0x192D JUMP JUMPDEST JUMPDEST PUSH2 0x1A20 DUP5 DUP3 DUP6 PUSH2 0x19D9 JUMP JUMPDEST POP SWAP4 SWAP3 POP POP POP JUMP JUMPDEST PUSH0 DUP3 PUSH1 0x1F DUP4 ADD SLT PUSH2 0x1A3C JUMPI PUSH2 0x1A3B PUSH2 0x1929 JUMP JUMPDEST JUMPDEST DUP2 CALLDATALOAD PUSH2 0x1A4C DUP5 DUP3 PUSH1 0x20 DUP7 ADD PUSH2 0x19E7 JUMP JUMPDEST SWAP2 POP POP SWAP3 SWAP2 POP POP JUMP JUMPDEST PUSH0 DUP1 PUSH0 DUP1 PUSH1 0x80 DUP6 DUP8 SUB SLT ISZERO PUSH2 0x1A6D JUMPI PUSH2 0x1A6C PUSH2 0x165E JUMP JUMPDEST JUMPDEST PUSH0 DUP6 ADD CALLDATALOAD PUSH8 0xFFFFFFFFFFFFFFFF DUP2 GT ISZERO PUSH2 0x1A8A JUMPI PUSH2 0x1A89 PUSH2 0x1662 JUMP JUMPDEST JUMPDEST PUSH2 0x1A96 DUP8 DUP3 DUP9 ADD PUSH2 0x1A28 JUMP JUMPDEST SWAP5 POP POP PUSH1 0x20 PUSH2 0x1AA7 DUP8 DUP3 DUP9 ADD PUSH2 0x170A JUMP JUMPDEST SWAP4 POP POP PUSH1 0x40 PUSH2 0x1AB8 DUP8 DUP3 DUP9 ADD PUSH2 0x170A JUMP JUMPDEST SWAP3 POP POP PUSH1 0x60 PUSH2 0x1AC9 DUP8 DUP3 DUP9 ADD PUSH2 0x16AC JUMP JUMPDEST SWAP2 POP POP SWAP3 SWAP6 SWAP2 SWAP5 POP SWAP3 POP JUMP JUMPDEST PUSH0 DUP3 DUP3 MSTORE PUSH1 0x20 DUP3 ADD SWAP1 POP SWAP3 SWAP2 POP POP JUMP JUMPDEST PUSH0 PUSH2 0x1AEF DUP3 PUSH2 0x17F1 JUMP JUMPDEST PUSH2 0x1AF9 DUP2 DUP6 PUSH2 0x1AD5 JUMP JUMPDEST SWAP4 POP PUSH2 0x1B09 DUP2 DUP6 PUSH1 0x20 DUP7 ADD PUSH2 0x180B JUMP JUMPDEST PUSH2 0x1B12 DUP2 PUSH2 0x1819 JUMP JUMPDEST DUP5 ADD SWAP2 POP POP SWAP3 SWAP2 POP POP JUMP JUMPDEST PUSH2 0x1B26 DUP2 PUSH2 0x1685 JUMP JUMPDEST DUP3 MSTORE POP POP JUMP JUMPDEST PUSH0 PUSH1 0xE0 DUP3 ADD SWAP1 POP PUSH2 0x1B3F PUSH0 DUP4 ADD DUP11 PUSH2 0x178F JUMP JUMPDEST DUP2 DUP2 SUB PUSH1 0x20 DUP4 ADD MSTORE PUSH2 0x1B51 DUP2 DUP10 PUSH2 0x1AE5 JUMP JUMPDEST SWAP1 POP PUSH2 0x1B60 PUSH1 0x40 DUP4 ADD DUP9 PUSH2 0x178F JUMP JUMPDEST PUSH2 0x1B6D PUSH1 0x60 DUP4 ADD DUP8 PUSH2 0x178F JUMP JUMPDEST PUSH2 0x1B7A PUSH1 0x80 DUP4 ADD DUP7 PUSH2 0x1B1D JUMP JUMPDEST PUSH2 0x1B87 PUSH1 0xA0 DUP4 ADD DUP6 PUSH2 0x1B1D JUMP JUMPDEST PUSH2 0x1B94 PUSH1 0xC0 DUP4 ADD DUP5 PUSH2 0x178F JUMP JUMPDEST SWAP9 SWAP8 POP POP POP POP POP POP POP POP JUMP JUMPDEST PUSH0 DUP1 PUSH1 0x40 DUP4 DUP6 SUB SLT ISZERO PUSH2 0x1BB6 JUMPI PUSH2 0x1BB5 PUSH2 0x165E JUMP JUMPDEST JUMPDEST PUSH0 PUSH2 0x1BC3 DUP6 DUP3 DUP7 ADD PUSH2 0x170A JUMP JUMPDEST SWAP3 POP POP PUSH1 0x20 PUSH2 0x1BD4 DUP6 DUP3 DUP7 ADD PUSH2 0x16AC JUMP JUMPDEST SWAP2 POP POP SWAP3 POP SWAP3 SWAP1 POP JUMP JUMPDEST PUSH0 PUSH1 0x20 DUP3 ADD SWAP1 POP PUSH2 0x1BF1 PUSH0 DUP4 ADD DUP5 PUSH2 0x1B1D JUMP JUMPDEST SWAP3 SWAP2 POP POP JUMP JUMPDEST PUSH32 0x4F776E61626C653A2063616C6C6572206973206E6F7420746865206F776E6572 PUSH0 DUP3 ADD MSTORE POP JUMP JUMPDEST PUSH0 PUSH2 0x1C2B PUSH1 0x20 DUP4 PUSH2 0x1AD5 JUMP JUMPDEST SWAP2 POP PUSH2 0x1C36 DUP3 PUSH2 0x1BF7 JUMP JUMPDEST PUSH1 0x20 DUP3 ADD SWAP1 POP SWAP2 SWAP1 POP JUMP JUMPDEST PUSH0 PUSH1 0x20 DUP3 ADD SWAP1 POP DUP2 DUP2 SUB PUSH0 DUP4 ADD MSTORE PUSH2 0x1C58 DUP2 PUSH2 0x1C1F JUMP JUMPDEST SWAP1 POP SWAP2 SWAP1 POP JUMP JUMPDEST PUSH32 0x57686974656C6973744D616E616765723A206164647265737320697320746865 PUSH0 DUP3 ADD MSTORE PUSH32 0x207A65726F206164647265737300000000000000000000000000000000000000 PUSH1 0x20 DUP3 ADD MSTORE POP JUMP JUMPDEST PUSH0 PUSH2 0x1CB9 PUSH1 0x2D DUP4 PUSH2 0x1AD5 JUMP JUMPDEST SWAP2 POP PUSH2 0x1CC4 DUP3 PUSH2 0x1C5F JUMP JUMPDEST PUSH1 0x40 DUP3 ADD SWAP1 POP SWAP2 SWAP1 POP JUMP JUMPDEST PUSH0 PUSH1 0x20 DUP3 ADD SWAP1 POP DUP2 DUP2 SUB PUSH0 DUP4 ADD MSTORE PUSH2 0x1CE6 DUP2 PUSH2 0x1CAD JUMP JUMPDEST SWAP1 POP SWAP2 SWAP1 POP JUMP JUMPDEST PUSH32 0x50726F647563744D616E616765723A20696E76616C69642070726F6475637420 PUSH0 DUP3 ADD MSTORE PUSH32 0x4944000000000000000000000000000000000000000000000000000000000000 PUSH1 0x20 DUP3 ADD MSTORE POP JUMP JUMPDEST PUSH0 PUSH2 0x1D47 PUSH1 0x22 DUP4 PUSH2 0x1AD5 JUMP JUMPDEST SWAP2 POP PUSH2 0x1D52 DUP3 PUSH2 0x1CED JUMP JUMPDEST PUSH1 0x40 DUP3 ADD SWAP1 POP SWAP2 SWAP1 POP JUMP JUMPDEST PUSH0 PUSH1 0x20 DUP3 ADD SWAP1 POP DUP2 DUP2 SUB PUSH0 DUP4 ADD MSTORE PUSH2 0x1D74 DUP2 PUSH2 0x1D3B JUMP JUMPDEST SWAP1 POP SWAP2 SWAP1 POP JUMP JUMPDEST PUSH32 0x4E487B7100000000000000000000000000000000000000000000000000000000 PUSH0 MSTORE PUSH1 0x32 PUSH1 0x4 MSTORE PUSH1 0x24 PUSH0 REVERT JUMPDEST PUSH32 0x4E487B7100000000000000000000000000000000000000000000000000000000 PUSH0 MSTORE PUSH1 0x22 PUSH1 0x4 MSTORE PUSH1 0x24 PUSH0 REVERT JUMPDEST PUSH0 PUSH1 0x2 DUP3 DIV SWAP1 POP PUSH1 0x1 DUP3 AND DUP1 PUSH2 0x1DEC JUMPI PUSH1 0x7F DUP3 AND SWAP2 POP JUMPDEST PUSH1 0x20 DUP3 LT DUP2 SUB PUSH2 0x1DFF JUMPI PUSH2 0x1DFE PUSH2 0x1DA8 JUMP JUMPDEST JUMPDEST POP SWAP2 SWAP1 POP JUMP JUMPDEST PUSH0 DUP2 SWAP1 POP DUP2 PUSH0 MSTORE PUSH1 0x20 PUSH0 KECCAK256 SWAP1 POP SWAP2 SWAP1 POP JUMP JUMPDEST PUSH0 PUSH1 0x20 PUSH1 0x1F DUP4 ADD DIV SWAP1 POP SWAP2 SWAP1 POP JUMP JUMPDEST PUSH0 DUP3 DUP3 SHL SWAP1 POP SWAP3 SWAP2 POP POP JUMP JUMPDEST PUSH0 PUSH1 0x8 DUP4 MUL PUSH2 0x1E61 PUSH32 0xFFFFFFFFFFFFFFFFFFFFFFFFFFFFFFFFFFFFFFFFFFFFFFFFFFFFFFFFFFFFFFFF DUP3 PUSH2 0x1E26 JUMP JUMPDEST PUSH2 0x1E6B DUP7 DUP4 PUSH2 0x1E26 JUMP JUMPDEST SWAP6 POP DUP1 NOT DUP5 AND SWAP4 POP DUP1 DUP7 AND DUP5 OR SWAP3 POP POP POP SWAP4 SWAP3 POP POP POP JUMP JUMPDEST PUSH0 DUP2 SWAP1 POP SWAP2 SWAP1 POP JUMP JUMPDEST PUSH0 PUSH2 0x1EA6 PUSH2 0x1EA1 PUSH2 0x1E9C DUP5 PUSH2 0x16EB JUMP JUMPDEST PUSH2 0x1E83 JUMP JUMPDEST PUSH2 0x16EB JUMP JUMPDEST SWAP1 POP SWAP2 SWAP1 POP JUMP JUMPDEST PUSH0 DUP2 SWAP1 POP SWAP2 SWAP1 POP JUMP JUMPDEST PUSH2 0x1EBF DUP4 PUSH2 0x1E8C JUMP JUMPDEST PUSH2 0x1ED3 PUSH2 0x1ECB DUP3 PUSH2 0x1EAD JUMP JUMPDEST DUP5 DUP5 SLOAD PUSH2 0x1E32 JUMP JUMPDEST DUP3 SSTORE POP POP POP POP JUMP JUMPDEST PUSH0 SWAP1 JUMP JUMPDEST PUSH2 0x1EE7 PUSH2 0x1EDB JUMP JUMPDEST PUSH2 0x1EF2 DUP2 DUP5 DUP5 PUSH2 0x1EB6 JUMP JUMPDEST POP POP POP JUMP JUMPDEST JUMPDEST DUP2 DUP2 LT ISZERO PUSH2 0x1F15 JUMPI PUSH2 0x1F0A PUSH0 DUP3 PUSH2 0x1EDF JUMP JUMPDEST PUSH1 0x1 DUP2 ADD SWAP1 POP PUSH2 0x1EF8 JUMP JUMPDEST POP POP JUMP JUMPDEST PUSH1 0x1F DUP3 GT ISZERO PUSH2 0x1F5A JUMPI PUSH2 0x1F2B DUP2 PUSH2 0x1E05 JUMP JUMPDEST PUSH2 0x1F34 DUP5 PUSH2 0x1E17 JUMP JUMPDEST DUP2 ADD PUSH1 0x20 DUP6 LT ISZERO PUSH2 0x1F43 JUMPI DUP2 SWAP1 POP JUMPDEST PUSH2 0x1F57 PUSH2 0x1F4F DUP6 PUSH2 0x1E17 JUMP JUMPDEST DUP4 ADD DUP3 PUSH2 0x1EF7 JUMP JUMPDEST POP POP JUMPDEST POP POP POP JUMP JUMPDEST PUSH0 DUP3 DUP3 SHR SWAP1 POP SWAP3 SWAP2 POP POP JUMP JUMPDEST PUSH0 PUSH2 0x1F7A PUSH0 NOT DUP5 PUSH1 0x8 MUL PUSH2 0x1F5F JUMP JUMPDEST NOT DUP1 DUP4 AND SWAP2 POP POP SWAP3 SWAP2 POP POP JUMP JUMPDEST PUSH0 PUSH2 0x1F92 DUP4 DUP4 PUSH2 0x1F6B JUMP JUMPDEST SWAP2 POP DUP3 PUSH1 0x2 MUL DUP3 OR SWAP1 POP SWAP3 SWAP2 POP POP JUMP JUMPDEST PUSH2 0x1FAB DUP3 PUSH2 0x17F1 JUMP JUMPDEST PUSH8 0xFFFFFFFFFFFFFFFF DUP2 GT ISZERO PUSH2 0x1FC4 JUMPI PUSH2 0x1FC3 PUSH2 0x1931 JUMP JUMPDEST JUMPDEST PUSH2 0x1FCE DUP3 SLOAD PUSH2 0x1DD5 JUMP JUMPDEST PUSH2 0x1FD9 DUP3 DUP3 DUP6 PUSH2 0x1F19 JUMP JUMPDEST PUSH0 PUSH1 0x20 SWAP1 POP PUSH1 0x1F DUP4 GT PUSH1 0x1 DUP2 EQ PUSH2 0x200A JUMPI PUSH0 DUP5 ISZERO PUSH2 0x1FF8 JUMPI DUP3 DUP8 ADD MLOAD SWAP1 POP JUMPDEST PUSH2 0x2002 DUP6 DUP3 PUSH2 0x1F87 JUMP JUMPDEST DUP7 SSTORE POP PUSH2 0x2069 JUMP JUMPDEST PUSH1 0x1F NOT DUP5 AND PUSH2 0x2018 DUP7 PUSH2 0x1E05 JUMP JUMPDEST PUSH0 JUMPDEST DUP3 DUP2 LT ISZERO PUSH2 0x203F JUMPI DUP5 DUP10 ADD MLOAD DUP3 SSTORE PUSH1 0x1 DUP3 ADD SWAP2 POP PUSH1 0x20 DUP6 ADD SWAP5 POP PUSH1 0x20 DUP2 ADD SWAP1 POP PUSH2 0x201A JUMP JUMPDEST DUP7 DUP4 LT ISZERO PUSH2 0x205C JUMPI DUP5 DUP10 ADD MLOAD PUSH2 0x2058 PUSH1 0x1F DUP10 AND DUP3 PUSH2 0x1F6B JUMP JUMPDEST DUP4 SSTORE POP JUMPDEST PUSH1 0x1 PUSH1 0x2 DUP9 MUL ADD DUP9 SSTORE POP POP POP JUMPDEST POP POP POP POP POP POP JUMP JUMPDEST PUSH0 PUSH1 0x20 DUP3 ADD SWAP1 POP DUP2 DUP2 SUB PUSH0 DUP4 ADD MSTORE PUSH2 0x2089 DUP2 DUP5 PUSH2 0x1AE5 JUMP JUMPDEST SWAP1 POP SWAP3 SWAP2 POP POP JUMP JUMPDEST PUSH32 0x50726F647563744D616E616765723A2063616C6C6572206973206E6F74207468 PUSH0 DUP3 ADD MSTORE PUSH32 0x652063757272656E74206F776E65720000000000000000000000000000000000 PUSH1 0x20 DUP3 ADD MSTORE POP JUMP JUMPDEST PUSH0 PUSH2 0x20EB PUSH1 0x2F DUP4 PUSH2 0x1AD5 JUMP JUMPDEST SWAP2 POP PUSH2 0x20F6 DUP3 PUSH2 0x2091 JUMP JUMPDEST PUSH1 0x40 DUP3 ADD SWAP1 POP SWAP2 SWAP1 POP JUMP JUMPDEST PUSH0 PUSH1 0x20 DUP3 ADD SWAP1 POP DUP2 DUP2 SUB PUSH0 DUP4 ADD MSTORE PUSH2 0x2118 DUP2 PUSH2 0x20DF JUMP JUMPDEST SWAP1 POP SWAP2 SWAP1 POP JUMP JUMPDEST PUSH32 0x4D61696E436F6E74726163743A204D616E756661637475726572206D75737420 PUSH0 DUP3 ADD MSTORE PUSH32 0x62652077686974656C6973746564000000000000000000000000000000000000 PUSH1 0x20 DUP3 ADD MSTORE POP JUMP JUMPDEST PUSH0 PUSH2 0x2179 PUSH1 0x2E DUP4 PUSH2 0x1AD5 JUMP JUMPDEST SWAP2 POP PUSH2 0x2184 DUP3 PUSH2 0x211F JUMP JUMPDEST PUSH1 0x40 DUP3 ADD SWAP1 POP SWAP2 SWAP1 POP JUMP JUMPDEST PUSH0 PUSH1 0x20 DUP3 ADD SWAP1 POP DUP2 DUP2 SUB PUSH0 DUP4 ADD MSTORE PUSH2 0x21A6 DUP2 PUSH2 0x216D JUMP JUMPDEST SWAP1 POP SWAP2 SWAP1 POP JUMP JUMPDEST PUSH32 0x4D61696E436F6E74726163743A204E6577206F776E6572206D75737420626520 PUSH0 DUP3 ADD MSTORE PUSH32 0x77686974656C6973746564000000000000000000000000000000000000000000 PUSH1 0x20 DUP3 ADD MSTORE POP JUMP JUMPDEST PUSH0 PUSH2 0x2207 PUSH1 0x2B DUP4 PUSH2 0x1AD5 JUMP JUMPDEST SWAP2 POP PUSH2 0x2212 DUP3 PUSH2 0x21AD JUMP JUMPDEST PUSH1 0x40 DUP3 ADD SWAP1 POP SWAP2 SWAP1 POP JUMP JUMPDEST PUSH0 PUSH1 0x20 DUP3 ADD SWAP1 POP DUP2 DUP2 SUB PUSH0 DUP4 ADD MSTORE PUSH2 0x2234 DUP2 PUSH2 0x21FB JUMP JUMPDEST SWAP1 POP SWAP2 SWAP1 POP JUMP JUMPDEST PUSH32 0x4F776E61626C653A206E6577206F776E657220697320746865207A65726F2061 PUSH0 DUP3 ADD MSTORE PUSH32 0x6464726573730000000000000000000000000000000000000000000000000000 PUSH1 0x20 DUP3 ADD MSTORE POP JUMP JUMPDEST PUSH0 PUSH2 0x2295 PUSH1 0x26 DUP4 PUSH2 0x1AD5 JUMP JUMPDEST SWAP2 POP PUSH2 0x22A0 DUP3 PUSH2 0x223B JUMP JUMPDEST PUSH1 0x40 DUP3 ADD SWAP1 POP SWAP2 SWAP1 POP JUMP JUMPDEST PUSH0 PUSH1 0x20 DUP3 ADD SWAP1 POP DUP2 DUP2 SUB PUSH0 DUP4 ADD MSTORE PUSH2 0x22C2 DUP2 PUSH2 0x2289 JUMP JUMPDEST SWAP1 POP SWAP2 SWAP1 POP JUMP JUMPDEST PUSH32 0x4E487B7100000000000000000000000000000000000000000000000000000000 PUSH0 MSTORE PUSH1 0x11 PUSH1 0x4 MSTORE PUSH1 0x24 PUSH0 REVERT JUMPDEST PUSH0 PUSH2 0x2300 DUP3 PUSH2 0x16EB JUMP JUMPDEST SWAP2 POP PUSH2 0x230B DUP4 PUSH2 0x16EB JUMP JUMPDEST SWAP3 POP DUP3 DUP3 ADD SWAP1 POP DUP1 DUP3 GT ISZERO PUSH2 0x2323 JUMPI PUSH2 0x2322 PUSH2 0x22C9 JUMP JUMPDEST JUMPDEST SWAP3 SWAP2 POP POP JUMP JUMPDEST PUSH32 0x536166654D6174683A206164646974696F6E206F766572666C6F770000000000 PUSH0 DUP3 ADD MSTORE POP JUMP JUMPDEST PUSH0 PUSH2 0x235D PUSH1 0x1B DUP4 PUSH2 0x1AD5 JUMP JUMPDEST SWAP2 POP PUSH2 0x2368 DUP3 PUSH2 0x2329 JUMP JUMPDEST PUSH1 0x20 DUP3 ADD SWAP1 POP SWAP2 SWAP1 POP JUMP JUMPDEST PUSH0 PUSH1 0x20 DUP3 ADD SWAP1 POP DUP2 DUP2 SUB PUSH0 DUP4 ADD MSTORE PUSH2 0x238A DUP2 PUSH2 0x2351 JUMP JUMPDEST SWAP1 POP SWAP2 SWAP1 POP JUMP INVALID LOG2 PUSH5 0x6970667358 0x22 SLT KECCAK256 SWAP7 ADDMOD 0xC2 SWAP6 0xC8 0x24 0xDB 0xC0 PUSH3 0x504AA6 0xE6 0x28 0xEC 0xEE 0x4B 0x28 0xCB 0x2C PC 0xC0 0xAF REVERT 0xBF DUP5 DUP12 CALLCODE SWAP3 0xB9 MULMOD 0x27 PUSH5 0x736F6C6343 STOP ADDMOD NOT STOP CALLER "
				},
				"gasEstimates": {
					"creation": {
						"codeDepositCost": "1831800",
						"executionCost": "32752",
						"totalCost": "1864552"
					},
					"external": {
						"addAddressToWhitelist(address)": "28275",
						"addToWhitelist(address)": "30447",
						"assignRole(address,uint256)": "26573",
						"assignUserRole(address,uint256)": "28772",
						"createNewProduct(string,uint256,uint256,address)": "infinite",
						"createProduct(string,uint256,uint256,address)": "infinite",
						"getProductDetails(uint256)": "infinite",
						"isWhitelisted(address)": "2938",
						"nextProductId()": "2515",
						"owner()": "2604",
						"products(uint256)": "infinite",
						"removeAddressFromWhitelist(address)": "28187",
						"removeFromWhitelist(address)": "30425",
						"revokeRole(address)": "11478",
						"revokeUserRole(address)": "13672",
						"roles(address)": "2913",
						"transferOwnership(address)": "30702",
						"transferProduct(uint256,address)": "64400",
						"transferProductOwnership(uint256,address)": "62063"
					}
				},
				"methodIdentifiers": {
					"addAddressToWhitelist(address)": "7b9417c8",
					"addToWhitelist(address)": "e43252d7",
					"assignRole(address,uint256)": "2e3036c7",
					"assignUserRole(address,uint256)": "6e53c7b9",
					"createNewProduct(string,uint256,uint256,address)": "dd9f09e4",
					"createProduct(string,uint256,uint256,address)": "72c60690",
					"getProductDetails(uint256)": "6813b53b",
					"isWhitelisted(address)": "3af32abf",
					"nextProductId()": "4de91a63",
					"owner()": "8da5cb5b",
					"products(uint256)": "7acc0b20",
					"removeAddressFromWhitelist(address)": "286dd3f5",
					"removeFromWhitelist(address)": "8ab1d681",
					"revokeRole(address)": "80e52e3f",
					"revokeUserRole(address)": "bd73b25d",
					"roles(address)": "99374642",
					"transferOwnership(address)": "f2fde38b",
					"transferProduct(uint256,address)": "e43059e5",
					"transferProductOwnership(uint256,address)": "86b0e812"
				}
			},
			"storageLayout": {
				"storage": [
					{
						"astId": 87,
						"contract": "contracts/mainContract.sol:MainContract",
						"label": "_owner",
						"offset": 0,
						"slot": "0",
						"type": "t_address"
					},
					{
						"astId": 443,
						"contract": "contracts/mainContract.sol:MainContract",
						"label": "_whitelist",
						"offset": 0,
						"slot": "1",
						"type": "t_mapping(t_address,t_bool)"
					},
					{
						"astId": 187,
						"contract": "contracts/mainContract.sol:MainContract",
						"label": "products",
						"offset": 0,
						"slot": "2",
						"type": "t_array(t_struct(Product)183_storage)dyn_storage"
					},
					{
						"astId": 189,
						"contract": "contracts/mainContract.sol:MainContract",
						"label": "nextProductId",
						"offset": 0,
						"slot": "3",
						"type": "t_uint256"
					},
					{
						"astId": 8,
						"contract": "contracts/mainContract.sol:MainContract",
						"label": "roles",
						"offset": 0,
						"slot": "4",
						"type": "t_mapping(t_address,t_uint256)"
					}
				],
				"types": {
					"t_address": {
						"encoding": "inplace",
						"label": "address",
						"numberOfBytes": "20"
					},
					"t_array(t_struct(Product)183_storage)dyn_storage": {
						"base": "t_struct(Product)183_storage",
						"encoding": "dynamic_array",
						"label": "struct ProductManager.Product[]",
						"numberOfBytes": "32"
					},
					"t_bool": {
						"encoding": "inplace",
						"label": "bool",
						"numberOfBytes": "1"
					},
					"t_mapping(t_address,t_bool)": {
						"encoding": "mapping",
						"key": "t_address",
						"label": "mapping(address => bool)",
						"numberOfBytes": "32",
						"value": "t_bool"
					},
					"t_mapping(t_address,t_uint256)": {
						"encoding": "mapping",
						"key": "t_address",
						"label": "mapping(address => uint256)",
						"numberOfBytes": "32",
						"value": "t_uint256"
					},
					"t_string_storage": {
						"encoding": "bytes",
						"label": "string",
						"numberOfBytes": "32"
					},
					"t_struct(Product)183_storage": {
						"encoding": "inplace",
						"label": "struct ProductManager.Product",
						"members": [
							{
								"astId": 170,
								"contract": "contracts/mainContract.sol:MainContract",
								"label": "id",
								"offset": 0,
								"slot": "0",
								"type": "t_uint256"
							},
							{
								"astId": 172,
								"contract": "contracts/mainContract.sol:MainContract",
								"label": "name",
								"offset": 0,
								"slot": "1",
								"type": "t_string_storage"
							},
							{
								"astId": 174,
								"contract": "contracts/mainContract.sol:MainContract",
								"label": "lotNumber",
								"offset": 0,
								"slot": "2",
								"type": "t_uint256"
							},
							{
								"astId": 176,
								"contract": "contracts/mainContract.sol:MainContract",
								"label": "totalPerLot",
								"offset": 0,
								"slot": "3",
								"type": "t_uint256"
							},
							{
								"astId": 178,
								"contract": "contracts/mainContract.sol:MainContract",
								"label": "manufacturer",
								"offset": 0,
								"slot": "4",
								"type": "t_address"
							},
							{
								"astId": 180,
								"contract": "contracts/mainContract.sol:MainContract",
								"label": "currentOwner",
								"offset": 0,
								"slot": "5",
								"type": "t_address"
							},
							{
								"astId": 182,
								"contract": "contracts/mainContract.sol:MainContract",
								"label": "purchaseDate",
								"offset": 0,
								"slot": "6",
								"type": "t_uint256"
							}
						],
						"numberOfBytes": "224"
					},
					"t_uint256": {
						"encoding": "inplace",
						"label": "uint256",
						"numberOfBytes": "32"
					}
				}
			},
			"userdoc": {
				"kind": "user",
				"methods": {},
				"version": 1
			}
		}
	}
}